{
	"base.sol": {
		"MathModifier": {
			"abi": [
				{
					"inputs": [],
					"name": "exampleFunc",
					"outputs": [],
					"stateMutability": "nonpayable",
					"type": "function"
				},
				{
					"inputs": [
						{
							"internalType": "uint256",
							"name": "_x",
							"type": "uint256"
						}
					],
					"name": "summNumbers",
					"outputs": [],
					"stateMutability": "nonpayable",
					"type": "function"
				},
				{
					"inputs": [],
					"name": "value",
					"outputs": [
						{
							"internalType": "uint256",
							"name": "",
							"type": "uint256"
						}
					],
					"stateMutability": "view",
					"type": "function"
				},
				{
					"inputs": [],
					"name": "x",
					"outputs": [
						{
							"internalType": "uint256",
							"name": "",
							"type": "uint256"
						}
					],
					"stateMutability": "view",
					"type": "function"
				}
			],
			"devdoc": {
				"kind": "dev",
				"methods": {},
				"version": 1
			},
			"evm": {
				"assembly": "    /* \"base.sol\":2480:2954  contract MathModifier {... */\n  mstore(0x40, 0x80)\n    /* \"base.sol\":2532:2533  1 */\n  0x01\n    /* \"base.sol\":2509:2533  uint256 public value = 1 */\n  0x00\n  sstore\n    /* \"base.sol\":2559:2561  10 */\n  0x0a\n    /* \"base.sol\":2540:2561  uint256 public x = 10 */\n  0x01\n  sstore\n    /* \"base.sol\":2480:2954  contract MathModifier {... */\n  callvalue\n  dup1\n  iszero\n  tag_1\n  jumpi\n  revert(0x00, 0x00)\ntag_1:\n  pop\n  dataSize(sub_0)\n  dup1\n  dataOffset(sub_0)\n  0x00\n  codecopy\n  0x00\n  return\nstop\n\nsub_0: assembly {\n        /* \"base.sol\":2480:2954  contract MathModifier {... */\n      mstore(0x40, 0x80)\n      callvalue\n      dup1\n      iszero\n      tag_1\n      jumpi\n      revert(0x00, 0x00)\n    tag_1:\n      pop\n      jumpi(tag_2, lt(calldatasize, 0x04))\n      shr(0xe0, calldataload(0x00))\n      dup1\n      0x0c55699c\n      eq\n      tag_3\n      jumpi\n      dup1\n      0x34b28072\n      eq\n      tag_4\n      jumpi\n      dup1\n      0x3fa4f245\n      eq\n      tag_5\n      jumpi\n      dup1\n      0xb9c80e53\n      eq\n      tag_6\n      jumpi\n    tag_2:\n      revert(0x00, 0x00)\n        /* \"base.sol\":2540:2561  uint256 public x = 10 */\n    tag_3:\n      tag_7\n      tag_8\n      jump\t// in\n    tag_7:\n      mload(0x40)\n      tag_9\n      swap2\n      swap1\n      tag_10\n      jump\t// in\n    tag_9:\n      mload(0x40)\n      dup1\n      swap2\n      sub\n      swap1\n      return\n        /* \"base.sol\":2659:2726  function exampleFunc() public sandwich {... */\n    tag_4:\n      tag_11\n      tag_12\n      jump\t// in\n    tag_11:\n      stop\n        /* \"base.sol\":2509:2533  uint256 public value = 1 */\n    tag_5:\n      tag_13\n      tag_14\n      jump\t// in\n    tag_13:\n      mload(0x40)\n      tag_15\n      swap2\n      swap1\n      tag_10\n      jump\t// in\n    tag_15:\n      mload(0x40)\n      dup1\n      swap2\n      sub\n      swap1\n      return\n        /* \"base.sol\":2866:2949  function summNumbers(uint256 _x) public checker(_x) {... */\n    tag_6:\n      tag_16\n      0x04\n      dup1\n      calldatasize\n      sub\n      dup2\n      add\n      swap1\n      tag_17\n      swap2\n      swap1\n      tag_18\n      jump\t// in\n    tag_17:\n      tag_19\n      jump\t// in\n    tag_16:\n      stop\n        /* \"base.sol\":2540:2561  uint256 public x = 10 */\n    tag_8:\n      sload(0x01)\n      dup2\n      jump\t// out\n        /* \"base.sol\":2659:2726  function exampleFunc() public sandwich {... */\n    tag_12:\n        /* \"base.sol\":2610:2611  1 */\n      0x01\n        /* \"base.sol\":2601:2606  value */\n      0x00\n      0x00\n        /* \"base.sol\":2601:2611  value += 1 */\n      dup3\n      dup3\n      sload\n      tag_21\n      swap2\n      swap1\n      tag_22\n      jump\t// in\n    tag_21:\n      swap3\n      pop\n      pop\n      dup2\n      swap1\n      sstore\n      pop\n        /* \"base.sol\":2717:2718  2 */\n      0x02\n        /* \"base.sol\":2709:2714  value */\n      0x00\n      0x00\n        /* \"base.sol\":2709:2718  value *=2 */\n      dup3\n      dup3\n      sload\n      tag_24\n      swap2\n      swap1\n      tag_25\n      jump\t// in\n    tag_24:\n      swap3\n      pop\n      pop\n      dup2\n      swap1\n      sstore\n      pop\n        /* \"base.sol\":2642:2643  2 */\n      0x02\n        /* \"base.sol\":2634:2639  value */\n      0x00\n      0x00\n        /* \"base.sol\":2634:2643  value +=2 */\n      dup3\n      dup3\n      sload\n      tag_26\n      swap2\n      swap1\n      tag_22\n      jump\t// in\n    tag_26:\n      swap3\n      pop\n      pop\n      dup2\n      swap1\n      sstore\n      pop\n        /* \"base.sol\":2659:2726  function exampleFunc() public sandwich {... */\n      jump\t// out\n        /* \"base.sol\":2509:2533  uint256 public value = 1 */\n    tag_14:\n      sload(0x00)\n      dup2\n      jump\t// out\n        /* \"base.sol\":2866:2949  function summNumbers(uint256 _x) public checker(_x) {... */\n    tag_19:\n        /* \"base.sol\":2914:2916  _x */\n      dup1\n        /* \"base.sol\":2812:2814  10 */\n      0x0a\n        /* \"base.sol\":2794:2808  _numberToCheck */\n      dup2\n        /* \"base.sol\":2794:2814  _numberToCheck >= 10 */\n      lt\n      iszero\n        /* \"base.sol\":2786:2838  require(_numberToCheck >= 10, \"Number less than 10\") */\n      tag_28\n      jumpi\n      mload(0x40)\n      0x08c379a000000000000000000000000000000000000000000000000000000000\n      dup2\n      mstore\n      0x04\n      add\n      tag_29\n      swap1\n      tag_30\n      jump\t// in\n    tag_29:\n      mload(0x40)\n      dup1\n      swap2\n      sub\n      swap1\n      revert\n    tag_28:\n        /* \"base.sol\":2938:2941  100 */\n      0x64\n        /* \"base.sol\":2933:2935  _x */\n      dup3\n        /* \"base.sol\":2933:2941  _x * 100 */\n      tag_32\n      swap2\n      swap1\n      tag_25\n      jump\t// in\n    tag_32:\n        /* \"base.sol\":2929:2930  x */\n      0x01\n        /* \"base.sol\":2929:2941  x = _x * 100 */\n      dup2\n      swap1\n      sstore\n      pop\n        /* \"base.sol\":2866:2949  function summNumbers(uint256 _x) public checker(_x) {... */\n      pop\n      pop\n      jump\t// out\n        /* \"#utility.yul\":7:84   */\n    tag_33:\n        /* \"#utility.yul\":44:51   */\n      0x00\n        /* \"#utility.yul\":73:78   */\n      dup2\n        /* \"#utility.yul\":62:78   */\n      swap1\n      pop\n        /* \"#utility.yul\":7:84   */\n      swap2\n      swap1\n      pop\n      jump\t// out\n        /* \"#utility.yul\":90:208   */\n    tag_34:\n        /* \"#utility.yul\":177:201   */\n      tag_47\n        /* \"#utility.yul\":195:200   */\n      dup2\n        /* \"#utility.yul\":177:201   */\n      tag_33\n      jump\t// in\n    tag_47:\n        /* \"#utility.yul\":172:175   */\n      dup3\n        /* \"#utility.yul\":165:202   */\n      mstore\n        /* \"#utility.yul\":90:208   */\n      pop\n      pop\n      jump\t// out\n        /* \"#utility.yul\":214:436   */\n    tag_10:\n        /* \"#utility.yul\":307:311   */\n      0x00\n        /* \"#utility.yul\":345:347   */\n      0x20\n        /* \"#utility.yul\":334:343   */\n      dup3\n        /* \"#utility.yul\":330:348   */\n      add\n        /* \"#utility.yul\":322:348   */\n      swap1\n      pop\n        /* \"#utility.yul\":358:429   */\n      tag_49\n        /* \"#utility.yul\":426:427   */\n      0x00\n        /* \"#utility.yul\":415:424   */\n      dup4\n        /* \"#utility.yul\":411:428   */\n      add\n        /* \"#utility.yul\":402:408   */\n      dup5\n        /* \"#utility.yul\":358:429   */\n      tag_34\n      jump\t// in\n    tag_49:\n        /* \"#utility.yul\":214:436   */\n      swap3\n      swap2\n      pop\n      pop\n      jump\t// out\n        /* \"#utility.yul\":523:640   */\n    tag_36:\n        /* \"#utility.yul\":632:633   */\n      0x00\n        /* \"#utility.yul\":629:630   */\n      0x00\n        /* \"#utility.yul\":622:634   */\n      revert\n        /* \"#utility.yul\":769:891   */\n    tag_38:\n        /* \"#utility.yul\":842:866   */\n      tag_54\n        /* \"#utility.yul\":860:865   */\n      dup2\n        /* \"#utility.yul\":842:866   */\n      tag_33\n      jump\t// in\n    tag_54:\n        /* \"#utility.yul\":835:840   */\n      dup2\n        /* \"#utility.yul\":832:867   */\n      eq\n        /* \"#utility.yul\":822:885   */\n      tag_55\n      jumpi\n        /* \"#utility.yul\":881:882   */\n      0x00\n        /* \"#utility.yul\":878:879   */\n      0x00\n        /* \"#utility.yul\":871:883   */\n      revert\n        /* \"#utility.yul\":822:885   */\n    tag_55:\n        /* \"#utility.yul\":769:891   */\n      pop\n      jump\t// out\n        /* \"#utility.yul\":897:1036   */\n    tag_39:\n        /* \"#utility.yul\":943:948   */\n      0x00\n        /* \"#utility.yul\":981:987   */\n      dup2\n        /* \"#utility.yul\":968:988   */\n      calldataload\n        /* \"#utility.yul\":959:988   */\n      swap1\n      pop\n        /* \"#utility.yul\":997:1030   */\n      tag_57\n        /* \"#utility.yul\":1024:1029   */\n      dup2\n        /* \"#utility.yul\":997:1030   */\n      tag_38\n      jump\t// in\n    tag_57:\n        /* \"#utility.yul\":897:1036   */\n      swap3\n      swap2\n      pop\n      pop\n      jump\t// out\n        /* \"#utility.yul\":1042:1371   */\n    tag_18:\n        /* \"#utility.yul\":1101:1107   */\n      0x00\n        /* \"#utility.yul\":1150:1152   */\n      0x20\n        /* \"#utility.yul\":1138:1147   */\n      dup3\n        /* \"#utility.yul\":1129:1136   */\n      dup5\n        /* \"#utility.yul\":1125:1148   */\n      sub\n        /* \"#utility.yul\":1121:1153   */\n      slt\n        /* \"#utility.yul\":1118:1237   */\n      iszero\n      tag_59\n      jumpi\n        /* \"#utility.yul\":1156:1235   */\n      tag_60\n      tag_36\n      jump\t// in\n    tag_60:\n        /* \"#utility.yul\":1118:1237   */\n    tag_59:\n        /* \"#utility.yul\":1276:1277   */\n      0x00\n        /* \"#utility.yul\":1301:1354   */\n      tag_61\n        /* \"#utility.yul\":1346:1353   */\n      dup5\n        /* \"#utility.yul\":1337:1343   */\n      dup3\n        /* \"#utility.yul\":1326:1335   */\n      dup6\n        /* \"#utility.yul\":1322:1344   */\n      add\n        /* \"#utility.yul\":1301:1354   */\n      tag_39\n      jump\t// in\n    tag_61:\n        /* \"#utility.yul\":1291:1354   */\n      swap2\n      pop\n        /* \"#utility.yul\":1247:1364   */\n      pop\n        /* \"#utility.yul\":1042:1371   */\n      swap3\n      swap2\n      pop\n      pop\n      jump\t// out\n        /* \"#utility.yul\":1377:1557   */\n    tag_40:\n        /* \"#utility.yul\":1425:1502   */\n      0x4e487b7100000000000000000000000000000000000000000000000000000000\n        /* \"#utility.yul\":1422:1423   */\n      0x00\n        /* \"#utility.yul\":1415:1503   */\n      mstore\n        /* \"#utility.yul\":1522:1526   */\n      0x11\n        /* \"#utility.yul\":1519:1520   */\n      0x04\n        /* \"#utility.yul\":1512:1527   */\n      mstore\n        /* \"#utility.yul\":1546:1550   */\n      0x24\n        /* \"#utility.yul\":1543:1544   */\n      0x00\n        /* \"#utility.yul\":1536:1551   */\n      revert\n        /* \"#utility.yul\":1563:1754   */\n    tag_22:\n        /* \"#utility.yul\":1603:1606   */\n      0x00\n        /* \"#utility.yul\":1622:1642   */\n      tag_64\n        /* \"#utility.yul\":1640:1641   */\n      dup3\n        /* \"#utility.yul\":1622:1642   */\n      tag_33\n      jump\t// in\n    tag_64:\n        /* \"#utility.yul\":1617:1642   */\n      swap2\n      pop\n        /* \"#utility.yul\":1656:1676   */\n      tag_65\n        /* \"#utility.yul\":1674:1675   */\n      dup4\n        /* \"#utility.yul\":1656:1676   */\n      tag_33\n      jump\t// in\n    tag_65:\n        /* \"#utility.yul\":1651:1676   */\n      swap3\n      pop\n        /* \"#utility.yul\":1699:1700   */\n      dup3\n        /* \"#utility.yul\":1696:1697   */\n      dup3\n        /* \"#utility.yul\":1692:1701   */\n      add\n        /* \"#utility.yul\":1685:1701   */\n      swap1\n      pop\n        /* \"#utility.yul\":1720:1723   */\n      dup1\n        /* \"#utility.yul\":1717:1718   */\n      dup3\n        /* \"#utility.yul\":1714:1724   */\n      gt\n        /* \"#utility.yul\":1711:1747   */\n      iszero\n      tag_66\n      jumpi\n        /* \"#utility.yul\":1727:1745   */\n      tag_67\n      tag_40\n      jump\t// in\n    tag_67:\n        /* \"#utility.yul\":1711:1747   */\n    tag_66:\n        /* \"#utility.yul\":1563:1754   */\n      swap3\n      swap2\n      pop\n      pop\n      jump\t// out\n        /* \"#utility.yul\":1760:2170   */\n    tag_25:\n        /* \"#utility.yul\":1800:1807   */\n      0x00\n        /* \"#utility.yul\":1823:1843   */\n      tag_69\n        /* \"#utility.yul\":1841:1842   */\n      dup3\n        /* \"#utility.yul\":1823:1843   */\n      tag_33\n      jump\t// in\n    tag_69:\n        /* \"#utility.yul\":1818:1843   */\n      swap2\n      pop\n        /* \"#utility.yul\":1857:1877   */\n      tag_70\n        /* \"#utility.yul\":1875:1876   */\n      dup4\n        /* \"#utility.yul\":1857:1877   */\n      tag_33\n      jump\t// in\n    tag_70:\n        /* \"#utility.yul\":1852:1877   */\n      swap3\n      pop\n        /* \"#utility.yul\":1912:1913   */\n      dup3\n        /* \"#utility.yul\":1909:1910   */\n      dup3\n        /* \"#utility.yul\":1905:1914   */\n      mul\n        /* \"#utility.yul\":1934:1964   */\n      tag_71\n        /* \"#utility.yul\":1952:1963   */\n      dup2\n        /* \"#utility.yul\":1934:1964   */\n      tag_33\n      jump\t// in\n    tag_71:\n        /* \"#utility.yul\":1923:1964   */\n      swap2\n      pop\n        /* \"#utility.yul\":2113:2114   */\n      dup3\n        /* \"#utility.yul\":2104:2111   */\n      dup3\n        /* \"#utility.yul\":2100:2115   */\n      div\n        /* \"#utility.yul\":2097:2098   */\n      dup5\n        /* \"#utility.yul\":2094:2116   */\n      eq\n        /* \"#utility.yul\":2074:2075   */\n      dup4\n        /* \"#utility.yul\":2067:2076   */\n      iszero\n        /* \"#utility.yul\":2047:2130   */\n      or\n        /* \"#utility.yul\":2024:2163   */\n      tag_72\n      jumpi\n        /* \"#utility.yul\":2143:2161   */\n      tag_73\n      tag_40\n      jump\t// in\n    tag_73:\n        /* \"#utility.yul\":2024:2163   */\n    tag_72:\n        /* \"#utility.yul\":1808:2170   */\n      pop\n        /* \"#utility.yul\":1760:2170   */\n      swap3\n      swap2\n      pop\n      pop\n      jump\t// out\n        /* \"#utility.yul\":2176:2345   */\n    tag_41:\n        /* \"#utility.yul\":2260:2271   */\n      0x00\n        /* \"#utility.yul\":2294:2300   */\n      dup3\n        /* \"#utility.yul\":2289:2292   */\n      dup3\n        /* \"#utility.yul\":2282:2301   */\n      mstore\n        /* \"#utility.yul\":2334:2338   */\n      0x20\n        /* \"#utility.yul\":2329:2332   */\n      dup3\n        /* \"#utility.yul\":2325:2339   */\n      add\n        /* \"#utility.yul\":2310:2339   */\n      swap1\n      pop\n        /* \"#utility.yul\":2176:2345   */\n      swap3\n      swap2\n      pop\n      pop\n      jump\t// out\n        /* \"#utility.yul\":2351:2520   */\n    tag_42:\n        /* \"#utility.yul\":2491:2512   */\n      0x4e756d626572206c657373207468616e20313000000000000000000000000000\n        /* \"#utility.yul\":2487:2488   */\n      0x00\n        /* \"#utility.yul\":2479:2485   */\n      dup3\n        /* \"#utility.yul\":2475:2489   */\n      add\n        /* \"#utility.yul\":2468:2513   */\n      mstore\n        /* \"#utility.yul\":2351:2520   */\n      pop\n      jump\t// out\n        /* \"#utility.yul\":2526:2892   */\n    tag_43:\n        /* \"#utility.yul\":2668:2671   */\n      0x00\n        /* \"#utility.yul\":2689:2756   */\n      tag_77\n        /* \"#utility.yul\":2753:2755   */\n      0x13\n        /* \"#utility.yul\":2748:2751   */\n      dup4\n        /* \"#utility.yul\":2689:2756   */\n      tag_41\n      jump\t// in\n    tag_77:\n        /* \"#utility.yul\":2682:2756   */\n      swap2\n      pop\n        /* \"#utility.yul\":2765:2858   */\n      tag_78\n        /* \"#utility.yul\":2854:2857   */\n      dup3\n        /* \"#utility.yul\":2765:2858   */\n      tag_42\n      jump\t// in\n    tag_78:\n        /* \"#utility.yul\":2883:2885   */\n      0x20\n        /* \"#utility.yul\":2878:2881   */\n      dup3\n        /* \"#utility.yul\":2874:2886   */\n      add\n        /* \"#utility.yul\":2867:2886   */\n      swap1\n      pop\n        /* \"#utility.yul\":2526:2892   */\n      swap2\n      swap1\n      pop\n      jump\t// out\n        /* \"#utility.yul\":2898:3317   */\n    tag_30:\n        /* \"#utility.yul\":3064:3068   */\n      0x00\n        /* \"#utility.yul\":3102:3104   */\n      0x20\n        /* \"#utility.yul\":3091:3100   */\n      dup3\n        /* \"#utility.yul\":3087:3105   */\n      add\n        /* \"#utility.yul\":3079:3105   */\n      swap1\n      pop\n        /* \"#utility.yul\":3151:3160   */\n      dup2\n        /* \"#utility.yul\":3145:3149   */\n      dup2\n        /* \"#utility.yul\":3141:3161   */\n      sub\n        /* \"#utility.yul\":3137:3138   */\n      0x00\n        /* \"#utility.yul\":3126:3135   */\n      dup4\n        /* \"#utility.yul\":3122:3139   */\n      add\n        /* \"#utility.yul\":3115:3162   */\n      mstore\n        /* \"#utility.yul\":3179:3310   */\n      tag_80\n        /* \"#utility.yul\":3305:3309   */\n      dup2\n        /* \"#utility.yul\":3179:3310   */\n      tag_43\n      jump\t// in\n    tag_80:\n        /* \"#utility.yul\":3171:3310   */\n      swap1\n      pop\n        /* \"#utility.yul\":2898:3317   */\n      swap2\n      swap1\n      pop\n      jump\t// out\n\n    auxdata: 0xa264697066735822122038c467ccb01244fbd4bd10ccd3b604912f4ff9d7050aa83102f53ad9c2b182be64736f6c634300081f0033\n}\n",
				"bytecode": {
					"linkReferences": {},
					"object": "608060405260015f55600a6001553480156017575f5ffd5b5061033a806100255f395ff3fe608060405234801561000f575f5ffd5b506004361061004a575f3560e01c80630c55699c1461004e57806334b280721461006c5780633fa4f24514610076578063b9c80e5314610094575b5f5ffd5b6100566100b0565b6040516100639190610179565b60405180910390f35b6100746100b6565b005b61007e610100565b60405161008b9190610179565b60405180910390f35b6100ae60048036038101906100a991906101c0565b610105565b005b60015481565b60015f5f8282546100c79190610218565b9250508190555060025f5f8282546100df919061024b565b9250508190555060025f5f8282546100f79190610218565b92505081905550565b5f5481565b80600a81101561014a576040517f08c379a0000000000000000000000000000000000000000000000000000000008152600401610141906102e6565b60405180910390fd5b606482610157919061024b565b6001819055505050565b5f819050919050565b61017381610161565b82525050565b5f60208201905061018c5f83018461016a565b92915050565b5f5ffd5b61019f81610161565b81146101a9575f5ffd5b50565b5f813590506101ba81610196565b92915050565b5f602082840312156101d5576101d4610192565b5b5f6101e2848285016101ac565b91505092915050565b7f4e487b71000000000000000000000000000000000000000000000000000000005f52601160045260245ffd5b5f61022282610161565b915061022d83610161565b9250828201905080821115610245576102446101eb565b5b92915050565b5f61025582610161565b915061026083610161565b925082820261026e81610161565b91508282048414831517610285576102846101eb565b5b5092915050565b5f82825260208201905092915050565b7f4e756d626572206c657373207468616e203130000000000000000000000000005f82015250565b5f6102d060138361028c565b91506102db8261029c565b602082019050919050565b5f6020820190508181035f8301526102fd816102c4565b905091905056fea264697066735822122038c467ccb01244fbd4bd10ccd3b604912f4ff9d7050aa83102f53ad9c2b182be64736f6c634300081f0033",
					"opcodes": "PUSH1 0x80 PUSH1 0x40 MSTORE PUSH1 0x1 PUSH0 SSTORE PUSH1 0xA PUSH1 0x1 SSTORE CALLVALUE DUP1 ISZERO PUSH1 0x17 JUMPI PUSH0 PUSH0 REVERT JUMPDEST POP PUSH2 0x33A DUP1 PUSH2 0x25 PUSH0 CODECOPY PUSH0 RETURN INVALID PUSH1 0x80 PUSH1 0x40 MSTORE CALLVALUE DUP1 ISZERO PUSH2 0xF JUMPI PUSH0 PUSH0 REVERT JUMPDEST POP PUSH1 0x4 CALLDATASIZE LT PUSH2 0x4A JUMPI PUSH0 CALLDATALOAD PUSH1 0xE0 SHR DUP1 PUSH4 0xC55699C EQ PUSH2 0x4E JUMPI DUP1 PUSH4 0x34B28072 EQ PUSH2 0x6C JUMPI DUP1 PUSH4 0x3FA4F245 EQ PUSH2 0x76 JUMPI DUP1 PUSH4 0xB9C80E53 EQ PUSH2 0x94 JUMPI JUMPDEST PUSH0 PUSH0 REVERT JUMPDEST PUSH2 0x56 PUSH2 0xB0 JUMP JUMPDEST PUSH1 0x40 MLOAD PUSH2 0x63 SWAP2 SWAP1 PUSH2 0x179 JUMP JUMPDEST PUSH1 0x40 MLOAD DUP1 SWAP2 SUB SWAP1 RETURN JUMPDEST PUSH2 0x74 PUSH2 0xB6 JUMP JUMPDEST STOP JUMPDEST PUSH2 0x7E PUSH2 0x100 JUMP JUMPDEST PUSH1 0x40 MLOAD PUSH2 0x8B SWAP2 SWAP1 PUSH2 0x179 JUMP JUMPDEST PUSH1 0x40 MLOAD DUP1 SWAP2 SUB SWAP1 RETURN JUMPDEST PUSH2 0xAE PUSH1 0x4 DUP1 CALLDATASIZE SUB DUP2 ADD SWAP1 PUSH2 0xA9 SWAP2 SWAP1 PUSH2 0x1C0 JUMP JUMPDEST PUSH2 0x105 JUMP JUMPDEST STOP JUMPDEST PUSH1 0x1 SLOAD DUP2 JUMP JUMPDEST PUSH1 0x1 PUSH0 PUSH0 DUP3 DUP3 SLOAD PUSH2 0xC7 SWAP2 SWAP1 PUSH2 0x218 JUMP JUMPDEST SWAP3 POP POP DUP2 SWAP1 SSTORE POP PUSH1 0x2 PUSH0 PUSH0 DUP3 DUP3 SLOAD PUSH2 0xDF SWAP2 SWAP1 PUSH2 0x24B JUMP JUMPDEST SWAP3 POP POP DUP2 SWAP1 SSTORE POP PUSH1 0x2 PUSH0 PUSH0 DUP3 DUP3 SLOAD PUSH2 0xF7 SWAP2 SWAP1 PUSH2 0x218 JUMP JUMPDEST SWAP3 POP POP DUP2 SWAP1 SSTORE POP JUMP JUMPDEST PUSH0 SLOAD DUP2 JUMP JUMPDEST DUP1 PUSH1 0xA DUP2 LT ISZERO PUSH2 0x14A JUMPI PUSH1 0x40 MLOAD PUSH32 0x8C379A000000000000000000000000000000000000000000000000000000000 DUP2 MSTORE PUSH1 0x4 ADD PUSH2 0x141 SWAP1 PUSH2 0x2E6 JUMP JUMPDEST PUSH1 0x40 MLOAD DUP1 SWAP2 SUB SWAP1 REVERT JUMPDEST PUSH1 0x64 DUP3 PUSH2 0x157 SWAP2 SWAP1 PUSH2 0x24B JUMP JUMPDEST PUSH1 0x1 DUP2 SWAP1 SSTORE POP POP POP JUMP JUMPDEST PUSH0 DUP2 SWAP1 POP SWAP2 SWAP1 POP JUMP JUMPDEST PUSH2 0x173 DUP2 PUSH2 0x161 JUMP JUMPDEST DUP3 MSTORE POP POP JUMP JUMPDEST PUSH0 PUSH1 0x20 DUP3 ADD SWAP1 POP PUSH2 0x18C PUSH0 DUP4 ADD DUP5 PUSH2 0x16A JUMP JUMPDEST SWAP3 SWAP2 POP POP JUMP JUMPDEST PUSH0 PUSH0 REVERT JUMPDEST PUSH2 0x19F DUP2 PUSH2 0x161 JUMP JUMPDEST DUP2 EQ PUSH2 0x1A9 JUMPI PUSH0 PUSH0 REVERT JUMPDEST POP JUMP JUMPDEST PUSH0 DUP2 CALLDATALOAD SWAP1 POP PUSH2 0x1BA DUP2 PUSH2 0x196 JUMP JUMPDEST SWAP3 SWAP2 POP POP JUMP JUMPDEST PUSH0 PUSH1 0x20 DUP3 DUP5 SUB SLT ISZERO PUSH2 0x1D5 JUMPI PUSH2 0x1D4 PUSH2 0x192 JUMP JUMPDEST JUMPDEST PUSH0 PUSH2 0x1E2 DUP5 DUP3 DUP6 ADD PUSH2 0x1AC JUMP JUMPDEST SWAP2 POP POP SWAP3 SWAP2 POP POP JUMP JUMPDEST PUSH32 0x4E487B7100000000000000000000000000000000000000000000000000000000 PUSH0 MSTORE PUSH1 0x11 PUSH1 0x4 MSTORE PUSH1 0x24 PUSH0 REVERT JUMPDEST PUSH0 PUSH2 0x222 DUP3 PUSH2 0x161 JUMP JUMPDEST SWAP2 POP PUSH2 0x22D DUP4 PUSH2 0x161 JUMP JUMPDEST SWAP3 POP DUP3 DUP3 ADD SWAP1 POP DUP1 DUP3 GT ISZERO PUSH2 0x245 JUMPI PUSH2 0x244 PUSH2 0x1EB JUMP JUMPDEST JUMPDEST SWAP3 SWAP2 POP POP JUMP JUMPDEST PUSH0 PUSH2 0x255 DUP3 PUSH2 0x161 JUMP JUMPDEST SWAP2 POP PUSH2 0x260 DUP4 PUSH2 0x161 JUMP JUMPDEST SWAP3 POP DUP3 DUP3 MUL PUSH2 0x26E DUP2 PUSH2 0x161 JUMP JUMPDEST SWAP2 POP DUP3 DUP3 DIV DUP5 EQ DUP4 ISZERO OR PUSH2 0x285 JUMPI PUSH2 0x284 PUSH2 0x1EB JUMP JUMPDEST JUMPDEST POP SWAP3 SWAP2 POP POP JUMP JUMPDEST PUSH0 DUP3 DUP3 MSTORE PUSH1 0x20 DUP3 ADD SWAP1 POP SWAP3 SWAP2 POP POP JUMP JUMPDEST PUSH32 0x4E756D626572206C657373207468616E20313000000000000000000000000000 PUSH0 DUP3 ADD MSTORE POP JUMP JUMPDEST PUSH0 PUSH2 0x2D0 PUSH1 0x13 DUP4 PUSH2 0x28C JUMP JUMPDEST SWAP2 POP PUSH2 0x2DB DUP3 PUSH2 0x29C JUMP JUMPDEST PUSH1 0x20 DUP3 ADD SWAP1 POP SWAP2 SWAP1 POP JUMP JUMPDEST PUSH0 PUSH1 0x20 DUP3 ADD SWAP1 POP DUP2 DUP2 SUB PUSH0 DUP4 ADD MSTORE PUSH2 0x2FD DUP2 PUSH2 0x2C4 JUMP JUMPDEST SWAP1 POP SWAP2 SWAP1 POP JUMP INVALID LOG2 PUSH5 0x6970667358 0x22 SLT KECCAK256 CODESIZE 0xC4 PUSH8 0xCCB01244FBD4BD10 0xCC 0xD3 0xB6 DIV SWAP2 0x2F 0x4F EXTDELEGATECALL 0xD7 SDIV EXP 0xA8 BALANCE MUL CREATE2 GASPRICE 0xD9 0xC2 0xB1 DUP3 0xBE PUSH5 0x736F6C6343 STOP ADDMOD 0x1F STOP CALLER "
				},
				"gasEstimates": {
					"creation": {
						"codeDepositCost": "165200",
						"executionCost": "44417",
						"totalCost": "209617"
					},
					"external": {
						"exampleFunc()": "infinite",
						"summNumbers(uint256)": "infinite",
						"value()": "2446",
						"x()": "2403"
					}
				},
				"methodIdentifiers": {
					"exampleFunc()": "34b28072",
					"summNumbers(uint256)": "b9c80e53",
					"value()": "3fa4f245",
					"x()": "0c55699c"
				}
			},
			"storageLayout": {
				"storage": [
					{
						"astId": 427,
						"contract": "base.sol:MathModifier",
						"label": "value",
						"offset": 0,
						"slot": "0",
						"type": "t_uint256"
					},
					{
						"astId": 430,
						"contract": "base.sol:MathModifier",
						"label": "x",
						"offset": 0,
						"slot": "1",
						"type": "t_uint256"
					}
				],
				"types": {
					"t_uint256": {
						"encoding": "inplace",
						"label": "uint256",
						"numberOfBytes": "32"
					}
				}
			},
			"userdoc": {
				"kind": "user",
				"methods": {},
				"version": 1
			}
		}
	}
}