{
	"base.sol": {
		"Store": {
			"abi": [
				{
					"inputs": [],
					"stateMutability": "nonpayable",
					"type": "constructor"
				},
				{
					"inputs": [],
					"name": "IdAlreadyExist",
					"type": "error"
				},
				{
					"inputs": [],
					"name": "IdDoesNotExist",
					"type": "error"
				},
				{
					"inputs": [
						{
							"internalType": "address",
							"name": "owner",
							"type": "address"
						}
					],
					"name": "OwnableInvalidOwner",
					"type": "error"
				},
				{
					"inputs": [
						{
							"internalType": "address",
							"name": "account",
							"type": "address"
						}
					],
					"name": "OwnableUnauthorizedAccount",
					"type": "error"
				},
				{
					"anonymous": false,
					"inputs": [
						{
							"indexed": true,
							"internalType": "address",
							"name": "previousOwner",
							"type": "address"
						},
						{
							"indexed": true,
							"internalType": "address",
							"name": "newOwner",
							"type": "address"
						}
					],
					"name": "OwnershipTransferred",
					"type": "event"
				},
				{
					"inputs": [
						{
							"internalType": "string",
							"name": "_name",
							"type": "string"
						},
						{
							"internalType": "uint256",
							"name": "_stock",
							"type": "uint256"
						},
						{
							"internalType": "uint256",
							"name": "_id",
							"type": "uint256"
						},
						{
							"internalType": "uint256",
							"name": "_price",
							"type": "uint256"
						}
					],
					"name": "addProduct",
					"outputs": [],
					"stateMutability": "nonpayable",
					"type": "function"
				},
				{
					"inputs": [
						{
							"internalType": "uint256",
							"name": "_id",
							"type": "uint256"
						}
					],
					"name": "deleteProduct",
					"outputs": [],
					"stateMutability": "nonpayable",
					"type": "function"
				},
				{
					"inputs": [
						{
							"internalType": "uint256",
							"name": "_id",
							"type": "uint256"
						}
					],
					"name": "getPrice",
					"outputs": [
						{
							"internalType": "uint256",
							"name": "",
							"type": "uint256"
						}
					],
					"stateMutability": "view",
					"type": "function"
				},
				{
					"inputs": [
						{
							"internalType": "uint256",
							"name": "_id",
							"type": "uint256"
						}
					],
					"name": "getStock",
					"outputs": [
						{
							"internalType": "uint256",
							"name": "",
							"type": "uint256"
						}
					],
					"stateMutability": "view",
					"type": "function"
				},
				{
					"inputs": [],
					"name": "getTimestamp",
					"outputs": [
						{
							"internalType": "uint256",
							"name": "",
							"type": "uint256"
						}
					],
					"stateMutability": "view",
					"type": "function"
				},
				{
					"inputs": [],
					"name": "owner",
					"outputs": [
						{
							"internalType": "address",
							"name": "",
							"type": "address"
						}
					],
					"stateMutability": "view",
					"type": "function"
				},
				{
					"inputs": [
						{
							"internalType": "uint256",
							"name": "",
							"type": "uint256"
						}
					],
					"name": "products",
					"outputs": [
						{
							"internalType": "string",
							"name": "name",
							"type": "string"
						},
						{
							"internalType": "uint256",
							"name": "stock",
							"type": "uint256"
						},
						{
							"internalType": "uint256",
							"name": "id",
							"type": "uint256"
						},
						{
							"internalType": "uint256",
							"name": "price",
							"type": "uint256"
						}
					],
					"stateMutability": "view",
					"type": "function"
				},
				{
					"inputs": [],
					"name": "renounceOwnership",
					"outputs": [],
					"stateMutability": "nonpayable",
					"type": "function"
				},
				{
					"inputs": [
						{
							"internalType": "address",
							"name": "newOwner",
							"type": "address"
						}
					],
					"name": "transferOwnership",
					"outputs": [],
					"stateMutability": "nonpayable",
					"type": "function"
				},
				{
					"inputs": [
						{
							"internalType": "uint256",
							"name": "_id",
							"type": "uint256"
						},
						{
							"internalType": "uint256",
							"name": "_price",
							"type": "uint256"
						}
					],
					"name": "updatePrice",
					"outputs": [],
					"stateMutability": "nonpayable",
					"type": "function"
				},
				{
					"inputs": [
						{
							"internalType": "uint256",
							"name": "_id",
							"type": "uint256"
						},
						{
							"internalType": "uint256",
							"name": "_stock",
							"type": "uint256"
						}
					],
					"name": "updateStock",
					"outputs": [],
					"stateMutability": "nonpayable",
					"type": "function"
				}
			],
			"devdoc": {
				"errors": {
					"OwnableInvalidOwner(address)": [
						{
							"details": "The owner is not a valid owner account. (eg. `address(0)`)"
						}
					],
					"OwnableUnauthorizedAccount(address)": [
						{
							"details": "The caller account is not authorized to perform an operation."
						}
					]
				},
				"kind": "dev",
				"methods": {
					"owner()": {
						"details": "Returns the address of the current owner."
					},
					"renounceOwnership()": {
						"details": "Leaves the contract without owner. It will not be possible to call `onlyOwner` functions. Can only be called by the current owner. NOTE: Renouncing ownership will leave the contract without an owner, thereby disabling any functionality that is only available to the owner."
					},
					"transferOwnership(address)": {
						"details": "Transfers ownership of the contract to a new account (`newOwner`). Can only be called by the current owner."
					}
				},
				"version": 1
			},
			"evm": {
				"assembly": "    /* \"base.sol\":2958:5399  contract Store is Ownable {... */\n  mstore(0x40, 0x80)\n    /* \"base.sol\":3205:3241  constructor() Ownable(msg.sender) {} */\n  callvalue\n  dup1\n  iszero\n  tag_1\n  jumpi\n  revert(0x00, 0x00)\ntag_1:\n  pop\n    /* \"base.sol\":3227:3237  msg.sender */\n  caller\n    /* \"@openzeppelin/contracts/access/Ownable.sol\":1297:1298  0 */\n  0x00\n    /* \"@openzeppelin/contracts/access/Ownable.sol\":1273:1299  initialOwner == address(0) */\n  0xffffffffffffffffffffffffffffffffffffffff\n  and\n    /* \"@openzeppelin/contracts/access/Ownable.sol\":1273:1285  initialOwner */\n  dup2\n    /* \"@openzeppelin/contracts/access/Ownable.sol\":1273:1299  initialOwner == address(0) */\n  0xffffffffffffffffffffffffffffffffffffffff\n  and\n  sub\n    /* \"@openzeppelin/contracts/access/Ownable.sol\":1269:1364  if (initialOwner == address(0)) {... */\n  tag_5\n  jumpi\n    /* \"@openzeppelin/contracts/access/Ownable.sol\":1350:1351  0 */\n  0x00\n    /* \"@openzeppelin/contracts/access/Ownable.sol\":1322:1353  OwnableInvalidOwner(address(0)) */\n  mload(0x40)\n  0x1e4fbdf700000000000000000000000000000000000000000000000000000000\n  dup2\n  mstore\n  0x04\n  add\n  tag_6\n  swap2\n  swap1\n  tag_7\n  jump\t// in\ntag_6:\n  mload(0x40)\n  dup1\n  swap2\n  sub\n  swap1\n  revert\n    /* \"@openzeppelin/contracts/access/Ownable.sol\":1269:1364  if (initialOwner == address(0)) {... */\ntag_5:\n    /* \"@openzeppelin/contracts/access/Ownable.sol\":1373:1405  _transferOwnership(initialOwner) */\n  tag_8\n    /* \"@openzeppelin/contracts/access/Ownable.sol\":1392:1404  initialOwner */\n  dup2\n    /* \"@openzeppelin/contracts/access/Ownable.sol\":1373:1391  _transferOwnership */\n  shl(0x20, tag_9)\n    /* \"@openzeppelin/contracts/access/Ownable.sol\":1373:1405  _transferOwnership(initialOwner) */\n  0x20\n  shr\n  jump\t// in\ntag_8:\n    /* \"@openzeppelin/contracts/access/Ownable.sol\":1225:1412  constructor(address initialOwner) {... */\n  pop\n    /* \"base.sol\":2958:5399  contract Store is Ownable {... */\n  jump(tag_11)\n    /* \"@openzeppelin/contracts/access/Ownable.sol\":2912:3099  function _transferOwnership(address newOwner) internal virtual {... */\ntag_9:\n    /* \"@openzeppelin/contracts/access/Ownable.sol\":2985:3001  address oldOwner */\n  0x00\n    /* \"@openzeppelin/contracts/access/Ownable.sol\":3004:3010  _owner */\n  0x00\n  0x00\n  swap1\n  sload\n  swap1\n  0x0100\n  exp\n  swap1\n  div\n  0xffffffffffffffffffffffffffffffffffffffff\n  and\n    /* \"@openzeppelin/contracts/access/Ownable.sol\":2985:3010  address oldOwner = _owner */\n  swap1\n  pop\n    /* \"@openzeppelin/contracts/access/Ownable.sol\":3029:3037  newOwner */\n  dup2\n    /* \"@openzeppelin/contracts/access/Ownable.sol\":3020:3026  _owner */\n  0x00\n  0x00\n    /* \"@openzeppelin/contracts/access/Ownable.sol\":3020:3037  _owner = newOwner */\n  0x0100\n  exp\n  dup2\n  sload\n  dup2\n  0xffffffffffffffffffffffffffffffffffffffff\n  mul\n  not\n  and\n  swap1\n  dup4\n  0xffffffffffffffffffffffffffffffffffffffff\n  and\n  mul\n  or\n  swap1\n  sstore\n  pop\n    /* \"@openzeppelin/contracts/access/Ownable.sol\":3083:3091  newOwner */\n  dup2\n    /* \"@openzeppelin/contracts/access/Ownable.sol\":3052:3092  OwnershipTransferred(oldOwner, newOwner) */\n  0xffffffffffffffffffffffffffffffffffffffff\n  and\n    /* \"@openzeppelin/contracts/access/Ownable.sol\":3073:3081  oldOwner */\n  dup2\n    /* \"@openzeppelin/contracts/access/Ownable.sol\":3052:3092  OwnershipTransferred(oldOwner, newOwner) */\n  0xffffffffffffffffffffffffffffffffffffffff\n  and\n  0x8be0079c531659141344cd1fd0a4f28419497f9722a3daafe3b4186f6b6457e0\n  mload(0x40)\n  mload(0x40)\n  dup1\n  swap2\n  sub\n  swap1\n  log3\n    /* \"@openzeppelin/contracts/access/Ownable.sol\":2975:3099  {... */\n  pop\n    /* \"@openzeppelin/contracts/access/Ownable.sol\":2912:3099  function _transferOwnership(address newOwner) internal virtual {... */\n  pop\n  jump\t// out\n    /* \"#utility.yul\":7:133   */\ntag_13:\n    /* \"#utility.yul\":44:51   */\n  0x00\n    /* \"#utility.yul\":84:126   */\n  0xffffffffffffffffffffffffffffffffffffffff\n    /* \"#utility.yul\":77:82   */\n  dup3\n    /* \"#utility.yul\":73:127   */\n  and\n    /* \"#utility.yul\":62:127   */\n  swap1\n  pop\n    /* \"#utility.yul\":7:133   */\n  swap2\n  swap1\n  pop\n  jump\t// out\n    /* \"#utility.yul\":139:235   */\ntag_14:\n    /* \"#utility.yul\":176:183   */\n  0x00\n    /* \"#utility.yul\":205:229   */\n  tag_19\n    /* \"#utility.yul\":223:228   */\n  dup3\n    /* \"#utility.yul\":205:229   */\n  tag_13\n  jump\t// in\ntag_19:\n    /* \"#utility.yul\":194:229   */\n  swap1\n  pop\n    /* \"#utility.yul\":139:235   */\n  swap2\n  swap1\n  pop\n  jump\t// out\n    /* \"#utility.yul\":241:359   */\ntag_15:\n    /* \"#utility.yul\":328:352   */\n  tag_21\n    /* \"#utility.yul\":346:351   */\n  dup2\n    /* \"#utility.yul\":328:352   */\n  tag_14\n  jump\t// in\ntag_21:\n    /* \"#utility.yul\":323:326   */\n  dup3\n    /* \"#utility.yul\":316:353   */\n  mstore\n    /* \"#utility.yul\":241:359   */\n  pop\n  pop\n  jump\t// out\n    /* \"#utility.yul\":365:587   */\ntag_7:\n    /* \"#utility.yul\":458:462   */\n  0x00\n    /* \"#utility.yul\":496:498   */\n  0x20\n    /* \"#utility.yul\":485:494   */\n  dup3\n    /* \"#utility.yul\":481:499   */\n  add\n    /* \"#utility.yul\":473:499   */\n  swap1\n  pop\n    /* \"#utility.yul\":509:580   */\n  tag_23\n    /* \"#utility.yul\":577:578   */\n  0x00\n    /* \"#utility.yul\":566:575   */\n  dup4\n    /* \"#utility.yul\":562:579   */\n  add\n    /* \"#utility.yul\":553:559   */\n  dup5\n    /* \"#utility.yul\":509:580   */\n  tag_15\n  jump\t// in\ntag_23:\n    /* \"#utility.yul\":365:587   */\n  swap3\n  swap2\n  pop\n  pop\n  jump\t// out\n    /* \"base.sol\":2958:5399  contract Store is Ownable {... */\ntag_11:\n  dataSize(sub_0)\n  dup1\n  dataOffset(sub_0)\n  0x00\n  codecopy\n  0x00\n  return\nstop\n\nsub_0: assembly {\n        /* \"base.sol\":2958:5399  contract Store is Ownable {... */\n      mstore(0x40, 0x80)\n      callvalue\n      dup1\n      iszero\n      tag_1\n      jumpi\n      revert(0x00, 0x00)\n    tag_1:\n      pop\n      jumpi(tag_2, lt(calldatasize, 0x04))\n      shr(0xe0, calldataload(0x00))\n      dup1\n      0x82367b2d\n      gt\n      tag_14\n      jumpi\n      dup1\n      0x82367b2d\n      eq\n      tag_8\n      jumpi\n      dup1\n      0x8da5cb5b\n      eq\n      tag_9\n      jumpi\n      dup1\n      0x9dfc3dd1\n      eq\n      tag_10\n      jumpi\n      dup1\n      0xe7572230\n      eq\n      tag_11\n      jumpi\n      dup1\n      0xed90c7b7\n      eq\n      tag_12\n      jumpi\n      dup1\n      0xf2fde38b\n      eq\n      tag_13\n      jumpi\n      jump(tag_2)\n    tag_14:\n      dup1\n      0x094455c4\n      eq\n      tag_3\n      jumpi\n      dup1\n      0x188ec356\n      eq\n      tag_4\n      jumpi\n      dup1\n      0x3ab7d09a\n      eq\n      tag_5\n      jumpi\n      dup1\n      0x715018a6\n      eq\n      tag_6\n      jumpi\n      dup1\n      0x7acc0b20\n      eq\n      tag_7\n      jumpi\n    tag_2:\n      revert(0x00, 0x00)\n        /* \"base.sol\":3249:3486  function addProduct(string calldata _name, uint256 _stock, uint256 _id, uint256 _price) external onlyOwner {... */\n    tag_3:\n      tag_15\n      0x04\n      dup1\n      calldatasize\n      sub\n      dup2\n      add\n      swap1\n      tag_16\n      swap2\n      swap1\n      tag_17\n      jump\t// in\n    tag_16:\n      tag_18\n      jump\t// in\n    tag_15:\n      stop\n        /* \"base.sol\":3755:3859  function getTimestamp() public view onlyOwner returns(uint256) {... */\n    tag_4:\n      tag_19\n      tag_20\n      jump\t// in\n    tag_19:\n      mload(0x40)\n      tag_21\n      swap2\n      swap1\n      tag_22\n      jump\t// in\n    tag_21:\n      mload(0x40)\n      dup1\n      swap2\n      sub\n      swap1\n      return\n        /* \"base.sol\":4409:4569  function getStock(uint256 _id) public view returns(uint256) {... */\n    tag_5:\n      tag_23\n      0x04\n      dup1\n      calldatasize\n      sub\n      dup2\n      add\n      swap1\n      tag_24\n      swap2\n      swap1\n      tag_25\n      jump\t// in\n    tag_24:\n      tag_26\n      jump\t// in\n    tag_23:\n      mload(0x40)\n      tag_27\n      swap2\n      swap1\n      tag_22\n      jump\t// in\n    tag_27:\n      mload(0x40)\n      dup1\n      swap2\n      sub\n      swap1\n      return\n        /* \"@openzeppelin/contracts/access/Ownable.sol\":2293:2394  function renounceOwnership() public virtual onlyOwner {... */\n    tag_6:\n      tag_28\n      tag_29\n      jump\t// in\n    tag_28:\n      stop\n        /* \"base.sol\":3111:3136  Product[] public products */\n    tag_7:\n      tag_30\n      0x04\n      dup1\n      calldatasize\n      sub\n      dup2\n      add\n      swap1\n      tag_31\n      swap2\n      swap1\n      tag_25\n      jump\t// in\n    tag_31:\n      tag_32\n      jump\t// in\n    tag_30:\n      mload(0x40)\n      tag_33\n      swap5\n      swap4\n      swap3\n      swap2\n      swap1\n      tag_34\n      jump\t// in\n    tag_33:\n      mload(0x40)\n      dup1\n      swap2\n      sub\n      swap1\n      return\n        /* \"base.sol\":3867:4054  function updatePrice(uint256 _id, uint256 _price) external onlyOwner {... */\n    tag_8:\n      tag_35\n      0x04\n      dup1\n      calldatasize\n      sub\n      dup2\n      add\n      swap1\n      tag_36\n      swap2\n      swap1\n      tag_37\n      jump\t// in\n    tag_36:\n      tag_38\n      jump\t// in\n    tag_35:\n      stop\n        /* \"@openzeppelin/contracts/access/Ownable.sol\":1638:1723  function owner() public view virtual returns (address) {... */\n    tag_9:\n      tag_39\n      tag_40\n      jump\t// in\n    tag_39:\n      mload(0x40)\n      tag_41\n      swap2\n      swap1\n      tag_42\n      jump\t// in\n    tag_41:\n      mload(0x40)\n      dup1\n      swap2\n      sub\n      swap1\n      return\n        /* \"base.sol\":4062:4233  function updateStock(uint256 _id, uint256 _stock) external onlyOwner {... */\n    tag_10:\n      tag_43\n      0x04\n      dup1\n      calldatasize\n      sub\n      dup2\n      add\n      swap1\n      tag_44\n      swap2\n      swap1\n      tag_37\n      jump\t// in\n    tag_44:\n      tag_45\n      jump\t// in\n    tag_43:\n      stop\n        /* \"base.sol\":4241:4401  function getPrice(uint256 _id) public view returns(uint256) {... */\n    tag_11:\n      tag_46\n      0x04\n      dup1\n      calldatasize\n      sub\n      dup2\n      add\n      swap1\n      tag_47\n      swap2\n      swap1\n      tag_25\n      jump\t// in\n    tag_47:\n      tag_48\n      jump\t// in\n    tag_46:\n      mload(0x40)\n      tag_49\n      swap2\n      swap1\n      tag_22\n      jump\t// in\n    tag_49:\n      mload(0x40)\n      dup1\n      swap2\n      sub\n      swap1\n      return\n        /* \"base.sol\":3494:3747  function deleteProduct(uint256 _id) external onlyOwner {... */\n    tag_12:\n      tag_50\n      0x04\n      dup1\n      calldatasize\n      sub\n      dup2\n      add\n      swap1\n      tag_51\n      swap2\n      swap1\n      tag_25\n      jump\t// in\n    tag_51:\n      tag_52\n      jump\t// in\n    tag_50:\n      stop\n        /* \"@openzeppelin/contracts/access/Ownable.sol\":2543:2758  function transferOwnership(address newOwner) public virtual onlyOwner {... */\n    tag_13:\n      tag_53\n      0x04\n      dup1\n      calldatasize\n      sub\n      dup2\n      add\n      swap1\n      tag_54\n      swap2\n      swap1\n      tag_55\n      jump\t// in\n    tag_54:\n      tag_56\n      jump\t// in\n    tag_53:\n      stop\n        /* \"base.sol\":3249:3486  function addProduct(string calldata _name, uint256 _stock, uint256 _id, uint256 _price) external onlyOwner {... */\n    tag_18:\n        /* \"@openzeppelin/contracts/access/Ownable.sol\":1531:1544  _checkOwner() */\n      tag_58\n        /* \"@openzeppelin/contracts/access/Ownable.sol\":1531:1542  _checkOwner */\n      tag_59\n        /* \"@openzeppelin/contracts/access/Ownable.sol\":1531:1544  _checkOwner() */\n      jump\t// in\n    tag_58:\n        /* \"base.sol\":3393:3398  false */\n      0x00\n        /* \"base.sol\":3375:3398  isIdExist(_id) == false */\n      iszero\n      iszero\n        /* \"base.sol\":3375:3389  isIdExist(_id) */\n      tag_61\n        /* \"base.sol\":3385:3388  _id */\n      dup4\n        /* \"base.sol\":3375:3384  isIdExist */\n      tag_62\n        /* \"base.sol\":3375:3389  isIdExist(_id) */\n      jump\t// in\n    tag_61:\n        /* \"base.sol\":3375:3398  isIdExist(_id) == false */\n      iszero\n      iszero\n      eq\n        /* \"base.sol\":3367:3417  require(isIdExist(_id) == false, IdAlreadyExist()) */\n      tag_63\n      jumpi\n      mload(0x40)\n      0xf270498400000000000000000000000000000000000000000000000000000000\n      dup2\n      mstore\n      0x04\n      add\n      mload(0x40)\n      dup1\n      swap2\n      sub\n      swap1\n      revert\n    tag_63:\n        /* \"base.sol\":3428:3436  products */\n      0x01\n        /* \"base.sol\":3442:3477  Product(_name, _stock, _id, _price) */\n      mload(0x40)\n      dup1\n      0x80\n      add\n      0x40\n      mstore\n      dup1\n        /* \"base.sol\":3450:3455  _name */\n      dup8\n      dup8\n        /* \"base.sol\":3442:3477  Product(_name, _stock, _id, _price) */\n      dup1\n      dup1\n      0x1f\n      add\n      0x20\n      dup1\n      swap2\n      div\n      mul\n      0x20\n      add\n      mload(0x40)\n      swap1\n      dup2\n      add\n      0x40\n      mstore\n      dup1\n      swap4\n      swap3\n      swap2\n      swap1\n      dup2\n      dup2\n      mstore\n      0x20\n      add\n      dup4\n      dup4\n      dup1\n      dup3\n      dup5\n      calldatacopy\n      0x00\n      dup2\n      dup5\n      add\n      mstore\n      not(0x1f)\n      0x1f\n      dup3\n      add\n      and\n      swap1\n      pop\n      dup1\n      dup4\n      add\n      swap3\n      pop\n      pop\n      pop\n      pop\n      pop\n      pop\n      pop\n      dup2\n      mstore\n      0x20\n      add\n        /* \"base.sol\":3457:3463  _stock */\n      dup6\n        /* \"base.sol\":3442:3477  Product(_name, _stock, _id, _price) */\n      dup2\n      mstore\n      0x20\n      add\n        /* \"base.sol\":3465:3468  _id */\n      dup5\n        /* \"base.sol\":3442:3477  Product(_name, _stock, _id, _price) */\n      dup2\n      mstore\n      0x20\n      add\n        /* \"base.sol\":3470:3476  _price */\n      dup4\n        /* \"base.sol\":3442:3477  Product(_name, _stock, _id, _price) */\n      dup2\n      mstore\n      pop\n        /* \"base.sol\":3428:3478  products.push(Product(_name, _stock, _id, _price)) */\n      swap1\n      dup1\n      0x01\n      dup2\n      sload\n      add\n      dup1\n      dup3\n      sstore\n      dup1\n      swap2\n      pop\n      pop\n      0x01\n      swap1\n      sub\n      swap1\n      0x00\n      mstore\n      keccak256(0x00, 0x20)\n      swap1\n      0x04\n      mul\n      add\n      0x00\n      swap1\n      swap2\n      swap1\n      swap2\n      swap1\n      swap2\n      pop\n      0x00\n      dup3\n      add\n      mload\n      dup2\n      0x00\n      add\n      swap1\n      dup2\n      tag_65\n      swap2\n      swap1\n      tag_66\n      jump\t// in\n    tag_65:\n      pop\n      0x20\n      dup3\n      add\n      mload\n      dup2\n      0x01\n      add\n      sstore\n      0x40\n      dup3\n      add\n      mload\n      dup2\n      0x02\n      add\n      sstore\n      0x60\n      dup3\n      add\n      mload\n      dup2\n      0x03\n      add\n      sstore\n      pop\n      pop\n        /* \"base.sol\":3249:3486  function addProduct(string calldata _name, uint256 _stock, uint256 _id, uint256 _price) external onlyOwner {... */\n      pop\n      pop\n      pop\n      pop\n      pop\n      jump\t// out\n        /* \"base.sol\":3755:3859  function getTimestamp() public view onlyOwner returns(uint256) {... */\n    tag_20:\n        /* \"base.sol\":3809:3816  uint256 */\n      0x00\n        /* \"@openzeppelin/contracts/access/Ownable.sol\":1531:1544  _checkOwner() */\n      tag_68\n        /* \"@openzeppelin/contracts/access/Ownable.sol\":1531:1542  _checkOwner */\n      tag_59\n        /* \"@openzeppelin/contracts/access/Ownable.sol\":1531:1544  _checkOwner() */\n      jump\t// in\n    tag_68:\n        /* \"base.sol\":3836:3851  block.timestamp */\n      timestamp\n        /* \"base.sol\":3829:3851  return block.timestamp */\n      swap1\n      pop\n        /* \"base.sol\":3755:3859  function getTimestamp() public view onlyOwner returns(uint256) {... */\n      swap1\n      jump\t// out\n        /* \"base.sol\":4409:4569  function getStock(uint256 _id) public view returns(uint256) {... */\n    tag_26:\n        /* \"base.sol\":4460:4467  uint256 */\n      0x00\n        /* \"base.sol\":4480:4507  Product storage thisProduct */\n      0x00\n        /* \"base.sol\":4510:4526  findProduct(_id) */\n      tag_71\n        /* \"base.sol\":4522:4525  _id */\n      dup4\n        /* \"base.sol\":4510:4521  findProduct */\n      tag_72\n        /* \"base.sol\":4510:4526  findProduct(_id) */\n      jump\t// in\n    tag_71:\n        /* \"base.sol\":4480:4526  Product storage thisProduct = findProduct(_id) */\n      swap1\n      pop\n        /* \"base.sol\":4544:4555  thisProduct */\n      dup1\n        /* \"base.sol\":4544:4561  thisProduct.stock */\n      0x01\n      add\n      sload\n        /* \"base.sol\":4537:4561  return thisProduct.stock */\n      swap2\n      pop\n      pop\n        /* \"base.sol\":4409:4569  function getStock(uint256 _id) public view returns(uint256) {... */\n      swap2\n      swap1\n      pop\n      jump\t// out\n        /* \"@openzeppelin/contracts/access/Ownable.sol\":2293:2394  function renounceOwnership() public virtual onlyOwner {... */\n    tag_29:\n        /* \"@openzeppelin/contracts/access/Ownable.sol\":1531:1544  _checkOwner() */\n      tag_74\n        /* \"@openzeppelin/contracts/access/Ownable.sol\":1531:1542  _checkOwner */\n      tag_59\n        /* \"@openzeppelin/contracts/access/Ownable.sol\":1531:1544  _checkOwner() */\n      jump\t// in\n    tag_74:\n        /* \"@openzeppelin/contracts/access/Ownable.sol\":2357:2387  _transferOwnership(address(0)) */\n      tag_76\n        /* \"@openzeppelin/contracts/access/Ownable.sol\":2384:2385  0 */\n      0x00\n        /* \"@openzeppelin/contracts/access/Ownable.sol\":2357:2375  _transferOwnership */\n      tag_77\n        /* \"@openzeppelin/contracts/access/Ownable.sol\":2357:2387  _transferOwnership(address(0)) */\n      jump\t// in\n    tag_76:\n        /* \"@openzeppelin/contracts/access/Ownable.sol\":2293:2394  function renounceOwnership() public virtual onlyOwner {... */\n      jump\t// out\n        /* \"base.sol\":3111:3136  Product[] public products */\n    tag_32:\n      0x01\n      dup2\n      dup2\n      sload\n      dup2\n      lt\n      tag_78\n      jumpi\n      0x00\n      dup1\n      revert\n    tag_78:\n      swap1\n      0x00\n      mstore\n      keccak256(0x00, 0x20)\n      swap1\n      0x04\n      mul\n      add\n      0x00\n      swap2\n      pop\n      swap1\n      pop\n      dup1\n      0x00\n      add\n      dup1\n      sload\n      tag_80\n      swap1\n      tag_81\n      jump\t// in\n    tag_80:\n      dup1\n      0x1f\n      add\n      0x20\n      dup1\n      swap2\n      div\n      mul\n      0x20\n      add\n      mload(0x40)\n      swap1\n      dup2\n      add\n      0x40\n      mstore\n      dup1\n      swap3\n      swap2\n      swap1\n      dup2\n      dup2\n      mstore\n      0x20\n      add\n      dup3\n      dup1\n      sload\n      tag_82\n      swap1\n      tag_81\n      jump\t// in\n    tag_82:\n      dup1\n      iszero\n      tag_83\n      jumpi\n      dup1\n      0x1f\n      lt\n      tag_84\n      jumpi\n      0x0100\n      dup1\n      dup4\n      sload\n      div\n      mul\n      dup4\n      mstore\n      swap2\n      0x20\n      add\n      swap2\n      jump(tag_83)\n    tag_84:\n      dup3\n      add\n      swap2\n      swap1\n      0x00\n      mstore\n      keccak256(0x00, 0x20)\n      swap1\n    tag_85:\n      dup2\n      sload\n      dup2\n      mstore\n      swap1\n      0x01\n      add\n      swap1\n      0x20\n      add\n      dup1\n      dup4\n      gt\n      tag_85\n      jumpi\n      dup3\n      swap1\n      sub\n      0x1f\n      and\n      dup3\n      add\n      swap2\n    tag_83:\n      pop\n      pop\n      pop\n      pop\n      pop\n      swap1\n      dup1\n      0x01\n      add\n      sload\n      swap1\n      dup1\n      0x02\n      add\n      sload\n      swap1\n      dup1\n      0x03\n      add\n      sload\n      swap1\n      pop\n      dup5\n      jump\t// out\n        /* \"base.sol\":3867:4054  function updatePrice(uint256 _id, uint256 _price) external onlyOwner {... */\n    tag_38:\n        /* \"@openzeppelin/contracts/access/Ownable.sol\":1531:1544  _checkOwner() */\n      tag_87\n        /* \"@openzeppelin/contracts/access/Ownable.sol\":1531:1542  _checkOwner */\n      tag_59\n        /* \"@openzeppelin/contracts/access/Ownable.sol\":1531:1544  _checkOwner() */\n      jump\t// in\n    tag_87:\n        /* \"base.sol\":3947:3974  Product storage thisProduct */\n      0x00\n        /* \"base.sol\":3977:3993  findProduct(_id) */\n      tag_89\n        /* \"base.sol\":3989:3992  _id */\n      dup4\n        /* \"base.sol\":3977:3988  findProduct */\n      tag_72\n        /* \"base.sol\":3977:3993  findProduct(_id) */\n      jump\t// in\n    tag_89:\n        /* \"base.sol\":3947:3993  Product storage thisProduct = findProduct(_id) */\n      swap1\n      pop\n        /* \"base.sol\":4040:4046  _price */\n      dup2\n        /* \"base.sol\":4020:4031  thisProduct */\n      dup2\n        /* \"base.sol\":4020:4037  thisProduct.price */\n      0x03\n      add\n        /* \"base.sol\":4020:4046  thisProduct.price = _price */\n      dup2\n      swap1\n      sstore\n      pop\n        /* \"base.sol\":3936:4054  {... */\n      pop\n        /* \"base.sol\":3867:4054  function updatePrice(uint256 _id, uint256 _price) external onlyOwner {... */\n      pop\n      pop\n      jump\t// out\n        /* \"@openzeppelin/contracts/access/Ownable.sol\":1638:1723  function owner() public view virtual returns (address) {... */\n    tag_40:\n        /* \"@openzeppelin/contracts/access/Ownable.sol\":1684:1691  address */\n      0x00\n        /* \"@openzeppelin/contracts/access/Ownable.sol\":1710:1716  _owner */\n      0x00\n      0x00\n      swap1\n      sload\n      swap1\n      0x0100\n      exp\n      swap1\n      div\n      0xffffffffffffffffffffffffffffffffffffffff\n      and\n        /* \"@openzeppelin/contracts/access/Ownable.sol\":1703:1716  return _owner */\n      swap1\n      pop\n        /* \"@openzeppelin/contracts/access/Ownable.sol\":1638:1723  function owner() public view virtual returns (address) {... */\n      swap1\n      jump\t// out\n        /* \"base.sol\":4062:4233  function updateStock(uint256 _id, uint256 _stock) external onlyOwner {... */\n    tag_45:\n        /* \"@openzeppelin/contracts/access/Ownable.sol\":1531:1544  _checkOwner() */\n      tag_92\n        /* \"@openzeppelin/contracts/access/Ownable.sol\":1531:1542  _checkOwner */\n      tag_59\n        /* \"@openzeppelin/contracts/access/Ownable.sol\":1531:1544  _checkOwner() */\n      jump\t// in\n    tag_92:\n        /* \"base.sol\":4142:4169  Product storage thisProduct */\n      0x00\n        /* \"base.sol\":4172:4188  findProduct(_id) */\n      tag_94\n        /* \"base.sol\":4184:4187  _id */\n      dup4\n        /* \"base.sol\":4172:4183  findProduct */\n      tag_72\n        /* \"base.sol\":4172:4188  findProduct(_id) */\n      jump\t// in\n    tag_94:\n        /* \"base.sol\":4142:4188  Product storage thisProduct = findProduct(_id) */\n      swap1\n      pop\n        /* \"base.sol\":4219:4225  _stock */\n      dup2\n        /* \"base.sol\":4199:4210  thisProduct */\n      dup2\n        /* \"base.sol\":4199:4216  thisProduct.stock */\n      0x01\n      add\n        /* \"base.sol\":4199:4225  thisProduct.stock = _stock */\n      dup2\n      swap1\n      sstore\n      pop\n        /* \"base.sol\":4131:4233  {... */\n      pop\n        /* \"base.sol\":4062:4233  function updateStock(uint256 _id, uint256 _stock) external onlyOwner {... */\n      pop\n      pop\n      jump\t// out\n        /* \"base.sol\":4241:4401  function getPrice(uint256 _id) public view returns(uint256) {... */\n    tag_48:\n        /* \"base.sol\":4292:4299  uint256 */\n      0x00\n        /* \"base.sol\":4312:4339  Product storage thisProduct */\n      0x00\n        /* \"base.sol\":4342:4358  findProduct(_id) */\n      tag_96\n        /* \"base.sol\":4354:4357  _id */\n      dup4\n        /* \"base.sol\":4342:4353  findProduct */\n      tag_72\n        /* \"base.sol\":4342:4358  findProduct(_id) */\n      jump\t// in\n    tag_96:\n        /* \"base.sol\":4312:4358  Product storage thisProduct = findProduct(_id) */\n      swap1\n      pop\n        /* \"base.sol\":4376:4387  thisProduct */\n      dup1\n        /* \"base.sol\":4376:4393  thisProduct.price */\n      0x03\n      add\n      sload\n        /* \"base.sol\":4369:4393  return thisProduct.price */\n      swap2\n      pop\n      pop\n        /* \"base.sol\":4241:4401  function getPrice(uint256 _id) public view returns(uint256) {... */\n      swap2\n      swap1\n      pop\n      jump\t// out\n        /* \"base.sol\":3494:3747  function deleteProduct(uint256 _id) external onlyOwner {... */\n    tag_52:\n        /* \"@openzeppelin/contracts/access/Ownable.sol\":1531:1544  _checkOwner() */\n      tag_98\n        /* \"@openzeppelin/contracts/access/Ownable.sol\":1531:1542  _checkOwner */\n      tag_59\n        /* \"@openzeppelin/contracts/access/Ownable.sol\":1531:1544  _checkOwner() */\n      jump\t// in\n    tag_98:\n        /* \"base.sol\":3561:3572  bool status */\n      0x00\n        /* \"base.sol\":3574:3587  uint256 index */\n      0x00\n        /* \"base.sol\":3591:3609  findIndexById(_id) */\n      tag_100\n        /* \"base.sol\":3605:3608  _id */\n      dup4\n        /* \"base.sol\":3591:3604  findIndexById */\n      tag_101\n        /* \"base.sol\":3591:3609  findIndexById(_id) */\n      jump\t// in\n    tag_100:\n        /* \"base.sol\":3560:3609  (bool status, uint256 index) = findIndexById(_id) */\n      swap2\n      pop\n      swap2\n      pop\n        /* \"base.sol\":3628:3634  status */\n      dup2\n        /* \"base.sol\":3620:3652  require(status,IdDoesNotExist()) */\n      tag_102\n      jumpi\n      mload(0x40)\n      0xc270964900000000000000000000000000000000000000000000000000000000\n      dup2\n      mstore\n      0x04\n      add\n      mload(0x40)\n      dup1\n      swap2\n      sub\n      swap1\n      revert\n    tag_102:\n        /* \"base.sol\":3683:3691  products */\n      0x01\n        /* \"base.sol\":3710:3711  1 */\n      dup1\n        /* \"base.sol\":3692:3700  products */\n      dup1\n        /* \"base.sol\":3692:3707  products.length */\n      dup1\n      sload\n      swap1\n      pop\n        /* \"base.sol\":3692:3711  products.length - 1 */\n      tag_103\n      swap2\n      swap1\n      tag_104\n      jump\t// in\n    tag_103:\n        /* \"base.sol\":3683:3712  products[products.length - 1] */\n      dup2\n      sload\n      dup2\n      lt\n      tag_105\n      jumpi\n      tag_106\n      tag_107\n      jump\t// in\n    tag_106:\n    tag_105:\n      swap1\n      0x00\n      mstore\n      keccak256(0x00, 0x20)\n      swap1\n      0x04\n      mul\n      add\n        /* \"base.sol\":3665:3673  products */\n      0x01\n        /* \"base.sol\":3674:3679  index */\n      dup3\n        /* \"base.sol\":3665:3680  products[index] */\n      dup2\n      sload\n      dup2\n      lt\n      tag_109\n      jumpi\n      tag_110\n      tag_107\n      jump\t// in\n    tag_110:\n    tag_109:\n      swap1\n      0x00\n      mstore\n      keccak256(0x00, 0x20)\n      swap1\n      0x04\n      mul\n      add\n        /* \"base.sol\":3665:3712  products[index] = products[products.length - 1] */\n      0x00\n      dup3\n      add\n      dup2\n      0x00\n      add\n      swap1\n      dup2\n      tag_112\n      swap2\n      swap1\n      tag_113\n      jump\t// in\n    tag_112:\n      pop\n      0x01\n      dup3\n      add\n      sload\n      dup2\n      0x01\n      add\n      sstore\n      0x02\n      dup3\n      add\n      sload\n      dup2\n      0x02\n      add\n      sstore\n      0x03\n      dup3\n      add\n      sload\n      dup2\n      0x03\n      add\n      sstore\n      swap1\n      pop\n      pop\n        /* \"base.sol\":3723:3731  products */\n      0x01\n        /* \"base.sol\":3723:3737  products.pop() */\n      dup1\n      sload\n      dup1\n      tag_114\n      jumpi\n      tag_115\n      tag_116\n      jump\t// in\n    tag_115:\n    tag_114:\n      0x01\n      swap1\n      sub\n      dup2\n      dup2\n      swap1\n      0x00\n      mstore\n      keccak256(0x00, 0x20)\n      swap1\n      0x04\n      mul\n      add\n      0x00\n      0x00\n      dup3\n      add\n      0x00\n      tag_118\n      swap2\n      swap1\n      tag_119\n      jump\t// in\n    tag_118:\n      0x01\n      dup3\n      add\n      0x00\n      swap1\n      sstore\n      0x02\n      dup3\n      add\n      0x00\n      swap1\n      sstore\n      0x03\n      dup3\n      add\n      0x00\n      swap1\n      sstore\n      pop\n      pop\n      swap1\n      sstore\n        /* \"base.sol\":3549:3747  {... */\n      pop\n      pop\n        /* \"base.sol\":3494:3747  function deleteProduct(uint256 _id) external onlyOwner {... */\n      pop\n      jump\t// out\n        /* \"@openzeppelin/contracts/access/Ownable.sol\":2543:2758  function transferOwnership(address newOwner) public virtual onlyOwner {... */\n    tag_56:\n        /* \"@openzeppelin/contracts/access/Ownable.sol\":1531:1544  _checkOwner() */\n      tag_121\n        /* \"@openzeppelin/contracts/access/Ownable.sol\":1531:1542  _checkOwner */\n      tag_59\n        /* \"@openzeppelin/contracts/access/Ownable.sol\":1531:1544  _checkOwner() */\n      jump\t// in\n    tag_121:\n        /* \"@openzeppelin/contracts/access/Ownable.sol\":2647:2648  0 */\n      0x00\n        /* \"@openzeppelin/contracts/access/Ownable.sol\":2627:2649  newOwner == address(0) */\n      0xffffffffffffffffffffffffffffffffffffffff\n      and\n        /* \"@openzeppelin/contracts/access/Ownable.sol\":2627:2635  newOwner */\n      dup2\n        /* \"@openzeppelin/contracts/access/Ownable.sol\":2627:2649  newOwner == address(0) */\n      0xffffffffffffffffffffffffffffffffffffffff\n      and\n      sub\n        /* \"@openzeppelin/contracts/access/Ownable.sol\":2623:2714  if (newOwner == address(0)) {... */\n      tag_123\n      jumpi\n        /* \"@openzeppelin/contracts/access/Ownable.sol\":2700:2701  0 */\n      0x00\n        /* \"@openzeppelin/contracts/access/Ownable.sol\":2672:2703  OwnableInvalidOwner(address(0)) */\n      mload(0x40)\n      0x1e4fbdf700000000000000000000000000000000000000000000000000000000\n      dup2\n      mstore\n      0x04\n      add\n      tag_124\n      swap2\n      swap1\n      tag_42\n      jump\t// in\n    tag_124:\n      mload(0x40)\n      dup1\n      swap2\n      sub\n      swap1\n      revert\n        /* \"@openzeppelin/contracts/access/Ownable.sol\":2623:2714  if (newOwner == address(0)) {... */\n    tag_123:\n        /* \"@openzeppelin/contracts/access/Ownable.sol\":2723:2751  _transferOwnership(newOwner) */\n      tag_125\n        /* \"@openzeppelin/contracts/access/Ownable.sol\":2742:2750  newOwner */\n      dup2\n        /* \"@openzeppelin/contracts/access/Ownable.sol\":2723:2741  _transferOwnership */\n      tag_77\n        /* \"@openzeppelin/contracts/access/Ownable.sol\":2723:2751  _transferOwnership(newOwner) */\n      jump\t// in\n    tag_125:\n        /* \"@openzeppelin/contracts/access/Ownable.sol\":2543:2758  function transferOwnership(address newOwner) public virtual onlyOwner {... */\n      pop\n      jump\t// out\n        /* \"@openzeppelin/contracts/access/Ownable.sol\":1796:1958  function _checkOwner() internal view virtual {... */\n    tag_59:\n        /* \"@openzeppelin/contracts/access/Ownable.sol\":1866:1878  _msgSender() */\n      tag_127\n        /* \"@openzeppelin/contracts/access/Ownable.sol\":1866:1876  _msgSender */\n      tag_128\n        /* \"@openzeppelin/contracts/access/Ownable.sol\":1866:1878  _msgSender() */\n      jump\t// in\n    tag_127:\n        /* \"@openzeppelin/contracts/access/Ownable.sol\":1855:1878  owner() != _msgSender() */\n      0xffffffffffffffffffffffffffffffffffffffff\n      and\n        /* \"@openzeppelin/contracts/access/Ownable.sol\":1855:1862  owner() */\n      tag_129\n        /* \"@openzeppelin/contracts/access/Ownable.sol\":1855:1860  owner */\n      tag_40\n        /* \"@openzeppelin/contracts/access/Ownable.sol\":1855:1862  owner() */\n      jump\t// in\n    tag_129:\n        /* \"@openzeppelin/contracts/access/Ownable.sol\":1855:1878  owner() != _msgSender() */\n      0xffffffffffffffffffffffffffffffffffffffff\n      and\n      eq\n        /* \"@openzeppelin/contracts/access/Ownable.sol\":1851:1952  if (owner() != _msgSender()) {... */\n      tag_130\n      jumpi\n        /* \"@openzeppelin/contracts/access/Ownable.sol\":1928:1940  _msgSender() */\n      tag_131\n        /* \"@openzeppelin/contracts/access/Ownable.sol\":1928:1938  _msgSender */\n      tag_128\n        /* \"@openzeppelin/contracts/access/Ownable.sol\":1928:1940  _msgSender() */\n      jump\t// in\n    tag_131:\n        /* \"@openzeppelin/contracts/access/Ownable.sol\":1901:1941  OwnableUnauthorizedAccount(_msgSender()) */\n      mload(0x40)\n      0x118cdaa700000000000000000000000000000000000000000000000000000000\n      dup2\n      mstore\n      0x04\n      add\n      tag_132\n      swap2\n      swap1\n      tag_42\n      jump\t// in\n    tag_132:\n      mload(0x40)\n      dup1\n      swap2\n      sub\n      swap1\n      revert\n        /* \"@openzeppelin/contracts/access/Ownable.sol\":1851:1952  if (owner() != _msgSender()) {... */\n    tag_130:\n        /* \"@openzeppelin/contracts/access/Ownable.sol\":1796:1958  function _checkOwner() internal view virtual {... */\n      jump\t// out\n        /* \"base.sol\":4875:5120  function isIdExist(uint256 _id) internal view returns(bool) {... */\n    tag_62:\n        /* \"base.sol\":4929:4933  bool */\n      0x00\n        /* \"base.sol\":4950:4959  uint256 i */\n      0x00\n        /* \"base.sol\":4962:4963  0 */\n      0x00\n        /* \"base.sol\":4950:4963  uint256 i = 0 */\n      swap1\n      pop\n        /* \"base.sol\":4946:5090  for(uint256 i = 0; i < products.length; i++) {... */\n    tag_134:\n        /* \"base.sol\":4969:4977  products */\n      0x01\n        /* \"base.sol\":4969:4984  products.length */\n      dup1\n      sload\n      swap1\n      pop\n        /* \"base.sol\":4965:4966  i */\n      dup2\n        /* \"base.sol\":4965:4984  i < products.length */\n      lt\n        /* \"base.sol\":4946:5090  for(uint256 i = 0; i < products.length; i++) {... */\n      iszero\n      tag_135\n      jumpi\n        /* \"base.sol\":5028:5031  _id */\n      dup3\n        /* \"base.sol\":5010:5018  products */\n      0x01\n        /* \"base.sol\":5019:5020  i */\n      dup3\n        /* \"base.sol\":5010:5021  products[i] */\n      dup2\n      sload\n      dup2\n      lt\n      tag_137\n      jumpi\n      tag_138\n      tag_107\n      jump\t// in\n    tag_138:\n    tag_137:\n      swap1\n      0x00\n      mstore\n      keccak256(0x00, 0x20)\n      swap1\n      0x04\n      mul\n      add\n        /* \"base.sol\":5010:5024  products[i].id */\n      0x02\n      add\n      sload\n        /* \"base.sol\":5010:5031  products[i].id == _id */\n      sub\n        /* \"base.sol\":5006:5079  if (products[i].id == _id) {... */\n      tag_140\n      jumpi\n        /* \"base.sol\":5059:5063  true */\n      0x01\n        /* \"base.sol\":5052:5063  return true */\n      swap2\n      pop\n      pop\n      jump(tag_133)\n        /* \"base.sol\":5006:5079  if (products[i].id == _id) {... */\n    tag_140:\n        /* \"base.sol\":4986:4989  i++ */\n      dup1\n      dup1\n      0x01\n      add\n      swap2\n      pop\n      pop\n        /* \"base.sol\":4946:5090  for(uint256 i = 0; i < products.length; i++) {... */\n      jump(tag_134)\n    tag_135:\n      pop\n        /* \"base.sol\":5107:5112  false */\n      0x00\n        /* \"base.sol\":5100:5112  return false */\n      swap1\n      pop\n        /* \"base.sol\":4875:5120  function isIdExist(uint256 _id) internal view returns(bool) {... */\n    tag_133:\n      swap2\n      swap1\n      pop\n      jump\t// out\n        /* \"base.sol\":4577:4867  function findProduct(uint256 _id) internal view returns(Product storage product) {... */\n    tag_72:\n        /* \"base.sol\":4633:4656  Product storage product */\n      0x00\n        /* \"base.sol\":4673:4682  uint256 i */\n      0x00\n        /* \"base.sol\":4685:4686  0 */\n      0x00\n        /* \"base.sol\":4673:4686  uint256 i = 0 */\n      swap1\n      pop\n        /* \"base.sol\":4669:4820  for(uint256 i = 0; i < products.length; i++) {... */\n    tag_142:\n        /* \"base.sol\":4692:4700  products */\n      0x01\n        /* \"base.sol\":4692:4707  products.length */\n      dup1\n      sload\n      swap1\n      pop\n        /* \"base.sol\":4688:4689  i */\n      dup2\n        /* \"base.sol\":4688:4707  i < products.length */\n      lt\n        /* \"base.sol\":4669:4820  for(uint256 i = 0; i < products.length; i++) {... */\n      iszero\n      tag_143\n      jumpi\n        /* \"base.sol\":4751:4754  _id */\n      dup3\n        /* \"base.sol\":4733:4741  products */\n      0x01\n        /* \"base.sol\":4742:4743  i */\n      dup3\n        /* \"base.sol\":4733:4744  products[i] */\n      dup2\n      sload\n      dup2\n      lt\n      tag_145\n      jumpi\n      tag_146\n      tag_107\n      jump\t// in\n    tag_146:\n    tag_145:\n      swap1\n      0x00\n      mstore\n      keccak256(0x00, 0x20)\n      swap1\n      0x04\n      mul\n      add\n        /* \"base.sol\":4733:4747  products[i].id */\n      0x02\n      add\n      sload\n        /* \"base.sol\":4733:4754  products[i].id == _id */\n      sub\n        /* \"base.sol\":4729:4809  if (products[i].id == _id) {... */\n      tag_148\n      jumpi\n        /* \"base.sol\":4782:4790  products */\n      0x01\n        /* \"base.sol\":4791:4792  i */\n      dup2\n        /* \"base.sol\":4782:4793  products[i] */\n      dup2\n      sload\n      dup2\n      lt\n      tag_149\n      jumpi\n      tag_150\n      tag_107\n      jump\t// in\n    tag_150:\n    tag_149:\n      swap1\n      0x00\n      mstore\n      keccak256(0x00, 0x20)\n      swap1\n      0x04\n      mul\n      add\n        /* \"base.sol\":4775:4793  return products[i] */\n      swap2\n      pop\n      pop\n      jump(tag_141)\n        /* \"base.sol\":4729:4809  if (products[i].id == _id) {... */\n    tag_148:\n        /* \"base.sol\":4709:4712  i++ */\n      dup1\n      dup1\n      0x01\n      add\n      swap2\n      pop\n      pop\n        /* \"base.sol\":4669:4820  for(uint256 i = 0; i < products.length; i++) {... */\n      jump(tag_142)\n    tag_143:\n      pop\n        /* \"base.sol\":4830:4859  revert  (\"Product not found\") */\n      mload(0x40)\n      0x08c379a000000000000000000000000000000000000000000000000000000000\n      dup2\n      mstore\n      0x04\n      add\n      tag_152\n      swap1\n      tag_153\n      jump\t// in\n    tag_152:\n      mload(0x40)\n      dup1\n      swap2\n      sub\n      swap1\n      revert\n        /* \"base.sol\":4577:4867  function findProduct(uint256 _id) internal view returns(Product storage product) {... */\n    tag_141:\n      swap2\n      swap1\n      pop\n      jump\t// out\n        /* \"@openzeppelin/contracts/access/Ownable.sol\":2912:3099  function _transferOwnership(address newOwner) internal virtual {... */\n    tag_77:\n        /* \"@openzeppelin/contracts/access/Ownable.sol\":2985:3001  address oldOwner */\n      0x00\n        /* \"@openzeppelin/contracts/access/Ownable.sol\":3004:3010  _owner */\n      0x00\n      0x00\n      swap1\n      sload\n      swap1\n      0x0100\n      exp\n      swap1\n      div\n      0xffffffffffffffffffffffffffffffffffffffff\n      and\n        /* \"@openzeppelin/contracts/access/Ownable.sol\":2985:3010  address oldOwner = _owner */\n      swap1\n      pop\n        /* \"@openzeppelin/contracts/access/Ownable.sol\":3029:3037  newOwner */\n      dup2\n        /* \"@openzeppelin/contracts/access/Ownable.sol\":3020:3026  _owner */\n      0x00\n      0x00\n        /* \"@openzeppelin/contracts/access/Ownable.sol\":3020:3037  _owner = newOwner */\n      0x0100\n      exp\n      dup2\n      sload\n      dup2\n      0xffffffffffffffffffffffffffffffffffffffff\n      mul\n      not\n      and\n      swap1\n      dup4\n      0xffffffffffffffffffffffffffffffffffffffff\n      and\n      mul\n      or\n      swap1\n      sstore\n      pop\n        /* \"@openzeppelin/contracts/access/Ownable.sol\":3083:3091  newOwner */\n      dup2\n        /* \"@openzeppelin/contracts/access/Ownable.sol\":3052:3092  OwnershipTransferred(oldOwner, newOwner) */\n      0xffffffffffffffffffffffffffffffffffffffff\n      and\n        /* \"@openzeppelin/contracts/access/Ownable.sol\":3073:3081  oldOwner */\n      dup2\n        /* \"@openzeppelin/contracts/access/Ownable.sol\":3052:3092  OwnershipTransferred(oldOwner, newOwner) */\n      0xffffffffffffffffffffffffffffffffffffffff\n      and\n      0x8be0079c531659141344cd1fd0a4f28419497f9722a3daafe3b4186f6b6457e0\n      mload(0x40)\n      mload(0x40)\n      dup1\n      swap2\n      sub\n      swap1\n      log3\n        /* \"@openzeppelin/contracts/access/Ownable.sol\":2975:3099  {... */\n      pop\n        /* \"@openzeppelin/contracts/access/Ownable.sol\":2912:3099  function _transferOwnership(address newOwner) internal virtual {... */\n      pop\n      jump\t// out\n        /* \"base.sol\":5128:5396  function findIndexById(uint256 _id) internal view returns(bool, uint256) {... */\n    tag_101:\n        /* \"base.sol\":5186:5190  bool */\n      0x00\n        /* \"base.sol\":5192:5199  uint256 */\n      0x00\n        /* \"base.sol\":5216:5225  uint256 i */\n      0x00\n        /* \"base.sol\":5228:5229  0 */\n      0x00\n        /* \"base.sol\":5216:5229  uint256 i = 0 */\n      swap1\n      pop\n        /* \"base.sol\":5212:5361  for(uint256 i = 0; i < products.length; i++) {... */\n    tag_156:\n        /* \"base.sol\":5235:5243  products */\n      0x01\n        /* \"base.sol\":5235:5250  products.length */\n      dup1\n      sload\n      swap1\n      pop\n        /* \"base.sol\":5231:5232  i */\n      dup2\n        /* \"base.sol\":5231:5250  i < products.length */\n      lt\n        /* \"base.sol\":5212:5361  for(uint256 i = 0; i < products.length; i++) {... */\n      iszero\n      tag_157\n      jumpi\n        /* \"base.sol\":5294:5297  _id */\n      dup4\n        /* \"base.sol\":5276:5284  products */\n      0x01\n        /* \"base.sol\":5285:5286  i */\n      dup3\n        /* \"base.sol\":5276:5287  products[i] */\n      dup2\n      sload\n      dup2\n      lt\n      tag_159\n      jumpi\n      tag_160\n      tag_107\n      jump\t// in\n    tag_160:\n    tag_159:\n      swap1\n      0x00\n      mstore\n      keccak256(0x00, 0x20)\n      swap1\n      0x04\n      mul\n      add\n        /* \"base.sol\":5276:5290  products[i].id */\n      0x02\n      add\n      sload\n        /* \"base.sol\":5276:5297  products[i].id == _id */\n      sub\n        /* \"base.sol\":5272:5350  if (products[i].id == _id) {... */\n      tag_162\n      jumpi\n        /* \"base.sol\":5326:5330  true */\n      0x01\n        /* \"base.sol\":5332:5333  i */\n      dup2\n        /* \"base.sol\":5318:5334  return (true, i) */\n      swap3\n      pop\n      swap3\n      pop\n      pop\n      jump(tag_155)\n        /* \"base.sol\":5272:5350  if (products[i].id == _id) {... */\n    tag_162:\n        /* \"base.sol\":5252:5255  i++ */\n      dup1\n      dup1\n      0x01\n      add\n      swap2\n      pop\n      pop\n        /* \"base.sol\":5212:5361  for(uint256 i = 0; i < products.length; i++) {... */\n      jump(tag_156)\n    tag_157:\n      pop\n        /* \"base.sol\":5379:5384  false */\n      0x00\n        /* \"base.sol\":5386:5387  0 */\n      0x00\n        /* \"base.sol\":5371:5388  return (false, 0) */\n      swap2\n      pop\n      swap2\n      pop\n        /* \"base.sol\":5128:5396  function findIndexById(uint256 _id) internal view returns(bool, uint256) {... */\n    tag_155:\n      swap2\n      pop\n      swap2\n      jump\t// out\n        /* \"@openzeppelin/contracts/utils/Context.sol\":656:752  function _msgSender() internal view virtual returns (address) {... */\n    tag_128:\n        /* \"@openzeppelin/contracts/utils/Context.sol\":709:716  address */\n      0x00\n        /* \"@openzeppelin/contracts/utils/Context.sol\":735:745  msg.sender */\n      caller\n        /* \"@openzeppelin/contracts/utils/Context.sol\":728:745  return msg.sender */\n      swap1\n      pop\n        /* \"@openzeppelin/contracts/utils/Context.sol\":656:752  function _msgSender() internal view virtual returns (address) {... */\n      swap1\n      jump\t// out\n    tag_119:\n      pop\n      dup1\n      sload\n      tag_164\n      swap1\n      tag_81\n      jump\t// in\n    tag_164:\n      0x00\n      dup3\n      sstore\n      dup1\n      0x1f\n      lt\n      tag_166\n      jumpi\n      pop\n      jump(tag_165)\n    tag_166:\n      0x1f\n      add\n      0x20\n      swap1\n      div\n      swap1\n      0x00\n      mstore\n      keccak256(0x00, 0x20)\n      swap1\n      dup2\n      add\n      swap1\n      tag_167\n      swap2\n      swap1\n      tag_168\n      jump\t// in\n    tag_167:\n    tag_165:\n      pop\n      jump\t// out\n    tag_168:\n    tag_169:\n      dup1\n      dup3\n      gt\n      iszero\n      tag_170\n      jumpi\n      0x00\n      dup2\n      0x00\n      swap1\n      sstore\n      pop\n      0x01\n      add\n      jump(tag_169)\n    tag_170:\n      pop\n      swap1\n      jump\t// out\n        /* \"#utility.yul\":88:205   */\n    tag_172:\n        /* \"#utility.yul\":197:198   */\n      0x00\n        /* \"#utility.yul\":194:195   */\n      0x00\n        /* \"#utility.yul\":187:199   */\n      revert\n        /* \"#utility.yul\":211:328   */\n    tag_173:\n        /* \"#utility.yul\":320:321   */\n      0x00\n        /* \"#utility.yul\":317:318   */\n      0x00\n        /* \"#utility.yul\":310:322   */\n      revert\n        /* \"#utility.yul\":334:451   */\n    tag_174:\n        /* \"#utility.yul\":443:444   */\n      0x00\n        /* \"#utility.yul\":440:441   */\n      0x00\n        /* \"#utility.yul\":433:445   */\n      revert\n        /* \"#utility.yul\":457:574   */\n    tag_175:\n        /* \"#utility.yul\":566:567   */\n      0x00\n        /* \"#utility.yul\":563:564   */\n      0x00\n        /* \"#utility.yul\":556:568   */\n      revert\n        /* \"#utility.yul\":580:697   */\n    tag_176:\n        /* \"#utility.yul\":689:690   */\n      0x00\n        /* \"#utility.yul\":686:687   */\n      0x00\n        /* \"#utility.yul\":679:691   */\n      revert\n        /* \"#utility.yul\":717:1270   */\n    tag_177:\n        /* \"#utility.yul\":775:783   */\n      0x00\n        /* \"#utility.yul\":785:791   */\n      0x00\n        /* \"#utility.yul\":835:838   */\n      dup4\n        /* \"#utility.yul\":828:832   */\n      0x1f\n        /* \"#utility.yul\":820:826   */\n      dup5\n        /* \"#utility.yul\":816:833   */\n      add\n        /* \"#utility.yul\":812:839   */\n      slt\n        /* \"#utility.yul\":802:924   */\n      tag_221\n      jumpi\n        /* \"#utility.yul\":843:922   */\n      tag_222\n      tag_174\n      jump\t// in\n    tag_222:\n        /* \"#utility.yul\":802:924   */\n    tag_221:\n        /* \"#utility.yul\":956:962   */\n      dup3\n        /* \"#utility.yul\":943:963   */\n      calldataload\n        /* \"#utility.yul\":933:963   */\n      swap1\n      pop\n        /* \"#utility.yul\":986:1004   */\n      0xffffffffffffffff\n        /* \"#utility.yul\":978:984   */\n      dup2\n        /* \"#utility.yul\":975:1005   */\n      gt\n        /* \"#utility.yul\":972:1089   */\n      iszero\n      tag_223\n      jumpi\n        /* \"#utility.yul\":1008:1087   */\n      tag_224\n      tag_175\n      jump\t// in\n    tag_224:\n        /* \"#utility.yul\":972:1089   */\n    tag_223:\n        /* \"#utility.yul\":1122:1126   */\n      0x20\n        /* \"#utility.yul\":1114:1120   */\n      dup4\n        /* \"#utility.yul\":1110:1127   */\n      add\n        /* \"#utility.yul\":1098:1127   */\n      swap2\n      pop\n        /* \"#utility.yul\":1176:1179   */\n      dup4\n        /* \"#utility.yul\":1168:1172   */\n      0x01\n        /* \"#utility.yul\":1160:1166   */\n      dup3\n        /* \"#utility.yul\":1156:1173   */\n      mul\n        /* \"#utility.yul\":1146:1154   */\n      dup4\n        /* \"#utility.yul\":1142:1174   */\n      add\n        /* \"#utility.yul\":1139:1180   */\n      gt\n        /* \"#utility.yul\":1136:1264   */\n      iszero\n      tag_225\n      jumpi\n        /* \"#utility.yul\":1183:1262   */\n      tag_226\n      tag_176\n      jump\t// in\n    tag_226:\n        /* \"#utility.yul\":1136:1264   */\n    tag_225:\n        /* \"#utility.yul\":717:1270   */\n      swap3\n      pop\n      swap3\n      swap1\n      pop\n      jump\t// out\n        /* \"#utility.yul\":1276:1353   */\n    tag_178:\n        /* \"#utility.yul\":1313:1320   */\n      0x00\n        /* \"#utility.yul\":1342:1347   */\n      dup2\n        /* \"#utility.yul\":1331:1347   */\n      swap1\n      pop\n        /* \"#utility.yul\":1276:1353   */\n      swap2\n      swap1\n      pop\n      jump\t// out\n        /* \"#utility.yul\":1359:1481   */\n    tag_179:\n        /* \"#utility.yul\":1432:1456   */\n      tag_229\n        /* \"#utility.yul\":1450:1455   */\n      dup2\n        /* \"#utility.yul\":1432:1456   */\n      tag_178\n      jump\t// in\n    tag_229:\n        /* \"#utility.yul\":1425:1430   */\n      dup2\n        /* \"#utility.yul\":1422:1457   */\n      eq\n        /* \"#utility.yul\":1412:1475   */\n      tag_230\n      jumpi\n        /* \"#utility.yul\":1471:1472   */\n      0x00\n        /* \"#utility.yul\":1468:1469   */\n      0x00\n        /* \"#utility.yul\":1461:1473   */\n      revert\n        /* \"#utility.yul\":1412:1475   */\n    tag_230:\n        /* \"#utility.yul\":1359:1481   */\n      pop\n      jump\t// out\n        /* \"#utility.yul\":1487:1626   */\n    tag_180:\n        /* \"#utility.yul\":1533:1538   */\n      0x00\n        /* \"#utility.yul\":1571:1577   */\n      dup2\n        /* \"#utility.yul\":1558:1578   */\n      calldataload\n        /* \"#utility.yul\":1549:1578   */\n      swap1\n      pop\n        /* \"#utility.yul\":1587:1620   */\n      tag_232\n        /* \"#utility.yul\":1614:1619   */\n      dup2\n        /* \"#utility.yul\":1587:1620   */\n      tag_179\n      jump\t// in\n    tag_232:\n        /* \"#utility.yul\":1487:1626   */\n      swap3\n      swap2\n      pop\n      pop\n      jump\t// out\n        /* \"#utility.yul\":1632:2597   */\n    tag_17:\n        /* \"#utility.yul\":1730:1736   */\n      0x00\n        /* \"#utility.yul\":1738:1744   */\n      0x00\n        /* \"#utility.yul\":1746:1752   */\n      0x00\n        /* \"#utility.yul\":1754:1760   */\n      0x00\n        /* \"#utility.yul\":1762:1768   */\n      0x00\n        /* \"#utility.yul\":1811:1814   */\n      0x80\n        /* \"#utility.yul\":1799:1808   */\n      dup7\n        /* \"#utility.yul\":1790:1797   */\n      dup9\n        /* \"#utility.yul\":1786:1809   */\n      sub\n        /* \"#utility.yul\":1782:1815   */\n      slt\n        /* \"#utility.yul\":1779:1899   */\n      iszero\n      tag_234\n      jumpi\n        /* \"#utility.yul\":1818:1897   */\n      tag_235\n      tag_172\n      jump\t// in\n    tag_235:\n        /* \"#utility.yul\":1779:1899   */\n    tag_234:\n        /* \"#utility.yul\":1966:1967   */\n      0x00\n        /* \"#utility.yul\":1955:1964   */\n      dup7\n        /* \"#utility.yul\":1951:1968   */\n      add\n        /* \"#utility.yul\":1938:1969   */\n      calldataload\n        /* \"#utility.yul\":1996:2014   */\n      0xffffffffffffffff\n        /* \"#utility.yul\":1988:1994   */\n      dup2\n        /* \"#utility.yul\":1985:2015   */\n      gt\n        /* \"#utility.yul\":1982:2099   */\n      iszero\n      tag_236\n      jumpi\n        /* \"#utility.yul\":2018:2097   */\n      tag_237\n      tag_173\n      jump\t// in\n    tag_237:\n        /* \"#utility.yul\":1982:2099   */\n    tag_236:\n        /* \"#utility.yul\":2131:2196   */\n      tag_238\n        /* \"#utility.yul\":2188:2195   */\n      dup9\n        /* \"#utility.yul\":2179:2185   */\n      dup3\n        /* \"#utility.yul\":2168:2177   */\n      dup10\n        /* \"#utility.yul\":2164:2186   */\n      add\n        /* \"#utility.yul\":2131:2196   */\n      tag_177\n      jump\t// in\n    tag_238:\n        /* \"#utility.yul\":2113:2196   */\n      swap6\n      pop\n      swap6\n      pop\n        /* \"#utility.yul\":1909:2206   */\n      pop\n        /* \"#utility.yul\":2245:2247   */\n      0x20\n        /* \"#utility.yul\":2271:2324   */\n      tag_239\n        /* \"#utility.yul\":2316:2323   */\n      dup9\n        /* \"#utility.yul\":2307:2313   */\n      dup3\n        /* \"#utility.yul\":2296:2305   */\n      dup10\n        /* \"#utility.yul\":2292:2314   */\n      add\n        /* \"#utility.yul\":2271:2324   */\n      tag_180\n      jump\t// in\n    tag_239:\n        /* \"#utility.yul\":2261:2324   */\n      swap4\n      pop\n        /* \"#utility.yul\":2216:2334   */\n      pop\n        /* \"#utility.yul\":2373:2375   */\n      0x40\n        /* \"#utility.yul\":2399:2452   */\n      tag_240\n        /* \"#utility.yul\":2444:2451   */\n      dup9\n        /* \"#utility.yul\":2435:2441   */\n      dup3\n        /* \"#utility.yul\":2424:2433   */\n      dup10\n        /* \"#utility.yul\":2420:2442   */\n      add\n        /* \"#utility.yul\":2399:2452   */\n      tag_180\n      jump\t// in\n    tag_240:\n        /* \"#utility.yul\":2389:2452   */\n      swap3\n      pop\n        /* \"#utility.yul\":2344:2462   */\n      pop\n        /* \"#utility.yul\":2501:2503   */\n      0x60\n        /* \"#utility.yul\":2527:2580   */\n      tag_241\n        /* \"#utility.yul\":2572:2579   */\n      dup9\n        /* \"#utility.yul\":2563:2569   */\n      dup3\n        /* \"#utility.yul\":2552:2561   */\n      dup10\n        /* \"#utility.yul\":2548:2570   */\n      add\n        /* \"#utility.yul\":2527:2580   */\n      tag_180\n      jump\t// in\n    tag_241:\n        /* \"#utility.yul\":2517:2580   */\n      swap2\n      pop\n        /* \"#utility.yul\":2472:2590   */\n      pop\n        /* \"#utility.yul\":1632:2597   */\n      swap3\n      swap6\n      pop\n      swap3\n      swap6\n      swap1\n      swap4\n      pop\n      jump\t// out\n        /* \"#utility.yul\":2603:2721   */\n    tag_181:\n        /* \"#utility.yul\":2690:2714   */\n      tag_243\n        /* \"#utility.yul\":2708:2713   */\n      dup2\n        /* \"#utility.yul\":2690:2714   */\n      tag_178\n      jump\t// in\n    tag_243:\n        /* \"#utility.yul\":2685:2688   */\n      dup3\n        /* \"#utility.yul\":2678:2715   */\n      mstore\n        /* \"#utility.yul\":2603:2721   */\n      pop\n      pop\n      jump\t// out\n        /* \"#utility.yul\":2727:2949   */\n    tag_22:\n        /* \"#utility.yul\":2820:2824   */\n      0x00\n        /* \"#utility.yul\":2858:2860   */\n      0x20\n        /* \"#utility.yul\":2847:2856   */\n      dup3\n        /* \"#utility.yul\":2843:2861   */\n      add\n        /* \"#utility.yul\":2835:2861   */\n      swap1\n      pop\n        /* \"#utility.yul\":2871:2942   */\n      tag_245\n        /* \"#utility.yul\":2939:2940   */\n      0x00\n        /* \"#utility.yul\":2928:2937   */\n      dup4\n        /* \"#utility.yul\":2924:2941   */\n      add\n        /* \"#utility.yul\":2915:2921   */\n      dup5\n        /* \"#utility.yul\":2871:2942   */\n      tag_181\n      jump\t// in\n    tag_245:\n        /* \"#utility.yul\":2727:2949   */\n      swap3\n      swap2\n      pop\n      pop\n      jump\t// out\n        /* \"#utility.yul\":2955:3284   */\n    tag_25:\n        /* \"#utility.yul\":3014:3020   */\n      0x00\n        /* \"#utility.yul\":3063:3065   */\n      0x20\n        /* \"#utility.yul\":3051:3060   */\n      dup3\n        /* \"#utility.yul\":3042:3049   */\n      dup5\n        /* \"#utility.yul\":3038:3061   */\n      sub\n        /* \"#utility.yul\":3034:3066   */\n      slt\n        /* \"#utility.yul\":3031:3150   */\n      iszero\n      tag_247\n      jumpi\n        /* \"#utility.yul\":3069:3148   */\n      tag_248\n      tag_172\n      jump\t// in\n    tag_248:\n        /* \"#utility.yul\":3031:3150   */\n    tag_247:\n        /* \"#utility.yul\":3189:3190   */\n      0x00\n        /* \"#utility.yul\":3214:3267   */\n      tag_249\n        /* \"#utility.yul\":3259:3266   */\n      dup5\n        /* \"#utility.yul\":3250:3256   */\n      dup3\n        /* \"#utility.yul\":3239:3248   */\n      dup6\n        /* \"#utility.yul\":3235:3257   */\n      add\n        /* \"#utility.yul\":3214:3267   */\n      tag_180\n      jump\t// in\n    tag_249:\n        /* \"#utility.yul\":3204:3267   */\n      swap2\n      pop\n        /* \"#utility.yul\":3160:3277   */\n      pop\n        /* \"#utility.yul\":2955:3284   */\n      swap3\n      swap2\n      pop\n      pop\n      jump\t// out\n        /* \"#utility.yul\":3290:3389   */\n    tag_182:\n        /* \"#utility.yul\":3342:3348   */\n      0x00\n        /* \"#utility.yul\":3376:3381   */\n      dup2\n        /* \"#utility.yul\":3370:3382   */\n      mload\n        /* \"#utility.yul\":3360:3382   */\n      swap1\n      pop\n        /* \"#utility.yul\":3290:3389   */\n      swap2\n      swap1\n      pop\n      jump\t// out\n        /* \"#utility.yul\":3395:3564   */\n    tag_183:\n        /* \"#utility.yul\":3479:3490   */\n      0x00\n        /* \"#utility.yul\":3513:3519   */\n      dup3\n        /* \"#utility.yul\":3508:3511   */\n      dup3\n        /* \"#utility.yul\":3501:3520   */\n      mstore\n        /* \"#utility.yul\":3553:3557   */\n      0x20\n        /* \"#utility.yul\":3548:3551   */\n      dup3\n        /* \"#utility.yul\":3544:3558   */\n      add\n        /* \"#utility.yul\":3529:3558   */\n      swap1\n      pop\n        /* \"#utility.yul\":3395:3564   */\n      swap3\n      swap2\n      pop\n      pop\n      jump\t// out\n        /* \"#utility.yul\":3570:3709   */\n    tag_184:\n        /* \"#utility.yul\":3659:3665   */\n      dup3\n        /* \"#utility.yul\":3654:3657   */\n      dup2\n        /* \"#utility.yul\":3649:3652   */\n      dup4\n        /* \"#utility.yul\":3643:3666   */\n      mcopy\n        /* \"#utility.yul\":3700:3701   */\n      0x00\n        /* \"#utility.yul\":3691:3697   */\n      dup4\n        /* \"#utility.yul\":3686:3689   */\n      dup4\n        /* \"#utility.yul\":3682:3698   */\n      add\n        /* \"#utility.yul\":3675:3702   */\n      mstore\n        /* \"#utility.yul\":3570:3709   */\n      pop\n      pop\n      pop\n      jump\t// out\n        /* \"#utility.yul\":3715:3817   */\n    tag_185:\n        /* \"#utility.yul\":3756:3762   */\n      0x00\n        /* \"#utility.yul\":3807:3809   */\n      0x1f\n        /* \"#utility.yul\":3803:3810   */\n      not\n        /* \"#utility.yul\":3798:3800   */\n      0x1f\n        /* \"#utility.yul\":3791:3796   */\n      dup4\n        /* \"#utility.yul\":3787:3801   */\n      add\n        /* \"#utility.yul\":3783:3811   */\n      and\n        /* \"#utility.yul\":3773:3811   */\n      swap1\n      pop\n        /* \"#utility.yul\":3715:3817   */\n      swap2\n      swap1\n      pop\n      jump\t// out\n        /* \"#utility.yul\":3823:4200   */\n    tag_186:\n        /* \"#utility.yul\":3911:3914   */\n      0x00\n        /* \"#utility.yul\":3939:3978   */\n      tag_255\n        /* \"#utility.yul\":3972:3977   */\n      dup3\n        /* \"#utility.yul\":3939:3978   */\n      tag_182\n      jump\t// in\n    tag_255:\n        /* \"#utility.yul\":3994:4065   */\n      tag_256\n        /* \"#utility.yul\":4058:4064   */\n      dup2\n        /* \"#utility.yul\":4053:4056   */\n      dup6\n        /* \"#utility.yul\":3994:4065   */\n      tag_183\n      jump\t// in\n    tag_256:\n        /* \"#utility.yul\":3987:4065   */\n      swap4\n      pop\n        /* \"#utility.yul\":4074:4139   */\n      tag_257\n        /* \"#utility.yul\":4132:4138   */\n      dup2\n        /* \"#utility.yul\":4127:4130   */\n      dup6\n        /* \"#utility.yul\":4120:4124   */\n      0x20\n        /* \"#utility.yul\":4113:4118   */\n      dup7\n        /* \"#utility.yul\":4109:4125   */\n      add\n        /* \"#utility.yul\":4074:4139   */\n      tag_184\n      jump\t// in\n    tag_257:\n        /* \"#utility.yul\":4164:4193   */\n      tag_258\n        /* \"#utility.yul\":4186:4192   */\n      dup2\n        /* \"#utility.yul\":4164:4193   */\n      tag_185\n      jump\t// in\n    tag_258:\n        /* \"#utility.yul\":4159:4162   */\n      dup5\n        /* \"#utility.yul\":4155:4194   */\n      add\n        /* \"#utility.yul\":4148:4194   */\n      swap2\n      pop\n        /* \"#utility.yul\":3915:4200   */\n      pop\n        /* \"#utility.yul\":3823:4200   */\n      swap3\n      swap2\n      pop\n      pop\n      jump\t// out\n        /* \"#utility.yul\":4206:4850   */\n    tag_34:\n        /* \"#utility.yul\":4403:4407   */\n      0x00\n        /* \"#utility.yul\":4441:4444   */\n      0x80\n        /* \"#utility.yul\":4430:4439   */\n      dup3\n        /* \"#utility.yul\":4426:4445   */\n      add\n        /* \"#utility.yul\":4418:4445   */\n      swap1\n      pop\n        /* \"#utility.yul\":4491:4500   */\n      dup2\n        /* \"#utility.yul\":4485:4489   */\n      dup2\n        /* \"#utility.yul\":4481:4501   */\n      sub\n        /* \"#utility.yul\":4477:4478   */\n      0x00\n        /* \"#utility.yul\":4466:4475   */\n      dup4\n        /* \"#utility.yul\":4462:4479   */\n      add\n        /* \"#utility.yul\":4455:4502   */\n      mstore\n        /* \"#utility.yul\":4519:4597   */\n      tag_260\n        /* \"#utility.yul\":4592:4596   */\n      dup2\n        /* \"#utility.yul\":4583:4589   */\n      dup8\n        /* \"#utility.yul\":4519:4597   */\n      tag_186\n      jump\t// in\n    tag_260:\n        /* \"#utility.yul\":4511:4597   */\n      swap1\n      pop\n        /* \"#utility.yul\":4607:4679   */\n      tag_261\n        /* \"#utility.yul\":4675:4677   */\n      0x20\n        /* \"#utility.yul\":4664:4673   */\n      dup4\n        /* \"#utility.yul\":4660:4678   */\n      add\n        /* \"#utility.yul\":4651:4657   */\n      dup7\n        /* \"#utility.yul\":4607:4679   */\n      tag_181\n      jump\t// in\n    tag_261:\n        /* \"#utility.yul\":4689:4761   */\n      tag_262\n        /* \"#utility.yul\":4757:4759   */\n      0x40\n        /* \"#utility.yul\":4746:4755   */\n      dup4\n        /* \"#utility.yul\":4742:4760   */\n      add\n        /* \"#utility.yul\":4733:4739   */\n      dup6\n        /* \"#utility.yul\":4689:4761   */\n      tag_181\n      jump\t// in\n    tag_262:\n        /* \"#utility.yul\":4771:4843   */\n      tag_263\n        /* \"#utility.yul\":4839:4841   */\n      0x60\n        /* \"#utility.yul\":4828:4837   */\n      dup4\n        /* \"#utility.yul\":4824:4842   */\n      add\n        /* \"#utility.yul\":4815:4821   */\n      dup5\n        /* \"#utility.yul\":4771:4843   */\n      tag_181\n      jump\t// in\n    tag_263:\n        /* \"#utility.yul\":4206:4850   */\n      swap6\n      swap5\n      pop\n      pop\n      pop\n      pop\n      pop\n      jump\t// out\n        /* \"#utility.yul\":4856:5330   */\n    tag_37:\n        /* \"#utility.yul\":4924:4930   */\n      0x00\n        /* \"#utility.yul\":4932:4938   */\n      0x00\n        /* \"#utility.yul\":4981:4983   */\n      0x40\n        /* \"#utility.yul\":4969:4978   */\n      dup4\n        /* \"#utility.yul\":4960:4967   */\n      dup6\n        /* \"#utility.yul\":4956:4979   */\n      sub\n        /* \"#utility.yul\":4952:4984   */\n      slt\n        /* \"#utility.yul\":4949:5068   */\n      iszero\n      tag_265\n      jumpi\n        /* \"#utility.yul\":4987:5066   */\n      tag_266\n      tag_172\n      jump\t// in\n    tag_266:\n        /* \"#utility.yul\":4949:5068   */\n    tag_265:\n        /* \"#utility.yul\":5107:5108   */\n      0x00\n        /* \"#utility.yul\":5132:5185   */\n      tag_267\n        /* \"#utility.yul\":5177:5184   */\n      dup6\n        /* \"#utility.yul\":5168:5174   */\n      dup3\n        /* \"#utility.yul\":5157:5166   */\n      dup7\n        /* \"#utility.yul\":5153:5175   */\n      add\n        /* \"#utility.yul\":5132:5185   */\n      tag_180\n      jump\t// in\n    tag_267:\n        /* \"#utility.yul\":5122:5185   */\n      swap3\n      pop\n        /* \"#utility.yul\":5078:5195   */\n      pop\n        /* \"#utility.yul\":5234:5236   */\n      0x20\n        /* \"#utility.yul\":5260:5313   */\n      tag_268\n        /* \"#utility.yul\":5305:5312   */\n      dup6\n        /* \"#utility.yul\":5296:5302   */\n      dup3\n        /* \"#utility.yul\":5285:5294   */\n      dup7\n        /* \"#utility.yul\":5281:5303   */\n      add\n        /* \"#utility.yul\":5260:5313   */\n      tag_180\n      jump\t// in\n    tag_268:\n        /* \"#utility.yul\":5250:5313   */\n      swap2\n      pop\n        /* \"#utility.yul\":5205:5323   */\n      pop\n        /* \"#utility.yul\":4856:5330   */\n      swap3\n      pop\n      swap3\n      swap1\n      pop\n      jump\t// out\n        /* \"#utility.yul\":5336:5462   */\n    tag_187:\n        /* \"#utility.yul\":5373:5380   */\n      0x00\n        /* \"#utility.yul\":5413:5455   */\n      0xffffffffffffffffffffffffffffffffffffffff\n        /* \"#utility.yul\":5406:5411   */\n      dup3\n        /* \"#utility.yul\":5402:5456   */\n      and\n        /* \"#utility.yul\":5391:5456   */\n      swap1\n      pop\n        /* \"#utility.yul\":5336:5462   */\n      swap2\n      swap1\n      pop\n      jump\t// out\n        /* \"#utility.yul\":5468:5564   */\n    tag_188:\n        /* \"#utility.yul\":5505:5512   */\n      0x00\n        /* \"#utility.yul\":5534:5558   */\n      tag_271\n        /* \"#utility.yul\":5552:5557   */\n      dup3\n        /* \"#utility.yul\":5534:5558   */\n      tag_187\n      jump\t// in\n    tag_271:\n        /* \"#utility.yul\":5523:5558   */\n      swap1\n      pop\n        /* \"#utility.yul\":5468:5564   */\n      swap2\n      swap1\n      pop\n      jump\t// out\n        /* \"#utility.yul\":5570:5688   */\n    tag_189:\n        /* \"#utility.yul\":5657:5681   */\n      tag_273\n        /* \"#utility.yul\":5675:5680   */\n      dup2\n        /* \"#utility.yul\":5657:5681   */\n      tag_188\n      jump\t// in\n    tag_273:\n        /* \"#utility.yul\":5652:5655   */\n      dup3\n        /* \"#utility.yul\":5645:5682   */\n      mstore\n        /* \"#utility.yul\":5570:5688   */\n      pop\n      pop\n      jump\t// out\n        /* \"#utility.yul\":5694:5916   */\n    tag_42:\n        /* \"#utility.yul\":5787:5791   */\n      0x00\n        /* \"#utility.yul\":5825:5827   */\n      0x20\n        /* \"#utility.yul\":5814:5823   */\n      dup3\n        /* \"#utility.yul\":5810:5828   */\n      add\n        /* \"#utility.yul\":5802:5828   */\n      swap1\n      pop\n        /* \"#utility.yul\":5838:5909   */\n      tag_275\n        /* \"#utility.yul\":5906:5907   */\n      0x00\n        /* \"#utility.yul\":5895:5904   */\n      dup4\n        /* \"#utility.yul\":5891:5908   */\n      add\n        /* \"#utility.yul\":5882:5888   */\n      dup5\n        /* \"#utility.yul\":5838:5909   */\n      tag_189\n      jump\t// in\n    tag_275:\n        /* \"#utility.yul\":5694:5916   */\n      swap3\n      swap2\n      pop\n      pop\n      jump\t// out\n        /* \"#utility.yul\":5922:6044   */\n    tag_190:\n        /* \"#utility.yul\":5995:6019   */\n      tag_277\n        /* \"#utility.yul\":6013:6018   */\n      dup2\n        /* \"#utility.yul\":5995:6019   */\n      tag_188\n      jump\t// in\n    tag_277:\n        /* \"#utility.yul\":5988:5993   */\n      dup2\n        /* \"#utility.yul\":5985:6020   */\n      eq\n        /* \"#utility.yul\":5975:6038   */\n      tag_278\n      jumpi\n        /* \"#utility.yul\":6034:6035   */\n      0x00\n        /* \"#utility.yul\":6031:6032   */\n      0x00\n        /* \"#utility.yul\":6024:6036   */\n      revert\n        /* \"#utility.yul\":5975:6038   */\n    tag_278:\n        /* \"#utility.yul\":5922:6044   */\n      pop\n      jump\t// out\n        /* \"#utility.yul\":6050:6189   */\n    tag_191:\n        /* \"#utility.yul\":6096:6101   */\n      0x00\n        /* \"#utility.yul\":6134:6140   */\n      dup2\n        /* \"#utility.yul\":6121:6141   */\n      calldataload\n        /* \"#utility.yul\":6112:6141   */\n      swap1\n      pop\n        /* \"#utility.yul\":6150:6183   */\n      tag_280\n        /* \"#utility.yul\":6177:6182   */\n      dup2\n        /* \"#utility.yul\":6150:6183   */\n      tag_190\n      jump\t// in\n    tag_280:\n        /* \"#utility.yul\":6050:6189   */\n      swap3\n      swap2\n      pop\n      pop\n      jump\t// out\n        /* \"#utility.yul\":6195:6524   */\n    tag_55:\n        /* \"#utility.yul\":6254:6260   */\n      0x00\n        /* \"#utility.yul\":6303:6305   */\n      0x20\n        /* \"#utility.yul\":6291:6300   */\n      dup3\n        /* \"#utility.yul\":6282:6289   */\n      dup5\n        /* \"#utility.yul\":6278:6301   */\n      sub\n        /* \"#utility.yul\":6274:6306   */\n      slt\n        /* \"#utility.yul\":6271:6390   */\n      iszero\n      tag_282\n      jumpi\n        /* \"#utility.yul\":6309:6388   */\n      tag_283\n      tag_172\n      jump\t// in\n    tag_283:\n        /* \"#utility.yul\":6271:6390   */\n    tag_282:\n        /* \"#utility.yul\":6429:6430   */\n      0x00\n        /* \"#utility.yul\":6454:6507   */\n      tag_284\n        /* \"#utility.yul\":6499:6506   */\n      dup5\n        /* \"#utility.yul\":6490:6496   */\n      dup3\n        /* \"#utility.yul\":6479:6488   */\n      dup6\n        /* \"#utility.yul\":6475:6497   */\n      add\n        /* \"#utility.yul\":6454:6507   */\n      tag_191\n      jump\t// in\n    tag_284:\n        /* \"#utility.yul\":6444:6507   */\n      swap2\n      pop\n        /* \"#utility.yul\":6400:6517   */\n      pop\n        /* \"#utility.yul\":6195:6524   */\n      swap3\n      swap2\n      pop\n      pop\n      jump\t// out\n        /* \"#utility.yul\":6530:6710   */\n    tag_192:\n        /* \"#utility.yul\":6578:6655   */\n      0x4e487b7100000000000000000000000000000000000000000000000000000000\n        /* \"#utility.yul\":6575:6576   */\n      0x00\n        /* \"#utility.yul\":6568:6656   */\n      mstore\n        /* \"#utility.yul\":6675:6679   */\n      0x41\n        /* \"#utility.yul\":6672:6673   */\n      0x04\n        /* \"#utility.yul\":6665:6680   */\n      mstore\n        /* \"#utility.yul\":6699:6703   */\n      0x24\n        /* \"#utility.yul\":6696:6697   */\n      0x00\n        /* \"#utility.yul\":6689:6704   */\n      revert\n        /* \"#utility.yul\":6716:6896   */\n    tag_193:\n        /* \"#utility.yul\":6764:6841   */\n      0x4e487b7100000000000000000000000000000000000000000000000000000000\n        /* \"#utility.yul\":6761:6762   */\n      0x00\n        /* \"#utility.yul\":6754:6842   */\n      mstore\n        /* \"#utility.yul\":6861:6865   */\n      0x22\n        /* \"#utility.yul\":6858:6859   */\n      0x04\n        /* \"#utility.yul\":6851:6866   */\n      mstore\n        /* \"#utility.yul\":6885:6889   */\n      0x24\n        /* \"#utility.yul\":6882:6883   */\n      0x00\n        /* \"#utility.yul\":6875:6890   */\n      revert\n        /* \"#utility.yul\":6902:7222   */\n    tag_81:\n        /* \"#utility.yul\":6946:6952   */\n      0x00\n        /* \"#utility.yul\":6983:6984   */\n      0x02\n        /* \"#utility.yul\":6977:6981   */\n      dup3\n        /* \"#utility.yul\":6973:6985   */\n      div\n        /* \"#utility.yul\":6963:6985   */\n      swap1\n      pop\n        /* \"#utility.yul\":7030:7031   */\n      0x01\n        /* \"#utility.yul\":7024:7028   */\n      dup3\n        /* \"#utility.yul\":7020:7032   */\n      and\n        /* \"#utility.yul\":7051:7069   */\n      dup1\n        /* \"#utility.yul\":7041:7122   */\n      tag_288\n      jumpi\n        /* \"#utility.yul\":7107:7111   */\n      0x7f\n        /* \"#utility.yul\":7099:7105   */\n      dup3\n        /* \"#utility.yul\":7095:7112   */\n      and\n        /* \"#utility.yul\":7085:7112   */\n      swap2\n      pop\n        /* \"#utility.yul\":7041:7122   */\n    tag_288:\n        /* \"#utility.yul\":7169:7171   */\n      0x20\n        /* \"#utility.yul\":7161:7167   */\n      dup3\n        /* \"#utility.yul\":7158:7172   */\n      lt\n        /* \"#utility.yul\":7138:7156   */\n      dup2\n        /* \"#utility.yul\":7135:7173   */\n      sub\n        /* \"#utility.yul\":7132:7216   */\n      tag_289\n      jumpi\n        /* \"#utility.yul\":7188:7206   */\n      tag_290\n      tag_193\n      jump\t// in\n    tag_290:\n        /* \"#utility.yul\":7132:7216   */\n    tag_289:\n        /* \"#utility.yul\":6953:7222   */\n      pop\n        /* \"#utility.yul\":6902:7222   */\n      swap2\n      swap1\n      pop\n      jump\t// out\n        /* \"#utility.yul\":7228:7369   */\n    tag_194:\n        /* \"#utility.yul\":7277:7281   */\n      0x00\n        /* \"#utility.yul\":7300:7303   */\n      dup2\n        /* \"#utility.yul\":7292:7303   */\n      swap1\n      pop\n        /* \"#utility.yul\":7323:7326   */\n      dup2\n        /* \"#utility.yul\":7320:7321   */\n      0x00\n        /* \"#utility.yul\":7313:7327   */\n      mstore\n        /* \"#utility.yul\":7357:7361   */\n      0x20\n        /* \"#utility.yul\":7354:7355   */\n      0x00\n        /* \"#utility.yul\":7344:7362   */\n      keccak256\n        /* \"#utility.yul\":7336:7362   */\n      swap1\n      pop\n        /* \"#utility.yul\":7228:7369   */\n      swap2\n      swap1\n      pop\n      jump\t// out\n        /* \"#utility.yul\":7375:7468   */\n    tag_195:\n        /* \"#utility.yul\":7412:7418   */\n      0x00\n        /* \"#utility.yul\":7459:7461   */\n      0x20\n        /* \"#utility.yul\":7454:7456   */\n      0x1f\n        /* \"#utility.yul\":7447:7452   */\n      dup4\n        /* \"#utility.yul\":7443:7457   */\n      add\n        /* \"#utility.yul\":7439:7462   */\n      div\n        /* \"#utility.yul\":7429:7462   */\n      swap1\n      pop\n        /* \"#utility.yul\":7375:7468   */\n      swap2\n      swap1\n      pop\n      jump\t// out\n        /* \"#utility.yul\":7474:7581   */\n    tag_196:\n        /* \"#utility.yul\":7518:7526   */\n      0x00\n        /* \"#utility.yul\":7568:7573   */\n      dup3\n        /* \"#utility.yul\":7562:7566   */\n      dup3\n        /* \"#utility.yul\":7558:7574   */\n      shl\n        /* \"#utility.yul\":7537:7574   */\n      swap1\n      pop\n        /* \"#utility.yul\":7474:7581   */\n      swap3\n      swap2\n      pop\n      pop\n      jump\t// out\n        /* \"#utility.yul\":7587:7980   */\n    tag_197:\n        /* \"#utility.yul\":7656:7662   */\n      0x00\n        /* \"#utility.yul\":7706:7707   */\n      0x08\n        /* \"#utility.yul\":7694:7704   */\n      dup4\n        /* \"#utility.yul\":7690:7708   */\n      mul\n        /* \"#utility.yul\":7729:7826   */\n      tag_295\n        /* \"#utility.yul\":7759:7825   */\n      0xffffffffffffffffffffffffffffffffffffffffffffffffffffffffffffffff\n        /* \"#utility.yul\":7748:7757   */\n      dup3\n        /* \"#utility.yul\":7729:7826   */\n      tag_196\n      jump\t// in\n    tag_295:\n        /* \"#utility.yul\":7847:7886   */\n      tag_296\n        /* \"#utility.yul\":7877:7885   */\n      dup7\n        /* \"#utility.yul\":7866:7875   */\n      dup4\n        /* \"#utility.yul\":7847:7886   */\n      tag_196\n      jump\t// in\n    tag_296:\n        /* \"#utility.yul\":7835:7886   */\n      swap6\n      pop\n        /* \"#utility.yul\":7919:7923   */\n      dup1\n        /* \"#utility.yul\":7915:7924   */\n      not\n        /* \"#utility.yul\":7908:7913   */\n      dup5\n        /* \"#utility.yul\":7904:7925   */\n      and\n        /* \"#utility.yul\":7895:7925   */\n      swap4\n      pop\n        /* \"#utility.yul\":7968:7972   */\n      dup1\n        /* \"#utility.yul\":7958:7966   */\n      dup7\n        /* \"#utility.yul\":7954:7973   */\n      and\n        /* \"#utility.yul\":7947:7952   */\n      dup5\n        /* \"#utility.yul\":7944:7974   */\n      or\n        /* \"#utility.yul\":7934:7974   */\n      swap3\n      pop\n        /* \"#utility.yul\":7663:7980   */\n      pop\n      pop\n        /* \"#utility.yul\":7587:7980   */\n      swap4\n      swap3\n      pop\n      pop\n      pop\n      jump\t// out\n        /* \"#utility.yul\":7986:8046   */\n    tag_198:\n        /* \"#utility.yul\":8014:8017   */\n      0x00\n        /* \"#utility.yul\":8035:8040   */\n      dup2\n        /* \"#utility.yul\":8028:8040   */\n      swap1\n      pop\n        /* \"#utility.yul\":7986:8046   */\n      swap2\n      swap1\n      pop\n      jump\t// out\n        /* \"#utility.yul\":8052:8194   */\n    tag_199:\n        /* \"#utility.yul\":8102:8111   */\n      0x00\n        /* \"#utility.yul\":8135:8188   */\n      tag_299\n        /* \"#utility.yul\":8153:8187   */\n      tag_300\n        /* \"#utility.yul\":8162:8186   */\n      tag_301\n        /* \"#utility.yul\":8180:8185   */\n      dup5\n        /* \"#utility.yul\":8162:8186   */\n      tag_178\n      jump\t// in\n    tag_301:\n        /* \"#utility.yul\":8153:8187   */\n      tag_198\n      jump\t// in\n    tag_300:\n        /* \"#utility.yul\":8135:8188   */\n      tag_178\n      jump\t// in\n    tag_299:\n        /* \"#utility.yul\":8122:8188   */\n      swap1\n      pop\n        /* \"#utility.yul\":8052:8194   */\n      swap2\n      swap1\n      pop\n      jump\t// out\n        /* \"#utility.yul\":8200:8275   */\n    tag_200:\n        /* \"#utility.yul\":8243:8246   */\n      0x00\n        /* \"#utility.yul\":8264:8269   */\n      dup2\n        /* \"#utility.yul\":8257:8269   */\n      swap1\n      pop\n        /* \"#utility.yul\":8200:8275   */\n      swap2\n      swap1\n      pop\n      jump\t// out\n        /* \"#utility.yul\":8281:8550   */\n    tag_201:\n        /* \"#utility.yul\":8391:8430   */\n      tag_304\n        /* \"#utility.yul\":8422:8429   */\n      dup4\n        /* \"#utility.yul\":8391:8430   */\n      tag_199\n      jump\t// in\n    tag_304:\n        /* \"#utility.yul\":8452:8543   */\n      tag_305\n        /* \"#utility.yul\":8501:8542   */\n      tag_306\n        /* \"#utility.yul\":8525:8541   */\n      dup3\n        /* \"#utility.yul\":8501:8542   */\n      tag_200\n      jump\t// in\n    tag_306:\n        /* \"#utility.yul\":8493:8499   */\n      dup5\n        /* \"#utility.yul\":8486:8490   */\n      dup5\n        /* \"#utility.yul\":8480:8491   */\n      sload\n        /* \"#utility.yul\":8452:8543   */\n      tag_197\n      jump\t// in\n    tag_305:\n        /* \"#utility.yul\":8446:8450   */\n      dup3\n        /* \"#utility.yul\":8439:8544   */\n      sstore\n        /* \"#utility.yul\":8357:8550   */\n      pop\n        /* \"#utility.yul\":8281:8550   */\n      pop\n      pop\n      pop\n      jump\t// out\n        /* \"#utility.yul\":8556:8629   */\n    tag_202:\n        /* \"#utility.yul\":8601:8604   */\n      0x00\n        /* \"#utility.yul\":8622:8623   */\n      0x00\n        /* \"#utility.yul\":8615:8623   */\n      swap1\n      pop\n        /* \"#utility.yul\":8556:8629   */\n      swap1\n      jump\t// out\n        /* \"#utility.yul\":8635:8824   */\n    tag_203:\n        /* \"#utility.yul\":8712:8744   */\n      tag_309\n      tag_202\n      jump\t// in\n    tag_309:\n        /* \"#utility.yul\":8753:8818   */\n      tag_310\n        /* \"#utility.yul\":8811:8817   */\n      dup2\n        /* \"#utility.yul\":8803:8809   */\n      dup5\n        /* \"#utility.yul\":8797:8801   */\n      dup5\n        /* \"#utility.yul\":8753:8818   */\n      tag_201\n      jump\t// in\n    tag_310:\n        /* \"#utility.yul\":8688:8824   */\n      pop\n        /* \"#utility.yul\":8635:8824   */\n      pop\n      pop\n      jump\t// out\n        /* \"#utility.yul\":8830:9016   */\n    tag_204:\n        /* \"#utility.yul\":8890:9010   */\n    tag_312:\n        /* \"#utility.yul\":8907:8910   */\n      dup2\n        /* \"#utility.yul\":8900:8905   */\n      dup2\n        /* \"#utility.yul\":8897:8911   */\n      lt\n        /* \"#utility.yul\":8890:9010   */\n      iszero\n      tag_314\n      jumpi\n        /* \"#utility.yul\":8961:9000   */\n      tag_315\n        /* \"#utility.yul\":8998:8999   */\n      0x00\n        /* \"#utility.yul\":8991:8996   */\n      dup3\n        /* \"#utility.yul\":8961:9000   */\n      tag_203\n      jump\t// in\n    tag_315:\n        /* \"#utility.yul\":8934:8935   */\n      0x01\n        /* \"#utility.yul\":8927:8932   */\n      dup2\n        /* \"#utility.yul\":8923:8936   */\n      add\n        /* \"#utility.yul\":8914:8936   */\n      swap1\n      pop\n        /* \"#utility.yul\":8890:9010   */\n      jump(tag_312)\n    tag_314:\n        /* \"#utility.yul\":8830:9016   */\n      pop\n      pop\n      jump\t// out\n        /* \"#utility.yul\":9022:9565   */\n    tag_205:\n        /* \"#utility.yul\":9123:9125   */\n      0x1f\n        /* \"#utility.yul\":9118:9121   */\n      dup3\n        /* \"#utility.yul\":9115:9126   */\n      gt\n        /* \"#utility.yul\":9112:9558   */\n      iszero\n      tag_317\n      jumpi\n        /* \"#utility.yul\":9157:9195   */\n      tag_318\n        /* \"#utility.yul\":9189:9194   */\n      dup2\n        /* \"#utility.yul\":9157:9195   */\n      tag_194\n      jump\t// in\n    tag_318:\n        /* \"#utility.yul\":9241:9270   */\n      tag_319\n        /* \"#utility.yul\":9259:9269   */\n      dup5\n        /* \"#utility.yul\":9241:9270   */\n      tag_195\n      jump\t// in\n    tag_319:\n        /* \"#utility.yul\":9231:9239   */\n      dup2\n        /* \"#utility.yul\":9227:9271   */\n      add\n        /* \"#utility.yul\":9424:9426   */\n      0x20\n        /* \"#utility.yul\":9412:9422   */\n      dup6\n        /* \"#utility.yul\":9409:9427   */\n      lt\n        /* \"#utility.yul\":9406:9455   */\n      iszero\n      tag_320\n      jumpi\n        /* \"#utility.yul\":9445:9453   */\n      dup2\n        /* \"#utility.yul\":9430:9453   */\n      swap1\n      pop\n        /* \"#utility.yul\":9406:9455   */\n    tag_320:\n        /* \"#utility.yul\":9468:9548   */\n      tag_321\n        /* \"#utility.yul\":9524:9546   */\n      tag_322\n        /* \"#utility.yul\":9542:9545   */\n      dup6\n        /* \"#utility.yul\":9524:9546   */\n      tag_195\n      jump\t// in\n    tag_322:\n        /* \"#utility.yul\":9514:9522   */\n      dup4\n        /* \"#utility.yul\":9510:9547   */\n      add\n        /* \"#utility.yul\":9497:9508   */\n      dup3\n        /* \"#utility.yul\":9468:9548   */\n      tag_204\n      jump\t// in\n    tag_321:\n        /* \"#utility.yul\":9127:9558   */\n      pop\n      pop\n        /* \"#utility.yul\":9112:9558   */\n    tag_317:\n        /* \"#utility.yul\":9022:9565   */\n      pop\n      pop\n      pop\n      jump\t// out\n        /* \"#utility.yul\":9571:9688   */\n    tag_206:\n        /* \"#utility.yul\":9625:9633   */\n      0x00\n        /* \"#utility.yul\":9675:9680   */\n      dup3\n        /* \"#utility.yul\":9669:9673   */\n      dup3\n        /* \"#utility.yul\":9665:9681   */\n      shr\n        /* \"#utility.yul\":9644:9681   */\n      swap1\n      pop\n        /* \"#utility.yul\":9571:9688   */\n      swap3\n      swap2\n      pop\n      pop\n      jump\t// out\n        /* \"#utility.yul\":9694:9863   */\n    tag_207:\n        /* \"#utility.yul\":9738:9744   */\n      0x00\n        /* \"#utility.yul\":9771:9822   */\n      tag_325\n        /* \"#utility.yul\":9819:9820   */\n      0x00\n        /* \"#utility.yul\":9815:9821   */\n      not\n        /* \"#utility.yul\":9807:9812   */\n      dup5\n        /* \"#utility.yul\":9804:9805   */\n      0x08\n        /* \"#utility.yul\":9800:9813   */\n      mul\n        /* \"#utility.yul\":9771:9822   */\n      tag_206\n      jump\t// in\n    tag_325:\n        /* \"#utility.yul\":9767:9823   */\n      not\n        /* \"#utility.yul\":9852:9856   */\n      dup1\n        /* \"#utility.yul\":9846:9850   */\n      dup4\n        /* \"#utility.yul\":9842:9857   */\n      and\n        /* \"#utility.yul\":9832:9857   */\n      swap2\n      pop\n        /* \"#utility.yul\":9745:9863   */\n      pop\n        /* \"#utility.yul\":9694:9863   */\n      swap3\n      swap2\n      pop\n      pop\n      jump\t// out\n        /* \"#utility.yul\":9868:10163   */\n    tag_208:\n        /* \"#utility.yul\":9944:9948   */\n      0x00\n        /* \"#utility.yul\":10090:10119   */\n      tag_327\n        /* \"#utility.yul\":10115:10118   */\n      dup4\n        /* \"#utility.yul\":10109:10113   */\n      dup4\n        /* \"#utility.yul\":10090:10119   */\n      tag_207\n      jump\t// in\n    tag_327:\n        /* \"#utility.yul\":10082:10119   */\n      swap2\n      pop\n        /* \"#utility.yul\":10152:10155   */\n      dup3\n        /* \"#utility.yul\":10149:10150   */\n      0x02\n        /* \"#utility.yul\":10145:10156   */\n      mul\n        /* \"#utility.yul\":10139:10143   */\n      dup3\n        /* \"#utility.yul\":10136:10157   */\n      or\n        /* \"#utility.yul\":10128:10157   */\n      swap1\n      pop\n        /* \"#utility.yul\":9868:10163   */\n      swap3\n      swap2\n      pop\n      pop\n      jump\t// out\n        /* \"#utility.yul\":10168:11563   */\n    tag_66:\n        /* \"#utility.yul\":10285:10322   */\n      tag_329\n        /* \"#utility.yul\":10318:10321   */\n      dup3\n        /* \"#utility.yul\":10285:10322   */\n      tag_182\n      jump\t// in\n    tag_329:\n        /* \"#utility.yul\":10387:10405   */\n      0xffffffffffffffff\n        /* \"#utility.yul\":10379:10385   */\n      dup2\n        /* \"#utility.yul\":10376:10406   */\n      gt\n        /* \"#utility.yul\":10373:10429   */\n      iszero\n      tag_330\n      jumpi\n        /* \"#utility.yul\":10409:10427   */\n      tag_331\n      tag_192\n      jump\t// in\n    tag_331:\n        /* \"#utility.yul\":10373:10429   */\n    tag_330:\n        /* \"#utility.yul\":10453:10491   */\n      tag_332\n        /* \"#utility.yul\":10485:10489   */\n      dup3\n        /* \"#utility.yul\":10479:10490   */\n      sload\n        /* \"#utility.yul\":10453:10491   */\n      tag_81\n      jump\t// in\n    tag_332:\n        /* \"#utility.yul\":10538:10605   */\n      tag_333\n        /* \"#utility.yul\":10598:10604   */\n      dup3\n        /* \"#utility.yul\":10590:10596   */\n      dup3\n        /* \"#utility.yul\":10584:10588   */\n      dup6\n        /* \"#utility.yul\":10538:10605   */\n      tag_205\n      jump\t// in\n    tag_333:\n        /* \"#utility.yul\":10632:10633   */\n      0x00\n        /* \"#utility.yul\":10656:10660   */\n      0x20\n        /* \"#utility.yul\":10643:10660   */\n      swap1\n      pop\n        /* \"#utility.yul\":10688:10690   */\n      0x1f\n        /* \"#utility.yul\":10680:10686   */\n      dup4\n        /* \"#utility.yul\":10677:10691   */\n      gt\n        /* \"#utility.yul\":10705:10706   */\n      0x01\n        /* \"#utility.yul\":10700:11318   */\n      dup2\n      eq\n      tag_335\n      jumpi\n        /* \"#utility.yul\":11362:11363   */\n      0x00\n        /* \"#utility.yul\":11379:11385   */\n      dup5\n        /* \"#utility.yul\":11376:11453   */\n      iszero\n      tag_336\n      jumpi\n        /* \"#utility.yul\":11428:11437   */\n      dup3\n        /* \"#utility.yul\":11423:11426   */\n      dup8\n        /* \"#utility.yul\":11419:11438   */\n      add\n        /* \"#utility.yul\":11413:11439   */\n      mload\n        /* \"#utility.yul\":11404:11439   */\n      swap1\n      pop\n        /* \"#utility.yul\":11376:11453   */\n    tag_336:\n        /* \"#utility.yul\":11479:11546   */\n      tag_337\n        /* \"#utility.yul\":11539:11545   */\n      dup6\n        /* \"#utility.yul\":11532:11537   */\n      dup3\n        /* \"#utility.yul\":11479:11546   */\n      tag_208\n      jump\t// in\n    tag_337:\n        /* \"#utility.yul\":11473:11477   */\n      dup7\n        /* \"#utility.yul\":11466:11547   */\n      sstore\n        /* \"#utility.yul\":11335:11557   */\n      pop\n        /* \"#utility.yul\":10670:11557   */\n      jump(tag_334)\n        /* \"#utility.yul\":10700:11318   */\n    tag_335:\n        /* \"#utility.yul\":10752:10756   */\n      0x1f\n        /* \"#utility.yul\":10748:10757   */\n      not\n        /* \"#utility.yul\":10740:10746   */\n      dup5\n        /* \"#utility.yul\":10736:10758   */\n      and\n        /* \"#utility.yul\":10786:10823   */\n      tag_338\n        /* \"#utility.yul\":10818:10822   */\n      dup7\n        /* \"#utility.yul\":10786:10823   */\n      tag_194\n      jump\t// in\n    tag_338:\n        /* \"#utility.yul\":10845:10846   */\n      0x00\n        /* \"#utility.yul\":10859:11067   */\n    tag_339:\n        /* \"#utility.yul\":10873:10880   */\n      dup3\n        /* \"#utility.yul\":10870:10871   */\n      dup2\n        /* \"#utility.yul\":10867:10881   */\n      lt\n        /* \"#utility.yul\":10859:11067   */\n      iszero\n      tag_341\n      jumpi\n        /* \"#utility.yul\":10952:10961   */\n      dup5\n        /* \"#utility.yul\":10947:10950   */\n      dup10\n        /* \"#utility.yul\":10943:10962   */\n      add\n        /* \"#utility.yul\":10937:10963   */\n      mload\n        /* \"#utility.yul\":10929:10935   */\n      dup3\n        /* \"#utility.yul\":10922:10964   */\n      sstore\n        /* \"#utility.yul\":11003:11004   */\n      0x01\n        /* \"#utility.yul\":10995:11001   */\n      dup3\n        /* \"#utility.yul\":10991:11005   */\n      add\n        /* \"#utility.yul\":10981:11005   */\n      swap2\n      pop\n        /* \"#utility.yul\":11050:11052   */\n      0x20\n        /* \"#utility.yul\":11039:11048   */\n      dup6\n        /* \"#utility.yul\":11035:11053   */\n      add\n        /* \"#utility.yul\":11022:11053   */\n      swap5\n      pop\n        /* \"#utility.yul\":10896:10900   */\n      0x20\n        /* \"#utility.yul\":10893:10894   */\n      dup2\n        /* \"#utility.yul\":10889:10901   */\n      add\n        /* \"#utility.yul\":10884:10901   */\n      swap1\n      pop\n        /* \"#utility.yul\":10859:11067   */\n      jump(tag_339)\n    tag_341:\n        /* \"#utility.yul\":11095:11101   */\n      dup7\n        /* \"#utility.yul\":11086:11093   */\n      dup4\n        /* \"#utility.yul\":11083:11102   */\n      lt\n        /* \"#utility.yul\":11080:11259   */\n      iszero\n      tag_342\n      jumpi\n        /* \"#utility.yul\":11153:11162   */\n      dup5\n        /* \"#utility.yul\":11148:11151   */\n      dup10\n        /* \"#utility.yul\":11144:11163   */\n      add\n        /* \"#utility.yul\":11138:11164   */\n      mload\n        /* \"#utility.yul\":11196:11244   */\n      tag_343\n        /* \"#utility.yul\":11238:11242   */\n      0x1f\n        /* \"#utility.yul\":11230:11236   */\n      dup10\n        /* \"#utility.yul\":11226:11243   */\n      and\n        /* \"#utility.yul\":11215:11224   */\n      dup3\n        /* \"#utility.yul\":11196:11244   */\n      tag_207\n      jump\t// in\n    tag_343:\n        /* \"#utility.yul\":11188:11194   */\n      dup4\n        /* \"#utility.yul\":11181:11245   */\n      sstore\n        /* \"#utility.yul\":11103:11259   */\n      pop\n        /* \"#utility.yul\":11080:11259   */\n    tag_342:\n        /* \"#utility.yul\":11305:11306   */\n      0x01\n        /* \"#utility.yul\":11301:11302   */\n      0x02\n        /* \"#utility.yul\":11293:11299   */\n      dup9\n        /* \"#utility.yul\":11289:11303   */\n      mul\n        /* \"#utility.yul\":11285:11307   */\n      add\n        /* \"#utility.yul\":11279:11283   */\n      dup9\n        /* \"#utility.yul\":11272:11308   */\n      sstore\n        /* \"#utility.yul\":10707:11318   */\n      pop\n      pop\n      pop\n        /* \"#utility.yul\":10670:11557   */\n    tag_334:\n      pop\n        /* \"#utility.yul\":10260:11563   */\n      pop\n      pop\n      pop\n        /* \"#utility.yul\":10168:11563   */\n      pop\n      pop\n      jump\t// out\n        /* \"#utility.yul\":11569:11749   */\n    tag_209:\n        /* \"#utility.yul\":11617:11694   */\n      0x4e487b7100000000000000000000000000000000000000000000000000000000\n        /* \"#utility.yul\":11614:11615   */\n      0x00\n        /* \"#utility.yul\":11607:11695   */\n      mstore\n        /* \"#utility.yul\":11714:11718   */\n      0x11\n        /* \"#utility.yul\":11711:11712   */\n      0x04\n        /* \"#utility.yul\":11704:11719   */\n      mstore\n        /* \"#utility.yul\":11738:11742   */\n      0x24\n        /* \"#utility.yul\":11735:11736   */\n      0x00\n        /* \"#utility.yul\":11728:11743   */\n      revert\n        /* \"#utility.yul\":11755:11949   */\n    tag_104:\n        /* \"#utility.yul\":11795:11799   */\n      0x00\n        /* \"#utility.yul\":11815:11835   */\n      tag_346\n        /* \"#utility.yul\":11833:11834   */\n      dup3\n        /* \"#utility.yul\":11815:11835   */\n      tag_178\n      jump\t// in\n    tag_346:\n        /* \"#utility.yul\":11810:11835   */\n      swap2\n      pop\n        /* \"#utility.yul\":11849:11869   */\n      tag_347\n        /* \"#utility.yul\":11867:11868   */\n      dup4\n        /* \"#utility.yul\":11849:11869   */\n      tag_178\n      jump\t// in\n    tag_347:\n        /* \"#utility.yul\":11844:11869   */\n      swap3\n      pop\n        /* \"#utility.yul\":11893:11894   */\n      dup3\n        /* \"#utility.yul\":11890:11891   */\n      dup3\n        /* \"#utility.yul\":11886:11895   */\n      sub\n        /* \"#utility.yul\":11878:11895   */\n      swap1\n      pop\n        /* \"#utility.yul\":11917:11918   */\n      dup2\n        /* \"#utility.yul\":11911:11915   */\n      dup2\n        /* \"#utility.yul\":11908:11919   */\n      gt\n        /* \"#utility.yul\":11905:11942   */\n      iszero\n      tag_348\n      jumpi\n        /* \"#utility.yul\":11922:11940   */\n      tag_349\n      tag_209\n      jump\t// in\n    tag_349:\n        /* \"#utility.yul\":11905:11942   */\n    tag_348:\n        /* \"#utility.yul\":11755:11949   */\n      swap3\n      swap2\n      pop\n      pop\n      jump\t// out\n        /* \"#utility.yul\":11955:12135   */\n    tag_107:\n        /* \"#utility.yul\":12003:12080   */\n      0x4e487b7100000000000000000000000000000000000000000000000000000000\n        /* \"#utility.yul\":12000:12001   */\n      0x00\n        /* \"#utility.yul\":11993:12081   */\n      mstore\n        /* \"#utility.yul\":12100:12104   */\n      0x32\n        /* \"#utility.yul\":12097:12098   */\n      0x04\n        /* \"#utility.yul\":12090:12105   */\n      mstore\n        /* \"#utility.yul\":12124:12128   */\n      0x24\n        /* \"#utility.yul\":12121:12122   */\n      0x00\n        /* \"#utility.yul\":12114:12129   */\n      revert\n        /* \"#utility.yul\":12141:12290   */\n    tag_210:\n        /* \"#utility.yul\":12190:12196   */\n      0x00\n        /* \"#utility.yul\":12224:12229   */\n      dup2\n        /* \"#utility.yul\":12218:12230   */\n      sload\n        /* \"#utility.yul\":12208:12230   */\n      swap1\n      pop\n        /* \"#utility.yul\":12250:12283   */\n      tag_352\n        /* \"#utility.yul\":12276:12282   */\n      dup2\n        /* \"#utility.yul\":12250:12283   */\n      tag_81\n      jump\t// in\n    tag_352:\n        /* \"#utility.yul\":12240:12283   */\n      swap1\n      pop\n        /* \"#utility.yul\":12141:12290   */\n      swap2\n      swap1\n      pop\n      jump\t// out\n        /* \"#utility.yul\":12296:13747   */\n    tag_113:\n        /* \"#utility.yul\":12407:12410   */\n      dup2\n        /* \"#utility.yul\":12401:12405   */\n      dup2\n        /* \"#utility.yul\":12398:12411   */\n      sub\n        /* \"#utility.yul\":12395:12421   */\n      tag_354\n      jumpi\n        /* \"#utility.yul\":12414:12419   */\n      pop\n      pop\n      jump(tag_353)\n        /* \"#utility.yul\":12395:12421   */\n    tag_354:\n        /* \"#utility.yul\":12445:12479   */\n      tag_355\n        /* \"#utility.yul\":12475:12478   */\n      dup3\n        /* \"#utility.yul\":12445:12479   */\n      tag_210\n      jump\t// in\n    tag_355:\n        /* \"#utility.yul\":12544:12562   */\n      0xffffffffffffffff\n        /* \"#utility.yul\":12536:12542   */\n      dup2\n        /* \"#utility.yul\":12533:12563   */\n      gt\n        /* \"#utility.yul\":12530:12586   */\n      iszero\n      tag_356\n      jumpi\n        /* \"#utility.yul\":12566:12584   */\n      tag_357\n      tag_192\n      jump\t// in\n    tag_357:\n        /* \"#utility.yul\":12530:12586   */\n    tag_356:\n        /* \"#utility.yul\":12610:12648   */\n      tag_358\n        /* \"#utility.yul\":12642:12646   */\n      dup3\n        /* \"#utility.yul\":12636:12647   */\n      sload\n        /* \"#utility.yul\":12610:12648   */\n      tag_81\n      jump\t// in\n    tag_358:\n        /* \"#utility.yul\":12695:12762   */\n      tag_359\n        /* \"#utility.yul\":12755:12761   */\n      dup3\n        /* \"#utility.yul\":12747:12753   */\n      dup3\n        /* \"#utility.yul\":12741:12745   */\n      dup6\n        /* \"#utility.yul\":12695:12762   */\n      tag_205\n      jump\t// in\n    tag_359:\n        /* \"#utility.yul\":12789:12790   */\n      0x00\n        /* \"#utility.yul\":12818:12820   */\n      0x1f\n        /* \"#utility.yul\":12810:12816   */\n      dup4\n        /* \"#utility.yul\":12807:12821   */\n      gt\n        /* \"#utility.yul\":12835:12836   */\n      0x01\n        /* \"#utility.yul\":12830:13502   */\n      dup2\n      eq\n      tag_361\n      jumpi\n        /* \"#utility.yul\":13546:13547   */\n      0x00\n        /* \"#utility.yul\":13563:13569   */\n      dup5\n        /* \"#utility.yul\":13560:13637   */\n      iszero\n      tag_362\n      jumpi\n        /* \"#utility.yul\":13612:13621   */\n      dup3\n        /* \"#utility.yul\":13607:13610   */\n      dup8\n        /* \"#utility.yul\":13603:13622   */\n      add\n        /* \"#utility.yul\":13597:13623   */\n      sload\n        /* \"#utility.yul\":13588:13623   */\n      swap1\n      pop\n        /* \"#utility.yul\":13560:13637   */\n    tag_362:\n        /* \"#utility.yul\":13663:13730   */\n      tag_363\n        /* \"#utility.yul\":13723:13729   */\n      dup6\n        /* \"#utility.yul\":13716:13721   */\n      dup3\n        /* \"#utility.yul\":13663:13730   */\n      tag_208\n      jump\t// in\n    tag_363:\n        /* \"#utility.yul\":13657:13661   */\n      dup7\n        /* \"#utility.yul\":13650:13731   */\n      sstore\n        /* \"#utility.yul\":13519:13741   */\n      pop\n        /* \"#utility.yul\":12800:13741   */\n      jump(tag_360)\n        /* \"#utility.yul\":12830:13502   */\n    tag_361:\n        /* \"#utility.yul\":12882:12886   */\n      0x1f\n        /* \"#utility.yul\":12878:12887   */\n      not\n        /* \"#utility.yul\":12870:12876   */\n      dup5\n        /* \"#utility.yul\":12866:12888   */\n      and\n        /* \"#utility.yul\":12908:12944   */\n      tag_364\n        /* \"#utility.yul\":12940:12943   */\n      dup8\n        /* \"#utility.yul\":12908:12944   */\n      tag_194\n      jump\t// in\n    tag_364:\n        /* \"#utility.yul\":12901:12944   */\n      swap7\n      pop\n        /* \"#utility.yul\":12971:13008   */\n      tag_365\n        /* \"#utility.yul\":13003:13007   */\n      dup7\n        /* \"#utility.yul\":12971:13008   */\n      tag_194\n      jump\t// in\n    tag_365:\n        /* \"#utility.yul\":13030:13031   */\n      0x00\n        /* \"#utility.yul\":13044:13251   */\n    tag_366:\n        /* \"#utility.yul\":13058:13065   */\n      dup3\n        /* \"#utility.yul\":13055:13056   */\n      dup2\n        /* \"#utility.yul\":13052:13066   */\n      lt\n        /* \"#utility.yul\":13044:13251   */\n      iszero\n      tag_368\n      jumpi\n        /* \"#utility.yul\":13137:13146   */\n      dup5\n        /* \"#utility.yul\":13132:13135   */\n      dup10\n        /* \"#utility.yul\":13128:13147   */\n      add\n        /* \"#utility.yul\":13122:13148   */\n      sload\n        /* \"#utility.yul\":13114:13120   */\n      dup3\n        /* \"#utility.yul\":13107:13149   */\n      sstore\n        /* \"#utility.yul\":13188:13189   */\n      0x01\n        /* \"#utility.yul\":13180:13186   */\n      dup3\n        /* \"#utility.yul\":13176:13190   */\n      add\n        /* \"#utility.yul\":13166:13190   */\n      swap2\n      pop\n        /* \"#utility.yul\":13235:13236   */\n      0x01\n        /* \"#utility.yul\":13224:13233   */\n      dup6\n        /* \"#utility.yul\":13220:13237   */\n      add\n        /* \"#utility.yul\":13207:13237   */\n      swap5\n      pop\n        /* \"#utility.yul\":13081:13085   */\n      0x20\n        /* \"#utility.yul\":13078:13079   */\n      dup2\n        /* \"#utility.yul\":13074:13086   */\n      add\n        /* \"#utility.yul\":13069:13086   */\n      swap1\n      pop\n        /* \"#utility.yul\":13044:13251   */\n      jump(tag_366)\n    tag_368:\n        /* \"#utility.yul\":13279:13285   */\n      dup7\n        /* \"#utility.yul\":13270:13277   */\n      dup4\n        /* \"#utility.yul\":13267:13286   */\n      lt\n        /* \"#utility.yul\":13264:13443   */\n      iszero\n      tag_369\n      jumpi\n        /* \"#utility.yul\":13337:13346   */\n      dup5\n        /* \"#utility.yul\":13332:13335   */\n      dup10\n        /* \"#utility.yul\":13328:13347   */\n      add\n        /* \"#utility.yul\":13322:13348   */\n      sload\n        /* \"#utility.yul\":13380:13428   */\n      tag_370\n        /* \"#utility.yul\":13422:13426   */\n      0x1f\n        /* \"#utility.yul\":13414:13420   */\n      dup10\n        /* \"#utility.yul\":13410:13427   */\n      and\n        /* \"#utility.yul\":13399:13408   */\n      dup3\n        /* \"#utility.yul\":13380:13428   */\n      tag_207\n      jump\t// in\n    tag_370:\n        /* \"#utility.yul\":13372:13378   */\n      dup4\n        /* \"#utility.yul\":13365:13429   */\n      sstore\n        /* \"#utility.yul\":13287:13443   */\n      pop\n        /* \"#utility.yul\":13264:13443   */\n    tag_369:\n        /* \"#utility.yul\":13489:13490   */\n      0x01\n        /* \"#utility.yul\":13485:13486   */\n      0x02\n        /* \"#utility.yul\":13477:13483   */\n      dup9\n        /* \"#utility.yul\":13473:13487   */\n      mul\n        /* \"#utility.yul\":13469:13491   */\n      add\n        /* \"#utility.yul\":13463:13467   */\n      dup9\n        /* \"#utility.yul\":13456:13492   */\n      sstore\n        /* \"#utility.yul\":12837:13502   */\n      pop\n      pop\n      pop\n        /* \"#utility.yul\":12800:13741   */\n    tag_360:\n      pop\n        /* \"#utility.yul\":12385:13747   */\n      pop\n      pop\n      pop\n        /* \"#utility.yul\":12296:13747   */\n      pop\n      pop\n    tag_353:\n      jump\t// out\n        /* \"#utility.yul\":13753:13933   */\n    tag_116:\n        /* \"#utility.yul\":13801:13878   */\n      0x4e487b7100000000000000000000000000000000000000000000000000000000\n        /* \"#utility.yul\":13798:13799   */\n      0x00\n        /* \"#utility.yul\":13791:13879   */\n      mstore\n        /* \"#utility.yul\":13898:13902   */\n      0x31\n        /* \"#utility.yul\":13895:13896   */\n      0x04\n        /* \"#utility.yul\":13888:13903   */\n      mstore\n        /* \"#utility.yul\":13922:13926   */\n      0x24\n        /* \"#utility.yul\":13919:13920   */\n      0x00\n        /* \"#utility.yul\":13912:13927   */\n      revert\n        /* \"#utility.yul\":13939:14106   */\n    tag_211:\n        /* \"#utility.yul\":14079:14098   */\n      0x50726f64756374206e6f7420666f756e64000000000000000000000000000000\n        /* \"#utility.yul\":14075:14076   */\n      0x00\n        /* \"#utility.yul\":14067:14073   */\n      dup3\n        /* \"#utility.yul\":14063:14077   */\n      add\n        /* \"#utility.yul\":14056:14099   */\n      mstore\n        /* \"#utility.yul\":13939:14106   */\n      pop\n      jump\t// out\n        /* \"#utility.yul\":14112:14478   */\n    tag_212:\n        /* \"#utility.yul\":14254:14257   */\n      0x00\n        /* \"#utility.yul\":14275:14342   */\n      tag_374\n        /* \"#utility.yul\":14339:14341   */\n      0x11\n        /* \"#utility.yul\":14334:14337   */\n      dup4\n        /* \"#utility.yul\":14275:14342   */\n      tag_183\n      jump\t// in\n    tag_374:\n        /* \"#utility.yul\":14268:14342   */\n      swap2\n      pop\n        /* \"#utility.yul\":14351:14444   */\n      tag_375\n        /* \"#utility.yul\":14440:14443   */\n      dup3\n        /* \"#utility.yul\":14351:14444   */\n      tag_211\n      jump\t// in\n    tag_375:\n        /* \"#utility.yul\":14469:14471   */\n      0x20\n        /* \"#utility.yul\":14464:14467   */\n      dup3\n        /* \"#utility.yul\":14460:14472   */\n      add\n        /* \"#utility.yul\":14453:14472   */\n      swap1\n      pop\n        /* \"#utility.yul\":14112:14478   */\n      swap2\n      swap1\n      pop\n      jump\t// out\n        /* \"#utility.yul\":14484:14903   */\n    tag_153:\n        /* \"#utility.yul\":14650:14654   */\n      0x00\n        /* \"#utility.yul\":14688:14690   */\n      0x20\n        /* \"#utility.yul\":14677:14686   */\n      dup3\n        /* \"#utility.yul\":14673:14691   */\n      add\n        /* \"#utility.yul\":14665:14691   */\n      swap1\n      pop\n        /* \"#utility.yul\":14737:14746   */\n      dup2\n        /* \"#utility.yul\":14731:14735   */\n      dup2\n        /* \"#utility.yul\":14727:14747   */\n      sub\n        /* \"#utility.yul\":14723:14724   */\n      0x00\n        /* \"#utility.yul\":14712:14721   */\n      dup4\n        /* \"#utility.yul\":14708:14725   */\n      add\n        /* \"#utility.yul\":14701:14748   */\n      mstore\n        /* \"#utility.yul\":14765:14896   */\n      tag_377\n        /* \"#utility.yul\":14891:14895   */\n      dup2\n        /* \"#utility.yul\":14765:14896   */\n      tag_212\n      jump\t// in\n    tag_377:\n        /* \"#utility.yul\":14757:14896   */\n      swap1\n      pop\n        /* \"#utility.yul\":14484:14903   */\n      swap2\n      swap1\n      pop\n      jump\t// out\n\n    auxdata: 0xa264697066735822122085dd4c2e97e7cc765316291b70e64984d2798ebfc928c98add14f74aba526f9164736f6c634300081f0033\n}\n",
				"bytecode": {
					"linkReferences": {},
					"object": "608060405234801561000f575f5ffd5b50335f73ffffffffffffffffffffffffffffffffffffffff168173ffffffffffffffffffffffffffffffffffffffff1603610081575f6040517f1e4fbdf70000000000000000000000000000000000000000000000000000000081526004016100789190610196565b60405180910390fd5b6100908161009660201b60201c565b506101af565b5f5f5f9054906101000a900473ffffffffffffffffffffffffffffffffffffffff169050815f5f6101000a81548173ffffffffffffffffffffffffffffffffffffffff021916908373ffffffffffffffffffffffffffffffffffffffff1602179055508173ffffffffffffffffffffffffffffffffffffffff168173ffffffffffffffffffffffffffffffffffffffff167f8be0079c531659141344cd1fd0a4f28419497f9722a3daafe3b4186f6b6457e060405160405180910390a35050565b5f73ffffffffffffffffffffffffffffffffffffffff82169050919050565b5f61018082610157565b9050919050565b61019081610176565b82525050565b5f6020820190506101a95f830184610187565b92915050565b6111cc806101bc5f395ff3fe608060405234801561000f575f5ffd5b50600436106100a7575f3560e01c806382367b2d1161006f57806382367b2d146101525780638da5cb5b1461016e5780639dfc3dd11461018c578063e7572230146101a8578063ed90c7b7146101d8578063f2fde38b146101f4576100a7565b8063094455c4146100ab578063188ec356146100c75780633ab7d09a146100e5578063715018a6146101155780637acc0b201461011f575b5f5ffd5b6100c560048036038101906100c09190610a05565b610210565b005b6100cf610324565b6040516100dc9190610a98565b60405180910390f35b6100ff60048036038101906100fa9190610ab1565b610333565b60405161010c9190610a98565b60405180910390f35b61011d61034d565b005b61013960048036038101906101349190610ab1565b610360565b6040516101499493929190610b4c565b60405180910390f35b61016c60048036038101906101679190610b96565b610421565b005b610176610443565b6040516101839190610c13565b60405180910390f35b6101a660048036038101906101a19190610b96565b61046a565b005b6101c260048036038101906101bd9190610ab1565b61048c565b6040516101cf9190610a98565b60405180910390f35b6101f260048036038101906101ed9190610ab1565b6104a6565b005b61020e60048036038101906102099190610c56565b6105c8565b005b61021861064c565b5f1515610224836106d3565b15151461025d576040517ff270498400000000000000000000000000000000000000000000000000000000815260040160405180910390fd5b6001604051806080016040528087878080601f0160208091040260200160405190810160405280939291908181526020018383808284375f81840152601f19601f82011690508083019250505050505050815260200185815260200184815260200183815250908060018154018082558091505060019003905f5260205f2090600402015f909190919091505f820151815f0190816102fc9190610eab565b5060208201518160010155604082015181600201556060820151816003015550505050505050565b5f61032d61064c565b42905090565b5f5f61033e83610731565b90508060010154915050919050565b61035561064c565b61035e5f6107e4565b565b6001818154811061036f575f80fd5b905f5260205f2090600402015f91509050805f01805461038e90610cdb565b80601f01602080910402602001604051908101604052809291908181526020018280546103ba90610cdb565b80156104055780601f106103dc57610100808354040283529160200191610405565b820191905f5260205f20905b8154815290600101906020018083116103e857829003601f168201915b5050505050908060010154908060020154908060030154905084565b61042961064c565b5f61043383610731565b9050818160030181905550505050565b5f5f5f9054906101000a900473ffffffffffffffffffffffffffffffffffffffff16905090565b61047261064c565b5f61047c83610731565b9050818160010181905550505050565b5f5f61049783610731565b90508060030154915050919050565b6104ae61064c565b5f5f6104b9836108a5565b91509150816104f4576040517fc270964900000000000000000000000000000000000000000000000000000000815260040160405180910390fd5b60018080805490506105069190610fa7565b8154811061051757610516610fda565b5b905f5260205f2090600402016001828154811061053757610536610fda565b5b905f5260205f2090600402015f8201815f019081610555919061101c565b50600182015481600101556002820154816002015560038201548160030155905050600180548061058957610588611101565b5b600190038181905f5260205f2090600402015f5f82015f6105aa9190610911565b600182015f9055600282015f9055600382015f905550509055505050565b6105d061064c565b5f73ffffffffffffffffffffffffffffffffffffffff168173ffffffffffffffffffffffffffffffffffffffff1603610640575f6040517f1e4fbdf70000000000000000000000000000000000000000000000000000000081526004016106379190610c13565b60405180910390fd5b610649816107e4565b50565b61065461090a565b73ffffffffffffffffffffffffffffffffffffffff16610672610443565b73ffffffffffffffffffffffffffffffffffffffff16146106d15761069561090a565b6040517f118cdaa70000000000000000000000000000000000000000000000000000000081526004016106c89190610c13565b60405180910390fd5b565b5f5f5f90505b6001805490508110156107275782600182815481106106fb576106fa610fda565b5b905f5260205f209060040201600201540361071a57600191505061072c565b80806001019150506106d9565b505f90505b919050565b5f5f5f90505b6001805490508110156107a357826001828154811061075957610758610fda565b5b905f5260205f2090600402016002015403610796576001818154811061078257610781610fda565b5b905f5260205f2090600402019150506107df565b8080600101915050610737565b506040517f08c379a00000000000000000000000000000000000000000000000000000000081526004016107d690611178565b60405180910390fd5b919050565b5f5f5f9054906101000a900473ffffffffffffffffffffffffffffffffffffffff169050815f5f6101000a81548173ffffffffffffffffffffffffffffffffffffffff021916908373ffffffffffffffffffffffffffffffffffffffff1602179055508173ffffffffffffffffffffffffffffffffffffffff168173ffffffffffffffffffffffffffffffffffffffff167f8be0079c531659141344cd1fd0a4f28419497f9722a3daafe3b4186f6b6457e060405160405180910390a35050565b5f5f5f5f90505b6001805490508110156108fd5783600182815481106108ce576108cd610fda565b5b905f5260205f20906004020160020154036108f0576001819250925050610905565b80806001019150506108ac565b505f5f915091505b915091565b5f33905090565b50805461091d90610cdb565b5f825580601f1061092e575061094b565b601f0160209004905f5260205f209081019061094a919061094e565b5b50565b5b80821115610965575f815f90555060010161094f565b5090565b5f5ffd5b5f5ffd5b5f5ffd5b5f5ffd5b5f5ffd5b5f5f83601f84011261099257610991610971565b5b8235905067ffffffffffffffff8111156109af576109ae610975565b5b6020830191508360018202830111156109cb576109ca610979565b5b9250929050565b5f819050919050565b6109e4816109d2565b81146109ee575f5ffd5b50565b5f813590506109ff816109db565b92915050565b5f5f5f5f5f60808688031215610a1e57610a1d610969565b5b5f86013567ffffffffffffffff811115610a3b57610a3a61096d565b5b610a478882890161097d565b95509550506020610a5a888289016109f1565b9350506040610a6b888289016109f1565b9250506060610a7c888289016109f1565b9150509295509295909350565b610a92816109d2565b82525050565b5f602082019050610aab5f830184610a89565b92915050565b5f60208284031215610ac657610ac5610969565b5b5f610ad3848285016109f1565b91505092915050565b5f81519050919050565b5f82825260208201905092915050565b8281835e5f83830152505050565b5f601f19601f8301169050919050565b5f610b1e82610adc565b610b288185610ae6565b9350610b38818560208601610af6565b610b4181610b04565b840191505092915050565b5f6080820190508181035f830152610b648187610b14565b9050610b736020830186610a89565b610b806040830185610a89565b610b8d6060830184610a89565b95945050505050565b5f5f60408385031215610bac57610bab610969565b5b5f610bb9858286016109f1565b9250506020610bca858286016109f1565b9150509250929050565b5f73ffffffffffffffffffffffffffffffffffffffff82169050919050565b5f610bfd82610bd4565b9050919050565b610c0d81610bf3565b82525050565b5f602082019050610c265f830184610c04565b92915050565b610c3581610bf3565b8114610c3f575f5ffd5b50565b5f81359050610c5081610c2c565b92915050565b5f60208284031215610c6b57610c6a610969565b5b5f610c7884828501610c42565b91505092915050565b7f4e487b71000000000000000000000000000000000000000000000000000000005f52604160045260245ffd5b7f4e487b71000000000000000000000000000000000000000000000000000000005f52602260045260245ffd5b5f6002820490506001821680610cf257607f821691505b602082108103610d0557610d04610cae565b5b50919050565b5f819050815f5260205f209050919050565b5f6020601f8301049050919050565b5f82821b905092915050565b5f60088302610d677fffffffffffffffffffffffffffffffffffffffffffffffffffffffffffffffff82610d2c565b610d718683610d2c565b95508019841693508086168417925050509392505050565b5f819050919050565b5f610dac610da7610da2846109d2565b610d89565b6109d2565b9050919050565b5f819050919050565b610dc583610d92565b610dd9610dd182610db3565b848454610d38565b825550505050565b5f5f905090565b610df0610de1565b610dfb818484610dbc565b505050565b5b81811015610e1e57610e135f82610de8565b600181019050610e01565b5050565b601f821115610e6357610e3481610d0b565b610e3d84610d1d565b81016020851015610e4c578190505b610e60610e5885610d1d565b830182610e00565b50505b505050565b5f82821c905092915050565b5f610e835f1984600802610e68565b1980831691505092915050565b5f610e9b8383610e74565b9150826002028217905092915050565b610eb482610adc565b67ffffffffffffffff811115610ecd57610ecc610c81565b5b610ed78254610cdb565b610ee2828285610e22565b5f60209050601f831160018114610f13575f8415610f01578287015190505b610f0b8582610e90565b865550610f72565b601f198416610f2186610d0b565b5f5b82811015610f4857848901518255600182019150602085019450602081019050610f23565b86831015610f655784890151610f61601f891682610e74565b8355505b6001600288020188555050505b505050505050565b7f4e487b71000000000000000000000000000000000000000000000000000000005f52601160045260245ffd5b5f610fb1826109d2565b9150610fbc836109d2565b9250828203905081811115610fd457610fd3610f7a565b5b92915050565b7f4e487b71000000000000000000000000000000000000000000000000000000005f52603260045260245ffd5b5f8154905061101581610cdb565b9050919050565b81810361102a5750506110ff565b61103382611007565b67ffffffffffffffff81111561104c5761104b610c81565b5b6110568254610cdb565b611061828285610e22565b5f601f83116001811461108e575f841561107c578287015490505b6110868582610e90565b8655506110f8565b601f19841661109c87610d0b565b96506110a786610d0b565b5f5b828110156110ce578489015482556001820191506001850194506020810190506110a9565b868310156110eb57848901546110e7601f891682610e74565b8355505b6001600288020188555050505b5050505050505b565b7f4e487b71000000000000000000000000000000000000000000000000000000005f52603160045260245ffd5b7f50726f64756374206e6f7420666f756e640000000000000000000000000000005f82015250565b5f611162601183610ae6565b915061116d8261112e565b602082019050919050565b5f6020820190508181035f83015261118f81611156565b905091905056fea264697066735822122085dd4c2e97e7cc765316291b70e64984d2798ebfc928c98add14f74aba526f9164736f6c634300081f0033",
					"opcodes": "PUSH1 0x80 PUSH1 0x40 MSTORE CALLVALUE DUP1 ISZERO PUSH2 0xF JUMPI PUSH0 PUSH0 REVERT JUMPDEST POP CALLER PUSH0 PUSH20 0xFFFFFFFFFFFFFFFFFFFFFFFFFFFFFFFFFFFFFFFF AND DUP2 PUSH20 0xFFFFFFFFFFFFFFFFFFFFFFFFFFFFFFFFFFFFFFFF AND SUB PUSH2 0x81 JUMPI PUSH0 PUSH1 0x40 MLOAD PUSH32 0x1E4FBDF700000000000000000000000000000000000000000000000000000000 DUP2 MSTORE PUSH1 0x4 ADD PUSH2 0x78 SWAP2 SWAP1 PUSH2 0x196 JUMP JUMPDEST PUSH1 0x40 MLOAD DUP1 SWAP2 SUB SWAP1 REVERT JUMPDEST PUSH2 0x90 DUP2 PUSH2 0x96 PUSH1 0x20 SHL PUSH1 0x20 SHR JUMP JUMPDEST POP PUSH2 0x1AF JUMP JUMPDEST PUSH0 PUSH0 PUSH0 SWAP1 SLOAD SWAP1 PUSH2 0x100 EXP SWAP1 DIV PUSH20 0xFFFFFFFFFFFFFFFFFFFFFFFFFFFFFFFFFFFFFFFF AND SWAP1 POP DUP2 PUSH0 PUSH0 PUSH2 0x100 EXP DUP2 SLOAD DUP2 PUSH20 0xFFFFFFFFFFFFFFFFFFFFFFFFFFFFFFFFFFFFFFFF MUL NOT AND SWAP1 DUP4 PUSH20 0xFFFFFFFFFFFFFFFFFFFFFFFFFFFFFFFFFFFFFFFF AND MUL OR SWAP1 SSTORE POP DUP2 PUSH20 0xFFFFFFFFFFFFFFFFFFFFFFFFFFFFFFFFFFFFFFFF AND DUP2 PUSH20 0xFFFFFFFFFFFFFFFFFFFFFFFFFFFFFFFFFFFFFFFF AND PUSH32 0x8BE0079C531659141344CD1FD0A4F28419497F9722A3DAAFE3B4186F6B6457E0 PUSH1 0x40 MLOAD PUSH1 0x40 MLOAD DUP1 SWAP2 SUB SWAP1 LOG3 POP POP JUMP JUMPDEST PUSH0 PUSH20 0xFFFFFFFFFFFFFFFFFFFFFFFFFFFFFFFFFFFFFFFF DUP3 AND SWAP1 POP SWAP2 SWAP1 POP JUMP JUMPDEST PUSH0 PUSH2 0x180 DUP3 PUSH2 0x157 JUMP JUMPDEST SWAP1 POP SWAP2 SWAP1 POP JUMP JUMPDEST PUSH2 0x190 DUP2 PUSH2 0x176 JUMP JUMPDEST DUP3 MSTORE POP POP JUMP JUMPDEST PUSH0 PUSH1 0x20 DUP3 ADD SWAP1 POP PUSH2 0x1A9 PUSH0 DUP4 ADD DUP5 PUSH2 0x187 JUMP JUMPDEST SWAP3 SWAP2 POP POP JUMP JUMPDEST PUSH2 0x11CC DUP1 PUSH2 0x1BC PUSH0 CODECOPY PUSH0 RETURN INVALID PUSH1 0x80 PUSH1 0x40 MSTORE CALLVALUE DUP1 ISZERO PUSH2 0xF JUMPI PUSH0 PUSH0 REVERT JUMPDEST POP PUSH1 0x4 CALLDATASIZE LT PUSH2 0xA7 JUMPI PUSH0 CALLDATALOAD PUSH1 0xE0 SHR DUP1 PUSH4 0x82367B2D GT PUSH2 0x6F JUMPI DUP1 PUSH4 0x82367B2D EQ PUSH2 0x152 JUMPI DUP1 PUSH4 0x8DA5CB5B EQ PUSH2 0x16E JUMPI DUP1 PUSH4 0x9DFC3DD1 EQ PUSH2 0x18C JUMPI DUP1 PUSH4 0xE7572230 EQ PUSH2 0x1A8 JUMPI DUP1 PUSH4 0xED90C7B7 EQ PUSH2 0x1D8 JUMPI DUP1 PUSH4 0xF2FDE38B EQ PUSH2 0x1F4 JUMPI PUSH2 0xA7 JUMP JUMPDEST DUP1 PUSH4 0x94455C4 EQ PUSH2 0xAB JUMPI DUP1 PUSH4 0x188EC356 EQ PUSH2 0xC7 JUMPI DUP1 PUSH4 0x3AB7D09A EQ PUSH2 0xE5 JUMPI DUP1 PUSH4 0x715018A6 EQ PUSH2 0x115 JUMPI DUP1 PUSH4 0x7ACC0B20 EQ PUSH2 0x11F JUMPI JUMPDEST PUSH0 PUSH0 REVERT JUMPDEST PUSH2 0xC5 PUSH1 0x4 DUP1 CALLDATASIZE SUB DUP2 ADD SWAP1 PUSH2 0xC0 SWAP2 SWAP1 PUSH2 0xA05 JUMP JUMPDEST PUSH2 0x210 JUMP JUMPDEST STOP JUMPDEST PUSH2 0xCF PUSH2 0x324 JUMP JUMPDEST PUSH1 0x40 MLOAD PUSH2 0xDC SWAP2 SWAP1 PUSH2 0xA98 JUMP JUMPDEST PUSH1 0x40 MLOAD DUP1 SWAP2 SUB SWAP1 RETURN JUMPDEST PUSH2 0xFF PUSH1 0x4 DUP1 CALLDATASIZE SUB DUP2 ADD SWAP1 PUSH2 0xFA SWAP2 SWAP1 PUSH2 0xAB1 JUMP JUMPDEST PUSH2 0x333 JUMP JUMPDEST PUSH1 0x40 MLOAD PUSH2 0x10C SWAP2 SWAP1 PUSH2 0xA98 JUMP JUMPDEST PUSH1 0x40 MLOAD DUP1 SWAP2 SUB SWAP1 RETURN JUMPDEST PUSH2 0x11D PUSH2 0x34D JUMP JUMPDEST STOP JUMPDEST PUSH2 0x139 PUSH1 0x4 DUP1 CALLDATASIZE SUB DUP2 ADD SWAP1 PUSH2 0x134 SWAP2 SWAP1 PUSH2 0xAB1 JUMP JUMPDEST PUSH2 0x360 JUMP JUMPDEST PUSH1 0x40 MLOAD PUSH2 0x149 SWAP5 SWAP4 SWAP3 SWAP2 SWAP1 PUSH2 0xB4C JUMP JUMPDEST PUSH1 0x40 MLOAD DUP1 SWAP2 SUB SWAP1 RETURN JUMPDEST PUSH2 0x16C PUSH1 0x4 DUP1 CALLDATASIZE SUB DUP2 ADD SWAP1 PUSH2 0x167 SWAP2 SWAP1 PUSH2 0xB96 JUMP JUMPDEST PUSH2 0x421 JUMP JUMPDEST STOP JUMPDEST PUSH2 0x176 PUSH2 0x443 JUMP JUMPDEST PUSH1 0x40 MLOAD PUSH2 0x183 SWAP2 SWAP1 PUSH2 0xC13 JUMP JUMPDEST PUSH1 0x40 MLOAD DUP1 SWAP2 SUB SWAP1 RETURN JUMPDEST PUSH2 0x1A6 PUSH1 0x4 DUP1 CALLDATASIZE SUB DUP2 ADD SWAP1 PUSH2 0x1A1 SWAP2 SWAP1 PUSH2 0xB96 JUMP JUMPDEST PUSH2 0x46A JUMP JUMPDEST STOP JUMPDEST PUSH2 0x1C2 PUSH1 0x4 DUP1 CALLDATASIZE SUB DUP2 ADD SWAP1 PUSH2 0x1BD SWAP2 SWAP1 PUSH2 0xAB1 JUMP JUMPDEST PUSH2 0x48C JUMP JUMPDEST PUSH1 0x40 MLOAD PUSH2 0x1CF SWAP2 SWAP1 PUSH2 0xA98 JUMP JUMPDEST PUSH1 0x40 MLOAD DUP1 SWAP2 SUB SWAP1 RETURN JUMPDEST PUSH2 0x1F2 PUSH1 0x4 DUP1 CALLDATASIZE SUB DUP2 ADD SWAP1 PUSH2 0x1ED SWAP2 SWAP1 PUSH2 0xAB1 JUMP JUMPDEST PUSH2 0x4A6 JUMP JUMPDEST STOP JUMPDEST PUSH2 0x20E PUSH1 0x4 DUP1 CALLDATASIZE SUB DUP2 ADD SWAP1 PUSH2 0x209 SWAP2 SWAP1 PUSH2 0xC56 JUMP JUMPDEST PUSH2 0x5C8 JUMP JUMPDEST STOP JUMPDEST PUSH2 0x218 PUSH2 0x64C JUMP JUMPDEST PUSH0 ISZERO ISZERO PUSH2 0x224 DUP4 PUSH2 0x6D3 JUMP JUMPDEST ISZERO ISZERO EQ PUSH2 0x25D JUMPI PUSH1 0x40 MLOAD PUSH32 0xF270498400000000000000000000000000000000000000000000000000000000 DUP2 MSTORE PUSH1 0x4 ADD PUSH1 0x40 MLOAD DUP1 SWAP2 SUB SWAP1 REVERT JUMPDEST PUSH1 0x1 PUSH1 0x40 MLOAD DUP1 PUSH1 0x80 ADD PUSH1 0x40 MSTORE DUP1 DUP8 DUP8 DUP1 DUP1 PUSH1 0x1F ADD PUSH1 0x20 DUP1 SWAP2 DIV MUL PUSH1 0x20 ADD PUSH1 0x40 MLOAD SWAP1 DUP2 ADD PUSH1 0x40 MSTORE DUP1 SWAP4 SWAP3 SWAP2 SWAP1 DUP2 DUP2 MSTORE PUSH1 0x20 ADD DUP4 DUP4 DUP1 DUP3 DUP5 CALLDATACOPY PUSH0 DUP2 DUP5 ADD MSTORE PUSH1 0x1F NOT PUSH1 0x1F DUP3 ADD AND SWAP1 POP DUP1 DUP4 ADD SWAP3 POP POP POP POP POP POP POP DUP2 MSTORE PUSH1 0x20 ADD DUP6 DUP2 MSTORE PUSH1 0x20 ADD DUP5 DUP2 MSTORE PUSH1 0x20 ADD DUP4 DUP2 MSTORE POP SWAP1 DUP1 PUSH1 0x1 DUP2 SLOAD ADD DUP1 DUP3 SSTORE DUP1 SWAP2 POP POP PUSH1 0x1 SWAP1 SUB SWAP1 PUSH0 MSTORE PUSH1 0x20 PUSH0 KECCAK256 SWAP1 PUSH1 0x4 MUL ADD PUSH0 SWAP1 SWAP2 SWAP1 SWAP2 SWAP1 SWAP2 POP PUSH0 DUP3 ADD MLOAD DUP2 PUSH0 ADD SWAP1 DUP2 PUSH2 0x2FC SWAP2 SWAP1 PUSH2 0xEAB JUMP JUMPDEST POP PUSH1 0x20 DUP3 ADD MLOAD DUP2 PUSH1 0x1 ADD SSTORE PUSH1 0x40 DUP3 ADD MLOAD DUP2 PUSH1 0x2 ADD SSTORE PUSH1 0x60 DUP3 ADD MLOAD DUP2 PUSH1 0x3 ADD SSTORE POP POP POP POP POP POP POP JUMP JUMPDEST PUSH0 PUSH2 0x32D PUSH2 0x64C JUMP JUMPDEST TIMESTAMP SWAP1 POP SWAP1 JUMP JUMPDEST PUSH0 PUSH0 PUSH2 0x33E DUP4 PUSH2 0x731 JUMP JUMPDEST SWAP1 POP DUP1 PUSH1 0x1 ADD SLOAD SWAP2 POP POP SWAP2 SWAP1 POP JUMP JUMPDEST PUSH2 0x355 PUSH2 0x64C JUMP JUMPDEST PUSH2 0x35E PUSH0 PUSH2 0x7E4 JUMP JUMPDEST JUMP JUMPDEST PUSH1 0x1 DUP2 DUP2 SLOAD DUP2 LT PUSH2 0x36F JUMPI PUSH0 DUP1 REVERT JUMPDEST SWAP1 PUSH0 MSTORE PUSH1 0x20 PUSH0 KECCAK256 SWAP1 PUSH1 0x4 MUL ADD PUSH0 SWAP2 POP SWAP1 POP DUP1 PUSH0 ADD DUP1 SLOAD PUSH2 0x38E SWAP1 PUSH2 0xCDB JUMP JUMPDEST DUP1 PUSH1 0x1F ADD PUSH1 0x20 DUP1 SWAP2 DIV MUL PUSH1 0x20 ADD PUSH1 0x40 MLOAD SWAP1 DUP2 ADD PUSH1 0x40 MSTORE DUP1 SWAP3 SWAP2 SWAP1 DUP2 DUP2 MSTORE PUSH1 0x20 ADD DUP3 DUP1 SLOAD PUSH2 0x3BA SWAP1 PUSH2 0xCDB JUMP JUMPDEST DUP1 ISZERO PUSH2 0x405 JUMPI DUP1 PUSH1 0x1F LT PUSH2 0x3DC JUMPI PUSH2 0x100 DUP1 DUP4 SLOAD DIV MUL DUP4 MSTORE SWAP2 PUSH1 0x20 ADD SWAP2 PUSH2 0x405 JUMP JUMPDEST DUP3 ADD SWAP2 SWAP1 PUSH0 MSTORE PUSH1 0x20 PUSH0 KECCAK256 SWAP1 JUMPDEST DUP2 SLOAD DUP2 MSTORE SWAP1 PUSH1 0x1 ADD SWAP1 PUSH1 0x20 ADD DUP1 DUP4 GT PUSH2 0x3E8 JUMPI DUP3 SWAP1 SUB PUSH1 0x1F AND DUP3 ADD SWAP2 JUMPDEST POP POP POP POP POP SWAP1 DUP1 PUSH1 0x1 ADD SLOAD SWAP1 DUP1 PUSH1 0x2 ADD SLOAD SWAP1 DUP1 PUSH1 0x3 ADD SLOAD SWAP1 POP DUP5 JUMP JUMPDEST PUSH2 0x429 PUSH2 0x64C JUMP JUMPDEST PUSH0 PUSH2 0x433 DUP4 PUSH2 0x731 JUMP JUMPDEST SWAP1 POP DUP2 DUP2 PUSH1 0x3 ADD DUP2 SWAP1 SSTORE POP POP POP POP JUMP JUMPDEST PUSH0 PUSH0 PUSH0 SWAP1 SLOAD SWAP1 PUSH2 0x100 EXP SWAP1 DIV PUSH20 0xFFFFFFFFFFFFFFFFFFFFFFFFFFFFFFFFFFFFFFFF AND SWAP1 POP SWAP1 JUMP JUMPDEST PUSH2 0x472 PUSH2 0x64C JUMP JUMPDEST PUSH0 PUSH2 0x47C DUP4 PUSH2 0x731 JUMP JUMPDEST SWAP1 POP DUP2 DUP2 PUSH1 0x1 ADD DUP2 SWAP1 SSTORE POP POP POP POP JUMP JUMPDEST PUSH0 PUSH0 PUSH2 0x497 DUP4 PUSH2 0x731 JUMP JUMPDEST SWAP1 POP DUP1 PUSH1 0x3 ADD SLOAD SWAP2 POP POP SWAP2 SWAP1 POP JUMP JUMPDEST PUSH2 0x4AE PUSH2 0x64C JUMP JUMPDEST PUSH0 PUSH0 PUSH2 0x4B9 DUP4 PUSH2 0x8A5 JUMP JUMPDEST SWAP2 POP SWAP2 POP DUP2 PUSH2 0x4F4 JUMPI PUSH1 0x40 MLOAD PUSH32 0xC270964900000000000000000000000000000000000000000000000000000000 DUP2 MSTORE PUSH1 0x4 ADD PUSH1 0x40 MLOAD DUP1 SWAP2 SUB SWAP1 REVERT JUMPDEST PUSH1 0x1 DUP1 DUP1 DUP1 SLOAD SWAP1 POP PUSH2 0x506 SWAP2 SWAP1 PUSH2 0xFA7 JUMP JUMPDEST DUP2 SLOAD DUP2 LT PUSH2 0x517 JUMPI PUSH2 0x516 PUSH2 0xFDA JUMP JUMPDEST JUMPDEST SWAP1 PUSH0 MSTORE PUSH1 0x20 PUSH0 KECCAK256 SWAP1 PUSH1 0x4 MUL ADD PUSH1 0x1 DUP3 DUP2 SLOAD DUP2 LT PUSH2 0x537 JUMPI PUSH2 0x536 PUSH2 0xFDA JUMP JUMPDEST JUMPDEST SWAP1 PUSH0 MSTORE PUSH1 0x20 PUSH0 KECCAK256 SWAP1 PUSH1 0x4 MUL ADD PUSH0 DUP3 ADD DUP2 PUSH0 ADD SWAP1 DUP2 PUSH2 0x555 SWAP2 SWAP1 PUSH2 0x101C JUMP JUMPDEST POP PUSH1 0x1 DUP3 ADD SLOAD DUP2 PUSH1 0x1 ADD SSTORE PUSH1 0x2 DUP3 ADD SLOAD DUP2 PUSH1 0x2 ADD SSTORE PUSH1 0x3 DUP3 ADD SLOAD DUP2 PUSH1 0x3 ADD SSTORE SWAP1 POP POP PUSH1 0x1 DUP1 SLOAD DUP1 PUSH2 0x589 JUMPI PUSH2 0x588 PUSH2 0x1101 JUMP JUMPDEST JUMPDEST PUSH1 0x1 SWAP1 SUB DUP2 DUP2 SWAP1 PUSH0 MSTORE PUSH1 0x20 PUSH0 KECCAK256 SWAP1 PUSH1 0x4 MUL ADD PUSH0 PUSH0 DUP3 ADD PUSH0 PUSH2 0x5AA SWAP2 SWAP1 PUSH2 0x911 JUMP JUMPDEST PUSH1 0x1 DUP3 ADD PUSH0 SWAP1 SSTORE PUSH1 0x2 DUP3 ADD PUSH0 SWAP1 SSTORE PUSH1 0x3 DUP3 ADD PUSH0 SWAP1 SSTORE POP POP SWAP1 SSTORE POP POP POP JUMP JUMPDEST PUSH2 0x5D0 PUSH2 0x64C JUMP JUMPDEST PUSH0 PUSH20 0xFFFFFFFFFFFFFFFFFFFFFFFFFFFFFFFFFFFFFFFF AND DUP2 PUSH20 0xFFFFFFFFFFFFFFFFFFFFFFFFFFFFFFFFFFFFFFFF AND SUB PUSH2 0x640 JUMPI PUSH0 PUSH1 0x40 MLOAD PUSH32 0x1E4FBDF700000000000000000000000000000000000000000000000000000000 DUP2 MSTORE PUSH1 0x4 ADD PUSH2 0x637 SWAP2 SWAP1 PUSH2 0xC13 JUMP JUMPDEST PUSH1 0x40 MLOAD DUP1 SWAP2 SUB SWAP1 REVERT JUMPDEST PUSH2 0x649 DUP2 PUSH2 0x7E4 JUMP JUMPDEST POP JUMP JUMPDEST PUSH2 0x654 PUSH2 0x90A JUMP JUMPDEST PUSH20 0xFFFFFFFFFFFFFFFFFFFFFFFFFFFFFFFFFFFFFFFF AND PUSH2 0x672 PUSH2 0x443 JUMP JUMPDEST PUSH20 0xFFFFFFFFFFFFFFFFFFFFFFFFFFFFFFFFFFFFFFFF AND EQ PUSH2 0x6D1 JUMPI PUSH2 0x695 PUSH2 0x90A JUMP JUMPDEST PUSH1 0x40 MLOAD PUSH32 0x118CDAA700000000000000000000000000000000000000000000000000000000 DUP2 MSTORE PUSH1 0x4 ADD PUSH2 0x6C8 SWAP2 SWAP1 PUSH2 0xC13 JUMP JUMPDEST PUSH1 0x40 MLOAD DUP1 SWAP2 SUB SWAP1 REVERT JUMPDEST JUMP JUMPDEST PUSH0 PUSH0 PUSH0 SWAP1 POP JUMPDEST PUSH1 0x1 DUP1 SLOAD SWAP1 POP DUP2 LT ISZERO PUSH2 0x727 JUMPI DUP3 PUSH1 0x1 DUP3 DUP2 SLOAD DUP2 LT PUSH2 0x6FB JUMPI PUSH2 0x6FA PUSH2 0xFDA JUMP JUMPDEST JUMPDEST SWAP1 PUSH0 MSTORE PUSH1 0x20 PUSH0 KECCAK256 SWAP1 PUSH1 0x4 MUL ADD PUSH1 0x2 ADD SLOAD SUB PUSH2 0x71A JUMPI PUSH1 0x1 SWAP2 POP POP PUSH2 0x72C JUMP JUMPDEST DUP1 DUP1 PUSH1 0x1 ADD SWAP2 POP POP PUSH2 0x6D9 JUMP JUMPDEST POP PUSH0 SWAP1 POP JUMPDEST SWAP2 SWAP1 POP JUMP JUMPDEST PUSH0 PUSH0 PUSH0 SWAP1 POP JUMPDEST PUSH1 0x1 DUP1 SLOAD SWAP1 POP DUP2 LT ISZERO PUSH2 0x7A3 JUMPI DUP3 PUSH1 0x1 DUP3 DUP2 SLOAD DUP2 LT PUSH2 0x759 JUMPI PUSH2 0x758 PUSH2 0xFDA JUMP JUMPDEST JUMPDEST SWAP1 PUSH0 MSTORE PUSH1 0x20 PUSH0 KECCAK256 SWAP1 PUSH1 0x4 MUL ADD PUSH1 0x2 ADD SLOAD SUB PUSH2 0x796 JUMPI PUSH1 0x1 DUP2 DUP2 SLOAD DUP2 LT PUSH2 0x782 JUMPI PUSH2 0x781 PUSH2 0xFDA JUMP JUMPDEST JUMPDEST SWAP1 PUSH0 MSTORE PUSH1 0x20 PUSH0 KECCAK256 SWAP1 PUSH1 0x4 MUL ADD SWAP2 POP POP PUSH2 0x7DF JUMP JUMPDEST DUP1 DUP1 PUSH1 0x1 ADD SWAP2 POP POP PUSH2 0x737 JUMP JUMPDEST POP PUSH1 0x40 MLOAD PUSH32 0x8C379A000000000000000000000000000000000000000000000000000000000 DUP2 MSTORE PUSH1 0x4 ADD PUSH2 0x7D6 SWAP1 PUSH2 0x1178 JUMP JUMPDEST PUSH1 0x40 MLOAD DUP1 SWAP2 SUB SWAP1 REVERT JUMPDEST SWAP2 SWAP1 POP JUMP JUMPDEST PUSH0 PUSH0 PUSH0 SWAP1 SLOAD SWAP1 PUSH2 0x100 EXP SWAP1 DIV PUSH20 0xFFFFFFFFFFFFFFFFFFFFFFFFFFFFFFFFFFFFFFFF AND SWAP1 POP DUP2 PUSH0 PUSH0 PUSH2 0x100 EXP DUP2 SLOAD DUP2 PUSH20 0xFFFFFFFFFFFFFFFFFFFFFFFFFFFFFFFFFFFFFFFF MUL NOT AND SWAP1 DUP4 PUSH20 0xFFFFFFFFFFFFFFFFFFFFFFFFFFFFFFFFFFFFFFFF AND MUL OR SWAP1 SSTORE POP DUP2 PUSH20 0xFFFFFFFFFFFFFFFFFFFFFFFFFFFFFFFFFFFFFFFF AND DUP2 PUSH20 0xFFFFFFFFFFFFFFFFFFFFFFFFFFFFFFFFFFFFFFFF AND PUSH32 0x8BE0079C531659141344CD1FD0A4F28419497F9722A3DAAFE3B4186F6B6457E0 PUSH1 0x40 MLOAD PUSH1 0x40 MLOAD DUP1 SWAP2 SUB SWAP1 LOG3 POP POP JUMP JUMPDEST PUSH0 PUSH0 PUSH0 PUSH0 SWAP1 POP JUMPDEST PUSH1 0x1 DUP1 SLOAD SWAP1 POP DUP2 LT ISZERO PUSH2 0x8FD JUMPI DUP4 PUSH1 0x1 DUP3 DUP2 SLOAD DUP2 LT PUSH2 0x8CE JUMPI PUSH2 0x8CD PUSH2 0xFDA JUMP JUMPDEST JUMPDEST SWAP1 PUSH0 MSTORE PUSH1 0x20 PUSH0 KECCAK256 SWAP1 PUSH1 0x4 MUL ADD PUSH1 0x2 ADD SLOAD SUB PUSH2 0x8F0 JUMPI PUSH1 0x1 DUP2 SWAP3 POP SWAP3 POP POP PUSH2 0x905 JUMP JUMPDEST DUP1 DUP1 PUSH1 0x1 ADD SWAP2 POP POP PUSH2 0x8AC JUMP JUMPDEST POP PUSH0 PUSH0 SWAP2 POP SWAP2 POP JUMPDEST SWAP2 POP SWAP2 JUMP JUMPDEST PUSH0 CALLER SWAP1 POP SWAP1 JUMP JUMPDEST POP DUP1 SLOAD PUSH2 0x91D SWAP1 PUSH2 0xCDB JUMP JUMPDEST PUSH0 DUP3 SSTORE DUP1 PUSH1 0x1F LT PUSH2 0x92E JUMPI POP PUSH2 0x94B JUMP JUMPDEST PUSH1 0x1F ADD PUSH1 0x20 SWAP1 DIV SWAP1 PUSH0 MSTORE PUSH1 0x20 PUSH0 KECCAK256 SWAP1 DUP2 ADD SWAP1 PUSH2 0x94A SWAP2 SWAP1 PUSH2 0x94E JUMP JUMPDEST JUMPDEST POP JUMP JUMPDEST JUMPDEST DUP1 DUP3 GT ISZERO PUSH2 0x965 JUMPI PUSH0 DUP2 PUSH0 SWAP1 SSTORE POP PUSH1 0x1 ADD PUSH2 0x94F JUMP JUMPDEST POP SWAP1 JUMP JUMPDEST PUSH0 PUSH0 REVERT JUMPDEST PUSH0 PUSH0 REVERT JUMPDEST PUSH0 PUSH0 REVERT JUMPDEST PUSH0 PUSH0 REVERT JUMPDEST PUSH0 PUSH0 REVERT JUMPDEST PUSH0 PUSH0 DUP4 PUSH1 0x1F DUP5 ADD SLT PUSH2 0x992 JUMPI PUSH2 0x991 PUSH2 0x971 JUMP JUMPDEST JUMPDEST DUP3 CALLDATALOAD SWAP1 POP PUSH8 0xFFFFFFFFFFFFFFFF DUP2 GT ISZERO PUSH2 0x9AF JUMPI PUSH2 0x9AE PUSH2 0x975 JUMP JUMPDEST JUMPDEST PUSH1 0x20 DUP4 ADD SWAP2 POP DUP4 PUSH1 0x1 DUP3 MUL DUP4 ADD GT ISZERO PUSH2 0x9CB JUMPI PUSH2 0x9CA PUSH2 0x979 JUMP JUMPDEST JUMPDEST SWAP3 POP SWAP3 SWAP1 POP JUMP JUMPDEST PUSH0 DUP2 SWAP1 POP SWAP2 SWAP1 POP JUMP JUMPDEST PUSH2 0x9E4 DUP2 PUSH2 0x9D2 JUMP JUMPDEST DUP2 EQ PUSH2 0x9EE JUMPI PUSH0 PUSH0 REVERT JUMPDEST POP JUMP JUMPDEST PUSH0 DUP2 CALLDATALOAD SWAP1 POP PUSH2 0x9FF DUP2 PUSH2 0x9DB JUMP JUMPDEST SWAP3 SWAP2 POP POP JUMP JUMPDEST PUSH0 PUSH0 PUSH0 PUSH0 PUSH0 PUSH1 0x80 DUP7 DUP9 SUB SLT ISZERO PUSH2 0xA1E JUMPI PUSH2 0xA1D PUSH2 0x969 JUMP JUMPDEST JUMPDEST PUSH0 DUP7 ADD CALLDATALOAD PUSH8 0xFFFFFFFFFFFFFFFF DUP2 GT ISZERO PUSH2 0xA3B JUMPI PUSH2 0xA3A PUSH2 0x96D JUMP JUMPDEST JUMPDEST PUSH2 0xA47 DUP9 DUP3 DUP10 ADD PUSH2 0x97D JUMP JUMPDEST SWAP6 POP SWAP6 POP POP PUSH1 0x20 PUSH2 0xA5A DUP9 DUP3 DUP10 ADD PUSH2 0x9F1 JUMP JUMPDEST SWAP4 POP POP PUSH1 0x40 PUSH2 0xA6B DUP9 DUP3 DUP10 ADD PUSH2 0x9F1 JUMP JUMPDEST SWAP3 POP POP PUSH1 0x60 PUSH2 0xA7C DUP9 DUP3 DUP10 ADD PUSH2 0x9F1 JUMP JUMPDEST SWAP2 POP POP SWAP3 SWAP6 POP SWAP3 SWAP6 SWAP1 SWAP4 POP JUMP JUMPDEST PUSH2 0xA92 DUP2 PUSH2 0x9D2 JUMP JUMPDEST DUP3 MSTORE POP POP JUMP JUMPDEST PUSH0 PUSH1 0x20 DUP3 ADD SWAP1 POP PUSH2 0xAAB PUSH0 DUP4 ADD DUP5 PUSH2 0xA89 JUMP JUMPDEST SWAP3 SWAP2 POP POP JUMP JUMPDEST PUSH0 PUSH1 0x20 DUP3 DUP5 SUB SLT ISZERO PUSH2 0xAC6 JUMPI PUSH2 0xAC5 PUSH2 0x969 JUMP JUMPDEST JUMPDEST PUSH0 PUSH2 0xAD3 DUP5 DUP3 DUP6 ADD PUSH2 0x9F1 JUMP JUMPDEST SWAP2 POP POP SWAP3 SWAP2 POP POP JUMP JUMPDEST PUSH0 DUP2 MLOAD SWAP1 POP SWAP2 SWAP1 POP JUMP JUMPDEST PUSH0 DUP3 DUP3 MSTORE PUSH1 0x20 DUP3 ADD SWAP1 POP SWAP3 SWAP2 POP POP JUMP JUMPDEST DUP3 DUP2 DUP4 MCOPY PUSH0 DUP4 DUP4 ADD MSTORE POP POP POP JUMP JUMPDEST PUSH0 PUSH1 0x1F NOT PUSH1 0x1F DUP4 ADD AND SWAP1 POP SWAP2 SWAP1 POP JUMP JUMPDEST PUSH0 PUSH2 0xB1E DUP3 PUSH2 0xADC JUMP JUMPDEST PUSH2 0xB28 DUP2 DUP6 PUSH2 0xAE6 JUMP JUMPDEST SWAP4 POP PUSH2 0xB38 DUP2 DUP6 PUSH1 0x20 DUP7 ADD PUSH2 0xAF6 JUMP JUMPDEST PUSH2 0xB41 DUP2 PUSH2 0xB04 JUMP JUMPDEST DUP5 ADD SWAP2 POP POP SWAP3 SWAP2 POP POP JUMP JUMPDEST PUSH0 PUSH1 0x80 DUP3 ADD SWAP1 POP DUP2 DUP2 SUB PUSH0 DUP4 ADD MSTORE PUSH2 0xB64 DUP2 DUP8 PUSH2 0xB14 JUMP JUMPDEST SWAP1 POP PUSH2 0xB73 PUSH1 0x20 DUP4 ADD DUP7 PUSH2 0xA89 JUMP JUMPDEST PUSH2 0xB80 PUSH1 0x40 DUP4 ADD DUP6 PUSH2 0xA89 JUMP JUMPDEST PUSH2 0xB8D PUSH1 0x60 DUP4 ADD DUP5 PUSH2 0xA89 JUMP JUMPDEST SWAP6 SWAP5 POP POP POP POP POP JUMP JUMPDEST PUSH0 PUSH0 PUSH1 0x40 DUP4 DUP6 SUB SLT ISZERO PUSH2 0xBAC JUMPI PUSH2 0xBAB PUSH2 0x969 JUMP JUMPDEST JUMPDEST PUSH0 PUSH2 0xBB9 DUP6 DUP3 DUP7 ADD PUSH2 0x9F1 JUMP JUMPDEST SWAP3 POP POP PUSH1 0x20 PUSH2 0xBCA DUP6 DUP3 DUP7 ADD PUSH2 0x9F1 JUMP JUMPDEST SWAP2 POP POP SWAP3 POP SWAP3 SWAP1 POP JUMP JUMPDEST PUSH0 PUSH20 0xFFFFFFFFFFFFFFFFFFFFFFFFFFFFFFFFFFFFFFFF DUP3 AND SWAP1 POP SWAP2 SWAP1 POP JUMP JUMPDEST PUSH0 PUSH2 0xBFD DUP3 PUSH2 0xBD4 JUMP JUMPDEST SWAP1 POP SWAP2 SWAP1 POP JUMP JUMPDEST PUSH2 0xC0D DUP2 PUSH2 0xBF3 JUMP JUMPDEST DUP3 MSTORE POP POP JUMP JUMPDEST PUSH0 PUSH1 0x20 DUP3 ADD SWAP1 POP PUSH2 0xC26 PUSH0 DUP4 ADD DUP5 PUSH2 0xC04 JUMP JUMPDEST SWAP3 SWAP2 POP POP JUMP JUMPDEST PUSH2 0xC35 DUP2 PUSH2 0xBF3 JUMP JUMPDEST DUP2 EQ PUSH2 0xC3F JUMPI PUSH0 PUSH0 REVERT JUMPDEST POP JUMP JUMPDEST PUSH0 DUP2 CALLDATALOAD SWAP1 POP PUSH2 0xC50 DUP2 PUSH2 0xC2C JUMP JUMPDEST SWAP3 SWAP2 POP POP JUMP JUMPDEST PUSH0 PUSH1 0x20 DUP3 DUP5 SUB SLT ISZERO PUSH2 0xC6B JUMPI PUSH2 0xC6A PUSH2 0x969 JUMP JUMPDEST JUMPDEST PUSH0 PUSH2 0xC78 DUP5 DUP3 DUP6 ADD PUSH2 0xC42 JUMP JUMPDEST SWAP2 POP POP SWAP3 SWAP2 POP POP JUMP JUMPDEST PUSH32 0x4E487B7100000000000000000000000000000000000000000000000000000000 PUSH0 MSTORE PUSH1 0x41 PUSH1 0x4 MSTORE PUSH1 0x24 PUSH0 REVERT JUMPDEST PUSH32 0x4E487B7100000000000000000000000000000000000000000000000000000000 PUSH0 MSTORE PUSH1 0x22 PUSH1 0x4 MSTORE PUSH1 0x24 PUSH0 REVERT JUMPDEST PUSH0 PUSH1 0x2 DUP3 DIV SWAP1 POP PUSH1 0x1 DUP3 AND DUP1 PUSH2 0xCF2 JUMPI PUSH1 0x7F DUP3 AND SWAP2 POP JUMPDEST PUSH1 0x20 DUP3 LT DUP2 SUB PUSH2 0xD05 JUMPI PUSH2 0xD04 PUSH2 0xCAE JUMP JUMPDEST JUMPDEST POP SWAP2 SWAP1 POP JUMP JUMPDEST PUSH0 DUP2 SWAP1 POP DUP2 PUSH0 MSTORE PUSH1 0x20 PUSH0 KECCAK256 SWAP1 POP SWAP2 SWAP1 POP JUMP JUMPDEST PUSH0 PUSH1 0x20 PUSH1 0x1F DUP4 ADD DIV SWAP1 POP SWAP2 SWAP1 POP JUMP JUMPDEST PUSH0 DUP3 DUP3 SHL SWAP1 POP SWAP3 SWAP2 POP POP JUMP JUMPDEST PUSH0 PUSH1 0x8 DUP4 MUL PUSH2 0xD67 PUSH32 0xFFFFFFFFFFFFFFFFFFFFFFFFFFFFFFFFFFFFFFFFFFFFFFFFFFFFFFFFFFFFFFFF DUP3 PUSH2 0xD2C JUMP JUMPDEST PUSH2 0xD71 DUP7 DUP4 PUSH2 0xD2C JUMP JUMPDEST SWAP6 POP DUP1 NOT DUP5 AND SWAP4 POP DUP1 DUP7 AND DUP5 OR SWAP3 POP POP POP SWAP4 SWAP3 POP POP POP JUMP JUMPDEST PUSH0 DUP2 SWAP1 POP SWAP2 SWAP1 POP JUMP JUMPDEST PUSH0 PUSH2 0xDAC PUSH2 0xDA7 PUSH2 0xDA2 DUP5 PUSH2 0x9D2 JUMP JUMPDEST PUSH2 0xD89 JUMP JUMPDEST PUSH2 0x9D2 JUMP JUMPDEST SWAP1 POP SWAP2 SWAP1 POP JUMP JUMPDEST PUSH0 DUP2 SWAP1 POP SWAP2 SWAP1 POP JUMP JUMPDEST PUSH2 0xDC5 DUP4 PUSH2 0xD92 JUMP JUMPDEST PUSH2 0xDD9 PUSH2 0xDD1 DUP3 PUSH2 0xDB3 JUMP JUMPDEST DUP5 DUP5 SLOAD PUSH2 0xD38 JUMP JUMPDEST DUP3 SSTORE POP POP POP POP JUMP JUMPDEST PUSH0 PUSH0 SWAP1 POP SWAP1 JUMP JUMPDEST PUSH2 0xDF0 PUSH2 0xDE1 JUMP JUMPDEST PUSH2 0xDFB DUP2 DUP5 DUP5 PUSH2 0xDBC JUMP JUMPDEST POP POP POP JUMP JUMPDEST JUMPDEST DUP2 DUP2 LT ISZERO PUSH2 0xE1E JUMPI PUSH2 0xE13 PUSH0 DUP3 PUSH2 0xDE8 JUMP JUMPDEST PUSH1 0x1 DUP2 ADD SWAP1 POP PUSH2 0xE01 JUMP JUMPDEST POP POP JUMP JUMPDEST PUSH1 0x1F DUP3 GT ISZERO PUSH2 0xE63 JUMPI PUSH2 0xE34 DUP2 PUSH2 0xD0B JUMP JUMPDEST PUSH2 0xE3D DUP5 PUSH2 0xD1D JUMP JUMPDEST DUP2 ADD PUSH1 0x20 DUP6 LT ISZERO PUSH2 0xE4C JUMPI DUP2 SWAP1 POP JUMPDEST PUSH2 0xE60 PUSH2 0xE58 DUP6 PUSH2 0xD1D JUMP JUMPDEST DUP4 ADD DUP3 PUSH2 0xE00 JUMP JUMPDEST POP POP JUMPDEST POP POP POP JUMP JUMPDEST PUSH0 DUP3 DUP3 SHR SWAP1 POP SWAP3 SWAP2 POP POP JUMP JUMPDEST PUSH0 PUSH2 0xE83 PUSH0 NOT DUP5 PUSH1 0x8 MUL PUSH2 0xE68 JUMP JUMPDEST NOT DUP1 DUP4 AND SWAP2 POP POP SWAP3 SWAP2 POP POP JUMP JUMPDEST PUSH0 PUSH2 0xE9B DUP4 DUP4 PUSH2 0xE74 JUMP JUMPDEST SWAP2 POP DUP3 PUSH1 0x2 MUL DUP3 OR SWAP1 POP SWAP3 SWAP2 POP POP JUMP JUMPDEST PUSH2 0xEB4 DUP3 PUSH2 0xADC JUMP JUMPDEST PUSH8 0xFFFFFFFFFFFFFFFF DUP2 GT ISZERO PUSH2 0xECD JUMPI PUSH2 0xECC PUSH2 0xC81 JUMP JUMPDEST JUMPDEST PUSH2 0xED7 DUP3 SLOAD PUSH2 0xCDB JUMP JUMPDEST PUSH2 0xEE2 DUP3 DUP3 DUP6 PUSH2 0xE22 JUMP JUMPDEST PUSH0 PUSH1 0x20 SWAP1 POP PUSH1 0x1F DUP4 GT PUSH1 0x1 DUP2 EQ PUSH2 0xF13 JUMPI PUSH0 DUP5 ISZERO PUSH2 0xF01 JUMPI DUP3 DUP8 ADD MLOAD SWAP1 POP JUMPDEST PUSH2 0xF0B DUP6 DUP3 PUSH2 0xE90 JUMP JUMPDEST DUP7 SSTORE POP PUSH2 0xF72 JUMP JUMPDEST PUSH1 0x1F NOT DUP5 AND PUSH2 0xF21 DUP7 PUSH2 0xD0B JUMP JUMPDEST PUSH0 JUMPDEST DUP3 DUP2 LT ISZERO PUSH2 0xF48 JUMPI DUP5 DUP10 ADD MLOAD DUP3 SSTORE PUSH1 0x1 DUP3 ADD SWAP2 POP PUSH1 0x20 DUP6 ADD SWAP5 POP PUSH1 0x20 DUP2 ADD SWAP1 POP PUSH2 0xF23 JUMP JUMPDEST DUP7 DUP4 LT ISZERO PUSH2 0xF65 JUMPI DUP5 DUP10 ADD MLOAD PUSH2 0xF61 PUSH1 0x1F DUP10 AND DUP3 PUSH2 0xE74 JUMP JUMPDEST DUP4 SSTORE POP JUMPDEST PUSH1 0x1 PUSH1 0x2 DUP9 MUL ADD DUP9 SSTORE POP POP POP JUMPDEST POP POP POP POP POP POP JUMP JUMPDEST PUSH32 0x4E487B7100000000000000000000000000000000000000000000000000000000 PUSH0 MSTORE PUSH1 0x11 PUSH1 0x4 MSTORE PUSH1 0x24 PUSH0 REVERT JUMPDEST PUSH0 PUSH2 0xFB1 DUP3 PUSH2 0x9D2 JUMP JUMPDEST SWAP2 POP PUSH2 0xFBC DUP4 PUSH2 0x9D2 JUMP JUMPDEST SWAP3 POP DUP3 DUP3 SUB SWAP1 POP DUP2 DUP2 GT ISZERO PUSH2 0xFD4 JUMPI PUSH2 0xFD3 PUSH2 0xF7A JUMP JUMPDEST JUMPDEST SWAP3 SWAP2 POP POP JUMP JUMPDEST PUSH32 0x4E487B7100000000000000000000000000000000000000000000000000000000 PUSH0 MSTORE PUSH1 0x32 PUSH1 0x4 MSTORE PUSH1 0x24 PUSH0 REVERT JUMPDEST PUSH0 DUP2 SLOAD SWAP1 POP PUSH2 0x1015 DUP2 PUSH2 0xCDB JUMP JUMPDEST SWAP1 POP SWAP2 SWAP1 POP JUMP JUMPDEST DUP2 DUP2 SUB PUSH2 0x102A JUMPI POP POP PUSH2 0x10FF JUMP JUMPDEST PUSH2 0x1033 DUP3 PUSH2 0x1007 JUMP JUMPDEST PUSH8 0xFFFFFFFFFFFFFFFF DUP2 GT ISZERO PUSH2 0x104C JUMPI PUSH2 0x104B PUSH2 0xC81 JUMP JUMPDEST JUMPDEST PUSH2 0x1056 DUP3 SLOAD PUSH2 0xCDB JUMP JUMPDEST PUSH2 0x1061 DUP3 DUP3 DUP6 PUSH2 0xE22 JUMP JUMPDEST PUSH0 PUSH1 0x1F DUP4 GT PUSH1 0x1 DUP2 EQ PUSH2 0x108E JUMPI PUSH0 DUP5 ISZERO PUSH2 0x107C JUMPI DUP3 DUP8 ADD SLOAD SWAP1 POP JUMPDEST PUSH2 0x1086 DUP6 DUP3 PUSH2 0xE90 JUMP JUMPDEST DUP7 SSTORE POP PUSH2 0x10F8 JUMP JUMPDEST PUSH1 0x1F NOT DUP5 AND PUSH2 0x109C DUP8 PUSH2 0xD0B JUMP JUMPDEST SWAP7 POP PUSH2 0x10A7 DUP7 PUSH2 0xD0B JUMP JUMPDEST PUSH0 JUMPDEST DUP3 DUP2 LT ISZERO PUSH2 0x10CE JUMPI DUP5 DUP10 ADD SLOAD DUP3 SSTORE PUSH1 0x1 DUP3 ADD SWAP2 POP PUSH1 0x1 DUP6 ADD SWAP5 POP PUSH1 0x20 DUP2 ADD SWAP1 POP PUSH2 0x10A9 JUMP JUMPDEST DUP7 DUP4 LT ISZERO PUSH2 0x10EB JUMPI DUP5 DUP10 ADD SLOAD PUSH2 0x10E7 PUSH1 0x1F DUP10 AND DUP3 PUSH2 0xE74 JUMP JUMPDEST DUP4 SSTORE POP JUMPDEST PUSH1 0x1 PUSH1 0x2 DUP9 MUL ADD DUP9 SSTORE POP POP POP JUMPDEST POP POP POP POP POP POP JUMPDEST JUMP JUMPDEST PUSH32 0x4E487B7100000000000000000000000000000000000000000000000000000000 PUSH0 MSTORE PUSH1 0x31 PUSH1 0x4 MSTORE PUSH1 0x24 PUSH0 REVERT JUMPDEST PUSH32 0x50726F64756374206E6F7420666F756E64000000000000000000000000000000 PUSH0 DUP3 ADD MSTORE POP JUMP JUMPDEST PUSH0 PUSH2 0x1162 PUSH1 0x11 DUP4 PUSH2 0xAE6 JUMP JUMPDEST SWAP2 POP PUSH2 0x116D DUP3 PUSH2 0x112E JUMP JUMPDEST PUSH1 0x20 DUP3 ADD SWAP1 POP SWAP2 SWAP1 POP JUMP JUMPDEST PUSH0 PUSH1 0x20 DUP3 ADD SWAP1 POP DUP2 DUP2 SUB PUSH0 DUP4 ADD MSTORE PUSH2 0x118F DUP2 PUSH2 0x1156 JUMP JUMPDEST SWAP1 POP SWAP2 SWAP1 POP JUMP INVALID LOG2 PUSH5 0x6970667358 0x22 SLT KECCAK256 DUP6 0xDD 0x4C 0x2E SWAP8 SWAPN 0xCC PUSH23 0x5316291B70E64984D2798EBFC928C98ADD14F74ABA526F SWAP2 PUSH5 0x736F6C6343 STOP ADDMOD 0x1F STOP CALLER "
				},
				"gasEstimates": {
					"creation": {
						"codeDepositCost": "911200",
						"executionCost": "infinite",
						"totalCost": "infinite"
					},
					"external": {
						"addProduct(string,uint256,uint256,uint256)": "infinite",
						"deleteProduct(uint256)": "infinite",
						"getPrice(uint256)": "infinite",
						"getStock(uint256)": "infinite",
						"getTimestamp()": "infinite",
						"owner()": "2536",
						"products(uint256)": "infinite",
						"renounceOwnership()": "infinite",
						"transferOwnership(address)": "infinite",
						"updatePrice(uint256,uint256)": "infinite",
						"updateStock(uint256,uint256)": "infinite"
					},
					"internal": {
						"findIndexById(uint256)": "infinite",
						"findProduct(uint256)": "infinite",
						"isIdExist(uint256)": "infinite"
					}
				},
				"methodIdentifiers": {
					"addProduct(string,uint256,uint256,uint256)": "094455c4",
					"deleteProduct(uint256)": "ed90c7b7",
					"getPrice(uint256)": "e7572230",
					"getStock(uint256)": "3ab7d09a",
					"getTimestamp()": "188ec356",
					"owner()": "8da5cb5b",
					"products(uint256)": "7acc0b20",
					"renounceOwnership()": "715018a6",
					"transferOwnership(address)": "f2fde38b",
					"updatePrice(uint256,uint256)": "82367b2d",
					"updateStock(uint256,uint256)": "9dfc3dd1"
				}
			},
			"storageLayout": {
				"storage": [
					{
						"astId": 8,
						"contract": "base.sol:Store",
						"label": "_owner",
						"offset": 0,
						"slot": "0",
						"type": "t_address"
					},
					{
						"astId": 496,
						"contract": "base.sol:Store",
						"label": "products",
						"offset": 0,
						"slot": "1",
						"type": "t_array(t_struct(Product)492_storage)dyn_storage"
					}
				],
				"types": {
					"t_address": {
						"encoding": "inplace",
						"label": "address",
						"numberOfBytes": "20"
					},
					"t_array(t_struct(Product)492_storage)dyn_storage": {
						"base": "t_struct(Product)492_storage",
						"encoding": "dynamic_array",
						"label": "struct Store.Product[]",
						"numberOfBytes": "32"
					},
					"t_string_storage": {
						"encoding": "bytes",
						"label": "string",
						"numberOfBytes": "32"
					},
					"t_struct(Product)492_storage": {
						"encoding": "inplace",
						"label": "struct Store.Product",
						"members": [
							{
								"astId": 485,
								"contract": "base.sol:Store",
								"label": "name",
								"offset": 0,
								"slot": "0",
								"type": "t_string_storage"
							},
							{
								"astId": 487,
								"contract": "base.sol:Store",
								"label": "stock",
								"offset": 0,
								"slot": "1",
								"type": "t_uint256"
							},
							{
								"astId": 489,
								"contract": "base.sol:Store",
								"label": "id",
								"offset": 0,
								"slot": "2",
								"type": "t_uint256"
							},
							{
								"astId": 491,
								"contract": "base.sol:Store",
								"label": "price",
								"offset": 0,
								"slot": "3",
								"type": "t_uint256"
							}
						],
						"numberOfBytes": "128"
					},
					"t_uint256": {
						"encoding": "inplace",
						"label": "uint256",
						"numberOfBytes": "32"
					}
				}
			},
			"userdoc": {
				"kind": "user",
				"methods": {},
				"version": 1
			}
		}
	}
}