{
	"base.sol": {
		"Election": {
			"abi": [
				{
					"inputs": [
						{
							"internalType": "string[]",
							"name": "_electors",
							"type": "string[]"
						},
						{
							"internalType": "uint256",
							"name": "_maxVotes",
							"type": "uint256"
						},
						{
							"internalType": "uint256",
							"name": "_electionTime",
							"type": "uint256"
						}
					],
					"stateMutability": "nonpayable",
					"type": "constructor"
				},
				{
					"inputs": [
						{
							"internalType": "uint256",
							"name": "_pickedElector",
							"type": "uint256"
						},
						{
							"internalType": "uint256",
							"name": "_totalElectors",
							"type": "uint256"
						}
					],
					"name": "ElectorDoesNotExist",
					"type": "error"
				},
				{
					"inputs": [],
					"name": "OnlyForOwner",
					"type": "error"
				},
				{
					"inputs": [],
					"name": "YourAddressCantVote",
					"type": "error"
				},
				{
					"anonymous": false,
					"inputs": [],
					"name": "MaxVoteReseted",
					"type": "event"
				},
				{
					"anonymous": false,
					"inputs": [
						{
							"indexed": false,
							"internalType": "uint256",
							"name": "_index",
							"type": "uint256"
						},
						{
							"indexed": false,
							"internalType": "address",
							"name": "_userAddress",
							"type": "address"
						}
					],
					"name": "Voted",
					"type": "event"
				},
				{
					"inputs": [],
					"name": "contractOwner",
					"outputs": [
						{
							"internalType": "address",
							"name": "",
							"type": "address"
						}
					],
					"stateMutability": "view",
					"type": "function"
				},
				{
					"inputs": [],
					"name": "electionEndTime",
					"outputs": [
						{
							"internalType": "uint256",
							"name": "",
							"type": "uint256"
						}
					],
					"stateMutability": "view",
					"type": "function"
				},
				{
					"inputs": [],
					"name": "electionResult",
					"outputs": [
						{
							"internalType": "string",
							"name": "winner",
							"type": "string"
						}
					],
					"stateMutability": "view",
					"type": "function"
				},
				{
					"inputs": [
						{
							"internalType": "uint256",
							"name": "",
							"type": "uint256"
						}
					],
					"name": "electors",
					"outputs": [
						{
							"internalType": "string",
							"name": "",
							"type": "string"
						}
					],
					"stateMutability": "view",
					"type": "function"
				},
				{
					"inputs": [],
					"name": "maxVotes",
					"outputs": [
						{
							"internalType": "uint256",
							"name": "",
							"type": "uint256"
						}
					],
					"stateMutability": "view",
					"type": "function"
				},
				{
					"inputs": [
						{
							"internalType": "uint256",
							"name": "_newElectionTime",
							"type": "uint256"
						}
					],
					"name": "resetElectionTime",
					"outputs": [],
					"stateMutability": "nonpayable",
					"type": "function"
				},
				{
					"inputs": [
						{
							"internalType": "uint256",
							"name": "_newMaxVotes",
							"type": "uint256"
						}
					],
					"name": "resetMaxVotes",
					"outputs": [],
					"stateMutability": "nonpayable",
					"type": "function"
				},
				{
					"inputs": [
						{
							"internalType": "address",
							"name": "",
							"type": "address"
						}
					],
					"name": "userVotes",
					"outputs": [
						{
							"internalType": "bool",
							"name": "",
							"type": "bool"
						}
					],
					"stateMutability": "view",
					"type": "function"
				},
				{
					"inputs": [
						{
							"internalType": "uint256",
							"name": "_numberOfElector",
							"type": "uint256"
						}
					],
					"name": "vote",
					"outputs": [],
					"stateMutability": "nonpayable",
					"type": "function"
				},
				{
					"inputs": [
						{
							"internalType": "uint256",
							"name": "",
							"type": "uint256"
						}
					],
					"name": "votesCount",
					"outputs": [
						{
							"internalType": "uint256",
							"name": "",
							"type": "uint256"
						}
					],
					"stateMutability": "view",
					"type": "function"
				}
			],
			"devdoc": {
				"kind": "dev",
				"methods": {},
				"version": 1
			},
			"evm": {
				"assembly": "    /* \"base.sol\":131:2476  contract Election {... */\n  mstore(0x40, 0x80)\n    /* \"base.sol\":798:1046  constructor(string[] memory _electors, uint256 _maxVotes, uint256 _electionTime) {... */\n  callvalue\n  dup1\n  iszero\n  tag_1\n  jumpi\n  revert(0x00, 0x00)\ntag_1:\n  pop\n  mload(0x40)\n  sub(codesize, bytecodeSize)\n  dup1\n  bytecodeSize\n  dup4\n  codecopy\n  dup2\n  dup2\n  add\n  0x40\n  mstore\n  dup2\n  add\n  swap1\n  tag_2\n  swap2\n  swap1\n  tag_3\n  jump\t// in\ntag_2:\n    /* \"base.sol\":901:910  _electors */\n  dup3\n    /* \"base.sol\":890:898  electors */\n  0x00\n    /* \"base.sol\":890:910  electors = _electors */\n  swap1\n  dup1\n  mload\n  swap1\n  0x20\n  add\n  swap1\n  tag_6\n  swap3\n  swap2\n  swap1\n  tag_7\n  jump\t// in\ntag_6:\n  pop\n    /* \"base.sol\":932:941  _maxVotes */\n  dup2\n    /* \"base.sol\":921:929  maxVotes */\n  0x01\n    /* \"base.sol\":921:941  maxVotes = _maxVotes */\n  dup2\n  swap1\n  sstore\n  pop\n    /* \"base.sol\":988:1001  _electionTime */\n  dup1\n    /* \"base.sol\":970:985  block.timestamp */\n  timestamp\n    /* \"base.sol\":970:1001  block.timestamp + _electionTime */\n  tag_8\n  swap2\n  swap1\n  tag_9\n  jump\t// in\ntag_8:\n    /* \"base.sol\":952:967  electionEndTime */\n  0x02\n    /* \"base.sol\":952:1001  electionEndTime = block.timestamp + _electionTime */\n  dup2\n  swap1\n  sstore\n  pop\n    /* \"base.sol\":1028:1038  msg.sender */\n  caller\n    /* \"base.sol\":1012:1025  contractOwner */\n  0x03\n  0x00\n    /* \"base.sol\":1012:1038  contractOwner = msg.sender */\n  0x0100\n  exp\n  dup2\n  sload\n  dup2\n  0xffffffffffffffffffffffffffffffffffffffff\n  mul\n  not\n  and\n  swap1\n  dup4\n  0xffffffffffffffffffffffffffffffffffffffff\n  and\n  mul\n  or\n  swap1\n  sstore\n  pop\n    /* \"base.sol\":798:1046  constructor(string[] memory _electors, uint256 _maxVotes, uint256 _electionTime) {... */\n  pop\n  pop\n  pop\n    /* \"base.sol\":131:2476  contract Election {... */\n  jump(tag_10)\ntag_7:\n  dup3\n  dup1\n  sload\n  dup3\n  dup3\n  sstore\n  swap1\n  0x00\n  mstore\n  keccak256(0x00, 0x20)\n  swap1\n  dup2\n  add\n  swap3\n  dup3\n  iszero\n  tag_11\n  jumpi\n  swap2\n  0x20\n  mul\n  dup3\n  add\ntag_12:\n  dup3\n  dup2\n  gt\n  iszero\n  tag_13\n  jumpi\n  dup3\n  mload\n  dup3\n  swap1\n  dup2\n  tag_14\n  swap2\n  swap1\n  tag_15\n  jump\t// in\ntag_14:\n  pop\n  swap2\n  0x20\n  add\n  swap2\n  swap1\n  0x01\n  add\n  swap1\n  jump(tag_12)\ntag_13:\ntag_11:\n  pop\n  swap1\n  pop\n  tag_16\n  swap2\n  swap1\n  tag_17\n  jump\t// in\ntag_16:\n  pop\n  swap1\n  jump\t// out\ntag_17:\ntag_18:\n  dup1\n  dup3\n  gt\n  iszero\n  tag_19\n  jumpi\n  0x00\n  dup2\n  dup2\n  tag_20\n  swap2\n  swap1\n  tag_21\n  jump\t// in\ntag_20:\n  pop\n  0x01\n  add\n  jump(tag_18)\ntag_19:\n  pop\n  swap1\n  jump\t// out\ntag_21:\n  pop\n  dup1\n  sload\n  tag_22\n  swap1\n  tag_23\n  jump\t// in\ntag_22:\n  0x00\n  dup3\n  sstore\n  dup1\n  0x1f\n  lt\n  tag_25\n  jumpi\n  pop\n  jump(tag_24)\ntag_25:\n  0x1f\n  add\n  0x20\n  swap1\n  div\n  swap1\n  0x00\n  mstore\n  keccak256(0x00, 0x20)\n  swap1\n  dup2\n  add\n  swap1\n  tag_26\n  swap2\n  swap1\n  tag_27\n  jump\t// in\ntag_26:\ntag_24:\n  pop\n  jump\t// out\ntag_27:\ntag_28:\n  dup1\n  dup3\n  gt\n  iszero\n  tag_29\n  jumpi\n  0x00\n  dup2\n  0x00\n  swap1\n  sstore\n  pop\n  0x01\n  add\n  jump(tag_28)\ntag_29:\n  pop\n  swap1\n  jump\t// out\n    /* \"#utility.yul\":7:82   */\ntag_30:\n    /* \"#utility.yul\":40:46   */\n  0x00\n    /* \"#utility.yul\":73:75   */\n  0x40\n    /* \"#utility.yul\":67:76   */\n  mload\n    /* \"#utility.yul\":57:76   */\n  swap1\n  pop\n    /* \"#utility.yul\":7:82   */\n  swap1\n  jump\t// out\n    /* \"#utility.yul\":88:205   */\ntag_31:\n    /* \"#utility.yul\":197:198   */\n  0x00\n    /* \"#utility.yul\":194:195   */\n  0x00\n    /* \"#utility.yul\":187:199   */\n  revert\n    /* \"#utility.yul\":211:328   */\ntag_32:\n    /* \"#utility.yul\":320:321   */\n  0x00\n    /* \"#utility.yul\":317:318   */\n  0x00\n    /* \"#utility.yul\":310:322   */\n  revert\n    /* \"#utility.yul\":334:451   */\ntag_33:\n    /* \"#utility.yul\":443:444   */\n  0x00\n    /* \"#utility.yul\":440:441   */\n  0x00\n    /* \"#utility.yul\":433:445   */\n  revert\n    /* \"#utility.yul\":457:559   */\ntag_34:\n    /* \"#utility.yul\":498:504   */\n  0x00\n    /* \"#utility.yul\":549:551   */\n  0x1f\n    /* \"#utility.yul\":545:552   */\n  not\n    /* \"#utility.yul\":540:542   */\n  0x1f\n    /* \"#utility.yul\":533:538   */\n  dup4\n    /* \"#utility.yul\":529:543   */\n  add\n    /* \"#utility.yul\":525:553   */\n  and\n    /* \"#utility.yul\":515:553   */\n  swap1\n  pop\n    /* \"#utility.yul\":457:559   */\n  swap2\n  swap1\n  pop\n  jump\t// out\n    /* \"#utility.yul\":565:745   */\ntag_35:\n    /* \"#utility.yul\":613:690   */\n  0x4e487b7100000000000000000000000000000000000000000000000000000000\n    /* \"#utility.yul\":610:611   */\n  0x00\n    /* \"#utility.yul\":603:691   */\n  mstore\n    /* \"#utility.yul\":710:714   */\n  0x41\n    /* \"#utility.yul\":707:708   */\n  0x04\n    /* \"#utility.yul\":700:715   */\n  mstore\n    /* \"#utility.yul\":734:738   */\n  0x24\n    /* \"#utility.yul\":731:732   */\n  0x00\n    /* \"#utility.yul\":724:739   */\n  revert\n    /* \"#utility.yul\":751:1032   */\ntag_36:\n    /* \"#utility.yul\":834:861   */\n  tag_76\n    /* \"#utility.yul\":856:860   */\n  dup3\n    /* \"#utility.yul\":834:861   */\n  tag_34\n  jump\t// in\ntag_76:\n    /* \"#utility.yul\":826:832   */\n  dup2\n    /* \"#utility.yul\":822:862   */\n  add\n    /* \"#utility.yul\":964:970   */\n  dup2\n    /* \"#utility.yul\":952:962   */\n  dup2\n    /* \"#utility.yul\":949:971   */\n  lt\n    /* \"#utility.yul\":928:946   */\n  0xffffffffffffffff\n    /* \"#utility.yul\":916:926   */\n  dup3\n    /* \"#utility.yul\":913:947   */\n  gt\n    /* \"#utility.yul\":910:972   */\n  or\n    /* \"#utility.yul\":907:995   */\n  iszero\n  tag_77\n  jumpi\n    /* \"#utility.yul\":975:993   */\n  tag_78\n  tag_35\n  jump\t// in\ntag_78:\n    /* \"#utility.yul\":907:995   */\ntag_77:\n    /* \"#utility.yul\":1015:1025   */\n  dup1\n    /* \"#utility.yul\":1011:1013   */\n  0x40\n    /* \"#utility.yul\":1004:1026   */\n  mstore\n    /* \"#utility.yul\":794:1032   */\n  pop\n    /* \"#utility.yul\":751:1032   */\n  pop\n  pop\n  jump\t// out\n    /* \"#utility.yul\":1038:1167   */\ntag_37:\n    /* \"#utility.yul\":1072:1078   */\n  0x00\n    /* \"#utility.yul\":1099:1119   */\n  tag_80\n  tag_30\n  jump\t// in\ntag_80:\n    /* \"#utility.yul\":1089:1119   */\n  swap1\n  pop\n    /* \"#utility.yul\":1128:1161   */\n  tag_81\n    /* \"#utility.yul\":1156:1160   */\n  dup3\n    /* \"#utility.yul\":1148:1154   */\n  dup3\n    /* \"#utility.yul\":1128:1161   */\n  tag_36\n  jump\t// in\ntag_81:\n    /* \"#utility.yul\":1038:1167   */\n  swap2\n  swap1\n  pop\n  jump\t// out\n    /* \"#utility.yul\":1173:1494   */\ntag_38:\n    /* \"#utility.yul\":1260:1264   */\n  0x00\n    /* \"#utility.yul\":1350:1368   */\n  0xffffffffffffffff\n    /* \"#utility.yul\":1342:1348   */\n  dup3\n    /* \"#utility.yul\":1339:1369   */\n  gt\n    /* \"#utility.yul\":1336:1392   */\n  iszero\n  tag_83\n  jumpi\n    /* \"#utility.yul\":1372:1390   */\n  tag_84\n  tag_35\n  jump\t// in\ntag_84:\n    /* \"#utility.yul\":1336:1392   */\ntag_83:\n    /* \"#utility.yul\":1422:1426   */\n  0x20\n    /* \"#utility.yul\":1414:1420   */\n  dup3\n    /* \"#utility.yul\":1410:1427   */\n  mul\n    /* \"#utility.yul\":1402:1427   */\n  swap1\n  pop\n    /* \"#utility.yul\":1482:1486   */\n  0x20\n    /* \"#utility.yul\":1476:1480   */\n  dup2\n    /* \"#utility.yul\":1472:1487   */\n  add\n    /* \"#utility.yul\":1464:1487   */\n  swap1\n  pop\n    /* \"#utility.yul\":1173:1494   */\n  swap2\n  swap1\n  pop\n  jump\t// out\n    /* \"#utility.yul\":1500:1617   */\ntag_39:\n    /* \"#utility.yul\":1609:1610   */\n  0x00\n    /* \"#utility.yul\":1606:1607   */\n  0x00\n    /* \"#utility.yul\":1599:1611   */\n  revert\n    /* \"#utility.yul\":1623:1740   */\ntag_40:\n    /* \"#utility.yul\":1732:1733   */\n  0x00\n    /* \"#utility.yul\":1729:1730   */\n  0x00\n    /* \"#utility.yul\":1722:1734   */\n  revert\n    /* \"#utility.yul\":1746:2054   */\ntag_41:\n    /* \"#utility.yul\":1808:1812   */\n  0x00\n    /* \"#utility.yul\":1898:1916   */\n  0xffffffffffffffff\n    /* \"#utility.yul\":1890:1896   */\n  dup3\n    /* \"#utility.yul\":1887:1917   */\n  gt\n    /* \"#utility.yul\":1884:1940   */\n  iszero\n  tag_88\n  jumpi\n    /* \"#utility.yul\":1920:1938   */\n  tag_89\n  tag_35\n  jump\t// in\ntag_89:\n    /* \"#utility.yul\":1884:1940   */\ntag_88:\n    /* \"#utility.yul\":1958:1987   */\n  tag_90\n    /* \"#utility.yul\":1980:1986   */\n  dup3\n    /* \"#utility.yul\":1958:1987   */\n  tag_34\n  jump\t// in\ntag_90:\n    /* \"#utility.yul\":1950:1987   */\n  swap1\n  pop\n    /* \"#utility.yul\":2042:2046   */\n  0x20\n    /* \"#utility.yul\":2036:2040   */\n  dup2\n    /* \"#utility.yul\":2032:2047   */\n  add\n    /* \"#utility.yul\":2024:2047   */\n  swap1\n  pop\n    /* \"#utility.yul\":1746:2054   */\n  swap2\n  swap1\n  pop\n  jump\t// out\n    /* \"#utility.yul\":2060:2199   */\ntag_42:\n    /* \"#utility.yul\":2149:2155   */\n  dup3\n    /* \"#utility.yul\":2144:2147   */\n  dup2\n    /* \"#utility.yul\":2139:2142   */\n  dup4\n    /* \"#utility.yul\":2133:2156   */\n  mcopy\n    /* \"#utility.yul\":2190:2191   */\n  0x00\n    /* \"#utility.yul\":2181:2187   */\n  dup4\n    /* \"#utility.yul\":2176:2179   */\n  dup4\n    /* \"#utility.yul\":2172:2188   */\n  add\n    /* \"#utility.yul\":2165:2192   */\n  mstore\n    /* \"#utility.yul\":2060:2199   */\n  pop\n  pop\n  pop\n  jump\t// out\n    /* \"#utility.yul\":2205:2639   */\ntag_43:\n    /* \"#utility.yul\":2294:2299   */\n  0x00\n    /* \"#utility.yul\":2319:2385   */\n  tag_93\n    /* \"#utility.yul\":2335:2384   */\n  tag_94\n    /* \"#utility.yul\":2377:2383   */\n  dup5\n    /* \"#utility.yul\":2335:2384   */\n  tag_41\n  jump\t// in\ntag_94:\n    /* \"#utility.yul\":2319:2385   */\n  tag_37\n  jump\t// in\ntag_93:\n    /* \"#utility.yul\":2310:2385   */\n  swap1\n  pop\n    /* \"#utility.yul\":2408:2414   */\n  dup3\n    /* \"#utility.yul\":2401:2406   */\n  dup2\n    /* \"#utility.yul\":2394:2415   */\n  mstore\n    /* \"#utility.yul\":2446:2450   */\n  0x20\n    /* \"#utility.yul\":2439:2444   */\n  dup2\n    /* \"#utility.yul\":2435:2451   */\n  add\n    /* \"#utility.yul\":2484:2487   */\n  dup5\n    /* \"#utility.yul\":2475:2481   */\n  dup5\n    /* \"#utility.yul\":2470:2473   */\n  dup5\n    /* \"#utility.yul\":2466:2482   */\n  add\n    /* \"#utility.yul\":2463:2488   */\n  gt\n    /* \"#utility.yul\":2460:2572   */\n  iszero\n  tag_95\n  jumpi\n    /* \"#utility.yul\":2491:2570   */\n  tag_96\n  tag_40\n  jump\t// in\ntag_96:\n    /* \"#utility.yul\":2460:2572   */\ntag_95:\n    /* \"#utility.yul\":2581:2633   */\n  tag_97\n    /* \"#utility.yul\":2626:2632   */\n  dup5\n    /* \"#utility.yul\":2621:2624   */\n  dup3\n    /* \"#utility.yul\":2616:2619   */\n  dup6\n    /* \"#utility.yul\":2581:2633   */\n  tag_42\n  jump\t// in\ntag_97:\n    /* \"#utility.yul\":2300:2639   */\n  pop\n    /* \"#utility.yul\":2205:2639   */\n  swap4\n  swap3\n  pop\n  pop\n  pop\n  jump\t// out\n    /* \"#utility.yul\":2659:3014   */\ntag_44:\n    /* \"#utility.yul\":2726:2731   */\n  0x00\n    /* \"#utility.yul\":2775:2778   */\n  dup3\n    /* \"#utility.yul\":2768:2772   */\n  0x1f\n    /* \"#utility.yul\":2760:2766   */\n  dup4\n    /* \"#utility.yul\":2756:2773   */\n  add\n    /* \"#utility.yul\":2752:2779   */\n  slt\n    /* \"#utility.yul\":2742:2864   */\n  tag_99\n  jumpi\n    /* \"#utility.yul\":2783:2862   */\n  tag_100\n  tag_33\n  jump\t// in\ntag_100:\n    /* \"#utility.yul\":2742:2864   */\ntag_99:\n    /* \"#utility.yul\":2893:2899   */\n  dup2\n    /* \"#utility.yul\":2887:2900   */\n  mload\n    /* \"#utility.yul\":2918:3008   */\n  tag_101\n    /* \"#utility.yul\":3004:3007   */\n  dup5\n    /* \"#utility.yul\":2996:3002   */\n  dup3\n    /* \"#utility.yul\":2989:2993   */\n  0x20\n    /* \"#utility.yul\":2981:2987   */\n  dup7\n    /* \"#utility.yul\":2977:2994   */\n  add\n    /* \"#utility.yul\":2918:3008   */\n  tag_43\n  jump\t// in\ntag_101:\n    /* \"#utility.yul\":2909:3008   */\n  swap2\n  pop\n    /* \"#utility.yul\":2732:3014   */\n  pop\n    /* \"#utility.yul\":2659:3014   */\n  swap3\n  swap2\n  pop\n  pop\n  jump\t// out\n    /* \"#utility.yul\":3036:3996   */\ntag_45:\n    /* \"#utility.yul\":3153:3158   */\n  0x00\n    /* \"#utility.yul\":3178:3269   */\n  tag_103\n    /* \"#utility.yul\":3194:3268   */\n  tag_104\n    /* \"#utility.yul\":3261:3267   */\n  dup5\n    /* \"#utility.yul\":3194:3268   */\n  tag_38\n  jump\t// in\ntag_104:\n    /* \"#utility.yul\":3178:3269   */\n  tag_37\n  jump\t// in\ntag_103:\n    /* \"#utility.yul\":3169:3269   */\n  swap1\n  pop\n    /* \"#utility.yul\":3289:3294   */\n  dup1\n    /* \"#utility.yul\":3318:3324   */\n  dup4\n    /* \"#utility.yul\":3311:3316   */\n  dup3\n    /* \"#utility.yul\":3304:3325   */\n  mstore\n    /* \"#utility.yul\":3352:3356   */\n  0x20\n    /* \"#utility.yul\":3345:3350   */\n  dup3\n    /* \"#utility.yul\":3341:3357   */\n  add\n    /* \"#utility.yul\":3334:3357   */\n  swap1\n  pop\n    /* \"#utility.yul\":3405:3409   */\n  0x20\n    /* \"#utility.yul\":3397:3403   */\n  dup5\n    /* \"#utility.yul\":3393:3410   */\n  mul\n    /* \"#utility.yul\":3385:3391   */\n  dup4\n    /* \"#utility.yul\":3381:3411   */\n  add\n    /* \"#utility.yul\":3434:3437   */\n  dup6\n    /* \"#utility.yul\":3426:3432   */\n  dup2\n    /* \"#utility.yul\":3423:3438   */\n  gt\n    /* \"#utility.yul\":3420:3542   */\n  iszero\n  tag_105\n  jumpi\n    /* \"#utility.yul\":3453:3532   */\n  tag_106\n  tag_39\n  jump\t// in\ntag_106:\n    /* \"#utility.yul\":3420:3542   */\ntag_105:\n    /* \"#utility.yul\":3568:3574   */\n  dup4\n    /* \"#utility.yul\":3551:3990   */\ntag_107:\n    /* \"#utility.yul\":3585:3591   */\n  dup2\n    /* \"#utility.yul\":3580:3583   */\n  dup2\n    /* \"#utility.yul\":3577:3592   */\n  lt\n    /* \"#utility.yul\":3551:3990   */\n  iszero\n  tag_109\n  jumpi\n    /* \"#utility.yul\":3667:3670   */\n  dup1\n    /* \"#utility.yul\":3661:3671   */\n  mload\n    /* \"#utility.yul\":3703:3721   */\n  0xffffffffffffffff\n    /* \"#utility.yul\":3690:3701   */\n  dup2\n    /* \"#utility.yul\":3687:3722   */\n  gt\n    /* \"#utility.yul\":3684:3806   */\n  iszero\n  tag_110\n  jumpi\n    /* \"#utility.yul\":3725:3804   */\n  tag_111\n  tag_33\n  jump\t// in\ntag_111:\n    /* \"#utility.yul\":3684:3806   */\ntag_110:\n    /* \"#utility.yul\":3849:3860   */\n  dup1\n    /* \"#utility.yul\":3841:3847   */\n  dup7\n    /* \"#utility.yul\":3837:3861   */\n  add\n    /* \"#utility.yul\":3887:3945   */\n  tag_112\n    /* \"#utility.yul\":3941:3944   */\n  dup10\n    /* \"#utility.yul\":3929:3939   */\n  dup3\n    /* \"#utility.yul\":3887:3945   */\n  tag_44\n  jump\t// in\ntag_112:\n    /* \"#utility.yul\":3882:3885   */\n  dup6\n    /* \"#utility.yul\":3875:3946   */\n  mstore\n    /* \"#utility.yul\":3975:3979   */\n  0x20\n    /* \"#utility.yul\":3970:3973   */\n  dup6\n    /* \"#utility.yul\":3966:3980   */\n  add\n    /* \"#utility.yul\":3959:3980   */\n  swap5\n  pop\n    /* \"#utility.yul\":3627:3990   */\n  pop\n  pop\n    /* \"#utility.yul\":3611:3615   */\n  0x20\n    /* \"#utility.yul\":3606:3609   */\n  dup2\n    /* \"#utility.yul\":3602:3616   */\n  add\n    /* \"#utility.yul\":3595:3616   */\n  swap1\n  pop\n    /* \"#utility.yul\":3551:3990   */\n  jump(tag_107)\ntag_109:\n    /* \"#utility.yul\":3555:3576   */\n  pop\n    /* \"#utility.yul\":3159:3996   */\n  pop\n  pop\n    /* \"#utility.yul\":3036:3996   */\n  swap4\n  swap3\n  pop\n  pop\n  pop\n  jump\t// out\n    /* \"#utility.yul\":4018:4423   */\ntag_46:\n    /* \"#utility.yul\":4110:4115   */\n  0x00\n    /* \"#utility.yul\":4159:4162   */\n  dup3\n    /* \"#utility.yul\":4152:4156   */\n  0x1f\n    /* \"#utility.yul\":4144:4150   */\n  dup4\n    /* \"#utility.yul\":4140:4157   */\n  add\n    /* \"#utility.yul\":4136:4163   */\n  slt\n    /* \"#utility.yul\":4126:4248   */\n  tag_114\n  jumpi\n    /* \"#utility.yul\":4167:4246   */\n  tag_115\n  tag_33\n  jump\t// in\ntag_115:\n    /* \"#utility.yul\":4126:4248   */\ntag_114:\n    /* \"#utility.yul\":4277:4283   */\n  dup2\n    /* \"#utility.yul\":4271:4284   */\n  mload\n    /* \"#utility.yul\":4302:4417   */\n  tag_116\n    /* \"#utility.yul\":4413:4416   */\n  dup5\n    /* \"#utility.yul\":4405:4411   */\n  dup3\n    /* \"#utility.yul\":4398:4402   */\n  0x20\n    /* \"#utility.yul\":4390:4396   */\n  dup7\n    /* \"#utility.yul\":4386:4403   */\n  add\n    /* \"#utility.yul\":4302:4417   */\n  tag_45\n  jump\t// in\ntag_116:\n    /* \"#utility.yul\":4293:4417   */\n  swap2\n  pop\n    /* \"#utility.yul\":4116:4423   */\n  pop\n    /* \"#utility.yul\":4018:4423   */\n  swap3\n  swap2\n  pop\n  pop\n  jump\t// out\n    /* \"#utility.yul\":4429:4506   */\ntag_47:\n    /* \"#utility.yul\":4466:4473   */\n  0x00\n    /* \"#utility.yul\":4495:4500   */\n  dup2\n    /* \"#utility.yul\":4484:4500   */\n  swap1\n  pop\n    /* \"#utility.yul\":4429:4506   */\n  swap2\n  swap1\n  pop\n  jump\t// out\n    /* \"#utility.yul\":4512:4634   */\ntag_48:\n    /* \"#utility.yul\":4585:4609   */\n  tag_119\n    /* \"#utility.yul\":4603:4608   */\n  dup2\n    /* \"#utility.yul\":4585:4609   */\n  tag_47\n  jump\t// in\ntag_119:\n    /* \"#utility.yul\":4578:4583   */\n  dup2\n    /* \"#utility.yul\":4575:4610   */\n  eq\n    /* \"#utility.yul\":4565:4628   */\n  tag_120\n  jumpi\n    /* \"#utility.yul\":4624:4625   */\n  0x00\n    /* \"#utility.yul\":4621:4622   */\n  0x00\n    /* \"#utility.yul\":4614:4626   */\n  revert\n    /* \"#utility.yul\":4565:4628   */\ntag_120:\n    /* \"#utility.yul\":4512:4634   */\n  pop\n  jump\t// out\n    /* \"#utility.yul\":4640:4783   */\ntag_49:\n    /* \"#utility.yul\":4697:4702   */\n  0x00\n    /* \"#utility.yul\":4728:4734   */\n  dup2\n    /* \"#utility.yul\":4722:4735   */\n  mload\n    /* \"#utility.yul\":4713:4735   */\n  swap1\n  pop\n    /* \"#utility.yul\":4744:4777   */\n  tag_122\n    /* \"#utility.yul\":4771:4776   */\n  dup2\n    /* \"#utility.yul\":4744:4777   */\n  tag_48\n  jump\t// in\ntag_122:\n    /* \"#utility.yul\":4640:4783   */\n  swap3\n  swap2\n  pop\n  pop\n  jump\t// out\n    /* \"#utility.yul\":4789:5675   */\ntag_3:\n    /* \"#utility.yul\":4912:4918   */\n  0x00\n    /* \"#utility.yul\":4920:4926   */\n  0x00\n    /* \"#utility.yul\":4928:4934   */\n  0x00\n    /* \"#utility.yul\":4977:4979   */\n  0x60\n    /* \"#utility.yul\":4965:4974   */\n  dup5\n    /* \"#utility.yul\":4956:4963   */\n  dup7\n    /* \"#utility.yul\":4952:4975   */\n  sub\n    /* \"#utility.yul\":4948:4980   */\n  slt\n    /* \"#utility.yul\":4945:5064   */\n  iszero\n  tag_124\n  jumpi\n    /* \"#utility.yul\":4983:5062   */\n  tag_125\n  tag_31\n  jump\t// in\ntag_125:\n    /* \"#utility.yul\":4945:5064   */\ntag_124:\n    /* \"#utility.yul\":5124:5125   */\n  0x00\n    /* \"#utility.yul\":5113:5122   */\n  dup5\n    /* \"#utility.yul\":5109:5126   */\n  add\n    /* \"#utility.yul\":5103:5127   */\n  mload\n    /* \"#utility.yul\":5154:5172   */\n  0xffffffffffffffff\n    /* \"#utility.yul\":5146:5152   */\n  dup2\n    /* \"#utility.yul\":5143:5173   */\n  gt\n    /* \"#utility.yul\":5140:5257   */\n  iszero\n  tag_126\n  jumpi\n    /* \"#utility.yul\":5176:5255   */\n  tag_127\n  tag_32\n  jump\t// in\ntag_127:\n    /* \"#utility.yul\":5140:5257   */\ntag_126:\n    /* \"#utility.yul\":5281:5380   */\n  tag_128\n    /* \"#utility.yul\":5372:5379   */\n  dup7\n    /* \"#utility.yul\":5363:5369   */\n  dup3\n    /* \"#utility.yul\":5352:5361   */\n  dup8\n    /* \"#utility.yul\":5348:5370   */\n  add\n    /* \"#utility.yul\":5281:5380   */\n  tag_46\n  jump\t// in\ntag_128:\n    /* \"#utility.yul\":5271:5380   */\n  swap4\n  pop\n    /* \"#utility.yul\":5074:5390   */\n  pop\n    /* \"#utility.yul\":5429:5431   */\n  0x20\n    /* \"#utility.yul\":5455:5519   */\n  tag_129\n    /* \"#utility.yul\":5511:5518   */\n  dup7\n    /* \"#utility.yul\":5502:5508   */\n  dup3\n    /* \"#utility.yul\":5491:5500   */\n  dup8\n    /* \"#utility.yul\":5487:5509   */\n  add\n    /* \"#utility.yul\":5455:5519   */\n  tag_49\n  jump\t// in\ntag_129:\n    /* \"#utility.yul\":5445:5519   */\n  swap3\n  pop\n    /* \"#utility.yul\":5400:5529   */\n  pop\n    /* \"#utility.yul\":5568:5570   */\n  0x40\n    /* \"#utility.yul\":5594:5658   */\n  tag_130\n    /* \"#utility.yul\":5650:5657   */\n  dup7\n    /* \"#utility.yul\":5641:5647   */\n  dup3\n    /* \"#utility.yul\":5630:5639   */\n  dup8\n    /* \"#utility.yul\":5626:5648   */\n  add\n    /* \"#utility.yul\":5594:5658   */\n  tag_49\n  jump\t// in\ntag_130:\n    /* \"#utility.yul\":5584:5658   */\n  swap2\n  pop\n    /* \"#utility.yul\":5539:5668   */\n  pop\n    /* \"#utility.yul\":4789:5675   */\n  swap3\n  pop\n  swap3\n  pop\n  swap3\n  jump\t// out\n    /* \"#utility.yul\":5681:5861   */\ntag_50:\n    /* \"#utility.yul\":5729:5806   */\n  0x4e487b7100000000000000000000000000000000000000000000000000000000\n    /* \"#utility.yul\":5726:5727   */\n  0x00\n    /* \"#utility.yul\":5719:5807   */\n  mstore\n    /* \"#utility.yul\":5826:5830   */\n  0x11\n    /* \"#utility.yul\":5823:5824   */\n  0x04\n    /* \"#utility.yul\":5816:5831   */\n  mstore\n    /* \"#utility.yul\":5850:5854   */\n  0x24\n    /* \"#utility.yul\":5847:5848   */\n  0x00\n    /* \"#utility.yul\":5840:5855   */\n  revert\n    /* \"#utility.yul\":5867:6058   */\ntag_9:\n    /* \"#utility.yul\":5907:5910   */\n  0x00\n    /* \"#utility.yul\":5926:5946   */\n  tag_133\n    /* \"#utility.yul\":5944:5945   */\n  dup3\n    /* \"#utility.yul\":5926:5946   */\n  tag_47\n  jump\t// in\ntag_133:\n    /* \"#utility.yul\":5921:5946   */\n  swap2\n  pop\n    /* \"#utility.yul\":5960:5980   */\n  tag_134\n    /* \"#utility.yul\":5978:5979   */\n  dup4\n    /* \"#utility.yul\":5960:5980   */\n  tag_47\n  jump\t// in\ntag_134:\n    /* \"#utility.yul\":5955:5980   */\n  swap3\n  pop\n    /* \"#utility.yul\":6003:6004   */\n  dup3\n    /* \"#utility.yul\":6000:6001   */\n  dup3\n    /* \"#utility.yul\":5996:6005   */\n  add\n    /* \"#utility.yul\":5989:6005   */\n  swap1\n  pop\n    /* \"#utility.yul\":6024:6027   */\n  dup1\n    /* \"#utility.yul\":6021:6022   */\n  dup3\n    /* \"#utility.yul\":6018:6028   */\n  gt\n    /* \"#utility.yul\":6015:6051   */\n  iszero\n  tag_135\n  jumpi\n    /* \"#utility.yul\":6031:6049   */\n  tag_136\n  tag_50\n  jump\t// in\ntag_136:\n    /* \"#utility.yul\":6015:6051   */\ntag_135:\n    /* \"#utility.yul\":5867:6058   */\n  swap3\n  swap2\n  pop\n  pop\n  jump\t// out\n    /* \"#utility.yul\":6064:6163   */\ntag_51:\n    /* \"#utility.yul\":6116:6122   */\n  0x00\n    /* \"#utility.yul\":6150:6155   */\n  dup2\n    /* \"#utility.yul\":6144:6156   */\n  mload\n    /* \"#utility.yul\":6134:6156   */\n  swap1\n  pop\n    /* \"#utility.yul\":6064:6163   */\n  swap2\n  swap1\n  pop\n  jump\t// out\n    /* \"#utility.yul\":6169:6349   */\ntag_52:\n    /* \"#utility.yul\":6217:6294   */\n  0x4e487b7100000000000000000000000000000000000000000000000000000000\n    /* \"#utility.yul\":6214:6215   */\n  0x00\n    /* \"#utility.yul\":6207:6295   */\n  mstore\n    /* \"#utility.yul\":6314:6318   */\n  0x22\n    /* \"#utility.yul\":6311:6312   */\n  0x04\n    /* \"#utility.yul\":6304:6319   */\n  mstore\n    /* \"#utility.yul\":6338:6342   */\n  0x24\n    /* \"#utility.yul\":6335:6336   */\n  0x00\n    /* \"#utility.yul\":6328:6343   */\n  revert\n    /* \"#utility.yul\":6355:6675   */\ntag_23:\n    /* \"#utility.yul\":6399:6405   */\n  0x00\n    /* \"#utility.yul\":6436:6437   */\n  0x02\n    /* \"#utility.yul\":6430:6434   */\n  dup3\n    /* \"#utility.yul\":6426:6438   */\n  div\n    /* \"#utility.yul\":6416:6438   */\n  swap1\n  pop\n    /* \"#utility.yul\":6483:6484   */\n  0x01\n    /* \"#utility.yul\":6477:6481   */\n  dup3\n    /* \"#utility.yul\":6473:6485   */\n  and\n    /* \"#utility.yul\":6504:6522   */\n  dup1\n    /* \"#utility.yul\":6494:6575   */\n  tag_140\n  jumpi\n    /* \"#utility.yul\":6560:6564   */\n  0x7f\n    /* \"#utility.yul\":6552:6558   */\n  dup3\n    /* \"#utility.yul\":6548:6565   */\n  and\n    /* \"#utility.yul\":6538:6565   */\n  swap2\n  pop\n    /* \"#utility.yul\":6494:6575   */\ntag_140:\n    /* \"#utility.yul\":6622:6624   */\n  0x20\n    /* \"#utility.yul\":6614:6620   */\n  dup3\n    /* \"#utility.yul\":6611:6625   */\n  lt\n    /* \"#utility.yul\":6591:6609   */\n  dup2\n    /* \"#utility.yul\":6588:6626   */\n  sub\n    /* \"#utility.yul\":6585:6669   */\n  tag_141\n  jumpi\n    /* \"#utility.yul\":6641:6659   */\n  tag_142\n  tag_52\n  jump\t// in\ntag_142:\n    /* \"#utility.yul\":6585:6669   */\ntag_141:\n    /* \"#utility.yul\":6406:6675   */\n  pop\n    /* \"#utility.yul\":6355:6675   */\n  swap2\n  swap1\n  pop\n  jump\t// out\n    /* \"#utility.yul\":6681:6822   */\ntag_53:\n    /* \"#utility.yul\":6730:6734   */\n  0x00\n    /* \"#utility.yul\":6753:6756   */\n  dup2\n    /* \"#utility.yul\":6745:6756   */\n  swap1\n  pop\n    /* \"#utility.yul\":6776:6779   */\n  dup2\n    /* \"#utility.yul\":6773:6774   */\n  0x00\n    /* \"#utility.yul\":6766:6780   */\n  mstore\n    /* \"#utility.yul\":6810:6814   */\n  0x20\n    /* \"#utility.yul\":6807:6808   */\n  0x00\n    /* \"#utility.yul\":6797:6815   */\n  keccak256\n    /* \"#utility.yul\":6789:6815   */\n  swap1\n  pop\n    /* \"#utility.yul\":6681:6822   */\n  swap2\n  swap1\n  pop\n  jump\t// out\n    /* \"#utility.yul\":6828:6921   */\ntag_54:\n    /* \"#utility.yul\":6865:6871   */\n  0x00\n    /* \"#utility.yul\":6912:6914   */\n  0x20\n    /* \"#utility.yul\":6907:6909   */\n  0x1f\n    /* \"#utility.yul\":6900:6905   */\n  dup4\n    /* \"#utility.yul\":6896:6910   */\n  add\n    /* \"#utility.yul\":6892:6915   */\n  div\n    /* \"#utility.yul\":6882:6915   */\n  swap1\n  pop\n    /* \"#utility.yul\":6828:6921   */\n  swap2\n  swap1\n  pop\n  jump\t// out\n    /* \"#utility.yul\":6927:7034   */\ntag_55:\n    /* \"#utility.yul\":6971:6979   */\n  0x00\n    /* \"#utility.yul\":7021:7026   */\n  dup3\n    /* \"#utility.yul\":7015:7019   */\n  dup3\n    /* \"#utility.yul\":7011:7027   */\n  shl\n    /* \"#utility.yul\":6990:7027   */\n  swap1\n  pop\n    /* \"#utility.yul\":6927:7034   */\n  swap3\n  swap2\n  pop\n  pop\n  jump\t// out\n    /* \"#utility.yul\":7040:7433   */\ntag_56:\n    /* \"#utility.yul\":7109:7115   */\n  0x00\n    /* \"#utility.yul\":7159:7160   */\n  0x08\n    /* \"#utility.yul\":7147:7157   */\n  dup4\n    /* \"#utility.yul\":7143:7161   */\n  mul\n    /* \"#utility.yul\":7182:7279   */\n  tag_147\n    /* \"#utility.yul\":7212:7278   */\n  0xffffffffffffffffffffffffffffffffffffffffffffffffffffffffffffffff\n    /* \"#utility.yul\":7201:7210   */\n  dup3\n    /* \"#utility.yul\":7182:7279   */\n  tag_55\n  jump\t// in\ntag_147:\n    /* \"#utility.yul\":7300:7339   */\n  tag_148\n    /* \"#utility.yul\":7330:7338   */\n  dup7\n    /* \"#utility.yul\":7319:7328   */\n  dup4\n    /* \"#utility.yul\":7300:7339   */\n  tag_55\n  jump\t// in\ntag_148:\n    /* \"#utility.yul\":7288:7339   */\n  swap6\n  pop\n    /* \"#utility.yul\":7372:7376   */\n  dup1\n    /* \"#utility.yul\":7368:7377   */\n  not\n    /* \"#utility.yul\":7361:7366   */\n  dup5\n    /* \"#utility.yul\":7357:7378   */\n  and\n    /* \"#utility.yul\":7348:7378   */\n  swap4\n  pop\n    /* \"#utility.yul\":7421:7425   */\n  dup1\n    /* \"#utility.yul\":7411:7419   */\n  dup7\n    /* \"#utility.yul\":7407:7426   */\n  and\n    /* \"#utility.yul\":7400:7405   */\n  dup5\n    /* \"#utility.yul\":7397:7427   */\n  or\n    /* \"#utility.yul\":7387:7427   */\n  swap3\n  pop\n    /* \"#utility.yul\":7116:7433   */\n  pop\n  pop\n    /* \"#utility.yul\":7040:7433   */\n  swap4\n  swap3\n  pop\n  pop\n  pop\n  jump\t// out\n    /* \"#utility.yul\":7439:7499   */\ntag_57:\n    /* \"#utility.yul\":7467:7470   */\n  0x00\n    /* \"#utility.yul\":7488:7493   */\n  dup2\n    /* \"#utility.yul\":7481:7493   */\n  swap1\n  pop\n    /* \"#utility.yul\":7439:7499   */\n  swap2\n  swap1\n  pop\n  jump\t// out\n    /* \"#utility.yul\":7505:7647   */\ntag_58:\n    /* \"#utility.yul\":7555:7564   */\n  0x00\n    /* \"#utility.yul\":7588:7641   */\n  tag_151\n    /* \"#utility.yul\":7606:7640   */\n  tag_152\n    /* \"#utility.yul\":7615:7639   */\n  tag_153\n    /* \"#utility.yul\":7633:7638   */\n  dup5\n    /* \"#utility.yul\":7615:7639   */\n  tag_47\n  jump\t// in\ntag_153:\n    /* \"#utility.yul\":7606:7640   */\n  tag_57\n  jump\t// in\ntag_152:\n    /* \"#utility.yul\":7588:7641   */\n  tag_47\n  jump\t// in\ntag_151:\n    /* \"#utility.yul\":7575:7641   */\n  swap1\n  pop\n    /* \"#utility.yul\":7505:7647   */\n  swap2\n  swap1\n  pop\n  jump\t// out\n    /* \"#utility.yul\":7653:7728   */\ntag_59:\n    /* \"#utility.yul\":7696:7699   */\n  0x00\n    /* \"#utility.yul\":7717:7722   */\n  dup2\n    /* \"#utility.yul\":7710:7722   */\n  swap1\n  pop\n    /* \"#utility.yul\":7653:7728   */\n  swap2\n  swap1\n  pop\n  jump\t// out\n    /* \"#utility.yul\":7734:8003   */\ntag_60:\n    /* \"#utility.yul\":7844:7883   */\n  tag_156\n    /* \"#utility.yul\":7875:7882   */\n  dup4\n    /* \"#utility.yul\":7844:7883   */\n  tag_58\n  jump\t// in\ntag_156:\n    /* \"#utility.yul\":7905:7996   */\n  tag_157\n    /* \"#utility.yul\":7954:7995   */\n  tag_158\n    /* \"#utility.yul\":7978:7994   */\n  dup3\n    /* \"#utility.yul\":7954:7995   */\n  tag_59\n  jump\t// in\ntag_158:\n    /* \"#utility.yul\":7946:7952   */\n  dup5\n    /* \"#utility.yul\":7939:7943   */\n  dup5\n    /* \"#utility.yul\":7933:7944   */\n  sload\n    /* \"#utility.yul\":7905:7996   */\n  tag_56\n  jump\t// in\ntag_157:\n    /* \"#utility.yul\":7899:7903   */\n  dup3\n    /* \"#utility.yul\":7892:7997   */\n  sstore\n    /* \"#utility.yul\":7810:8003   */\n  pop\n    /* \"#utility.yul\":7734:8003   */\n  pop\n  pop\n  pop\n  jump\t// out\n    /* \"#utility.yul\":8009:8082   */\ntag_61:\n    /* \"#utility.yul\":8054:8057   */\n  0x00\n    /* \"#utility.yul\":8075:8076   */\n  0x00\n    /* \"#utility.yul\":8068:8076   */\n  swap1\n  pop\n    /* \"#utility.yul\":8009:8082   */\n  swap1\n  jump\t// out\n    /* \"#utility.yul\":8088:8277   */\ntag_62:\n    /* \"#utility.yul\":8165:8197   */\n  tag_161\n  tag_61\n  jump\t// in\ntag_161:\n    /* \"#utility.yul\":8206:8271   */\n  tag_162\n    /* \"#utility.yul\":8264:8270   */\n  dup2\n    /* \"#utility.yul\":8256:8262   */\n  dup5\n    /* \"#utility.yul\":8250:8254   */\n  dup5\n    /* \"#utility.yul\":8206:8271   */\n  tag_60\n  jump\t// in\ntag_162:\n    /* \"#utility.yul\":8141:8277   */\n  pop\n    /* \"#utility.yul\":8088:8277   */\n  pop\n  pop\n  jump\t// out\n    /* \"#utility.yul\":8283:8469   */\ntag_63:\n    /* \"#utility.yul\":8343:8463   */\ntag_164:\n    /* \"#utility.yul\":8360:8363   */\n  dup2\n    /* \"#utility.yul\":8353:8358   */\n  dup2\n    /* \"#utility.yul\":8350:8364   */\n  lt\n    /* \"#utility.yul\":8343:8463   */\n  iszero\n  tag_166\n  jumpi\n    /* \"#utility.yul\":8414:8453   */\n  tag_167\n    /* \"#utility.yul\":8451:8452   */\n  0x00\n    /* \"#utility.yul\":8444:8449   */\n  dup3\n    /* \"#utility.yul\":8414:8453   */\n  tag_62\n  jump\t// in\ntag_167:\n    /* \"#utility.yul\":8387:8388   */\n  0x01\n    /* \"#utility.yul\":8380:8385   */\n  dup2\n    /* \"#utility.yul\":8376:8389   */\n  add\n    /* \"#utility.yul\":8367:8389   */\n  swap1\n  pop\n    /* \"#utility.yul\":8343:8463   */\n  jump(tag_164)\ntag_166:\n    /* \"#utility.yul\":8283:8469   */\n  pop\n  pop\n  jump\t// out\n    /* \"#utility.yul\":8475:9018   */\ntag_64:\n    /* \"#utility.yul\":8576:8578   */\n  0x1f\n    /* \"#utility.yul\":8571:8574   */\n  dup3\n    /* \"#utility.yul\":8568:8579   */\n  gt\n    /* \"#utility.yul\":8565:9011   */\n  iszero\n  tag_169\n  jumpi\n    /* \"#utility.yul\":8610:8648   */\n  tag_170\n    /* \"#utility.yul\":8642:8647   */\n  dup2\n    /* \"#utility.yul\":8610:8648   */\n  tag_53\n  jump\t// in\ntag_170:\n    /* \"#utility.yul\":8694:8723   */\n  tag_171\n    /* \"#utility.yul\":8712:8722   */\n  dup5\n    /* \"#utility.yul\":8694:8723   */\n  tag_54\n  jump\t// in\ntag_171:\n    /* \"#utility.yul\":8684:8692   */\n  dup2\n    /* \"#utility.yul\":8680:8724   */\n  add\n    /* \"#utility.yul\":8877:8879   */\n  0x20\n    /* \"#utility.yul\":8865:8875   */\n  dup6\n    /* \"#utility.yul\":8862:8880   */\n  lt\n    /* \"#utility.yul\":8859:8908   */\n  iszero\n  tag_172\n  jumpi\n    /* \"#utility.yul\":8898:8906   */\n  dup2\n    /* \"#utility.yul\":8883:8906   */\n  swap1\n  pop\n    /* \"#utility.yul\":8859:8908   */\ntag_172:\n    /* \"#utility.yul\":8921:9001   */\n  tag_173\n    /* \"#utility.yul\":8977:8999   */\n  tag_174\n    /* \"#utility.yul\":8995:8998   */\n  dup6\n    /* \"#utility.yul\":8977:8999   */\n  tag_54\n  jump\t// in\ntag_174:\n    /* \"#utility.yul\":8967:8975   */\n  dup4\n    /* \"#utility.yul\":8963:9000   */\n  add\n    /* \"#utility.yul\":8950:8961   */\n  dup3\n    /* \"#utility.yul\":8921:9001   */\n  tag_63\n  jump\t// in\ntag_173:\n    /* \"#utility.yul\":8580:9011   */\n  pop\n  pop\n    /* \"#utility.yul\":8565:9011   */\ntag_169:\n    /* \"#utility.yul\":8475:9018   */\n  pop\n  pop\n  pop\n  jump\t// out\n    /* \"#utility.yul\":9024:9141   */\ntag_65:\n    /* \"#utility.yul\":9078:9086   */\n  0x00\n    /* \"#utility.yul\":9128:9133   */\n  dup3\n    /* \"#utility.yul\":9122:9126   */\n  dup3\n    /* \"#utility.yul\":9118:9134   */\n  shr\n    /* \"#utility.yul\":9097:9134   */\n  swap1\n  pop\n    /* \"#utility.yul\":9024:9141   */\n  swap3\n  swap2\n  pop\n  pop\n  jump\t// out\n    /* \"#utility.yul\":9147:9316   */\ntag_66:\n    /* \"#utility.yul\":9191:9197   */\n  0x00\n    /* \"#utility.yul\":9224:9275   */\n  tag_177\n    /* \"#utility.yul\":9272:9273   */\n  0x00\n    /* \"#utility.yul\":9268:9274   */\n  not\n    /* \"#utility.yul\":9260:9265   */\n  dup5\n    /* \"#utility.yul\":9257:9258   */\n  0x08\n    /* \"#utility.yul\":9253:9266   */\n  mul\n    /* \"#utility.yul\":9224:9275   */\n  tag_65\n  jump\t// in\ntag_177:\n    /* \"#utility.yul\":9220:9276   */\n  not\n    /* \"#utility.yul\":9305:9309   */\n  dup1\n    /* \"#utility.yul\":9299:9303   */\n  dup4\n    /* \"#utility.yul\":9295:9310   */\n  and\n    /* \"#utility.yul\":9285:9310   */\n  swap2\n  pop\n    /* \"#utility.yul\":9198:9316   */\n  pop\n    /* \"#utility.yul\":9147:9316   */\n  swap3\n  swap2\n  pop\n  pop\n  jump\t// out\n    /* \"#utility.yul\":9321:9616   */\ntag_67:\n    /* \"#utility.yul\":9397:9401   */\n  0x00\n    /* \"#utility.yul\":9543:9572   */\n  tag_179\n    /* \"#utility.yul\":9568:9571   */\n  dup4\n    /* \"#utility.yul\":9562:9566   */\n  dup4\n    /* \"#utility.yul\":9543:9572   */\n  tag_66\n  jump\t// in\ntag_179:\n    /* \"#utility.yul\":9535:9572   */\n  swap2\n  pop\n    /* \"#utility.yul\":9605:9608   */\n  dup3\n    /* \"#utility.yul\":9602:9603   */\n  0x02\n    /* \"#utility.yul\":9598:9609   */\n  mul\n    /* \"#utility.yul\":9592:9596   */\n  dup3\n    /* \"#utility.yul\":9589:9610   */\n  or\n    /* \"#utility.yul\":9581:9610   */\n  swap1\n  pop\n    /* \"#utility.yul\":9321:9616   */\n  swap3\n  swap2\n  pop\n  pop\n  jump\t// out\n    /* \"#utility.yul\":9621:11016   */\ntag_15:\n    /* \"#utility.yul\":9738:9775   */\n  tag_181\n    /* \"#utility.yul\":9771:9774   */\n  dup3\n    /* \"#utility.yul\":9738:9775   */\n  tag_51\n  jump\t// in\ntag_181:\n    /* \"#utility.yul\":9840:9858   */\n  0xffffffffffffffff\n    /* \"#utility.yul\":9832:9838   */\n  dup2\n    /* \"#utility.yul\":9829:9859   */\n  gt\n    /* \"#utility.yul\":9826:9882   */\n  iszero\n  tag_182\n  jumpi\n    /* \"#utility.yul\":9862:9880   */\n  tag_183\n  tag_35\n  jump\t// in\ntag_183:\n    /* \"#utility.yul\":9826:9882   */\ntag_182:\n    /* \"#utility.yul\":9906:9944   */\n  tag_184\n    /* \"#utility.yul\":9938:9942   */\n  dup3\n    /* \"#utility.yul\":9932:9943   */\n  sload\n    /* \"#utility.yul\":9906:9944   */\n  tag_23\n  jump\t// in\ntag_184:\n    /* \"#utility.yul\":9991:10058   */\n  tag_185\n    /* \"#utility.yul\":10051:10057   */\n  dup3\n    /* \"#utility.yul\":10043:10049   */\n  dup3\n    /* \"#utility.yul\":10037:10041   */\n  dup6\n    /* \"#utility.yul\":9991:10058   */\n  tag_64\n  jump\t// in\ntag_185:\n    /* \"#utility.yul\":10085:10086   */\n  0x00\n    /* \"#utility.yul\":10109:10113   */\n  0x20\n    /* \"#utility.yul\":10096:10113   */\n  swap1\n  pop\n    /* \"#utility.yul\":10141:10143   */\n  0x1f\n    /* \"#utility.yul\":10133:10139   */\n  dup4\n    /* \"#utility.yul\":10130:10144   */\n  gt\n    /* \"#utility.yul\":10158:10159   */\n  0x01\n    /* \"#utility.yul\":10153:10771   */\n  dup2\n  eq\n  tag_187\n  jumpi\n    /* \"#utility.yul\":10815:10816   */\n  0x00\n    /* \"#utility.yul\":10832:10838   */\n  dup5\n    /* \"#utility.yul\":10829:10906   */\n  iszero\n  tag_188\n  jumpi\n    /* \"#utility.yul\":10881:10890   */\n  dup3\n    /* \"#utility.yul\":10876:10879   */\n  dup8\n    /* \"#utility.yul\":10872:10891   */\n  add\n    /* \"#utility.yul\":10866:10892   */\n  mload\n    /* \"#utility.yul\":10857:10892   */\n  swap1\n  pop\n    /* \"#utility.yul\":10829:10906   */\ntag_188:\n    /* \"#utility.yul\":10932:10999   */\n  tag_189\n    /* \"#utility.yul\":10992:10998   */\n  dup6\n    /* \"#utility.yul\":10985:10990   */\n  dup3\n    /* \"#utility.yul\":10932:10999   */\n  tag_67\n  jump\t// in\ntag_189:\n    /* \"#utility.yul\":10926:10930   */\n  dup7\n    /* \"#utility.yul\":10919:11000   */\n  sstore\n    /* \"#utility.yul\":10788:11010   */\n  pop\n    /* \"#utility.yul\":10123:11010   */\n  jump(tag_186)\n    /* \"#utility.yul\":10153:10771   */\ntag_187:\n    /* \"#utility.yul\":10205:10209   */\n  0x1f\n    /* \"#utility.yul\":10201:10210   */\n  not\n    /* \"#utility.yul\":10193:10199   */\n  dup5\n    /* \"#utility.yul\":10189:10211   */\n  and\n    /* \"#utility.yul\":10239:10276   */\n  tag_190\n    /* \"#utility.yul\":10271:10275   */\n  dup7\n    /* \"#utility.yul\":10239:10276   */\n  tag_53\n  jump\t// in\ntag_190:\n    /* \"#utility.yul\":10298:10299   */\n  0x00\n    /* \"#utility.yul\":10312:10520   */\ntag_191:\n    /* \"#utility.yul\":10326:10333   */\n  dup3\n    /* \"#utility.yul\":10323:10324   */\n  dup2\n    /* \"#utility.yul\":10320:10334   */\n  lt\n    /* \"#utility.yul\":10312:10520   */\n  iszero\n  tag_193\n  jumpi\n    /* \"#utility.yul\":10405:10414   */\n  dup5\n    /* \"#utility.yul\":10400:10403   */\n  dup10\n    /* \"#utility.yul\":10396:10415   */\n  add\n    /* \"#utility.yul\":10390:10416   */\n  mload\n    /* \"#utility.yul\":10382:10388   */\n  dup3\n    /* \"#utility.yul\":10375:10417   */\n  sstore\n    /* \"#utility.yul\":10456:10457   */\n  0x01\n    /* \"#utility.yul\":10448:10454   */\n  dup3\n    /* \"#utility.yul\":10444:10458   */\n  add\n    /* \"#utility.yul\":10434:10458   */\n  swap2\n  pop\n    /* \"#utility.yul\":10503:10505   */\n  0x20\n    /* \"#utility.yul\":10492:10501   */\n  dup6\n    /* \"#utility.yul\":10488:10506   */\n  add\n    /* \"#utility.yul\":10475:10506   */\n  swap5\n  pop\n    /* \"#utility.yul\":10349:10353   */\n  0x20\n    /* \"#utility.yul\":10346:10347   */\n  dup2\n    /* \"#utility.yul\":10342:10354   */\n  add\n    /* \"#utility.yul\":10337:10354   */\n  swap1\n  pop\n    /* \"#utility.yul\":10312:10520   */\n  jump(tag_191)\ntag_193:\n    /* \"#utility.yul\":10548:10554   */\n  dup7\n    /* \"#utility.yul\":10539:10546   */\n  dup4\n    /* \"#utility.yul\":10536:10555   */\n  lt\n    /* \"#utility.yul\":10533:10712   */\n  iszero\n  tag_194\n  jumpi\n    /* \"#utility.yul\":10606:10615   */\n  dup5\n    /* \"#utility.yul\":10601:10604   */\n  dup10\n    /* \"#utility.yul\":10597:10616   */\n  add\n    /* \"#utility.yul\":10591:10617   */\n  mload\n    /* \"#utility.yul\":10649:10697   */\n  tag_195\n    /* \"#utility.yul\":10691:10695   */\n  0x1f\n    /* \"#utility.yul\":10683:10689   */\n  dup10\n    /* \"#utility.yul\":10679:10696   */\n  and\n    /* \"#utility.yul\":10668:10677   */\n  dup3\n    /* \"#utility.yul\":10649:10697   */\n  tag_66\n  jump\t// in\ntag_195:\n    /* \"#utility.yul\":10641:10647   */\n  dup4\n    /* \"#utility.yul\":10634:10698   */\n  sstore\n    /* \"#utility.yul\":10556:10712   */\n  pop\n    /* \"#utility.yul\":10533:10712   */\ntag_194:\n    /* \"#utility.yul\":10758:10759   */\n  0x01\n    /* \"#utility.yul\":10754:10755   */\n  0x02\n    /* \"#utility.yul\":10746:10752   */\n  dup9\n    /* \"#utility.yul\":10742:10756   */\n  mul\n    /* \"#utility.yul\":10738:10760   */\n  add\n    /* \"#utility.yul\":10732:10736   */\n  dup9\n    /* \"#utility.yul\":10725:10761   */\n  sstore\n    /* \"#utility.yul\":10160:10771   */\n  pop\n  pop\n  pop\n    /* \"#utility.yul\":10123:11010   */\ntag_186:\n  pop\n    /* \"#utility.yul\":9713:11016   */\n  pop\n  pop\n  pop\n    /* \"#utility.yul\":9621:11016   */\n  pop\n  pop\n  jump\t// out\n    /* \"base.sol\":131:2476  contract Election {... */\ntag_10:\n  dataSize(sub_0)\n  dup1\n  dataOffset(sub_0)\n  0x00\n  codecopy\n  0x00\n  return\nstop\n\nsub_0: assembly {\n        /* \"base.sol\":131:2476  contract Election {... */\n      mstore(0x40, 0x80)\n      callvalue\n      dup1\n      iszero\n      tag_1\n      jumpi\n      revert(0x00, 0x00)\n    tag_1:\n      pop\n      jumpi(tag_2, lt(calldatasize, 0x04))\n      shr(0xe0, calldataload(0x00))\n      dup1\n      0x777c3acf\n      gt\n      tag_13\n      jumpi\n      dup1\n      0x777c3acf\n      eq\n      tag_8\n      jumpi\n      dup1\n      0x9e136e64\n      eq\n      tag_9\n      jumpi\n      dup1\n      0xac9b9230\n      eq\n      tag_10\n      jumpi\n      dup1\n      0xce606ee0\n      eq\n      tag_11\n      jumpi\n      dup1\n      0xe22b5d19\n      eq\n      tag_12\n      jumpi\n      jump(tag_2)\n    tag_13:\n      dup1\n      0x0121b93f\n      eq\n      tag_3\n      jumpi\n      dup1\n      0x0ba237ae\n      eq\n      tag_4\n      jumpi\n      dup1\n      0x50a6491a\n      eq\n      tag_5\n      jumpi\n      dup1\n      0x595156ca\n      eq\n      tag_6\n      jumpi\n      dup1\n      0x62190150\n      eq\n      tag_7\n      jumpi\n    tag_2:\n      revert(0x00, 0x00)\n        /* \"base.sol\":1054:1654  function vote(uint256 _numberOfElector) public {... */\n    tag_3:\n      tag_14\n      0x04\n      dup1\n      calldatasize\n      sub\n      dup2\n      add\n      swap1\n      tag_15\n      swap2\n      swap1\n      tag_16\n      jump\t// in\n    tag_15:\n      tag_17\n      jump\t// in\n    tag_14:\n      stop\n        /* \"base.sol\":1877:2139  function resetElectionTime(uint256 _newElectionTime) public {... */\n    tag_4:\n      tag_18\n      0x04\n      dup1\n      calldatasize\n      sub\n      dup2\n      add\n      swap1\n      tag_19\n      swap2\n      swap1\n      tag_16\n      jump\t// in\n    tag_19:\n      tag_20\n      jump\t// in\n    tag_18:\n      stop\n        /* \"base.sol\":341:386  mapping(uint256 => uint256) public votesCount */\n    tag_5:\n      tag_21\n      0x04\n      dup1\n      calldatasize\n      sub\n      dup2\n      add\n      swap1\n      tag_22\n      swap2\n      swap1\n      tag_16\n      jump\t// in\n    tag_22:\n      tag_23\n      jump\t// in\n    tag_21:\n      mload(0x40)\n      tag_24\n      swap2\n      swap1\n      tag_25\n      jump\t// in\n    tag_24:\n      mload(0x40)\n      dup1\n      swap2\n      sub\n      swap1\n      return\n        /* \"base.sol\":1662:1869  function resetMaxVotes(uint256 _newMaxVotes) public OnlyOwner {... */\n    tag_6:\n      tag_26\n      0x04\n      dup1\n      calldatasize\n      sub\n      dup2\n      add\n      swap1\n      tag_27\n      swap2\n      swap1\n      tag_16\n      jump\t// in\n    tag_27:\n      tag_28\n      jump\t// in\n    tag_26:\n      stop\n        /* \"base.sol\":293:334  mapping(address => bool) public userVotes */\n    tag_7:\n      tag_29\n      0x04\n      dup1\n      calldatasize\n      sub\n      dup2\n      add\n      swap1\n      tag_30\n      swap2\n      swap1\n      tag_31\n      jump\t// in\n    tag_30:\n      tag_32\n      jump\t// in\n    tag_29:\n      mload(0x40)\n      tag_33\n      swap2\n      swap1\n      tag_34\n      jump\t// in\n    tag_33:\n      mload(0x40)\n      dup1\n      swap2\n      sub\n      swap1\n      return\n        /* \"base.sol\":189:212  uint256 public maxVotes */\n    tag_8:\n      tag_35\n      tag_36\n      jump\t// in\n    tag_35:\n      mload(0x40)\n      tag_37\n      swap2\n      swap1\n      tag_25\n      jump\t// in\n    tag_37:\n      mload(0x40)\n      dup1\n      swap2\n      sub\n      swap1\n      return\n        /* \"base.sol\":219:249  uint256 public electionEndTime */\n    tag_9:\n      tag_38\n      tag_39\n      jump\t// in\n    tag_38:\n      mload(0x40)\n      tag_40\n      swap2\n      swap1\n      tag_25\n      jump\t// in\n    tag_40:\n      mload(0x40)\n      dup1\n      swap2\n      sub\n      swap1\n      return\n        /* \"base.sol\":158:182  string[] public electors */\n    tag_10:\n      tag_41\n      0x04\n      dup1\n      calldatasize\n      sub\n      dup2\n      add\n      swap1\n      tag_42\n      swap2\n      swap1\n      tag_16\n      jump\t// in\n    tag_42:\n      tag_43\n      jump\t// in\n    tag_41:\n      mload(0x40)\n      tag_44\n      swap2\n      swap1\n      tag_45\n      jump\t// in\n    tag_44:\n      mload(0x40)\n      dup1\n      swap2\n      sub\n      swap1\n      return\n        /* \"base.sol\":256:284  address public contractOwner */\n    tag_11:\n      tag_46\n      tag_47\n      jump\t// in\n    tag_46:\n      mload(0x40)\n      tag_48\n      swap2\n      swap1\n      tag_49\n      jump\t// in\n    tag_48:\n      mload(0x40)\n      dup1\n      swap2\n      sub\n      swap1\n      return\n        /* \"base.sol\":2145:2471  function electionResult() public view returns(string memory winner) {... */\n    tag_12:\n      tag_50\n      tag_51\n      jump\t// in\n    tag_50:\n      mload(0x40)\n      tag_52\n      swap2\n      swap1\n      tag_45\n      jump\t// in\n    tag_52:\n      mload(0x40)\n      dup1\n      swap2\n      sub\n      swap1\n      return\n        /* \"base.sol\":1054:1654  function vote(uint256 _numberOfElector) public {... */\n    tag_17:\n        /* \"base.sol\":1145:1150  false */\n      0x00\n        /* \"base.sol\":1120:1150  userVotes[msg.sender] == false */\n      iszero\n      iszero\n        /* \"base.sol\":1120:1129  userVotes */\n      0x04\n        /* \"base.sol\":1120:1141  userVotes[msg.sender] */\n      0x00\n        /* \"base.sol\":1130:1140  msg.sender */\n      caller\n        /* \"base.sol\":1120:1141  userVotes[msg.sender] */\n      0xffffffffffffffffffffffffffffffffffffffff\n      and\n      0xffffffffffffffffffffffffffffffffffffffff\n      and\n      dup2\n      mstore\n      0x20\n      add\n      swap1\n      dup2\n      mstore\n      0x20\n      add\n      0x00\n      keccak256\n      0x00\n      swap1\n      sload\n      swap1\n      0x0100\n      exp\n      swap1\n      div\n      0xff\n      and\n        /* \"base.sol\":1120:1150  userVotes[msg.sender] == false */\n      iszero\n      iszero\n      eq\n        /* \"base.sol\":1112:1174  require(userVotes[msg.sender] == false, YourAddressCantVote()) */\n      tag_54\n      jumpi\n      mload(0x40)\n      0x73d2463100000000000000000000000000000000000000000000000000000000\n      dup2\n      mstore\n      0x04\n      add\n      mload(0x40)\n      dup1\n      swap2\n      sub\n      swap1\n      revert\n    tag_54:\n        /* \"base.sol\":1212:1220  electors */\n      0x00\n        /* \"base.sol\":1212:1227  electors.length */\n      dup1\n      sload\n      swap1\n      pop\n        /* \"base.sol\":1193:1209  _numberOfElector */\n      dup2\n        /* \"base.sol\":1193:1227  _numberOfElector < electors.length */\n      lt\n        /* \"base.sol\":1249:1265  _numberOfElector */\n      dup2\n        /* \"base.sol\":1267:1275  electors */\n      0x00\n        /* \"base.sol\":1267:1282  electors.length */\n      dup1\n      sload\n      swap1\n      pop\n        /* \"base.sol\":1185:1284  require(_numberOfElector < electors.length, ElectorDoesNotExist(_numberOfElector, electors.length)) */\n      swap1\n      swap2\n      tag_55\n      jumpi\n      mload(0x40)\n      0x0cb9c86800000000000000000000000000000000000000000000000000000000\n      dup2\n      mstore\n      0x04\n      add\n      tag_56\n      swap3\n      swap2\n      swap1\n      tag_57\n      jump\t// in\n    tag_56:\n      mload(0x40)\n      dup1\n      swap2\n      sub\n      swap1\n      revert\n    tag_55:\n      pop\n      pop\n        /* \"base.sol\":1346:1347  1 */\n      0x01\n        /* \"base.sol\":1335:1343  maxVotes */\n      dup1\n      sload\n        /* \"base.sol\":1335:1347  maxVotes - 1 */\n      tag_58\n      swap2\n      swap1\n      tag_59\n      jump\t// in\n    tag_58:\n        /* \"base.sol\":1303:1313  votesCount */\n      0x05\n        /* \"base.sol\":1303:1331  votesCount[_numberOfElector] */\n      0x00\n        /* \"base.sol\":1314:1330  _numberOfElector */\n      dup4\n        /* \"base.sol\":1303:1331  votesCount[_numberOfElector] */\n      dup2\n      mstore\n      0x20\n      add\n      swap1\n      dup2\n      mstore\n      0x20\n      add\n      0x00\n      keccak256\n      sload\n        /* \"base.sol\":1303:1347  votesCount[_numberOfElector] <= maxVotes - 1 */\n      gt\n      iszero\n        /* \"base.sol\":1295:1361  require(votesCount[_numberOfElector] <= maxVotes - 1, \"Max Votes\") */\n      tag_60\n      jumpi\n      mload(0x40)\n      0x08c379a000000000000000000000000000000000000000000000000000000000\n      dup2\n      mstore\n      0x04\n      add\n      tag_61\n      swap1\n      tag_62\n      jump\t// in\n    tag_61:\n      mload(0x40)\n      dup1\n      swap2\n      sub\n      swap1\n      revert\n    tag_60:\n        /* \"base.sol\":1394:1407  contractOwner */\n      0x03\n      0x00\n      swap1\n      sload\n      swap1\n      0x0100\n      exp\n      swap1\n      div\n      0xffffffffffffffffffffffffffffffffffffffff\n      and\n        /* \"base.sol\":1380:1407  msg.sender != contractOwner */\n      0xffffffffffffffffffffffffffffffffffffffff\n      and\n        /* \"base.sol\":1380:1390  msg.sender */\n      caller\n        /* \"base.sol\":1380:1407  msg.sender != contractOwner */\n      0xffffffffffffffffffffffffffffffffffffffff\n      and\n      sub\n        /* \"base.sol\":1372:1437  require(msg.sender != contractOwner, \"Contract owner can't vote\") */\n      tag_63\n      jumpi\n      mload(0x40)\n      0x08c379a000000000000000000000000000000000000000000000000000000000\n      dup2\n      mstore\n      0x04\n      add\n      tag_64\n      swap1\n      tag_65\n      jump\t// in\n    tag_64:\n      mload(0x40)\n      dup1\n      swap2\n      sub\n      swap1\n      revert\n    tag_63:\n        /* \"base.sol\":1474:1489  electionEndTime */\n      sload(0x02)\n        /* \"base.sol\":1456:1471  block.timestamp */\n      timestamp\n        /* \"base.sol\":1456:1489  block.timestamp < electionEndTime */\n      lt\n        /* \"base.sol\":1448:1508  require(block.timestamp < electionEndTime, \"Voting is over\") */\n      tag_66\n      jumpi\n      mload(0x40)\n      0x08c379a000000000000000000000000000000000000000000000000000000000\n      dup2\n      mstore\n      0x04\n      add\n      tag_67\n      swap1\n      tag_68\n      jump\t// in\n    tag_67:\n      mload(0x40)\n      dup1\n      swap2\n      sub\n      swap1\n      revert\n    tag_66:\n        /* \"base.sol\":1545:1549  true */\n      0x01\n        /* \"base.sol\":1521:1530  userVotes */\n      0x04\n        /* \"base.sol\":1521:1542  userVotes[msg.sender] */\n      0x00\n        /* \"base.sol\":1531:1541  msg.sender */\n      caller\n        /* \"base.sol\":1521:1542  userVotes[msg.sender] */\n      0xffffffffffffffffffffffffffffffffffffffff\n      and\n      0xffffffffffffffffffffffffffffffffffffffff\n      and\n      dup2\n      mstore\n      0x20\n      add\n      swap1\n      dup2\n      mstore\n      0x20\n      add\n      0x00\n      keccak256\n      0x00\n        /* \"base.sol\":1521:1549  userVotes[msg.sender] = true */\n      0x0100\n      exp\n      dup2\n      sload\n      dup2\n      0xff\n      mul\n      not\n      and\n      swap1\n      dup4\n      iszero\n      iszero\n      mul\n      or\n      swap1\n      sstore\n      pop\n        /* \"base.sol\":1592:1593  1 */\n      0x01\n        /* \"base.sol\":1560:1570  votesCount */\n      0x05\n        /* \"base.sol\":1560:1588  votesCount[_numberOfElector] */\n      0x00\n        /* \"base.sol\":1571:1587  _numberOfElector */\n      dup4\n        /* \"base.sol\":1560:1588  votesCount[_numberOfElector] */\n      dup2\n      mstore\n      0x20\n      add\n      swap1\n      dup2\n      mstore\n      0x20\n      add\n      0x00\n      keccak256\n      0x00\n        /* \"base.sol\":1560:1593  votesCount[_numberOfElector] += 1 */\n      dup3\n      dup3\n      sload\n      tag_69\n      swap2\n      swap1\n      tag_70\n      jump\t// in\n    tag_69:\n      swap3\n      pop\n      pop\n      dup2\n      swap1\n      sstore\n      pop\n        /* \"base.sol\":1611:1646  Voted(_numberOfElector, msg.sender) */\n      0x030b0f8dcd86a031eddb071f91882edeac8173663ba775713b677b42b51be44b\n        /* \"base.sol\":1617:1633  _numberOfElector */\n      dup2\n        /* \"base.sol\":1635:1645  msg.sender */\n      caller\n        /* \"base.sol\":1611:1646  Voted(_numberOfElector, msg.sender) */\n      mload(0x40)\n      tag_71\n      swap3\n      swap2\n      swap1\n      tag_72\n      jump\t// in\n    tag_71:\n      mload(0x40)\n      dup1\n      swap2\n      sub\n      swap1\n      log1\n        /* \"base.sol\":1054:1654  function vote(uint256 _numberOfElector) public {... */\n      pop\n      jump\t// out\n        /* \"base.sol\":1877:2139  function resetElectionTime(uint256 _newElectionTime) public {... */\n    tag_20:\n        /* \"base.sol\":1970:1983  contractOwner */\n      0x03\n      0x00\n      swap1\n      sload\n      swap1\n      0x0100\n      exp\n      swap1\n      div\n      0xffffffffffffffffffffffffffffffffffffffff\n      and\n        /* \"base.sol\":1956:1983  msg.sender == contractOwner */\n      0xffffffffffffffffffffffffffffffffffffffff\n      and\n        /* \"base.sol\":1956:1966  msg.sender */\n      caller\n        /* \"base.sol\":1956:1983  msg.sender == contractOwner */\n      0xffffffffffffffffffffffffffffffffffffffff\n      and\n      eq\n        /* \"base.sol\":1948:2000  require(msg.sender == contractOwner, OnlyForOwner()) */\n      tag_74\n      jumpi\n      mload(0x40)\n      0x2f4f7dc600000000000000000000000000000000000000000000000000000000\n      dup2\n      mstore\n      0x04\n      add\n      mload(0x40)\n      dup1\n      swap2\n      sub\n      swap1\n      revert\n    tag_74:\n        /* \"base.sol\":2038:2053  electionEndTime */\n      sload(0x02)\n        /* \"base.sol\":2019:2035  _newElectionTime */\n      dup2\n        /* \"base.sol\":2019:2053  _newElectionTime > electionEndTime */\n      gt\n        /* \"base.sol\":2011:2086  require(_newElectionTime > electionEndTime, \"Election time can't decrease\") */\n      tag_75\n      jumpi\n      mload(0x40)\n      0x08c379a000000000000000000000000000000000000000000000000000000000\n      dup2\n      mstore\n      0x04\n      add\n      tag_76\n      swap1\n      tag_77\n      jump\t// in\n    tag_76:\n      mload(0x40)\n      dup1\n      swap2\n      sub\n      swap1\n      revert\n    tag_75:\n        /* \"base.sol\":2115:2131  _newElectionTime */\n      dup1\n        /* \"base.sol\":2097:2112  electionEndTime */\n      0x02\n        /* \"base.sol\":2097:2131  electionEndTime = _newElectionTime */\n      dup2\n      swap1\n      sstore\n      pop\n        /* \"base.sol\":1877:2139  function resetElectionTime(uint256 _newElectionTime) public {... */\n      pop\n      jump\t// out\n        /* \"base.sol\":341:386  mapping(uint256 => uint256) public votesCount */\n    tag_23:\n      mstore(0x20, 0x05)\n      dup1\n      0x00\n      mstore\n      keccak256(0x00, 0x40)\n      0x00\n      swap2\n      pop\n      swap1\n      pop\n      sload\n      dup2\n      jump\t// out\n        /* \"base.sol\":1662:1869  function resetMaxVotes(uint256 _newMaxVotes) public OnlyOwner {... */\n    tag_28:\n        /* \"base.sol\":705:718  contractOwner */\n      0x03\n      0x00\n      swap1\n      sload\n      swap1\n      0x0100\n      exp\n      swap1\n      div\n      0xffffffffffffffffffffffffffffffffffffffff\n      and\n        /* \"base.sol\":691:718  msg.sender == contractOwner */\n      0xffffffffffffffffffffffffffffffffffffffff\n      and\n        /* \"base.sol\":691:701  msg.sender */\n      caller\n        /* \"base.sol\":691:718  msg.sender == contractOwner */\n      0xffffffffffffffffffffffffffffffffffffffff\n      and\n      eq\n        /* \"base.sol\":683:735  require(msg.sender == contractOwner, OnlyForOwner()) */\n      tag_79\n      jumpi\n      mload(0x40)\n      0x2f4f7dc600000000000000000000000000000000000000000000000000000000\n      dup2\n      mstore\n      0x04\n      add\n      mload(0x40)\n      dup1\n      swap2\n      sub\n      swap1\n      revert\n    tag_79:\n        /* \"base.sol\":1758:1766  maxVotes */\n      sload(0x01)\n        /* \"base.sol\":1743:1755  _newMaxVotes */\n      dup2\n        /* \"base.sol\":1743:1766  _newMaxVotes > maxVotes */\n      gt\n        /* \"base.sol\":1735:1795  require(_newMaxVotes > maxVotes, \"Max votes can't decrease\") */\n      tag_81\n      jumpi\n      mload(0x40)\n      0x08c379a000000000000000000000000000000000000000000000000000000000\n      dup2\n      mstore\n      0x04\n      add\n      tag_82\n      swap1\n      tag_83\n      jump\t// in\n    tag_82:\n      mload(0x40)\n      dup1\n      swap2\n      sub\n      swap1\n      revert\n    tag_81:\n        /* \"base.sol\":1817:1829  _newMaxVotes */\n      dup1\n        /* \"base.sol\":1806:1814  maxVotes */\n      0x01\n        /* \"base.sol\":1806:1829  maxVotes = _newMaxVotes */\n      dup2\n      swap1\n      sstore\n      pop\n        /* \"base.sol\":1845:1861  MaxVoteReseted() */\n      0xf7b2d6ba9a8895fef9134483d60e68db626558067ea4df4c6d4f13ffe9dfe0d4\n      mload(0x40)\n      mload(0x40)\n      dup1\n      swap2\n      sub\n      swap1\n      log1\n        /* \"base.sol\":1662:1869  function resetMaxVotes(uint256 _newMaxVotes) public OnlyOwner {... */\n      pop\n      jump\t// out\n        /* \"base.sol\":293:334  mapping(address => bool) public userVotes */\n    tag_32:\n      mstore(0x20, 0x04)\n      dup1\n      0x00\n      mstore\n      keccak256(0x00, 0x40)\n      0x00\n      swap2\n      pop\n      sload\n      swap1\n      0x0100\n      exp\n      swap1\n      div\n      0xff\n      and\n      dup2\n      jump\t// out\n        /* \"base.sol\":189:212  uint256 public maxVotes */\n    tag_36:\n      sload(0x01)\n      dup2\n      jump\t// out\n        /* \"base.sol\":219:249  uint256 public electionEndTime */\n    tag_39:\n      sload(0x02)\n      dup2\n      jump\t// out\n        /* \"base.sol\":158:182  string[] public electors */\n    tag_43:\n      0x00\n      dup2\n      dup2\n      sload\n      dup2\n      lt\n      tag_84\n      jumpi\n      0x00\n      dup1\n      revert\n    tag_84:\n      swap1\n      0x00\n      mstore\n      keccak256(0x00, 0x20)\n      add\n      0x00\n      swap2\n      pop\n      swap1\n      pop\n      dup1\n      sload\n      tag_86\n      swap1\n      tag_87\n      jump\t// in\n    tag_86:\n      dup1\n      0x1f\n      add\n      0x20\n      dup1\n      swap2\n      div\n      mul\n      0x20\n      add\n      mload(0x40)\n      swap1\n      dup2\n      add\n      0x40\n      mstore\n      dup1\n      swap3\n      swap2\n      swap1\n      dup2\n      dup2\n      mstore\n      0x20\n      add\n      dup3\n      dup1\n      sload\n      tag_88\n      swap1\n      tag_87\n      jump\t// in\n    tag_88:\n      dup1\n      iszero\n      tag_89\n      jumpi\n      dup1\n      0x1f\n      lt\n      tag_90\n      jumpi\n      0x0100\n      dup1\n      dup4\n      sload\n      div\n      mul\n      dup4\n      mstore\n      swap2\n      0x20\n      add\n      swap2\n      jump(tag_89)\n    tag_90:\n      dup3\n      add\n      swap2\n      swap1\n      0x00\n      mstore\n      keccak256(0x00, 0x20)\n      swap1\n    tag_91:\n      dup2\n      sload\n      dup2\n      mstore\n      swap1\n      0x01\n      add\n      swap1\n      0x20\n      add\n      dup1\n      dup4\n      gt\n      tag_91\n      jumpi\n      dup3\n      swap1\n      sub\n      0x1f\n      and\n      dup3\n      add\n      swap2\n    tag_89:\n      pop\n      pop\n      pop\n      pop\n      pop\n      dup2\n      jump\t// out\n        /* \"base.sol\":256:284  address public contractOwner */\n    tag_47:\n      0x03\n      0x00\n      swap1\n      sload\n      swap1\n      0x0100\n      exp\n      swap1\n      div\n      0xffffffffffffffffffffffffffffffffffffffff\n      and\n      dup2\n      jump\t// out\n        /* \"base.sol\":2145:2471  function electionResult() public view returns(string memory winner) {... */\n    tag_51:\n        /* \"base.sol\":2191:2211  string memory winner */\n      0x60\n        /* \"base.sol\":2224:2243  uint256 leaderIndex */\n      0x00\n        /* \"base.sol\":2246:2247  0 */\n      0x00\n        /* \"base.sol\":2224:2247  uint256 leaderIndex = 0 */\n      swap1\n      pop\n        /* \"base.sol\":2263:2272  uint256 i */\n      0x00\n        /* \"base.sol\":2275:2276  0 */\n      0x00\n        /* \"base.sol\":2263:2276  uint256 i = 0 */\n      swap1\n      pop\n        /* \"base.sol\":2258:2425  for (uint256 i = 0; i < electors.length; i++) {... */\n    tag_93:\n        /* \"base.sol\":2282:2290  electors */\n      0x00\n        /* \"base.sol\":2282:2297  electors.length */\n      dup1\n      sload\n      swap1\n      pop\n        /* \"base.sol\":2278:2279  i */\n      dup2\n        /* \"base.sol\":2278:2297  i < electors.length */\n      lt\n        /* \"base.sol\":2258:2425  for (uint256 i = 0; i < electors.length; i++) {... */\n      iszero\n      tag_94\n      jumpi\n        /* \"base.sol\":2339:2349  votesCount */\n      0x05\n        /* \"base.sol\":2339:2362  votesCount[leaderIndex] */\n      0x00\n        /* \"base.sol\":2350:2361  leaderIndex */\n      dup4\n        /* \"base.sol\":2339:2362  votesCount[leaderIndex] */\n      dup2\n      mstore\n      0x20\n      add\n      swap1\n      dup2\n      mstore\n      0x20\n      add\n      0x00\n      keccak256\n      sload\n        /* \"base.sol\":2323:2333  votesCount */\n      0x05\n        /* \"base.sol\":2323:2336  votesCount[i] */\n      0x00\n        /* \"base.sol\":2334:2335  i */\n      dup4\n        /* \"base.sol\":2323:2336  votesCount[i] */\n      dup2\n      mstore\n      0x20\n      add\n      swap1\n      dup2\n      mstore\n      0x20\n      add\n      0x00\n      keccak256\n      sload\n        /* \"base.sol\":2323:2362  votesCount[i] > votesCount[leaderIndex] */\n      gt\n        /* \"base.sol\":2319:2414  if (votesCount[i] > votesCount[leaderIndex]) {... */\n      iszero\n      tag_96\n      jumpi\n        /* \"base.sol\":2397:2398  i */\n      dup1\n        /* \"base.sol\":2383:2398  leaderIndex = i */\n      swap2\n      pop\n        /* \"base.sol\":2319:2414  if (votesCount[i] > votesCount[leaderIndex]) {... */\n    tag_96:\n        /* \"base.sol\":2299:2302  i++ */\n      dup1\n      dup1\n      0x01\n      add\n      swap2\n      pop\n      pop\n        /* \"base.sol\":2258:2425  for (uint256 i = 0; i < electors.length; i++) {... */\n      jump(tag_93)\n    tag_94:\n      pop\n        /* \"base.sol\":2442:2450  electors */\n      0x00\n        /* \"base.sol\":2451:2462  leaderIndex */\n      dup2\n        /* \"base.sol\":2442:2463  electors[leaderIndex] */\n      dup2\n      sload\n      dup2\n      lt\n      tag_97\n      jumpi\n      tag_98\n      tag_99\n      jump\t// in\n    tag_98:\n    tag_97:\n      swap1\n      0x00\n      mstore\n      keccak256(0x00, 0x20)\n      add\n        /* \"base.sol\":2435:2463  return electors[leaderIndex] */\n      dup1\n      sload\n      tag_101\n      swap1\n      tag_87\n      jump\t// in\n    tag_101:\n      dup1\n      0x1f\n      add\n      0x20\n      dup1\n      swap2\n      div\n      mul\n      0x20\n      add\n      mload(0x40)\n      swap1\n      dup2\n      add\n      0x40\n      mstore\n      dup1\n      swap3\n      swap2\n      swap1\n      dup2\n      dup2\n      mstore\n      0x20\n      add\n      dup3\n      dup1\n      sload\n      tag_102\n      swap1\n      tag_87\n      jump\t// in\n    tag_102:\n      dup1\n      iszero\n      tag_103\n      jumpi\n      dup1\n      0x1f\n      lt\n      tag_104\n      jumpi\n      0x0100\n      dup1\n      dup4\n      sload\n      div\n      mul\n      dup4\n      mstore\n      swap2\n      0x20\n      add\n      swap2\n      jump(tag_103)\n    tag_104:\n      dup3\n      add\n      swap2\n      swap1\n      0x00\n      mstore\n      keccak256(0x00, 0x20)\n      swap1\n    tag_105:\n      dup2\n      sload\n      dup2\n      mstore\n      swap1\n      0x01\n      add\n      swap1\n      0x20\n      add\n      dup1\n      dup4\n      gt\n      tag_105\n      jumpi\n      dup3\n      swap1\n      sub\n      0x1f\n      and\n      dup3\n      add\n      swap2\n    tag_103:\n      pop\n      pop\n      pop\n      pop\n      pop\n      swap2\n      pop\n      pop\n        /* \"base.sol\":2145:2471  function electionResult() public view returns(string memory winner) {... */\n      swap1\n      jump\t// out\n        /* \"#utility.yul\":88:205   */\n    tag_107:\n        /* \"#utility.yul\":197:198   */\n      0x00\n        /* \"#utility.yul\":194:195   */\n      0x00\n        /* \"#utility.yul\":187:199   */\n      revert\n        /* \"#utility.yul\":334:411   */\n    tag_109:\n        /* \"#utility.yul\":371:378   */\n      0x00\n        /* \"#utility.yul\":400:405   */\n      dup2\n        /* \"#utility.yul\":389:405   */\n      swap1\n      pop\n        /* \"#utility.yul\":334:411   */\n      swap2\n      swap1\n      pop\n      jump\t// out\n        /* \"#utility.yul\":417:539   */\n    tag_110:\n        /* \"#utility.yul\":490:514   */\n      tag_143\n        /* \"#utility.yul\":508:513   */\n      dup2\n        /* \"#utility.yul\":490:514   */\n      tag_109\n      jump\t// in\n    tag_143:\n        /* \"#utility.yul\":483:488   */\n      dup2\n        /* \"#utility.yul\":480:515   */\n      eq\n        /* \"#utility.yul\":470:533   */\n      tag_144\n      jumpi\n        /* \"#utility.yul\":529:530   */\n      0x00\n        /* \"#utility.yul\":526:527   */\n      0x00\n        /* \"#utility.yul\":519:531   */\n      revert\n        /* \"#utility.yul\":470:533   */\n    tag_144:\n        /* \"#utility.yul\":417:539   */\n      pop\n      jump\t// out\n        /* \"#utility.yul\":545:684   */\n    tag_111:\n        /* \"#utility.yul\":591:596   */\n      0x00\n        /* \"#utility.yul\":629:635   */\n      dup2\n        /* \"#utility.yul\":616:636   */\n      calldataload\n        /* \"#utility.yul\":607:636   */\n      swap1\n      pop\n        /* \"#utility.yul\":645:678   */\n      tag_146\n        /* \"#utility.yul\":672:677   */\n      dup2\n        /* \"#utility.yul\":645:678   */\n      tag_110\n      jump\t// in\n    tag_146:\n        /* \"#utility.yul\":545:684   */\n      swap3\n      swap2\n      pop\n      pop\n      jump\t// out\n        /* \"#utility.yul\":690:1019   */\n    tag_16:\n        /* \"#utility.yul\":749:755   */\n      0x00\n        /* \"#utility.yul\":798:800   */\n      0x20\n        /* \"#utility.yul\":786:795   */\n      dup3\n        /* \"#utility.yul\":777:784   */\n      dup5\n        /* \"#utility.yul\":773:796   */\n      sub\n        /* \"#utility.yul\":769:801   */\n      slt\n        /* \"#utility.yul\":766:885   */\n      iszero\n      tag_148\n      jumpi\n        /* \"#utility.yul\":804:883   */\n      tag_149\n      tag_107\n      jump\t// in\n    tag_149:\n        /* \"#utility.yul\":766:885   */\n    tag_148:\n        /* \"#utility.yul\":924:925   */\n      0x00\n        /* \"#utility.yul\":949:1002   */\n      tag_150\n        /* \"#utility.yul\":994:1001   */\n      dup5\n        /* \"#utility.yul\":985:991   */\n      dup3\n        /* \"#utility.yul\":974:983   */\n      dup6\n        /* \"#utility.yul\":970:992   */\n      add\n        /* \"#utility.yul\":949:1002   */\n      tag_111\n      jump\t// in\n    tag_150:\n        /* \"#utility.yul\":939:1002   */\n      swap2\n      pop\n        /* \"#utility.yul\":895:1012   */\n      pop\n        /* \"#utility.yul\":690:1019   */\n      swap3\n      swap2\n      pop\n      pop\n      jump\t// out\n        /* \"#utility.yul\":1025:1143   */\n    tag_112:\n        /* \"#utility.yul\":1112:1136   */\n      tag_152\n        /* \"#utility.yul\":1130:1135   */\n      dup2\n        /* \"#utility.yul\":1112:1136   */\n      tag_109\n      jump\t// in\n    tag_152:\n        /* \"#utility.yul\":1107:1110   */\n      dup3\n        /* \"#utility.yul\":1100:1137   */\n      mstore\n        /* \"#utility.yul\":1025:1143   */\n      pop\n      pop\n      jump\t// out\n        /* \"#utility.yul\":1149:1371   */\n    tag_25:\n        /* \"#utility.yul\":1242:1246   */\n      0x00\n        /* \"#utility.yul\":1280:1282   */\n      0x20\n        /* \"#utility.yul\":1269:1278   */\n      dup3\n        /* \"#utility.yul\":1265:1283   */\n      add\n        /* \"#utility.yul\":1257:1283   */\n      swap1\n      pop\n        /* \"#utility.yul\":1293:1364   */\n      tag_154\n        /* \"#utility.yul\":1361:1362   */\n      0x00\n        /* \"#utility.yul\":1350:1359   */\n      dup4\n        /* \"#utility.yul\":1346:1363   */\n      add\n        /* \"#utility.yul\":1337:1343   */\n      dup5\n        /* \"#utility.yul\":1293:1364   */\n      tag_112\n      jump\t// in\n    tag_154:\n        /* \"#utility.yul\":1149:1371   */\n      swap3\n      swap2\n      pop\n      pop\n      jump\t// out\n        /* \"#utility.yul\":1377:1503   */\n    tag_113:\n        /* \"#utility.yul\":1414:1421   */\n      0x00\n        /* \"#utility.yul\":1454:1496   */\n      0xffffffffffffffffffffffffffffffffffffffff\n        /* \"#utility.yul\":1447:1452   */\n      dup3\n        /* \"#utility.yul\":1443:1497   */\n      and\n        /* \"#utility.yul\":1432:1497   */\n      swap1\n      pop\n        /* \"#utility.yul\":1377:1503   */\n      swap2\n      swap1\n      pop\n      jump\t// out\n        /* \"#utility.yul\":1509:1605   */\n    tag_114:\n        /* \"#utility.yul\":1546:1553   */\n      0x00\n        /* \"#utility.yul\":1575:1599   */\n      tag_157\n        /* \"#utility.yul\":1593:1598   */\n      dup3\n        /* \"#utility.yul\":1575:1599   */\n      tag_113\n      jump\t// in\n    tag_157:\n        /* \"#utility.yul\":1564:1599   */\n      swap1\n      pop\n        /* \"#utility.yul\":1509:1605   */\n      swap2\n      swap1\n      pop\n      jump\t// out\n        /* \"#utility.yul\":1611:1733   */\n    tag_115:\n        /* \"#utility.yul\":1684:1708   */\n      tag_159\n        /* \"#utility.yul\":1702:1707   */\n      dup2\n        /* \"#utility.yul\":1684:1708   */\n      tag_114\n      jump\t// in\n    tag_159:\n        /* \"#utility.yul\":1677:1682   */\n      dup2\n        /* \"#utility.yul\":1674:1709   */\n      eq\n        /* \"#utility.yul\":1664:1727   */\n      tag_160\n      jumpi\n        /* \"#utility.yul\":1723:1724   */\n      0x00\n        /* \"#utility.yul\":1720:1721   */\n      0x00\n        /* \"#utility.yul\":1713:1725   */\n      revert\n        /* \"#utility.yul\":1664:1727   */\n    tag_160:\n        /* \"#utility.yul\":1611:1733   */\n      pop\n      jump\t// out\n        /* \"#utility.yul\":1739:1878   */\n    tag_116:\n        /* \"#utility.yul\":1785:1790   */\n      0x00\n        /* \"#utility.yul\":1823:1829   */\n      dup2\n        /* \"#utility.yul\":1810:1830   */\n      calldataload\n        /* \"#utility.yul\":1801:1830   */\n      swap1\n      pop\n        /* \"#utility.yul\":1839:1872   */\n      tag_162\n        /* \"#utility.yul\":1866:1871   */\n      dup2\n        /* \"#utility.yul\":1839:1872   */\n      tag_115\n      jump\t// in\n    tag_162:\n        /* \"#utility.yul\":1739:1878   */\n      swap3\n      swap2\n      pop\n      pop\n      jump\t// out\n        /* \"#utility.yul\":1884:2213   */\n    tag_31:\n        /* \"#utility.yul\":1943:1949   */\n      0x00\n        /* \"#utility.yul\":1992:1994   */\n      0x20\n        /* \"#utility.yul\":1980:1989   */\n      dup3\n        /* \"#utility.yul\":1971:1978   */\n      dup5\n        /* \"#utility.yul\":1967:1990   */\n      sub\n        /* \"#utility.yul\":1963:1995   */\n      slt\n        /* \"#utility.yul\":1960:2079   */\n      iszero\n      tag_164\n      jumpi\n        /* \"#utility.yul\":1998:2077   */\n      tag_165\n      tag_107\n      jump\t// in\n    tag_165:\n        /* \"#utility.yul\":1960:2079   */\n    tag_164:\n        /* \"#utility.yul\":2118:2119   */\n      0x00\n        /* \"#utility.yul\":2143:2196   */\n      tag_166\n        /* \"#utility.yul\":2188:2195   */\n      dup5\n        /* \"#utility.yul\":2179:2185   */\n      dup3\n        /* \"#utility.yul\":2168:2177   */\n      dup6\n        /* \"#utility.yul\":2164:2186   */\n      add\n        /* \"#utility.yul\":2143:2196   */\n      tag_116\n      jump\t// in\n    tag_166:\n        /* \"#utility.yul\":2133:2196   */\n      swap2\n      pop\n        /* \"#utility.yul\":2089:2206   */\n      pop\n        /* \"#utility.yul\":1884:2213   */\n      swap3\n      swap2\n      pop\n      pop\n      jump\t// out\n        /* \"#utility.yul\":2219:2309   */\n    tag_117:\n        /* \"#utility.yul\":2253:2260   */\n      0x00\n        /* \"#utility.yul\":2296:2301   */\n      dup2\n        /* \"#utility.yul\":2289:2302   */\n      iszero\n        /* \"#utility.yul\":2282:2303   */\n      iszero\n        /* \"#utility.yul\":2271:2303   */\n      swap1\n      pop\n        /* \"#utility.yul\":2219:2309   */\n      swap2\n      swap1\n      pop\n      jump\t// out\n        /* \"#utility.yul\":2315:2424   */\n    tag_118:\n        /* \"#utility.yul\":2396:2417   */\n      tag_169\n        /* \"#utility.yul\":2411:2416   */\n      dup2\n        /* \"#utility.yul\":2396:2417   */\n      tag_117\n      jump\t// in\n    tag_169:\n        /* \"#utility.yul\":2391:2394   */\n      dup3\n        /* \"#utility.yul\":2384:2418   */\n      mstore\n        /* \"#utility.yul\":2315:2424   */\n      pop\n      pop\n      jump\t// out\n        /* \"#utility.yul\":2430:2640   */\n    tag_34:\n        /* \"#utility.yul\":2517:2521   */\n      0x00\n        /* \"#utility.yul\":2555:2557   */\n      0x20\n        /* \"#utility.yul\":2544:2553   */\n      dup3\n        /* \"#utility.yul\":2540:2558   */\n      add\n        /* \"#utility.yul\":2532:2558   */\n      swap1\n      pop\n        /* \"#utility.yul\":2568:2633   */\n      tag_171\n        /* \"#utility.yul\":2630:2631   */\n      0x00\n        /* \"#utility.yul\":2619:2628   */\n      dup4\n        /* \"#utility.yul\":2615:2632   */\n      add\n        /* \"#utility.yul\":2606:2612   */\n      dup5\n        /* \"#utility.yul\":2568:2633   */\n      tag_118\n      jump\t// in\n    tag_171:\n        /* \"#utility.yul\":2430:2640   */\n      swap3\n      swap2\n      pop\n      pop\n      jump\t// out\n        /* \"#utility.yul\":2646:2745   */\n    tag_119:\n        /* \"#utility.yul\":2698:2704   */\n      0x00\n        /* \"#utility.yul\":2732:2737   */\n      dup2\n        /* \"#utility.yul\":2726:2738   */\n      mload\n        /* \"#utility.yul\":2716:2738   */\n      swap1\n      pop\n        /* \"#utility.yul\":2646:2745   */\n      swap2\n      swap1\n      pop\n      jump\t// out\n        /* \"#utility.yul\":2751:2920   */\n    tag_120:\n        /* \"#utility.yul\":2835:2846   */\n      0x00\n        /* \"#utility.yul\":2869:2875   */\n      dup3\n        /* \"#utility.yul\":2864:2867   */\n      dup3\n        /* \"#utility.yul\":2857:2876   */\n      mstore\n        /* \"#utility.yul\":2909:2913   */\n      0x20\n        /* \"#utility.yul\":2904:2907   */\n      dup3\n        /* \"#utility.yul\":2900:2914   */\n      add\n        /* \"#utility.yul\":2885:2914   */\n      swap1\n      pop\n        /* \"#utility.yul\":2751:2920   */\n      swap3\n      swap2\n      pop\n      pop\n      jump\t// out\n        /* \"#utility.yul\":2926:3065   */\n    tag_121:\n        /* \"#utility.yul\":3015:3021   */\n      dup3\n        /* \"#utility.yul\":3010:3013   */\n      dup2\n        /* \"#utility.yul\":3005:3008   */\n      dup4\n        /* \"#utility.yul\":2999:3022   */\n      mcopy\n        /* \"#utility.yul\":3056:3057   */\n      0x00\n        /* \"#utility.yul\":3047:3053   */\n      dup4\n        /* \"#utility.yul\":3042:3045   */\n      dup4\n        /* \"#utility.yul\":3038:3054   */\n      add\n        /* \"#utility.yul\":3031:3058   */\n      mstore\n        /* \"#utility.yul\":2926:3065   */\n      pop\n      pop\n      pop\n      jump\t// out\n        /* \"#utility.yul\":3071:3173   */\n    tag_122:\n        /* \"#utility.yul\":3112:3118   */\n      0x00\n        /* \"#utility.yul\":3163:3165   */\n      0x1f\n        /* \"#utility.yul\":3159:3166   */\n      not\n        /* \"#utility.yul\":3154:3156   */\n      0x1f\n        /* \"#utility.yul\":3147:3152   */\n      dup4\n        /* \"#utility.yul\":3143:3157   */\n      add\n        /* \"#utility.yul\":3139:3167   */\n      and\n        /* \"#utility.yul\":3129:3167   */\n      swap1\n      pop\n        /* \"#utility.yul\":3071:3173   */\n      swap2\n      swap1\n      pop\n      jump\t// out\n        /* \"#utility.yul\":3179:3556   */\n    tag_123:\n        /* \"#utility.yul\":3267:3270   */\n      0x00\n        /* \"#utility.yul\":3295:3334   */\n      tag_177\n        /* \"#utility.yul\":3328:3333   */\n      dup3\n        /* \"#utility.yul\":3295:3334   */\n      tag_119\n      jump\t// in\n    tag_177:\n        /* \"#utility.yul\":3350:3421   */\n      tag_178\n        /* \"#utility.yul\":3414:3420   */\n      dup2\n        /* \"#utility.yul\":3409:3412   */\n      dup6\n        /* \"#utility.yul\":3350:3421   */\n      tag_120\n      jump\t// in\n    tag_178:\n        /* \"#utility.yul\":3343:3421   */\n      swap4\n      pop\n        /* \"#utility.yul\":3430:3495   */\n      tag_179\n        /* \"#utility.yul\":3488:3494   */\n      dup2\n        /* \"#utility.yul\":3483:3486   */\n      dup6\n        /* \"#utility.yul\":3476:3480   */\n      0x20\n        /* \"#utility.yul\":3469:3474   */\n      dup7\n        /* \"#utility.yul\":3465:3481   */\n      add\n        /* \"#utility.yul\":3430:3495   */\n      tag_121\n      jump\t// in\n    tag_179:\n        /* \"#utility.yul\":3520:3549   */\n      tag_180\n        /* \"#utility.yul\":3542:3548   */\n      dup2\n        /* \"#utility.yul\":3520:3549   */\n      tag_122\n      jump\t// in\n    tag_180:\n        /* \"#utility.yul\":3515:3518   */\n      dup5\n        /* \"#utility.yul\":3511:3550   */\n      add\n        /* \"#utility.yul\":3504:3550   */\n      swap2\n      pop\n        /* \"#utility.yul\":3271:3556   */\n      pop\n        /* \"#utility.yul\":3179:3556   */\n      swap3\n      swap2\n      pop\n      pop\n      jump\t// out\n        /* \"#utility.yul\":3562:3875   */\n    tag_45:\n        /* \"#utility.yul\":3675:3679   */\n      0x00\n        /* \"#utility.yul\":3713:3715   */\n      0x20\n        /* \"#utility.yul\":3702:3711   */\n      dup3\n        /* \"#utility.yul\":3698:3716   */\n      add\n        /* \"#utility.yul\":3690:3716   */\n      swap1\n      pop\n        /* \"#utility.yul\":3762:3771   */\n      dup2\n        /* \"#utility.yul\":3756:3760   */\n      dup2\n        /* \"#utility.yul\":3752:3772   */\n      sub\n        /* \"#utility.yul\":3748:3749   */\n      0x00\n        /* \"#utility.yul\":3737:3746   */\n      dup4\n        /* \"#utility.yul\":3733:3750   */\n      add\n        /* \"#utility.yul\":3726:3773   */\n      mstore\n        /* \"#utility.yul\":3790:3868   */\n      tag_182\n        /* \"#utility.yul\":3863:3867   */\n      dup2\n        /* \"#utility.yul\":3854:3860   */\n      dup5\n        /* \"#utility.yul\":3790:3868   */\n      tag_123\n      jump\t// in\n    tag_182:\n        /* \"#utility.yul\":3782:3868   */\n      swap1\n      pop\n        /* \"#utility.yul\":3562:3875   */\n      swap3\n      swap2\n      pop\n      pop\n      jump\t// out\n        /* \"#utility.yul\":3881:3999   */\n    tag_124:\n        /* \"#utility.yul\":3968:3992   */\n      tag_184\n        /* \"#utility.yul\":3986:3991   */\n      dup2\n        /* \"#utility.yul\":3968:3992   */\n      tag_114\n      jump\t// in\n    tag_184:\n        /* \"#utility.yul\":3963:3966   */\n      dup3\n        /* \"#utility.yul\":3956:3993   */\n      mstore\n        /* \"#utility.yul\":3881:3999   */\n      pop\n      pop\n      jump\t// out\n        /* \"#utility.yul\":4005:4227   */\n    tag_49:\n        /* \"#utility.yul\":4098:4102   */\n      0x00\n        /* \"#utility.yul\":4136:4138   */\n      0x20\n        /* \"#utility.yul\":4125:4134   */\n      dup3\n        /* \"#utility.yul\":4121:4139   */\n      add\n        /* \"#utility.yul\":4113:4139   */\n      swap1\n      pop\n        /* \"#utility.yul\":4149:4220   */\n      tag_186\n        /* \"#utility.yul\":4217:4218   */\n      0x00\n        /* \"#utility.yul\":4206:4215   */\n      dup4\n        /* \"#utility.yul\":4202:4219   */\n      add\n        /* \"#utility.yul\":4193:4199   */\n      dup5\n        /* \"#utility.yul\":4149:4220   */\n      tag_124\n      jump\t// in\n    tag_186:\n        /* \"#utility.yul\":4005:4227   */\n      swap3\n      swap2\n      pop\n      pop\n      jump\t// out\n        /* \"#utility.yul\":4233:4565   */\n    tag_57:\n        /* \"#utility.yul\":4354:4358   */\n      0x00\n        /* \"#utility.yul\":4392:4394   */\n      0x40\n        /* \"#utility.yul\":4381:4390   */\n      dup3\n        /* \"#utility.yul\":4377:4395   */\n      add\n        /* \"#utility.yul\":4369:4395   */\n      swap1\n      pop\n        /* \"#utility.yul\":4405:4476   */\n      tag_188\n        /* \"#utility.yul\":4473:4474   */\n      0x00\n        /* \"#utility.yul\":4462:4471   */\n      dup4\n        /* \"#utility.yul\":4458:4475   */\n      add\n        /* \"#utility.yul\":4449:4455   */\n      dup6\n        /* \"#utility.yul\":4405:4476   */\n      tag_112\n      jump\t// in\n    tag_188:\n        /* \"#utility.yul\":4486:4558   */\n      tag_189\n        /* \"#utility.yul\":4554:4556   */\n      0x20\n        /* \"#utility.yul\":4543:4552   */\n      dup4\n        /* \"#utility.yul\":4539:4557   */\n      add\n        /* \"#utility.yul\":4530:4536   */\n      dup5\n        /* \"#utility.yul\":4486:4558   */\n      tag_112\n      jump\t// in\n    tag_189:\n        /* \"#utility.yul\":4233:4565   */\n      swap4\n      swap3\n      pop\n      pop\n      pop\n      jump\t// out\n        /* \"#utility.yul\":4571:4751   */\n    tag_125:\n        /* \"#utility.yul\":4619:4696   */\n      0x4e487b7100000000000000000000000000000000000000000000000000000000\n        /* \"#utility.yul\":4616:4617   */\n      0x00\n        /* \"#utility.yul\":4609:4697   */\n      mstore\n        /* \"#utility.yul\":4716:4720   */\n      0x11\n        /* \"#utility.yul\":4713:4714   */\n      0x04\n        /* \"#utility.yul\":4706:4721   */\n      mstore\n        /* \"#utility.yul\":4740:4744   */\n      0x24\n        /* \"#utility.yul\":4737:4738   */\n      0x00\n        /* \"#utility.yul\":4730:4745   */\n      revert\n        /* \"#utility.yul\":4757:4951   */\n    tag_59:\n        /* \"#utility.yul\":4797:4801   */\n      0x00\n        /* \"#utility.yul\":4817:4837   */\n      tag_192\n        /* \"#utility.yul\":4835:4836   */\n      dup3\n        /* \"#utility.yul\":4817:4837   */\n      tag_109\n      jump\t// in\n    tag_192:\n        /* \"#utility.yul\":4812:4837   */\n      swap2\n      pop\n        /* \"#utility.yul\":4851:4871   */\n      tag_193\n        /* \"#utility.yul\":4869:4870   */\n      dup4\n        /* \"#utility.yul\":4851:4871   */\n      tag_109\n      jump\t// in\n    tag_193:\n        /* \"#utility.yul\":4846:4871   */\n      swap3\n      pop\n        /* \"#utility.yul\":4895:4896   */\n      dup3\n        /* \"#utility.yul\":4892:4893   */\n      dup3\n        /* \"#utility.yul\":4888:4897   */\n      sub\n        /* \"#utility.yul\":4880:4897   */\n      swap1\n      pop\n        /* \"#utility.yul\":4919:4920   */\n      dup2\n        /* \"#utility.yul\":4913:4917   */\n      dup2\n        /* \"#utility.yul\":4910:4921   */\n      gt\n        /* \"#utility.yul\":4907:4944   */\n      iszero\n      tag_194\n      jumpi\n        /* \"#utility.yul\":4924:4942   */\n      tag_195\n      tag_125\n      jump\t// in\n    tag_195:\n        /* \"#utility.yul\":4907:4944   */\n    tag_194:\n        /* \"#utility.yul\":4757:4951   */\n      swap3\n      swap2\n      pop\n      pop\n      jump\t// out\n        /* \"#utility.yul\":4957:5116   */\n    tag_126:\n        /* \"#utility.yul\":5097:5108   */\n      0x4d617820566f7465730000000000000000000000000000000000000000000000\n        /* \"#utility.yul\":5093:5094   */\n      0x00\n        /* \"#utility.yul\":5085:5091   */\n      dup3\n        /* \"#utility.yul\":5081:5095   */\n      add\n        /* \"#utility.yul\":5074:5109   */\n      mstore\n        /* \"#utility.yul\":4957:5116   */\n      pop\n      jump\t// out\n        /* \"#utility.yul\":5122:5487   */\n    tag_127:\n        /* \"#utility.yul\":5264:5267   */\n      0x00\n        /* \"#utility.yul\":5285:5351   */\n      tag_198\n        /* \"#utility.yul\":5349:5350   */\n      0x09\n        /* \"#utility.yul\":5344:5347   */\n      dup4\n        /* \"#utility.yul\":5285:5351   */\n      tag_120\n      jump\t// in\n    tag_198:\n        /* \"#utility.yul\":5278:5351   */\n      swap2\n      pop\n        /* \"#utility.yul\":5360:5453   */\n      tag_199\n        /* \"#utility.yul\":5449:5452   */\n      dup3\n        /* \"#utility.yul\":5360:5453   */\n      tag_126\n      jump\t// in\n    tag_199:\n        /* \"#utility.yul\":5478:5480   */\n      0x20\n        /* \"#utility.yul\":5473:5476   */\n      dup3\n        /* \"#utility.yul\":5469:5481   */\n      add\n        /* \"#utility.yul\":5462:5481   */\n      swap1\n      pop\n        /* \"#utility.yul\":5122:5487   */\n      swap2\n      swap1\n      pop\n      jump\t// out\n        /* \"#utility.yul\":5493:5912   */\n    tag_62:\n        /* \"#utility.yul\":5659:5663   */\n      0x00\n        /* \"#utility.yul\":5697:5699   */\n      0x20\n        /* \"#utility.yul\":5686:5695   */\n      dup3\n        /* \"#utility.yul\":5682:5700   */\n      add\n        /* \"#utility.yul\":5674:5700   */\n      swap1\n      pop\n        /* \"#utility.yul\":5746:5755   */\n      dup2\n        /* \"#utility.yul\":5740:5744   */\n      dup2\n        /* \"#utility.yul\":5736:5756   */\n      sub\n        /* \"#utility.yul\":5732:5733   */\n      0x00\n        /* \"#utility.yul\":5721:5730   */\n      dup4\n        /* \"#utility.yul\":5717:5734   */\n      add\n        /* \"#utility.yul\":5710:5757   */\n      mstore\n        /* \"#utility.yul\":5774:5905   */\n      tag_201\n        /* \"#utility.yul\":5900:5904   */\n      dup2\n        /* \"#utility.yul\":5774:5905   */\n      tag_127\n      jump\t// in\n    tag_201:\n        /* \"#utility.yul\":5766:5905   */\n      swap1\n      pop\n        /* \"#utility.yul\":5493:5912   */\n      swap2\n      swap1\n      pop\n      jump\t// out\n        /* \"#utility.yul\":5918:6093   */\n    tag_128:\n        /* \"#utility.yul\":6058:6085   */\n      0x436f6e7472616374206f776e65722063616e277420766f746500000000000000\n        /* \"#utility.yul\":6054:6055   */\n      0x00\n        /* \"#utility.yul\":6046:6052   */\n      dup3\n        /* \"#utility.yul\":6042:6056   */\n      add\n        /* \"#utility.yul\":6035:6086   */\n      mstore\n        /* \"#utility.yul\":5918:6093   */\n      pop\n      jump\t// out\n        /* \"#utility.yul\":6099:6465   */\n    tag_129:\n        /* \"#utility.yul\":6241:6244   */\n      0x00\n        /* \"#utility.yul\":6262:6329   */\n      tag_204\n        /* \"#utility.yul\":6326:6328   */\n      0x19\n        /* \"#utility.yul\":6321:6324   */\n      dup4\n        /* \"#utility.yul\":6262:6329   */\n      tag_120\n      jump\t// in\n    tag_204:\n        /* \"#utility.yul\":6255:6329   */\n      swap2\n      pop\n        /* \"#utility.yul\":6338:6431   */\n      tag_205\n        /* \"#utility.yul\":6427:6430   */\n      dup3\n        /* \"#utility.yul\":6338:6431   */\n      tag_128\n      jump\t// in\n    tag_205:\n        /* \"#utility.yul\":6456:6458   */\n      0x20\n        /* \"#utility.yul\":6451:6454   */\n      dup3\n        /* \"#utility.yul\":6447:6459   */\n      add\n        /* \"#utility.yul\":6440:6459   */\n      swap1\n      pop\n        /* \"#utility.yul\":6099:6465   */\n      swap2\n      swap1\n      pop\n      jump\t// out\n        /* \"#utility.yul\":6471:6890   */\n    tag_65:\n        /* \"#utility.yul\":6637:6641   */\n      0x00\n        /* \"#utility.yul\":6675:6677   */\n      0x20\n        /* \"#utility.yul\":6664:6673   */\n      dup3\n        /* \"#utility.yul\":6660:6678   */\n      add\n        /* \"#utility.yul\":6652:6678   */\n      swap1\n      pop\n        /* \"#utility.yul\":6724:6733   */\n      dup2\n        /* \"#utility.yul\":6718:6722   */\n      dup2\n        /* \"#utility.yul\":6714:6734   */\n      sub\n        /* \"#utility.yul\":6710:6711   */\n      0x00\n        /* \"#utility.yul\":6699:6708   */\n      dup4\n        /* \"#utility.yul\":6695:6712   */\n      add\n        /* \"#utility.yul\":6688:6735   */\n      mstore\n        /* \"#utility.yul\":6752:6883   */\n      tag_207\n        /* \"#utility.yul\":6878:6882   */\n      dup2\n        /* \"#utility.yul\":6752:6883   */\n      tag_129\n      jump\t// in\n    tag_207:\n        /* \"#utility.yul\":6744:6883   */\n      swap1\n      pop\n        /* \"#utility.yul\":6471:6890   */\n      swap2\n      swap1\n      pop\n      jump\t// out\n        /* \"#utility.yul\":6896:7060   */\n    tag_130:\n        /* \"#utility.yul\":7036:7052   */\n      0x566f74696e67206973206f766572000000000000000000000000000000000000\n        /* \"#utility.yul\":7032:7033   */\n      0x00\n        /* \"#utility.yul\":7024:7030   */\n      dup3\n        /* \"#utility.yul\":7020:7034   */\n      add\n        /* \"#utility.yul\":7013:7053   */\n      mstore\n        /* \"#utility.yul\":6896:7060   */\n      pop\n      jump\t// out\n        /* \"#utility.yul\":7066:7432   */\n    tag_131:\n        /* \"#utility.yul\":7208:7211   */\n      0x00\n        /* \"#utility.yul\":7229:7296   */\n      tag_210\n        /* \"#utility.yul\":7293:7295   */\n      0x0e\n        /* \"#utility.yul\":7288:7291   */\n      dup4\n        /* \"#utility.yul\":7229:7296   */\n      tag_120\n      jump\t// in\n    tag_210:\n        /* \"#utility.yul\":7222:7296   */\n      swap2\n      pop\n        /* \"#utility.yul\":7305:7398   */\n      tag_211\n        /* \"#utility.yul\":7394:7397   */\n      dup3\n        /* \"#utility.yul\":7305:7398   */\n      tag_130\n      jump\t// in\n    tag_211:\n        /* \"#utility.yul\":7423:7425   */\n      0x20\n        /* \"#utility.yul\":7418:7421   */\n      dup3\n        /* \"#utility.yul\":7414:7426   */\n      add\n        /* \"#utility.yul\":7407:7426   */\n      swap1\n      pop\n        /* \"#utility.yul\":7066:7432   */\n      swap2\n      swap1\n      pop\n      jump\t// out\n        /* \"#utility.yul\":7438:7857   */\n    tag_68:\n        /* \"#utility.yul\":7604:7608   */\n      0x00\n        /* \"#utility.yul\":7642:7644   */\n      0x20\n        /* \"#utility.yul\":7631:7640   */\n      dup3\n        /* \"#utility.yul\":7627:7645   */\n      add\n        /* \"#utility.yul\":7619:7645   */\n      swap1\n      pop\n        /* \"#utility.yul\":7691:7700   */\n      dup2\n        /* \"#utility.yul\":7685:7689   */\n      dup2\n        /* \"#utility.yul\":7681:7701   */\n      sub\n        /* \"#utility.yul\":7677:7678   */\n      0x00\n        /* \"#utility.yul\":7666:7675   */\n      dup4\n        /* \"#utility.yul\":7662:7679   */\n      add\n        /* \"#utility.yul\":7655:7702   */\n      mstore\n        /* \"#utility.yul\":7719:7850   */\n      tag_213\n        /* \"#utility.yul\":7845:7849   */\n      dup2\n        /* \"#utility.yul\":7719:7850   */\n      tag_131\n      jump\t// in\n    tag_213:\n        /* \"#utility.yul\":7711:7850   */\n      swap1\n      pop\n        /* \"#utility.yul\":7438:7857   */\n      swap2\n      swap1\n      pop\n      jump\t// out\n        /* \"#utility.yul\":7863:8054   */\n    tag_70:\n        /* \"#utility.yul\":7903:7906   */\n      0x00\n        /* \"#utility.yul\":7922:7942   */\n      tag_215\n        /* \"#utility.yul\":7940:7941   */\n      dup3\n        /* \"#utility.yul\":7922:7942   */\n      tag_109\n      jump\t// in\n    tag_215:\n        /* \"#utility.yul\":7917:7942   */\n      swap2\n      pop\n        /* \"#utility.yul\":7956:7976   */\n      tag_216\n        /* \"#utility.yul\":7974:7975   */\n      dup4\n        /* \"#utility.yul\":7956:7976   */\n      tag_109\n      jump\t// in\n    tag_216:\n        /* \"#utility.yul\":7951:7976   */\n      swap3\n      pop\n        /* \"#utility.yul\":7999:8000   */\n      dup3\n        /* \"#utility.yul\":7996:7997   */\n      dup3\n        /* \"#utility.yul\":7992:8001   */\n      add\n        /* \"#utility.yul\":7985:8001   */\n      swap1\n      pop\n        /* \"#utility.yul\":8020:8023   */\n      dup1\n        /* \"#utility.yul\":8017:8018   */\n      dup3\n        /* \"#utility.yul\":8014:8024   */\n      gt\n        /* \"#utility.yul\":8011:8047   */\n      iszero\n      tag_217\n      jumpi\n        /* \"#utility.yul\":8027:8045   */\n      tag_218\n      tag_125\n      jump\t// in\n    tag_218:\n        /* \"#utility.yul\":8011:8047   */\n    tag_217:\n        /* \"#utility.yul\":7863:8054   */\n      swap3\n      swap2\n      pop\n      pop\n      jump\t// out\n        /* \"#utility.yul\":8060:8392   */\n    tag_72:\n        /* \"#utility.yul\":8181:8185   */\n      0x00\n        /* \"#utility.yul\":8219:8221   */\n      0x40\n        /* \"#utility.yul\":8208:8217   */\n      dup3\n        /* \"#utility.yul\":8204:8222   */\n      add\n        /* \"#utility.yul\":8196:8222   */\n      swap1\n      pop\n        /* \"#utility.yul\":8232:8303   */\n      tag_220\n        /* \"#utility.yul\":8300:8301   */\n      0x00\n        /* \"#utility.yul\":8289:8298   */\n      dup4\n        /* \"#utility.yul\":8285:8302   */\n      add\n        /* \"#utility.yul\":8276:8282   */\n      dup6\n        /* \"#utility.yul\":8232:8303   */\n      tag_112\n      jump\t// in\n    tag_220:\n        /* \"#utility.yul\":8313:8385   */\n      tag_221\n        /* \"#utility.yul\":8381:8383   */\n      0x20\n        /* \"#utility.yul\":8370:8379   */\n      dup4\n        /* \"#utility.yul\":8366:8384   */\n      add\n        /* \"#utility.yul\":8357:8363   */\n      dup5\n        /* \"#utility.yul\":8313:8385   */\n      tag_124\n      jump\t// in\n    tag_221:\n        /* \"#utility.yul\":8060:8392   */\n      swap4\n      swap3\n      pop\n      pop\n      pop\n      jump\t// out\n        /* \"#utility.yul\":8398:8576   */\n    tag_132:\n        /* \"#utility.yul\":8538:8568   */\n      0x456c656374696f6e2074696d652063616e277420646563726561736500000000\n        /* \"#utility.yul\":8534:8535   */\n      0x00\n        /* \"#utility.yul\":8526:8532   */\n      dup3\n        /* \"#utility.yul\":8522:8536   */\n      add\n        /* \"#utility.yul\":8515:8569   */\n      mstore\n        /* \"#utility.yul\":8398:8576   */\n      pop\n      jump\t// out\n        /* \"#utility.yul\":8582:8948   */\n    tag_133:\n        /* \"#utility.yul\":8724:8727   */\n      0x00\n        /* \"#utility.yul\":8745:8812   */\n      tag_224\n        /* \"#utility.yul\":8809:8811   */\n      0x1c\n        /* \"#utility.yul\":8804:8807   */\n      dup4\n        /* \"#utility.yul\":8745:8812   */\n      tag_120\n      jump\t// in\n    tag_224:\n        /* \"#utility.yul\":8738:8812   */\n      swap2\n      pop\n        /* \"#utility.yul\":8821:8914   */\n      tag_225\n        /* \"#utility.yul\":8910:8913   */\n      dup3\n        /* \"#utility.yul\":8821:8914   */\n      tag_132\n      jump\t// in\n    tag_225:\n        /* \"#utility.yul\":8939:8941   */\n      0x20\n        /* \"#utility.yul\":8934:8937   */\n      dup3\n        /* \"#utility.yul\":8930:8942   */\n      add\n        /* \"#utility.yul\":8923:8942   */\n      swap1\n      pop\n        /* \"#utility.yul\":8582:8948   */\n      swap2\n      swap1\n      pop\n      jump\t// out\n        /* \"#utility.yul\":8954:9373   */\n    tag_77:\n        /* \"#utility.yul\":9120:9124   */\n      0x00\n        /* \"#utility.yul\":9158:9160   */\n      0x20\n        /* \"#utility.yul\":9147:9156   */\n      dup3\n        /* \"#utility.yul\":9143:9161   */\n      add\n        /* \"#utility.yul\":9135:9161   */\n      swap1\n      pop\n        /* \"#utility.yul\":9207:9216   */\n      dup2\n        /* \"#utility.yul\":9201:9205   */\n      dup2\n        /* \"#utility.yul\":9197:9217   */\n      sub\n        /* \"#utility.yul\":9193:9194   */\n      0x00\n        /* \"#utility.yul\":9182:9191   */\n      dup4\n        /* \"#utility.yul\":9178:9195   */\n      add\n        /* \"#utility.yul\":9171:9218   */\n      mstore\n        /* \"#utility.yul\":9235:9366   */\n      tag_227\n        /* \"#utility.yul\":9361:9365   */\n      dup2\n        /* \"#utility.yul\":9235:9366   */\n      tag_133\n      jump\t// in\n    tag_227:\n        /* \"#utility.yul\":9227:9366   */\n      swap1\n      pop\n        /* \"#utility.yul\":8954:9373   */\n      swap2\n      swap1\n      pop\n      jump\t// out\n        /* \"#utility.yul\":9379:9553   */\n    tag_134:\n        /* \"#utility.yul\":9519:9545   */\n      0x4d617820766f7465732063616e27742064656372656173650000000000000000\n        /* \"#utility.yul\":9515:9516   */\n      0x00\n        /* \"#utility.yul\":9507:9513   */\n      dup3\n        /* \"#utility.yul\":9503:9517   */\n      add\n        /* \"#utility.yul\":9496:9546   */\n      mstore\n        /* \"#utility.yul\":9379:9553   */\n      pop\n      jump\t// out\n        /* \"#utility.yul\":9559:9925   */\n    tag_135:\n        /* \"#utility.yul\":9701:9704   */\n      0x00\n        /* \"#utility.yul\":9722:9789   */\n      tag_230\n        /* \"#utility.yul\":9786:9788   */\n      0x18\n        /* \"#utility.yul\":9781:9784   */\n      dup4\n        /* \"#utility.yul\":9722:9789   */\n      tag_120\n      jump\t// in\n    tag_230:\n        /* \"#utility.yul\":9715:9789   */\n      swap2\n      pop\n        /* \"#utility.yul\":9798:9891   */\n      tag_231\n        /* \"#utility.yul\":9887:9890   */\n      dup3\n        /* \"#utility.yul\":9798:9891   */\n      tag_134\n      jump\t// in\n    tag_231:\n        /* \"#utility.yul\":9916:9918   */\n      0x20\n        /* \"#utility.yul\":9911:9914   */\n      dup3\n        /* \"#utility.yul\":9907:9919   */\n      add\n        /* \"#utility.yul\":9900:9919   */\n      swap1\n      pop\n        /* \"#utility.yul\":9559:9925   */\n      swap2\n      swap1\n      pop\n      jump\t// out\n        /* \"#utility.yul\":9931:10350   */\n    tag_83:\n        /* \"#utility.yul\":10097:10101   */\n      0x00\n        /* \"#utility.yul\":10135:10137   */\n      0x20\n        /* \"#utility.yul\":10124:10133   */\n      dup3\n        /* \"#utility.yul\":10120:10138   */\n      add\n        /* \"#utility.yul\":10112:10138   */\n      swap1\n      pop\n        /* \"#utility.yul\":10184:10193   */\n      dup2\n        /* \"#utility.yul\":10178:10182   */\n      dup2\n        /* \"#utility.yul\":10174:10194   */\n      sub\n        /* \"#utility.yul\":10170:10171   */\n      0x00\n        /* \"#utility.yul\":10159:10168   */\n      dup4\n        /* \"#utility.yul\":10155:10172   */\n      add\n        /* \"#utility.yul\":10148:10195   */\n      mstore\n        /* \"#utility.yul\":10212:10343   */\n      tag_233\n        /* \"#utility.yul\":10338:10342   */\n      dup2\n        /* \"#utility.yul\":10212:10343   */\n      tag_135\n      jump\t// in\n    tag_233:\n        /* \"#utility.yul\":10204:10343   */\n      swap1\n      pop\n        /* \"#utility.yul\":9931:10350   */\n      swap2\n      swap1\n      pop\n      jump\t// out\n        /* \"#utility.yul\":10356:10536   */\n    tag_136:\n        /* \"#utility.yul\":10404:10481   */\n      0x4e487b7100000000000000000000000000000000000000000000000000000000\n        /* \"#utility.yul\":10401:10402   */\n      0x00\n        /* \"#utility.yul\":10394:10482   */\n      mstore\n        /* \"#utility.yul\":10501:10505   */\n      0x22\n        /* \"#utility.yul\":10498:10499   */\n      0x04\n        /* \"#utility.yul\":10491:10506   */\n      mstore\n        /* \"#utility.yul\":10525:10529   */\n      0x24\n        /* \"#utility.yul\":10522:10523   */\n      0x00\n        /* \"#utility.yul\":10515:10530   */\n      revert\n        /* \"#utility.yul\":10542:10862   */\n    tag_87:\n        /* \"#utility.yul\":10586:10592   */\n      0x00\n        /* \"#utility.yul\":10623:10624   */\n      0x02\n        /* \"#utility.yul\":10617:10621   */\n      dup3\n        /* \"#utility.yul\":10613:10625   */\n      div\n        /* \"#utility.yul\":10603:10625   */\n      swap1\n      pop\n        /* \"#utility.yul\":10670:10671   */\n      0x01\n        /* \"#utility.yul\":10664:10668   */\n      dup3\n        /* \"#utility.yul\":10660:10672   */\n      and\n        /* \"#utility.yul\":10691:10709   */\n      dup1\n        /* \"#utility.yul\":10681:10762   */\n      tag_236\n      jumpi\n        /* \"#utility.yul\":10747:10751   */\n      0x7f\n        /* \"#utility.yul\":10739:10745   */\n      dup3\n        /* \"#utility.yul\":10735:10752   */\n      and\n        /* \"#utility.yul\":10725:10752   */\n      swap2\n      pop\n        /* \"#utility.yul\":10681:10762   */\n    tag_236:\n        /* \"#utility.yul\":10809:10811   */\n      0x20\n        /* \"#utility.yul\":10801:10807   */\n      dup3\n        /* \"#utility.yul\":10798:10812   */\n      lt\n        /* \"#utility.yul\":10778:10796   */\n      dup2\n        /* \"#utility.yul\":10775:10813   */\n      sub\n        /* \"#utility.yul\":10772:10856   */\n      tag_237\n      jumpi\n        /* \"#utility.yul\":10828:10846   */\n      tag_238\n      tag_136\n      jump\t// in\n    tag_238:\n        /* \"#utility.yul\":10772:10856   */\n    tag_237:\n        /* \"#utility.yul\":10593:10862   */\n      pop\n        /* \"#utility.yul\":10542:10862   */\n      swap2\n      swap1\n      pop\n      jump\t// out\n        /* \"#utility.yul\":10868:11048   */\n    tag_99:\n        /* \"#utility.yul\":10916:10993   */\n      0x4e487b7100000000000000000000000000000000000000000000000000000000\n        /* \"#utility.yul\":10913:10914   */\n      0x00\n        /* \"#utility.yul\":10906:10994   */\n      mstore\n        /* \"#utility.yul\":11013:11017   */\n      0x32\n        /* \"#utility.yul\":11010:11011   */\n      0x04\n        /* \"#utility.yul\":11003:11018   */\n      mstore\n        /* \"#utility.yul\":11037:11041   */\n      0x24\n        /* \"#utility.yul\":11034:11035   */\n      0x00\n        /* \"#utility.yul\":11027:11042   */\n      revert\n\n    auxdata: 0xa2646970667358221220b0728c470e1a11b0fdec7e8e47988deb325cae69558d1d6b7609b8471f75faa164736f6c634300081f0033\n}\n",
				"bytecode": {
					"linkReferences": {},
					"object": "608060405234801561000f575f5ffd5b506040516115c63803806115c6833981810160405281019061003191906103dc565b825f90805190602001906100469291906100a8565b5081600181905550804261005a9190610475565b6002819055503360035f6101000a81548173ffffffffffffffffffffffffffffffffffffffff021916908373ffffffffffffffffffffffffffffffffffffffff16021790555050505061077e565b828054828255905f5260205f209081019282156100ee579160200282015b828111156100ed5782518290816100dd91906106af565b50916020019190600101906100c6565b5b5090506100fb91906100ff565b5090565b5b8082111561011e575f81816101159190610122565b50600101610100565b5090565b50805461012e906104df565b5f825580601f1061013f575061015c565b601f0160209004905f5260205f209081019061015b919061015f565b5b50565b5b80821115610176575f815f905550600101610160565b5090565b5f604051905090565b5f5ffd5b5f5ffd5b5f5ffd5b5f601f19601f8301169050919050565b7f4e487b71000000000000000000000000000000000000000000000000000000005f52604160045260245ffd5b6101d58261018f565b810181811067ffffffffffffffff821117156101f4576101f361019f565b5b80604052505050565b5f61020661017a565b905061021282826101cc565b919050565b5f67ffffffffffffffff8211156102315761023061019f565b5b602082029050602081019050919050565b5f5ffd5b5f5ffd5b5f67ffffffffffffffff8211156102645761026361019f565b5b61026d8261018f565b9050602081019050919050565b8281835e5f83830152505050565b5f61029a6102958461024a565b6101fd565b9050828152602081018484840111156102b6576102b5610246565b5b6102c184828561027a565b509392505050565b5f82601f8301126102dd576102dc61018b565b5b81516102ed848260208601610288565b91505092915050565b5f61030861030384610217565b6101fd565b9050808382526020820190506020840283018581111561032b5761032a610242565b5b835b8181101561037257805167ffffffffffffffff8111156103505761034f61018b565b5b80860161035d89826102c9565b8552602085019450505060208101905061032d565b5050509392505050565b5f82601f8301126103905761038f61018b565b5b81516103a08482602086016102f6565b91505092915050565b5f819050919050565b6103bb816103a9565b81146103c5575f5ffd5b50565b5f815190506103d6816103b2565b92915050565b5f5f5f606084860312156103f3576103f2610183565b5b5f84015167ffffffffffffffff8111156104105761040f610187565b5b61041c8682870161037c565b935050602061042d868287016103c8565b925050604061043e868287016103c8565b9150509250925092565b7f4e487b71000000000000000000000000000000000000000000000000000000005f52601160045260245ffd5b5f61047f826103a9565b915061048a836103a9565b92508282019050808211156104a2576104a1610448565b5b92915050565b5f81519050919050565b7f4e487b71000000000000000000000000000000000000000000000000000000005f52602260045260245ffd5b5f60028204905060018216806104f657607f821691505b602082108103610509576105086104b2565b5b50919050565b5f819050815f5260205f209050919050565b5f6020601f8301049050919050565b5f82821b905092915050565b5f6008830261056b7fffffffffffffffffffffffffffffffffffffffffffffffffffffffffffffffff82610530565b6105758683610530565b95508019841693508086168417925050509392505050565b5f819050919050565b5f6105b06105ab6105a6846103a9565b61058d565b6103a9565b9050919050565b5f819050919050565b6105c983610596565b6105dd6105d5826105b7565b84845461053c565b825550505050565b5f5f905090565b6105f46105e5565b6105ff8184846105c0565b505050565b5b81811015610622576106175f826105ec565b600181019050610605565b5050565b601f821115610667576106388161050f565b61064184610521565b81016020851015610650578190505b61066461065c85610521565b830182610604565b50505b505050565b5f82821c905092915050565b5f6106875f198460080261066c565b1980831691505092915050565b5f61069f8383610678565b9150826002028217905092915050565b6106b8826104a8565b67ffffffffffffffff8111156106d1576106d061019f565b5b6106db82546104df565b6106e6828285610626565b5f60209050601f831160018114610717575f8415610705578287015190505b61070f8582610694565b865550610776565b601f1984166107258661050f565b5f5b8281101561074c57848901518255600182019150602085019450602081019050610727565b868310156107695784890151610765601f891682610678565b8355505b6001600288020188555050505b505050505050565b610e3b8061078b5f395ff3fe608060405234801561000f575f5ffd5b506004361061009c575f3560e01c8063777c3acf11610064578063777c3acf146101545780639e136e6414610172578063ac9b923014610190578063ce606ee0146101c0578063e22b5d19146101de5761009c565b80630121b93f146100a05780630ba237ae146100bc57806350a6491a146100d8578063595156ca146101085780636219015014610124575b5f5ffd5b6100ba60048036038101906100b591906108cf565b6101fc565b005b6100d660048036038101906100d191906108cf565b6104c1565b005b6100f260048036038101906100ed91906108cf565b610595565b6040516100ff9190610909565b60405180910390f35b610122600480360381019061011d91906108cf565b6105aa565b005b61013e6004803603810190610139919061097c565b6106aa565b60405161014b91906109c1565b60405180910390f35b61015c6106c7565b6040516101699190610909565b60405180910390f35b61017a6106cd565b6040516101879190610909565b60405180910390f35b6101aa60048036038101906101a591906108cf565b6106d3565b6040516101b79190610a4a565b60405180910390f35b6101c8610778565b6040516101d59190610a79565b60405180910390f35b6101e661079d565b6040516101f39190610a4a565b60405180910390f35b5f151560045f3373ffffffffffffffffffffffffffffffffffffffff1673ffffffffffffffffffffffffffffffffffffffff1681526020019081526020015f205f9054906101000a900460ff16151514610282576040517f73d2463100000000000000000000000000000000000000000000000000000000815260040160405180910390fd5b5f805490508110815f8054905090916102d2576040517f0cb9c8680000000000000000000000000000000000000000000000000000000081526004016102c9929190610a92565b60405180910390fd5b5050600180546102e29190610ae6565b60055f8381526020019081526020015f20541115610335576040517f08c379a000000000000000000000000000000000000000000000000000000000815260040161032c90610b63565b60405180910390fd5b60035f9054906101000a900473ffffffffffffffffffffffffffffffffffffffff1673ffffffffffffffffffffffffffffffffffffffff163373ffffffffffffffffffffffffffffffffffffffff16036103c4576040517f08c379a00000000000000000000000000000000000000000000000000000000081526004016103bb90610bcb565b60405180910390fd5b6002544210610408576040517f08c379a00000000000000000000000000000000000000000000000000000000081526004016103ff90610c33565b60405180910390fd5b600160045f3373ffffffffffffffffffffffffffffffffffffffff1673ffffffffffffffffffffffffffffffffffffffff1681526020019081526020015f205f6101000a81548160ff021916908315150217905550600160055f8381526020019081526020015f205f82825461047e9190610c51565b925050819055507f030b0f8dcd86a031eddb071f91882edeac8173663ba775713b677b42b51be44b81336040516104b6929190610c84565b60405180910390a150565b60035f9054906101000a900473ffffffffffffffffffffffffffffffffffffffff1673ffffffffffffffffffffffffffffffffffffffff163373ffffffffffffffffffffffffffffffffffffffff1614610547576040517f2f4f7dc600000000000000000000000000000000000000000000000000000000815260040160405180910390fd5b600254811161058b576040517f08c379a000000000000000000000000000000000000000000000000000000000815260040161058290610cf5565b60405180910390fd5b8060028190555050565b6005602052805f5260405f205f915090505481565b60035f9054906101000a900473ffffffffffffffffffffffffffffffffffffffff1673ffffffffffffffffffffffffffffffffffffffff163373ffffffffffffffffffffffffffffffffffffffff1614610630576040517f2f4f7dc600000000000000000000000000000000000000000000000000000000815260040160405180910390fd5b6001548111610674576040517f08c379a000000000000000000000000000000000000000000000000000000000815260040161066b90610d5d565b60405180910390fd5b806001819055507ff7b2d6ba9a8895fef9134483d60e68db626558067ea4df4c6d4f13ffe9dfe0d460405160405180910390a150565b6004602052805f5260405f205f915054906101000a900460ff1681565b60015481565b60025481565b5f81815481106106e1575f80fd5b905f5260205f20015f9150905080546106f990610da8565b80601f016020809104026020016040519081016040528092919081815260200182805461072590610da8565b80156107705780601f1061074757610100808354040283529160200191610770565b820191905f5260205f20905b81548152906001019060200180831161075357829003601f168201915b505050505081565b60035f9054906101000a900473ffffffffffffffffffffffffffffffffffffffff1681565b60605f5f90505f5f90505b5f805490508110156107ef5760055f8381526020019081526020015f205460055f8381526020019081526020015f205411156107e2578091505b80806001019150506107a8565b505f818154811061080357610802610dd8565b5b905f5260205f2001805461081690610da8565b80601f016020809104026020016040519081016040528092919081815260200182805461084290610da8565b801561088d5780601f106108645761010080835404028352916020019161088d565b820191905f5260205f20905b81548152906001019060200180831161087057829003601f168201915b505050505091505090565b5f5ffd5b5f819050919050565b6108ae8161089c565b81146108b8575f5ffd5b50565b5f813590506108c9816108a5565b92915050565b5f602082840312156108e4576108e3610898565b5b5f6108f1848285016108bb565b91505092915050565b6109038161089c565b82525050565b5f60208201905061091c5f8301846108fa565b92915050565b5f73ffffffffffffffffffffffffffffffffffffffff82169050919050565b5f61094b82610922565b9050919050565b61095b81610941565b8114610965575f5ffd5b50565b5f8135905061097681610952565b92915050565b5f6020828403121561099157610990610898565b5b5f61099e84828501610968565b91505092915050565b5f8115159050919050565b6109bb816109a7565b82525050565b5f6020820190506109d45f8301846109b2565b92915050565b5f81519050919050565b5f82825260208201905092915050565b8281835e5f83830152505050565b5f601f19601f8301169050919050565b5f610a1c826109da565b610a2681856109e4565b9350610a368185602086016109f4565b610a3f81610a02565b840191505092915050565b5f6020820190508181035f830152610a628184610a12565b905092915050565b610a7381610941565b82525050565b5f602082019050610a8c5f830184610a6a565b92915050565b5f604082019050610aa55f8301856108fa565b610ab260208301846108fa565b9392505050565b7f4e487b71000000000000000000000000000000000000000000000000000000005f52601160045260245ffd5b5f610af08261089c565b9150610afb8361089c565b9250828203905081811115610b1357610b12610ab9565b5b92915050565b7f4d617820566f74657300000000000000000000000000000000000000000000005f82015250565b5f610b4d6009836109e4565b9150610b5882610b19565b602082019050919050565b5f6020820190508181035f830152610b7a81610b41565b9050919050565b7f436f6e7472616374206f776e65722063616e277420766f7465000000000000005f82015250565b5f610bb56019836109e4565b9150610bc082610b81565b602082019050919050565b5f6020820190508181035f830152610be281610ba9565b9050919050565b7f566f74696e67206973206f7665720000000000000000000000000000000000005f82015250565b5f610c1d600e836109e4565b9150610c2882610be9565b602082019050919050565b5f6020820190508181035f830152610c4a81610c11565b9050919050565b5f610c5b8261089c565b9150610c668361089c565b9250828201905080821115610c7e57610c7d610ab9565b5b92915050565b5f604082019050610c975f8301856108fa565b610ca46020830184610a6a565b9392505050565b7f456c656374696f6e2074696d652063616e2774206465637265617365000000005f82015250565b5f610cdf601c836109e4565b9150610cea82610cab565b602082019050919050565b5f6020820190508181035f830152610d0c81610cd3565b9050919050565b7f4d617820766f7465732063616e277420646563726561736500000000000000005f82015250565b5f610d476018836109e4565b9150610d5282610d13565b602082019050919050565b5f6020820190508181035f830152610d7481610d3b565b9050919050565b7f4e487b71000000000000000000000000000000000000000000000000000000005f52602260045260245ffd5b5f6002820490506001821680610dbf57607f821691505b602082108103610dd257610dd1610d7b565b5b50919050565b7f4e487b71000000000000000000000000000000000000000000000000000000005f52603260045260245ffdfea2646970667358221220b0728c470e1a11b0fdec7e8e47988deb325cae69558d1d6b7609b8471f75faa164736f6c634300081f0033",
					"opcodes": "PUSH1 0x80 PUSH1 0x40 MSTORE CALLVALUE DUP1 ISZERO PUSH2 0xF JUMPI PUSH0 PUSH0 REVERT JUMPDEST POP PUSH1 0x40 MLOAD PUSH2 0x15C6 CODESIZE SUB DUP1 PUSH2 0x15C6 DUP4 CODECOPY DUP2 DUP2 ADD PUSH1 0x40 MSTORE DUP2 ADD SWAP1 PUSH2 0x31 SWAP2 SWAP1 PUSH2 0x3DC JUMP JUMPDEST DUP3 PUSH0 SWAP1 DUP1 MLOAD SWAP1 PUSH1 0x20 ADD SWAP1 PUSH2 0x46 SWAP3 SWAP2 SWAP1 PUSH2 0xA8 JUMP JUMPDEST POP DUP2 PUSH1 0x1 DUP2 SWAP1 SSTORE POP DUP1 TIMESTAMP PUSH2 0x5A SWAP2 SWAP1 PUSH2 0x475 JUMP JUMPDEST PUSH1 0x2 DUP2 SWAP1 SSTORE POP CALLER PUSH1 0x3 PUSH0 PUSH2 0x100 EXP DUP2 SLOAD DUP2 PUSH20 0xFFFFFFFFFFFFFFFFFFFFFFFFFFFFFFFFFFFFFFFF MUL NOT AND SWAP1 DUP4 PUSH20 0xFFFFFFFFFFFFFFFFFFFFFFFFFFFFFFFFFFFFFFFF AND MUL OR SWAP1 SSTORE POP POP POP POP PUSH2 0x77E JUMP JUMPDEST DUP3 DUP1 SLOAD DUP3 DUP3 SSTORE SWAP1 PUSH0 MSTORE PUSH1 0x20 PUSH0 KECCAK256 SWAP1 DUP2 ADD SWAP3 DUP3 ISZERO PUSH2 0xEE JUMPI SWAP2 PUSH1 0x20 MUL DUP3 ADD JUMPDEST DUP3 DUP2 GT ISZERO PUSH2 0xED JUMPI DUP3 MLOAD DUP3 SWAP1 DUP2 PUSH2 0xDD SWAP2 SWAP1 PUSH2 0x6AF JUMP JUMPDEST POP SWAP2 PUSH1 0x20 ADD SWAP2 SWAP1 PUSH1 0x1 ADD SWAP1 PUSH2 0xC6 JUMP JUMPDEST JUMPDEST POP SWAP1 POP PUSH2 0xFB SWAP2 SWAP1 PUSH2 0xFF JUMP JUMPDEST POP SWAP1 JUMP JUMPDEST JUMPDEST DUP1 DUP3 GT ISZERO PUSH2 0x11E JUMPI PUSH0 DUP2 DUP2 PUSH2 0x115 SWAP2 SWAP1 PUSH2 0x122 JUMP JUMPDEST POP PUSH1 0x1 ADD PUSH2 0x100 JUMP JUMPDEST POP SWAP1 JUMP JUMPDEST POP DUP1 SLOAD PUSH2 0x12E SWAP1 PUSH2 0x4DF JUMP JUMPDEST PUSH0 DUP3 SSTORE DUP1 PUSH1 0x1F LT PUSH2 0x13F JUMPI POP PUSH2 0x15C JUMP JUMPDEST PUSH1 0x1F ADD PUSH1 0x20 SWAP1 DIV SWAP1 PUSH0 MSTORE PUSH1 0x20 PUSH0 KECCAK256 SWAP1 DUP2 ADD SWAP1 PUSH2 0x15B SWAP2 SWAP1 PUSH2 0x15F JUMP JUMPDEST JUMPDEST POP JUMP JUMPDEST JUMPDEST DUP1 DUP3 GT ISZERO PUSH2 0x176 JUMPI PUSH0 DUP2 PUSH0 SWAP1 SSTORE POP PUSH1 0x1 ADD PUSH2 0x160 JUMP JUMPDEST POP SWAP1 JUMP JUMPDEST PUSH0 PUSH1 0x40 MLOAD SWAP1 POP SWAP1 JUMP JUMPDEST PUSH0 PUSH0 REVERT JUMPDEST PUSH0 PUSH0 REVERT JUMPDEST PUSH0 PUSH0 REVERT JUMPDEST PUSH0 PUSH1 0x1F NOT PUSH1 0x1F DUP4 ADD AND SWAP1 POP SWAP2 SWAP1 POP JUMP JUMPDEST PUSH32 0x4E487B7100000000000000000000000000000000000000000000000000000000 PUSH0 MSTORE PUSH1 0x41 PUSH1 0x4 MSTORE PUSH1 0x24 PUSH0 REVERT JUMPDEST PUSH2 0x1D5 DUP3 PUSH2 0x18F JUMP JUMPDEST DUP2 ADD DUP2 DUP2 LT PUSH8 0xFFFFFFFFFFFFFFFF DUP3 GT OR ISZERO PUSH2 0x1F4 JUMPI PUSH2 0x1F3 PUSH2 0x19F JUMP JUMPDEST JUMPDEST DUP1 PUSH1 0x40 MSTORE POP POP POP JUMP JUMPDEST PUSH0 PUSH2 0x206 PUSH2 0x17A JUMP JUMPDEST SWAP1 POP PUSH2 0x212 DUP3 DUP3 PUSH2 0x1CC JUMP JUMPDEST SWAP2 SWAP1 POP JUMP JUMPDEST PUSH0 PUSH8 0xFFFFFFFFFFFFFFFF DUP3 GT ISZERO PUSH2 0x231 JUMPI PUSH2 0x230 PUSH2 0x19F JUMP JUMPDEST JUMPDEST PUSH1 0x20 DUP3 MUL SWAP1 POP PUSH1 0x20 DUP2 ADD SWAP1 POP SWAP2 SWAP1 POP JUMP JUMPDEST PUSH0 PUSH0 REVERT JUMPDEST PUSH0 PUSH0 REVERT JUMPDEST PUSH0 PUSH8 0xFFFFFFFFFFFFFFFF DUP3 GT ISZERO PUSH2 0x264 JUMPI PUSH2 0x263 PUSH2 0x19F JUMP JUMPDEST JUMPDEST PUSH2 0x26D DUP3 PUSH2 0x18F JUMP JUMPDEST SWAP1 POP PUSH1 0x20 DUP2 ADD SWAP1 POP SWAP2 SWAP1 POP JUMP JUMPDEST DUP3 DUP2 DUP4 MCOPY PUSH0 DUP4 DUP4 ADD MSTORE POP POP POP JUMP JUMPDEST PUSH0 PUSH2 0x29A PUSH2 0x295 DUP5 PUSH2 0x24A JUMP JUMPDEST PUSH2 0x1FD JUMP JUMPDEST SWAP1 POP DUP3 DUP2 MSTORE PUSH1 0x20 DUP2 ADD DUP5 DUP5 DUP5 ADD GT ISZERO PUSH2 0x2B6 JUMPI PUSH2 0x2B5 PUSH2 0x246 JUMP JUMPDEST JUMPDEST PUSH2 0x2C1 DUP5 DUP3 DUP6 PUSH2 0x27A JUMP JUMPDEST POP SWAP4 SWAP3 POP POP POP JUMP JUMPDEST PUSH0 DUP3 PUSH1 0x1F DUP4 ADD SLT PUSH2 0x2DD JUMPI PUSH2 0x2DC PUSH2 0x18B JUMP JUMPDEST JUMPDEST DUP2 MLOAD PUSH2 0x2ED DUP5 DUP3 PUSH1 0x20 DUP7 ADD PUSH2 0x288 JUMP JUMPDEST SWAP2 POP POP SWAP3 SWAP2 POP POP JUMP JUMPDEST PUSH0 PUSH2 0x308 PUSH2 0x303 DUP5 PUSH2 0x217 JUMP JUMPDEST PUSH2 0x1FD JUMP JUMPDEST SWAP1 POP DUP1 DUP4 DUP3 MSTORE PUSH1 0x20 DUP3 ADD SWAP1 POP PUSH1 0x20 DUP5 MUL DUP4 ADD DUP6 DUP2 GT ISZERO PUSH2 0x32B JUMPI PUSH2 0x32A PUSH2 0x242 JUMP JUMPDEST JUMPDEST DUP4 JUMPDEST DUP2 DUP2 LT ISZERO PUSH2 0x372 JUMPI DUP1 MLOAD PUSH8 0xFFFFFFFFFFFFFFFF DUP2 GT ISZERO PUSH2 0x350 JUMPI PUSH2 0x34F PUSH2 0x18B JUMP JUMPDEST JUMPDEST DUP1 DUP7 ADD PUSH2 0x35D DUP10 DUP3 PUSH2 0x2C9 JUMP JUMPDEST DUP6 MSTORE PUSH1 0x20 DUP6 ADD SWAP5 POP POP POP PUSH1 0x20 DUP2 ADD SWAP1 POP PUSH2 0x32D JUMP JUMPDEST POP POP POP SWAP4 SWAP3 POP POP POP JUMP JUMPDEST PUSH0 DUP3 PUSH1 0x1F DUP4 ADD SLT PUSH2 0x390 JUMPI PUSH2 0x38F PUSH2 0x18B JUMP JUMPDEST JUMPDEST DUP2 MLOAD PUSH2 0x3A0 DUP5 DUP3 PUSH1 0x20 DUP7 ADD PUSH2 0x2F6 JUMP JUMPDEST SWAP2 POP POP SWAP3 SWAP2 POP POP JUMP JUMPDEST PUSH0 DUP2 SWAP1 POP SWAP2 SWAP1 POP JUMP JUMPDEST PUSH2 0x3BB DUP2 PUSH2 0x3A9 JUMP JUMPDEST DUP2 EQ PUSH2 0x3C5 JUMPI PUSH0 PUSH0 REVERT JUMPDEST POP JUMP JUMPDEST PUSH0 DUP2 MLOAD SWAP1 POP PUSH2 0x3D6 DUP2 PUSH2 0x3B2 JUMP JUMPDEST SWAP3 SWAP2 POP POP JUMP JUMPDEST PUSH0 PUSH0 PUSH0 PUSH1 0x60 DUP5 DUP7 SUB SLT ISZERO PUSH2 0x3F3 JUMPI PUSH2 0x3F2 PUSH2 0x183 JUMP JUMPDEST JUMPDEST PUSH0 DUP5 ADD MLOAD PUSH8 0xFFFFFFFFFFFFFFFF DUP2 GT ISZERO PUSH2 0x410 JUMPI PUSH2 0x40F PUSH2 0x187 JUMP JUMPDEST JUMPDEST PUSH2 0x41C DUP7 DUP3 DUP8 ADD PUSH2 0x37C JUMP JUMPDEST SWAP4 POP POP PUSH1 0x20 PUSH2 0x42D DUP7 DUP3 DUP8 ADD PUSH2 0x3C8 JUMP JUMPDEST SWAP3 POP POP PUSH1 0x40 PUSH2 0x43E DUP7 DUP3 DUP8 ADD PUSH2 0x3C8 JUMP JUMPDEST SWAP2 POP POP SWAP3 POP SWAP3 POP SWAP3 JUMP JUMPDEST PUSH32 0x4E487B7100000000000000000000000000000000000000000000000000000000 PUSH0 MSTORE PUSH1 0x11 PUSH1 0x4 MSTORE PUSH1 0x24 PUSH0 REVERT JUMPDEST PUSH0 PUSH2 0x47F DUP3 PUSH2 0x3A9 JUMP JUMPDEST SWAP2 POP PUSH2 0x48A DUP4 PUSH2 0x3A9 JUMP JUMPDEST SWAP3 POP DUP3 DUP3 ADD SWAP1 POP DUP1 DUP3 GT ISZERO PUSH2 0x4A2 JUMPI PUSH2 0x4A1 PUSH2 0x448 JUMP JUMPDEST JUMPDEST SWAP3 SWAP2 POP POP JUMP JUMPDEST PUSH0 DUP2 MLOAD SWAP1 POP SWAP2 SWAP1 POP JUMP JUMPDEST PUSH32 0x4E487B7100000000000000000000000000000000000000000000000000000000 PUSH0 MSTORE PUSH1 0x22 PUSH1 0x4 MSTORE PUSH1 0x24 PUSH0 REVERT JUMPDEST PUSH0 PUSH1 0x2 DUP3 DIV SWAP1 POP PUSH1 0x1 DUP3 AND DUP1 PUSH2 0x4F6 JUMPI PUSH1 0x7F DUP3 AND SWAP2 POP JUMPDEST PUSH1 0x20 DUP3 LT DUP2 SUB PUSH2 0x509 JUMPI PUSH2 0x508 PUSH2 0x4B2 JUMP JUMPDEST JUMPDEST POP SWAP2 SWAP1 POP JUMP JUMPDEST PUSH0 DUP2 SWAP1 POP DUP2 PUSH0 MSTORE PUSH1 0x20 PUSH0 KECCAK256 SWAP1 POP SWAP2 SWAP1 POP JUMP JUMPDEST PUSH0 PUSH1 0x20 PUSH1 0x1F DUP4 ADD DIV SWAP1 POP SWAP2 SWAP1 POP JUMP JUMPDEST PUSH0 DUP3 DUP3 SHL SWAP1 POP SWAP3 SWAP2 POP POP JUMP JUMPDEST PUSH0 PUSH1 0x8 DUP4 MUL PUSH2 0x56B PUSH32 0xFFFFFFFFFFFFFFFFFFFFFFFFFFFFFFFFFFFFFFFFFFFFFFFFFFFFFFFFFFFFFFFF DUP3 PUSH2 0x530 JUMP JUMPDEST PUSH2 0x575 DUP7 DUP4 PUSH2 0x530 JUMP JUMPDEST SWAP6 POP DUP1 NOT DUP5 AND SWAP4 POP DUP1 DUP7 AND DUP5 OR SWAP3 POP POP POP SWAP4 SWAP3 POP POP POP JUMP JUMPDEST PUSH0 DUP2 SWAP1 POP SWAP2 SWAP1 POP JUMP JUMPDEST PUSH0 PUSH2 0x5B0 PUSH2 0x5AB PUSH2 0x5A6 DUP5 PUSH2 0x3A9 JUMP JUMPDEST PUSH2 0x58D JUMP JUMPDEST PUSH2 0x3A9 JUMP JUMPDEST SWAP1 POP SWAP2 SWAP1 POP JUMP JUMPDEST PUSH0 DUP2 SWAP1 POP SWAP2 SWAP1 POP JUMP JUMPDEST PUSH2 0x5C9 DUP4 PUSH2 0x596 JUMP JUMPDEST PUSH2 0x5DD PUSH2 0x5D5 DUP3 PUSH2 0x5B7 JUMP JUMPDEST DUP5 DUP5 SLOAD PUSH2 0x53C JUMP JUMPDEST DUP3 SSTORE POP POP POP POP JUMP JUMPDEST PUSH0 PUSH0 SWAP1 POP SWAP1 JUMP JUMPDEST PUSH2 0x5F4 PUSH2 0x5E5 JUMP JUMPDEST PUSH2 0x5FF DUP2 DUP5 DUP5 PUSH2 0x5C0 JUMP JUMPDEST POP POP POP JUMP JUMPDEST JUMPDEST DUP2 DUP2 LT ISZERO PUSH2 0x622 JUMPI PUSH2 0x617 PUSH0 DUP3 PUSH2 0x5EC JUMP JUMPDEST PUSH1 0x1 DUP2 ADD SWAP1 POP PUSH2 0x605 JUMP JUMPDEST POP POP JUMP JUMPDEST PUSH1 0x1F DUP3 GT ISZERO PUSH2 0x667 JUMPI PUSH2 0x638 DUP2 PUSH2 0x50F JUMP JUMPDEST PUSH2 0x641 DUP5 PUSH2 0x521 JUMP JUMPDEST DUP2 ADD PUSH1 0x20 DUP6 LT ISZERO PUSH2 0x650 JUMPI DUP2 SWAP1 POP JUMPDEST PUSH2 0x664 PUSH2 0x65C DUP6 PUSH2 0x521 JUMP JUMPDEST DUP4 ADD DUP3 PUSH2 0x604 JUMP JUMPDEST POP POP JUMPDEST POP POP POP JUMP JUMPDEST PUSH0 DUP3 DUP3 SHR SWAP1 POP SWAP3 SWAP2 POP POP JUMP JUMPDEST PUSH0 PUSH2 0x687 PUSH0 NOT DUP5 PUSH1 0x8 MUL PUSH2 0x66C JUMP JUMPDEST NOT DUP1 DUP4 AND SWAP2 POP POP SWAP3 SWAP2 POP POP JUMP JUMPDEST PUSH0 PUSH2 0x69F DUP4 DUP4 PUSH2 0x678 JUMP JUMPDEST SWAP2 POP DUP3 PUSH1 0x2 MUL DUP3 OR SWAP1 POP SWAP3 SWAP2 POP POP JUMP JUMPDEST PUSH2 0x6B8 DUP3 PUSH2 0x4A8 JUMP JUMPDEST PUSH8 0xFFFFFFFFFFFFFFFF DUP2 GT ISZERO PUSH2 0x6D1 JUMPI PUSH2 0x6D0 PUSH2 0x19F JUMP JUMPDEST JUMPDEST PUSH2 0x6DB DUP3 SLOAD PUSH2 0x4DF JUMP JUMPDEST PUSH2 0x6E6 DUP3 DUP3 DUP6 PUSH2 0x626 JUMP JUMPDEST PUSH0 PUSH1 0x20 SWAP1 POP PUSH1 0x1F DUP4 GT PUSH1 0x1 DUP2 EQ PUSH2 0x717 JUMPI PUSH0 DUP5 ISZERO PUSH2 0x705 JUMPI DUP3 DUP8 ADD MLOAD SWAP1 POP JUMPDEST PUSH2 0x70F DUP6 DUP3 PUSH2 0x694 JUMP JUMPDEST DUP7 SSTORE POP PUSH2 0x776 JUMP JUMPDEST PUSH1 0x1F NOT DUP5 AND PUSH2 0x725 DUP7 PUSH2 0x50F JUMP JUMPDEST PUSH0 JUMPDEST DUP3 DUP2 LT ISZERO PUSH2 0x74C JUMPI DUP5 DUP10 ADD MLOAD DUP3 SSTORE PUSH1 0x1 DUP3 ADD SWAP2 POP PUSH1 0x20 DUP6 ADD SWAP5 POP PUSH1 0x20 DUP2 ADD SWAP1 POP PUSH2 0x727 JUMP JUMPDEST DUP7 DUP4 LT ISZERO PUSH2 0x769 JUMPI DUP5 DUP10 ADD MLOAD PUSH2 0x765 PUSH1 0x1F DUP10 AND DUP3 PUSH2 0x678 JUMP JUMPDEST DUP4 SSTORE POP JUMPDEST PUSH1 0x1 PUSH1 0x2 DUP9 MUL ADD DUP9 SSTORE POP POP POP JUMPDEST POP POP POP POP POP POP JUMP JUMPDEST PUSH2 0xE3B DUP1 PUSH2 0x78B PUSH0 CODECOPY PUSH0 RETURN INVALID PUSH1 0x80 PUSH1 0x40 MSTORE CALLVALUE DUP1 ISZERO PUSH2 0xF JUMPI PUSH0 PUSH0 REVERT JUMPDEST POP PUSH1 0x4 CALLDATASIZE LT PUSH2 0x9C JUMPI PUSH0 CALLDATALOAD PUSH1 0xE0 SHR DUP1 PUSH4 0x777C3ACF GT PUSH2 0x64 JUMPI DUP1 PUSH4 0x777C3ACF EQ PUSH2 0x154 JUMPI DUP1 PUSH4 0x9E136E64 EQ PUSH2 0x172 JUMPI DUP1 PUSH4 0xAC9B9230 EQ PUSH2 0x190 JUMPI DUP1 PUSH4 0xCE606EE0 EQ PUSH2 0x1C0 JUMPI DUP1 PUSH4 0xE22B5D19 EQ PUSH2 0x1DE JUMPI PUSH2 0x9C JUMP JUMPDEST DUP1 PUSH4 0x121B93F EQ PUSH2 0xA0 JUMPI DUP1 PUSH4 0xBA237AE EQ PUSH2 0xBC JUMPI DUP1 PUSH4 0x50A6491A EQ PUSH2 0xD8 JUMPI DUP1 PUSH4 0x595156CA EQ PUSH2 0x108 JUMPI DUP1 PUSH4 0x62190150 EQ PUSH2 0x124 JUMPI JUMPDEST PUSH0 PUSH0 REVERT JUMPDEST PUSH2 0xBA PUSH1 0x4 DUP1 CALLDATASIZE SUB DUP2 ADD SWAP1 PUSH2 0xB5 SWAP2 SWAP1 PUSH2 0x8CF JUMP JUMPDEST PUSH2 0x1FC JUMP JUMPDEST STOP JUMPDEST PUSH2 0xD6 PUSH1 0x4 DUP1 CALLDATASIZE SUB DUP2 ADD SWAP1 PUSH2 0xD1 SWAP2 SWAP1 PUSH2 0x8CF JUMP JUMPDEST PUSH2 0x4C1 JUMP JUMPDEST STOP JUMPDEST PUSH2 0xF2 PUSH1 0x4 DUP1 CALLDATASIZE SUB DUP2 ADD SWAP1 PUSH2 0xED SWAP2 SWAP1 PUSH2 0x8CF JUMP JUMPDEST PUSH2 0x595 JUMP JUMPDEST PUSH1 0x40 MLOAD PUSH2 0xFF SWAP2 SWAP1 PUSH2 0x909 JUMP JUMPDEST PUSH1 0x40 MLOAD DUP1 SWAP2 SUB SWAP1 RETURN JUMPDEST PUSH2 0x122 PUSH1 0x4 DUP1 CALLDATASIZE SUB DUP2 ADD SWAP1 PUSH2 0x11D SWAP2 SWAP1 PUSH2 0x8CF JUMP JUMPDEST PUSH2 0x5AA JUMP JUMPDEST STOP JUMPDEST PUSH2 0x13E PUSH1 0x4 DUP1 CALLDATASIZE SUB DUP2 ADD SWAP1 PUSH2 0x139 SWAP2 SWAP1 PUSH2 0x97C JUMP JUMPDEST PUSH2 0x6AA JUMP JUMPDEST PUSH1 0x40 MLOAD PUSH2 0x14B SWAP2 SWAP1 PUSH2 0x9C1 JUMP JUMPDEST PUSH1 0x40 MLOAD DUP1 SWAP2 SUB SWAP1 RETURN JUMPDEST PUSH2 0x15C PUSH2 0x6C7 JUMP JUMPDEST PUSH1 0x40 MLOAD PUSH2 0x169 SWAP2 SWAP1 PUSH2 0x909 JUMP JUMPDEST PUSH1 0x40 MLOAD DUP1 SWAP2 SUB SWAP1 RETURN JUMPDEST PUSH2 0x17A PUSH2 0x6CD JUMP JUMPDEST PUSH1 0x40 MLOAD PUSH2 0x187 SWAP2 SWAP1 PUSH2 0x909 JUMP JUMPDEST PUSH1 0x40 MLOAD DUP1 SWAP2 SUB SWAP1 RETURN JUMPDEST PUSH2 0x1AA PUSH1 0x4 DUP1 CALLDATASIZE SUB DUP2 ADD SWAP1 PUSH2 0x1A5 SWAP2 SWAP1 PUSH2 0x8CF JUMP JUMPDEST PUSH2 0x6D3 JUMP JUMPDEST PUSH1 0x40 MLOAD PUSH2 0x1B7 SWAP2 SWAP1 PUSH2 0xA4A JUMP JUMPDEST PUSH1 0x40 MLOAD DUP1 SWAP2 SUB SWAP1 RETURN JUMPDEST PUSH2 0x1C8 PUSH2 0x778 JUMP JUMPDEST PUSH1 0x40 MLOAD PUSH2 0x1D5 SWAP2 SWAP1 PUSH2 0xA79 JUMP JUMPDEST PUSH1 0x40 MLOAD DUP1 SWAP2 SUB SWAP1 RETURN JUMPDEST PUSH2 0x1E6 PUSH2 0x79D JUMP JUMPDEST PUSH1 0x40 MLOAD PUSH2 0x1F3 SWAP2 SWAP1 PUSH2 0xA4A JUMP JUMPDEST PUSH1 0x40 MLOAD DUP1 SWAP2 SUB SWAP1 RETURN JUMPDEST PUSH0 ISZERO ISZERO PUSH1 0x4 PUSH0 CALLER PUSH20 0xFFFFFFFFFFFFFFFFFFFFFFFFFFFFFFFFFFFFFFFF AND PUSH20 0xFFFFFFFFFFFFFFFFFFFFFFFFFFFFFFFFFFFFFFFF AND DUP2 MSTORE PUSH1 0x20 ADD SWAP1 DUP2 MSTORE PUSH1 0x20 ADD PUSH0 KECCAK256 PUSH0 SWAP1 SLOAD SWAP1 PUSH2 0x100 EXP SWAP1 DIV PUSH1 0xFF AND ISZERO ISZERO EQ PUSH2 0x282 JUMPI PUSH1 0x40 MLOAD PUSH32 0x73D2463100000000000000000000000000000000000000000000000000000000 DUP2 MSTORE PUSH1 0x4 ADD PUSH1 0x40 MLOAD DUP1 SWAP2 SUB SWAP1 REVERT JUMPDEST PUSH0 DUP1 SLOAD SWAP1 POP DUP2 LT DUP2 PUSH0 DUP1 SLOAD SWAP1 POP SWAP1 SWAP2 PUSH2 0x2D2 JUMPI PUSH1 0x40 MLOAD PUSH32 0xCB9C86800000000000000000000000000000000000000000000000000000000 DUP2 MSTORE PUSH1 0x4 ADD PUSH2 0x2C9 SWAP3 SWAP2 SWAP1 PUSH2 0xA92 JUMP JUMPDEST PUSH1 0x40 MLOAD DUP1 SWAP2 SUB SWAP1 REVERT JUMPDEST POP POP PUSH1 0x1 DUP1 SLOAD PUSH2 0x2E2 SWAP2 SWAP1 PUSH2 0xAE6 JUMP JUMPDEST PUSH1 0x5 PUSH0 DUP4 DUP2 MSTORE PUSH1 0x20 ADD SWAP1 DUP2 MSTORE PUSH1 0x20 ADD PUSH0 KECCAK256 SLOAD GT ISZERO PUSH2 0x335 JUMPI PUSH1 0x40 MLOAD PUSH32 0x8C379A000000000000000000000000000000000000000000000000000000000 DUP2 MSTORE PUSH1 0x4 ADD PUSH2 0x32C SWAP1 PUSH2 0xB63 JUMP JUMPDEST PUSH1 0x40 MLOAD DUP1 SWAP2 SUB SWAP1 REVERT JUMPDEST PUSH1 0x3 PUSH0 SWAP1 SLOAD SWAP1 PUSH2 0x100 EXP SWAP1 DIV PUSH20 0xFFFFFFFFFFFFFFFFFFFFFFFFFFFFFFFFFFFFFFFF AND PUSH20 0xFFFFFFFFFFFFFFFFFFFFFFFFFFFFFFFFFFFFFFFF AND CALLER PUSH20 0xFFFFFFFFFFFFFFFFFFFFFFFFFFFFFFFFFFFFFFFF AND SUB PUSH2 0x3C4 JUMPI PUSH1 0x40 MLOAD PUSH32 0x8C379A000000000000000000000000000000000000000000000000000000000 DUP2 MSTORE PUSH1 0x4 ADD PUSH2 0x3BB SWAP1 PUSH2 0xBCB JUMP JUMPDEST PUSH1 0x40 MLOAD DUP1 SWAP2 SUB SWAP1 REVERT JUMPDEST PUSH1 0x2 SLOAD TIMESTAMP LT PUSH2 0x408 JUMPI PUSH1 0x40 MLOAD PUSH32 0x8C379A000000000000000000000000000000000000000000000000000000000 DUP2 MSTORE PUSH1 0x4 ADD PUSH2 0x3FF SWAP1 PUSH2 0xC33 JUMP JUMPDEST PUSH1 0x40 MLOAD DUP1 SWAP2 SUB SWAP1 REVERT JUMPDEST PUSH1 0x1 PUSH1 0x4 PUSH0 CALLER PUSH20 0xFFFFFFFFFFFFFFFFFFFFFFFFFFFFFFFFFFFFFFFF AND PUSH20 0xFFFFFFFFFFFFFFFFFFFFFFFFFFFFFFFFFFFFFFFF AND DUP2 MSTORE PUSH1 0x20 ADD SWAP1 DUP2 MSTORE PUSH1 0x20 ADD PUSH0 KECCAK256 PUSH0 PUSH2 0x100 EXP DUP2 SLOAD DUP2 PUSH1 0xFF MUL NOT AND SWAP1 DUP4 ISZERO ISZERO MUL OR SWAP1 SSTORE POP PUSH1 0x1 PUSH1 0x5 PUSH0 DUP4 DUP2 MSTORE PUSH1 0x20 ADD SWAP1 DUP2 MSTORE PUSH1 0x20 ADD PUSH0 KECCAK256 PUSH0 DUP3 DUP3 SLOAD PUSH2 0x47E SWAP2 SWAP1 PUSH2 0xC51 JUMP JUMPDEST SWAP3 POP POP DUP2 SWAP1 SSTORE POP PUSH32 0x30B0F8DCD86A031EDDB071F91882EDEAC8173663BA775713B677B42B51BE44B DUP2 CALLER PUSH1 0x40 MLOAD PUSH2 0x4B6 SWAP3 SWAP2 SWAP1 PUSH2 0xC84 JUMP JUMPDEST PUSH1 0x40 MLOAD DUP1 SWAP2 SUB SWAP1 LOG1 POP JUMP JUMPDEST PUSH1 0x3 PUSH0 SWAP1 SLOAD SWAP1 PUSH2 0x100 EXP SWAP1 DIV PUSH20 0xFFFFFFFFFFFFFFFFFFFFFFFFFFFFFFFFFFFFFFFF AND PUSH20 0xFFFFFFFFFFFFFFFFFFFFFFFFFFFFFFFFFFFFFFFF AND CALLER PUSH20 0xFFFFFFFFFFFFFFFFFFFFFFFFFFFFFFFFFFFFFFFF AND EQ PUSH2 0x547 JUMPI PUSH1 0x40 MLOAD PUSH32 0x2F4F7DC600000000000000000000000000000000000000000000000000000000 DUP2 MSTORE PUSH1 0x4 ADD PUSH1 0x40 MLOAD DUP1 SWAP2 SUB SWAP1 REVERT JUMPDEST PUSH1 0x2 SLOAD DUP2 GT PUSH2 0x58B JUMPI PUSH1 0x40 MLOAD PUSH32 0x8C379A000000000000000000000000000000000000000000000000000000000 DUP2 MSTORE PUSH1 0x4 ADD PUSH2 0x582 SWAP1 PUSH2 0xCF5 JUMP JUMPDEST PUSH1 0x40 MLOAD DUP1 SWAP2 SUB SWAP1 REVERT JUMPDEST DUP1 PUSH1 0x2 DUP2 SWAP1 SSTORE POP POP JUMP JUMPDEST PUSH1 0x5 PUSH1 0x20 MSTORE DUP1 PUSH0 MSTORE PUSH1 0x40 PUSH0 KECCAK256 PUSH0 SWAP2 POP SWAP1 POP SLOAD DUP2 JUMP JUMPDEST PUSH1 0x3 PUSH0 SWAP1 SLOAD SWAP1 PUSH2 0x100 EXP SWAP1 DIV PUSH20 0xFFFFFFFFFFFFFFFFFFFFFFFFFFFFFFFFFFFFFFFF AND PUSH20 0xFFFFFFFFFFFFFFFFFFFFFFFFFFFFFFFFFFFFFFFF AND CALLER PUSH20 0xFFFFFFFFFFFFFFFFFFFFFFFFFFFFFFFFFFFFFFFF AND EQ PUSH2 0x630 JUMPI PUSH1 0x40 MLOAD PUSH32 0x2F4F7DC600000000000000000000000000000000000000000000000000000000 DUP2 MSTORE PUSH1 0x4 ADD PUSH1 0x40 MLOAD DUP1 SWAP2 SUB SWAP1 REVERT JUMPDEST PUSH1 0x1 SLOAD DUP2 GT PUSH2 0x674 JUMPI PUSH1 0x40 MLOAD PUSH32 0x8C379A000000000000000000000000000000000000000000000000000000000 DUP2 MSTORE PUSH1 0x4 ADD PUSH2 0x66B SWAP1 PUSH2 0xD5D JUMP JUMPDEST PUSH1 0x40 MLOAD DUP1 SWAP2 SUB SWAP1 REVERT JUMPDEST DUP1 PUSH1 0x1 DUP2 SWAP1 SSTORE POP PUSH32 0xF7B2D6BA9A8895FEF9134483D60E68DB626558067EA4DF4C6D4F13FFE9DFE0D4 PUSH1 0x40 MLOAD PUSH1 0x40 MLOAD DUP1 SWAP2 SUB SWAP1 LOG1 POP JUMP JUMPDEST PUSH1 0x4 PUSH1 0x20 MSTORE DUP1 PUSH0 MSTORE PUSH1 0x40 PUSH0 KECCAK256 PUSH0 SWAP2 POP SLOAD SWAP1 PUSH2 0x100 EXP SWAP1 DIV PUSH1 0xFF AND DUP2 JUMP JUMPDEST PUSH1 0x1 SLOAD DUP2 JUMP JUMPDEST PUSH1 0x2 SLOAD DUP2 JUMP JUMPDEST PUSH0 DUP2 DUP2 SLOAD DUP2 LT PUSH2 0x6E1 JUMPI PUSH0 DUP1 REVERT JUMPDEST SWAP1 PUSH0 MSTORE PUSH1 0x20 PUSH0 KECCAK256 ADD PUSH0 SWAP2 POP SWAP1 POP DUP1 SLOAD PUSH2 0x6F9 SWAP1 PUSH2 0xDA8 JUMP JUMPDEST DUP1 PUSH1 0x1F ADD PUSH1 0x20 DUP1 SWAP2 DIV MUL PUSH1 0x20 ADD PUSH1 0x40 MLOAD SWAP1 DUP2 ADD PUSH1 0x40 MSTORE DUP1 SWAP3 SWAP2 SWAP1 DUP2 DUP2 MSTORE PUSH1 0x20 ADD DUP3 DUP1 SLOAD PUSH2 0x725 SWAP1 PUSH2 0xDA8 JUMP JUMPDEST DUP1 ISZERO PUSH2 0x770 JUMPI DUP1 PUSH1 0x1F LT PUSH2 0x747 JUMPI PUSH2 0x100 DUP1 DUP4 SLOAD DIV MUL DUP4 MSTORE SWAP2 PUSH1 0x20 ADD SWAP2 PUSH2 0x770 JUMP JUMPDEST DUP3 ADD SWAP2 SWAP1 PUSH0 MSTORE PUSH1 0x20 PUSH0 KECCAK256 SWAP1 JUMPDEST DUP2 SLOAD DUP2 MSTORE SWAP1 PUSH1 0x1 ADD SWAP1 PUSH1 0x20 ADD DUP1 DUP4 GT PUSH2 0x753 JUMPI DUP3 SWAP1 SUB PUSH1 0x1F AND DUP3 ADD SWAP2 JUMPDEST POP POP POP POP POP DUP2 JUMP JUMPDEST PUSH1 0x3 PUSH0 SWAP1 SLOAD SWAP1 PUSH2 0x100 EXP SWAP1 DIV PUSH20 0xFFFFFFFFFFFFFFFFFFFFFFFFFFFFFFFFFFFFFFFF AND DUP2 JUMP JUMPDEST PUSH1 0x60 PUSH0 PUSH0 SWAP1 POP PUSH0 PUSH0 SWAP1 POP JUMPDEST PUSH0 DUP1 SLOAD SWAP1 POP DUP2 LT ISZERO PUSH2 0x7EF JUMPI PUSH1 0x5 PUSH0 DUP4 DUP2 MSTORE PUSH1 0x20 ADD SWAP1 DUP2 MSTORE PUSH1 0x20 ADD PUSH0 KECCAK256 SLOAD PUSH1 0x5 PUSH0 DUP4 DUP2 MSTORE PUSH1 0x20 ADD SWAP1 DUP2 MSTORE PUSH1 0x20 ADD PUSH0 KECCAK256 SLOAD GT ISZERO PUSH2 0x7E2 JUMPI DUP1 SWAP2 POP JUMPDEST DUP1 DUP1 PUSH1 0x1 ADD SWAP2 POP POP PUSH2 0x7A8 JUMP JUMPDEST POP PUSH0 DUP2 DUP2 SLOAD DUP2 LT PUSH2 0x803 JUMPI PUSH2 0x802 PUSH2 0xDD8 JUMP JUMPDEST JUMPDEST SWAP1 PUSH0 MSTORE PUSH1 0x20 PUSH0 KECCAK256 ADD DUP1 SLOAD PUSH2 0x816 SWAP1 PUSH2 0xDA8 JUMP JUMPDEST DUP1 PUSH1 0x1F ADD PUSH1 0x20 DUP1 SWAP2 DIV MUL PUSH1 0x20 ADD PUSH1 0x40 MLOAD SWAP1 DUP2 ADD PUSH1 0x40 MSTORE DUP1 SWAP3 SWAP2 SWAP1 DUP2 DUP2 MSTORE PUSH1 0x20 ADD DUP3 DUP1 SLOAD PUSH2 0x842 SWAP1 PUSH2 0xDA8 JUMP JUMPDEST DUP1 ISZERO PUSH2 0x88D JUMPI DUP1 PUSH1 0x1F LT PUSH2 0x864 JUMPI PUSH2 0x100 DUP1 DUP4 SLOAD DIV MUL DUP4 MSTORE SWAP2 PUSH1 0x20 ADD SWAP2 PUSH2 0x88D JUMP JUMPDEST DUP3 ADD SWAP2 SWAP1 PUSH0 MSTORE PUSH1 0x20 PUSH0 KECCAK256 SWAP1 JUMPDEST DUP2 SLOAD DUP2 MSTORE SWAP1 PUSH1 0x1 ADD SWAP1 PUSH1 0x20 ADD DUP1 DUP4 GT PUSH2 0x870 JUMPI DUP3 SWAP1 SUB PUSH1 0x1F AND DUP3 ADD SWAP2 JUMPDEST POP POP POP POP POP SWAP2 POP POP SWAP1 JUMP JUMPDEST PUSH0 PUSH0 REVERT JUMPDEST PUSH0 DUP2 SWAP1 POP SWAP2 SWAP1 POP JUMP JUMPDEST PUSH2 0x8AE DUP2 PUSH2 0x89C JUMP JUMPDEST DUP2 EQ PUSH2 0x8B8 JUMPI PUSH0 PUSH0 REVERT JUMPDEST POP JUMP JUMPDEST PUSH0 DUP2 CALLDATALOAD SWAP1 POP PUSH2 0x8C9 DUP2 PUSH2 0x8A5 JUMP JUMPDEST SWAP3 SWAP2 POP POP JUMP JUMPDEST PUSH0 PUSH1 0x20 DUP3 DUP5 SUB SLT ISZERO PUSH2 0x8E4 JUMPI PUSH2 0x8E3 PUSH2 0x898 JUMP JUMPDEST JUMPDEST PUSH0 PUSH2 0x8F1 DUP5 DUP3 DUP6 ADD PUSH2 0x8BB JUMP JUMPDEST SWAP2 POP POP SWAP3 SWAP2 POP POP JUMP JUMPDEST PUSH2 0x903 DUP2 PUSH2 0x89C JUMP JUMPDEST DUP3 MSTORE POP POP JUMP JUMPDEST PUSH0 PUSH1 0x20 DUP3 ADD SWAP1 POP PUSH2 0x91C PUSH0 DUP4 ADD DUP5 PUSH2 0x8FA JUMP JUMPDEST SWAP3 SWAP2 POP POP JUMP JUMPDEST PUSH0 PUSH20 0xFFFFFFFFFFFFFFFFFFFFFFFFFFFFFFFFFFFFFFFF DUP3 AND SWAP1 POP SWAP2 SWAP1 POP JUMP JUMPDEST PUSH0 PUSH2 0x94B DUP3 PUSH2 0x922 JUMP JUMPDEST SWAP1 POP SWAP2 SWAP1 POP JUMP JUMPDEST PUSH2 0x95B DUP2 PUSH2 0x941 JUMP JUMPDEST DUP2 EQ PUSH2 0x965 JUMPI PUSH0 PUSH0 REVERT JUMPDEST POP JUMP JUMPDEST PUSH0 DUP2 CALLDATALOAD SWAP1 POP PUSH2 0x976 DUP2 PUSH2 0x952 JUMP JUMPDEST SWAP3 SWAP2 POP POP JUMP JUMPDEST PUSH0 PUSH1 0x20 DUP3 DUP5 SUB SLT ISZERO PUSH2 0x991 JUMPI PUSH2 0x990 PUSH2 0x898 JUMP JUMPDEST JUMPDEST PUSH0 PUSH2 0x99E DUP5 DUP3 DUP6 ADD PUSH2 0x968 JUMP JUMPDEST SWAP2 POP POP SWAP3 SWAP2 POP POP JUMP JUMPDEST PUSH0 DUP2 ISZERO ISZERO SWAP1 POP SWAP2 SWAP1 POP JUMP JUMPDEST PUSH2 0x9BB DUP2 PUSH2 0x9A7 JUMP JUMPDEST DUP3 MSTORE POP POP JUMP JUMPDEST PUSH0 PUSH1 0x20 DUP3 ADD SWAP1 POP PUSH2 0x9D4 PUSH0 DUP4 ADD DUP5 PUSH2 0x9B2 JUMP JUMPDEST SWAP3 SWAP2 POP POP JUMP JUMPDEST PUSH0 DUP2 MLOAD SWAP1 POP SWAP2 SWAP1 POP JUMP JUMPDEST PUSH0 DUP3 DUP3 MSTORE PUSH1 0x20 DUP3 ADD SWAP1 POP SWAP3 SWAP2 POP POP JUMP JUMPDEST DUP3 DUP2 DUP4 MCOPY PUSH0 DUP4 DUP4 ADD MSTORE POP POP POP JUMP JUMPDEST PUSH0 PUSH1 0x1F NOT PUSH1 0x1F DUP4 ADD AND SWAP1 POP SWAP2 SWAP1 POP JUMP JUMPDEST PUSH0 PUSH2 0xA1C DUP3 PUSH2 0x9DA JUMP JUMPDEST PUSH2 0xA26 DUP2 DUP6 PUSH2 0x9E4 JUMP JUMPDEST SWAP4 POP PUSH2 0xA36 DUP2 DUP6 PUSH1 0x20 DUP7 ADD PUSH2 0x9F4 JUMP JUMPDEST PUSH2 0xA3F DUP2 PUSH2 0xA02 JUMP JUMPDEST DUP5 ADD SWAP2 POP POP SWAP3 SWAP2 POP POP JUMP JUMPDEST PUSH0 PUSH1 0x20 DUP3 ADD SWAP1 POP DUP2 DUP2 SUB PUSH0 DUP4 ADD MSTORE PUSH2 0xA62 DUP2 DUP5 PUSH2 0xA12 JUMP JUMPDEST SWAP1 POP SWAP3 SWAP2 POP POP JUMP JUMPDEST PUSH2 0xA73 DUP2 PUSH2 0x941 JUMP JUMPDEST DUP3 MSTORE POP POP JUMP JUMPDEST PUSH0 PUSH1 0x20 DUP3 ADD SWAP1 POP PUSH2 0xA8C PUSH0 DUP4 ADD DUP5 PUSH2 0xA6A JUMP JUMPDEST SWAP3 SWAP2 POP POP JUMP JUMPDEST PUSH0 PUSH1 0x40 DUP3 ADD SWAP1 POP PUSH2 0xAA5 PUSH0 DUP4 ADD DUP6 PUSH2 0x8FA JUMP JUMPDEST PUSH2 0xAB2 PUSH1 0x20 DUP4 ADD DUP5 PUSH2 0x8FA JUMP JUMPDEST SWAP4 SWAP3 POP POP POP JUMP JUMPDEST PUSH32 0x4E487B7100000000000000000000000000000000000000000000000000000000 PUSH0 MSTORE PUSH1 0x11 PUSH1 0x4 MSTORE PUSH1 0x24 PUSH0 REVERT JUMPDEST PUSH0 PUSH2 0xAF0 DUP3 PUSH2 0x89C JUMP JUMPDEST SWAP2 POP PUSH2 0xAFB DUP4 PUSH2 0x89C JUMP JUMPDEST SWAP3 POP DUP3 DUP3 SUB SWAP1 POP DUP2 DUP2 GT ISZERO PUSH2 0xB13 JUMPI PUSH2 0xB12 PUSH2 0xAB9 JUMP JUMPDEST JUMPDEST SWAP3 SWAP2 POP POP JUMP JUMPDEST PUSH32 0x4D617820566F7465730000000000000000000000000000000000000000000000 PUSH0 DUP3 ADD MSTORE POP JUMP JUMPDEST PUSH0 PUSH2 0xB4D PUSH1 0x9 DUP4 PUSH2 0x9E4 JUMP JUMPDEST SWAP2 POP PUSH2 0xB58 DUP3 PUSH2 0xB19 JUMP JUMPDEST PUSH1 0x20 DUP3 ADD SWAP1 POP SWAP2 SWAP1 POP JUMP JUMPDEST PUSH0 PUSH1 0x20 DUP3 ADD SWAP1 POP DUP2 DUP2 SUB PUSH0 DUP4 ADD MSTORE PUSH2 0xB7A DUP2 PUSH2 0xB41 JUMP JUMPDEST SWAP1 POP SWAP2 SWAP1 POP JUMP JUMPDEST PUSH32 0x436F6E7472616374206F776E65722063616E277420766F746500000000000000 PUSH0 DUP3 ADD MSTORE POP JUMP JUMPDEST PUSH0 PUSH2 0xBB5 PUSH1 0x19 DUP4 PUSH2 0x9E4 JUMP JUMPDEST SWAP2 POP PUSH2 0xBC0 DUP3 PUSH2 0xB81 JUMP JUMPDEST PUSH1 0x20 DUP3 ADD SWAP1 POP SWAP2 SWAP1 POP JUMP JUMPDEST PUSH0 PUSH1 0x20 DUP3 ADD SWAP1 POP DUP2 DUP2 SUB PUSH0 DUP4 ADD MSTORE PUSH2 0xBE2 DUP2 PUSH2 0xBA9 JUMP JUMPDEST SWAP1 POP SWAP2 SWAP1 POP JUMP JUMPDEST PUSH32 0x566F74696E67206973206F766572000000000000000000000000000000000000 PUSH0 DUP3 ADD MSTORE POP JUMP JUMPDEST PUSH0 PUSH2 0xC1D PUSH1 0xE DUP4 PUSH2 0x9E4 JUMP JUMPDEST SWAP2 POP PUSH2 0xC28 DUP3 PUSH2 0xBE9 JUMP JUMPDEST PUSH1 0x20 DUP3 ADD SWAP1 POP SWAP2 SWAP1 POP JUMP JUMPDEST PUSH0 PUSH1 0x20 DUP3 ADD SWAP1 POP DUP2 DUP2 SUB PUSH0 DUP4 ADD MSTORE PUSH2 0xC4A DUP2 PUSH2 0xC11 JUMP JUMPDEST SWAP1 POP SWAP2 SWAP1 POP JUMP JUMPDEST PUSH0 PUSH2 0xC5B DUP3 PUSH2 0x89C JUMP JUMPDEST SWAP2 POP PUSH2 0xC66 DUP4 PUSH2 0x89C JUMP JUMPDEST SWAP3 POP DUP3 DUP3 ADD SWAP1 POP DUP1 DUP3 GT ISZERO PUSH2 0xC7E JUMPI PUSH2 0xC7D PUSH2 0xAB9 JUMP JUMPDEST JUMPDEST SWAP3 SWAP2 POP POP JUMP JUMPDEST PUSH0 PUSH1 0x40 DUP3 ADD SWAP1 POP PUSH2 0xC97 PUSH0 DUP4 ADD DUP6 PUSH2 0x8FA JUMP JUMPDEST PUSH2 0xCA4 PUSH1 0x20 DUP4 ADD DUP5 PUSH2 0xA6A JUMP JUMPDEST SWAP4 SWAP3 POP POP POP JUMP JUMPDEST PUSH32 0x456C656374696F6E2074696D652063616E277420646563726561736500000000 PUSH0 DUP3 ADD MSTORE POP JUMP JUMPDEST PUSH0 PUSH2 0xCDF PUSH1 0x1C DUP4 PUSH2 0x9E4 JUMP JUMPDEST SWAP2 POP PUSH2 0xCEA DUP3 PUSH2 0xCAB JUMP JUMPDEST PUSH1 0x20 DUP3 ADD SWAP1 POP SWAP2 SWAP1 POP JUMP JUMPDEST PUSH0 PUSH1 0x20 DUP3 ADD SWAP1 POP DUP2 DUP2 SUB PUSH0 DUP4 ADD MSTORE PUSH2 0xD0C DUP2 PUSH2 0xCD3 JUMP JUMPDEST SWAP1 POP SWAP2 SWAP1 POP JUMP JUMPDEST PUSH32 0x4D617820766F7465732063616E27742064656372656173650000000000000000 PUSH0 DUP3 ADD MSTORE POP JUMP JUMPDEST PUSH0 PUSH2 0xD47 PUSH1 0x18 DUP4 PUSH2 0x9E4 JUMP JUMPDEST SWAP2 POP PUSH2 0xD52 DUP3 PUSH2 0xD13 JUMP JUMPDEST PUSH1 0x20 DUP3 ADD SWAP1 POP SWAP2 SWAP1 POP JUMP JUMPDEST PUSH0 PUSH1 0x20 DUP3 ADD SWAP1 POP DUP2 DUP2 SUB PUSH0 DUP4 ADD MSTORE PUSH2 0xD74 DUP2 PUSH2 0xD3B JUMP JUMPDEST SWAP1 POP SWAP2 SWAP1 POP JUMP JUMPDEST PUSH32 0x4E487B7100000000000000000000000000000000000000000000000000000000 PUSH0 MSTORE PUSH1 0x22 PUSH1 0x4 MSTORE PUSH1 0x24 PUSH0 REVERT JUMPDEST PUSH0 PUSH1 0x2 DUP3 DIV SWAP1 POP PUSH1 0x1 DUP3 AND DUP1 PUSH2 0xDBF JUMPI PUSH1 0x7F DUP3 AND SWAP2 POP JUMPDEST PUSH1 0x20 DUP3 LT DUP2 SUB PUSH2 0xDD2 JUMPI PUSH2 0xDD1 PUSH2 0xD7B JUMP JUMPDEST JUMPDEST POP SWAP2 SWAP1 POP JUMP JUMPDEST PUSH32 0x4E487B7100000000000000000000000000000000000000000000000000000000 PUSH0 MSTORE PUSH1 0x32 PUSH1 0x4 MSTORE PUSH1 0x24 PUSH0 REVERT INVALID LOG2 PUSH5 0x6970667358 0x22 SLT KECCAK256 0xB0 PUSH19 0x8C470E1A11B0FDEC7E8E47988DEB325CAE6955 DUP14 SAR PUSH12 0x7609B8471F75FAA164736F6C PUSH4 0x4300081F STOP CALLER "
				},
				"gasEstimates": {
					"creation": {
						"codeDepositCost": "728600",
						"executionCost": "infinite",
						"totalCost": "infinite"
					},
					"external": {
						"contractOwner()": "2574",
						"electionEndTime()": "2447",
						"electionResult()": "infinite",
						"electors(uint256)": "infinite",
						"maxVotes()": "2425",
						"resetElectionTime(uint256)": "26830",
						"resetMaxVotes(uint256)": "27651",
						"userVotes(address)": "2922",
						"vote(uint256)": "infinite",
						"votesCount(uint256)": "infinite"
					}
				},
				"methodIdentifiers": {
					"contractOwner()": "ce606ee0",
					"electionEndTime()": "9e136e64",
					"electionResult()": "e22b5d19",
					"electors(uint256)": "ac9b9230",
					"maxVotes()": "777c3acf",
					"resetElectionTime(uint256)": "0ba237ae",
					"resetMaxVotes(uint256)": "595156ca",
					"userVotes(address)": "62190150",
					"vote(uint256)": "0121b93f",
					"votesCount(uint256)": "50a6491a"
				}
			},
			"storageLayout": {
				"storage": [
					{
						"astId": 184,
						"contract": "base.sol:Election",
						"label": "electors",
						"offset": 0,
						"slot": "0",
						"type": "t_array(t_string_storage)dyn_storage"
					},
					{
						"astId": 186,
						"contract": "base.sol:Election",
						"label": "maxVotes",
						"offset": 0,
						"slot": "1",
						"type": "t_uint256"
					},
					{
						"astId": 188,
						"contract": "base.sol:Election",
						"label": "electionEndTime",
						"offset": 0,
						"slot": "2",
						"type": "t_uint256"
					},
					{
						"astId": 190,
						"contract": "base.sol:Election",
						"label": "contractOwner",
						"offset": 0,
						"slot": "3",
						"type": "t_address"
					},
					{
						"astId": 194,
						"contract": "base.sol:Election",
						"label": "userVotes",
						"offset": 0,
						"slot": "4",
						"type": "t_mapping(t_address,t_bool)"
					},
					{
						"astId": 198,
						"contract": "base.sol:Election",
						"label": "votesCount",
						"offset": 0,
						"slot": "5",
						"type": "t_mapping(t_uint256,t_uint256)"
					}
				],
				"types": {
					"t_address": {
						"encoding": "inplace",
						"label": "address",
						"numberOfBytes": "20"
					},
					"t_array(t_string_storage)dyn_storage": {
						"base": "t_string_storage",
						"encoding": "dynamic_array",
						"label": "string[]",
						"numberOfBytes": "32"
					},
					"t_bool": {
						"encoding": "inplace",
						"label": "bool",
						"numberOfBytes": "1"
					},
					"t_mapping(t_address,t_bool)": {
						"encoding": "mapping",
						"key": "t_address",
						"label": "mapping(address => bool)",
						"numberOfBytes": "32",
						"value": "t_bool"
					},
					"t_mapping(t_uint256,t_uint256)": {
						"encoding": "mapping",
						"key": "t_uint256",
						"label": "mapping(uint256 => uint256)",
						"numberOfBytes": "32",
						"value": "t_uint256"
					},
					"t_string_storage": {
						"encoding": "bytes",
						"label": "string",
						"numberOfBytes": "32"
					},
					"t_uint256": {
						"encoding": "inplace",
						"label": "uint256",
						"numberOfBytes": "32"
					}
				}
			},
			"userdoc": {
				"kind": "user",
				"methods": {},
				"version": 1
			}
		}
	}
}