{
	"base.sol": {
		"Store": {
			"abi": [
				{
					"inputs": [],
					"stateMutability": "nonpayable",
					"type": "constructor"
				},
				{
					"inputs": [
						{
							"internalType": "address",
							"name": "owner",
							"type": "address"
						}
					],
					"name": "OwnableInvalidOwner",
					"type": "error"
				},
				{
					"inputs": [
						{
							"internalType": "address",
							"name": "account",
							"type": "address"
						}
					],
					"name": "OwnableUnauthorizedAccount",
					"type": "error"
				},
				{
					"anonymous": false,
					"inputs": [
						{
							"indexed": true,
							"internalType": "address",
							"name": "previousOwner",
							"type": "address"
						},
						{
							"indexed": true,
							"internalType": "address",
							"name": "newOwner",
							"type": "address"
						}
					],
					"name": "OwnershipTransferred",
					"type": "event"
				},
				{
					"inputs": [
						{
							"internalType": "string",
							"name": "_name",
							"type": "string"
						},
						{
							"internalType": "uint256",
							"name": "_stock",
							"type": "uint256"
						},
						{
							"internalType": "uint256",
							"name": "_id",
							"type": "uint256"
						}
					],
					"name": "addProduct",
					"outputs": [],
					"stateMutability": "nonpayable",
					"type": "function"
				},
				{
					"inputs": [],
					"name": "getTimestamp",
					"outputs": [
						{
							"internalType": "uint256",
							"name": "",
							"type": "uint256"
						}
					],
					"stateMutability": "view",
					"type": "function"
				},
				{
					"inputs": [],
					"name": "owner",
					"outputs": [
						{
							"internalType": "address",
							"name": "",
							"type": "address"
						}
					],
					"stateMutability": "view",
					"type": "function"
				},
				{
					"inputs": [
						{
							"internalType": "uint256",
							"name": "",
							"type": "uint256"
						}
					],
					"name": "products",
					"outputs": [
						{
							"internalType": "string",
							"name": "name",
							"type": "string"
						},
						{
							"internalType": "uint256",
							"name": "stock",
							"type": "uint256"
						},
						{
							"internalType": "uint256",
							"name": "id",
							"type": "uint256"
						}
					],
					"stateMutability": "view",
					"type": "function"
				},
				{
					"inputs": [],
					"name": "renounceOwnership",
					"outputs": [],
					"stateMutability": "nonpayable",
					"type": "function"
				},
				{
					"inputs": [
						{
							"internalType": "address",
							"name": "newOwner",
							"type": "address"
						}
					],
					"name": "transferOwnership",
					"outputs": [],
					"stateMutability": "nonpayable",
					"type": "function"
				}
			],
			"devdoc": {
				"errors": {
					"OwnableInvalidOwner(address)": [
						{
							"details": "The owner is not a valid owner account. (eg. `address(0)`)"
						}
					],
					"OwnableUnauthorizedAccount(address)": [
						{
							"details": "The caller account is not authorized to perform an operation."
						}
					]
				},
				"kind": "dev",
				"methods": {
					"owner()": {
						"details": "Returns the address of the current owner."
					},
					"renounceOwnership()": {
						"details": "Leaves the contract without owner. It will not be possible to call `onlyOwner` functions. Can only be called by the current owner. NOTE: Renouncing ownership will leave the contract without an owner, thereby disabling any functionality that is only available to the owner."
					},
					"transferOwnership(address)": {
						"details": "Transfers ownership of the contract to a new account (`newOwner`). Can only be called by the current owner."
					}
				},
				"version": 1
			},
			"evm": {
				"assembly": "    /* \"base.sol\":2958:3430  contract Store is Ownable {... */\n  mstore(0x40, 0x80)\n    /* \"base.sol\":3121:3157  constructor() Ownable(msg.sender) {} */\n  callvalue\n  dup1\n  iszero\n  tag_1\n  jumpi\n  revert(0x00, 0x00)\ntag_1:\n  pop\n    /* \"base.sol\":3143:3153  msg.sender */\n  caller\n    /* \"@openzeppelin/contracts/access/Ownable.sol\":1297:1298  0 */\n  0x00\n    /* \"@openzeppelin/contracts/access/Ownable.sol\":1273:1299  initialOwner == address(0) */\n  0xffffffffffffffffffffffffffffffffffffffff\n  and\n    /* \"@openzeppelin/contracts/access/Ownable.sol\":1273:1285  initialOwner */\n  dup2\n    /* \"@openzeppelin/contracts/access/Ownable.sol\":1273:1299  initialOwner == address(0) */\n  0xffffffffffffffffffffffffffffffffffffffff\n  and\n  sub\n    /* \"@openzeppelin/contracts/access/Ownable.sol\":1269:1364  if (initialOwner == address(0)) {... */\n  tag_5\n  jumpi\n    /* \"@openzeppelin/contracts/access/Ownable.sol\":1350:1351  0 */\n  0x00\n    /* \"@openzeppelin/contracts/access/Ownable.sol\":1322:1353  OwnableInvalidOwner(address(0)) */\n  mload(0x40)\n  0x1e4fbdf700000000000000000000000000000000000000000000000000000000\n  dup2\n  mstore\n  0x04\n  add\n  tag_6\n  swap2\n  swap1\n  tag_7\n  jump\t// in\ntag_6:\n  mload(0x40)\n  dup1\n  swap2\n  sub\n  swap1\n  revert\n    /* \"@openzeppelin/contracts/access/Ownable.sol\":1269:1364  if (initialOwner == address(0)) {... */\ntag_5:\n    /* \"@openzeppelin/contracts/access/Ownable.sol\":1373:1405  _transferOwnership(initialOwner) */\n  tag_8\n    /* \"@openzeppelin/contracts/access/Ownable.sol\":1392:1404  initialOwner */\n  dup2\n    /* \"@openzeppelin/contracts/access/Ownable.sol\":1373:1391  _transferOwnership */\n  shl(0x20, tag_9)\n    /* \"@openzeppelin/contracts/access/Ownable.sol\":1373:1405  _transferOwnership(initialOwner) */\n  0x20\n  shr\n  jump\t// in\ntag_8:\n    /* \"@openzeppelin/contracts/access/Ownable.sol\":1225:1412  constructor(address initialOwner) {... */\n  pop\n    /* \"base.sol\":2958:3430  contract Store is Ownable {... */\n  jump(tag_11)\n    /* \"@openzeppelin/contracts/access/Ownable.sol\":2912:3099  function _transferOwnership(address newOwner) internal virtual {... */\ntag_9:\n    /* \"@openzeppelin/contracts/access/Ownable.sol\":2985:3001  address oldOwner */\n  0x00\n    /* \"@openzeppelin/contracts/access/Ownable.sol\":3004:3010  _owner */\n  0x00\n  0x00\n  swap1\n  sload\n  swap1\n  0x0100\n  exp\n  swap1\n  div\n  0xffffffffffffffffffffffffffffffffffffffff\n  and\n    /* \"@openzeppelin/contracts/access/Ownable.sol\":2985:3010  address oldOwner = _owner */\n  swap1\n  pop\n    /* \"@openzeppelin/contracts/access/Ownable.sol\":3029:3037  newOwner */\n  dup2\n    /* \"@openzeppelin/contracts/access/Ownable.sol\":3020:3026  _owner */\n  0x00\n  0x00\n    /* \"@openzeppelin/contracts/access/Ownable.sol\":3020:3037  _owner = newOwner */\n  0x0100\n  exp\n  dup2\n  sload\n  dup2\n  0xffffffffffffffffffffffffffffffffffffffff\n  mul\n  not\n  and\n  swap1\n  dup4\n  0xffffffffffffffffffffffffffffffffffffffff\n  and\n  mul\n  or\n  swap1\n  sstore\n  pop\n    /* \"@openzeppelin/contracts/access/Ownable.sol\":3083:3091  newOwner */\n  dup2\n    /* \"@openzeppelin/contracts/access/Ownable.sol\":3052:3092  OwnershipTransferred(oldOwner, newOwner) */\n  0xffffffffffffffffffffffffffffffffffffffff\n  and\n    /* \"@openzeppelin/contracts/access/Ownable.sol\":3073:3081  oldOwner */\n  dup2\n    /* \"@openzeppelin/contracts/access/Ownable.sol\":3052:3092  OwnershipTransferred(oldOwner, newOwner) */\n  0xffffffffffffffffffffffffffffffffffffffff\n  and\n  0x8be0079c531659141344cd1fd0a4f28419497f9722a3daafe3b4186f6b6457e0\n  mload(0x40)\n  mload(0x40)\n  dup1\n  swap2\n  sub\n  swap1\n  log3\n    /* \"@openzeppelin/contracts/access/Ownable.sol\":2975:3099  {... */\n  pop\n    /* \"@openzeppelin/contracts/access/Ownable.sol\":2912:3099  function _transferOwnership(address newOwner) internal virtual {... */\n  pop\n  jump\t// out\n    /* \"#utility.yul\":7:133   */\ntag_13:\n    /* \"#utility.yul\":44:51   */\n  0x00\n    /* \"#utility.yul\":84:126   */\n  0xffffffffffffffffffffffffffffffffffffffff\n    /* \"#utility.yul\":77:82   */\n  dup3\n    /* \"#utility.yul\":73:127   */\n  and\n    /* \"#utility.yul\":62:127   */\n  swap1\n  pop\n    /* \"#utility.yul\":7:133   */\n  swap2\n  swap1\n  pop\n  jump\t// out\n    /* \"#utility.yul\":139:235   */\ntag_14:\n    /* \"#utility.yul\":176:183   */\n  0x00\n    /* \"#utility.yul\":205:229   */\n  tag_19\n    /* \"#utility.yul\":223:228   */\n  dup3\n    /* \"#utility.yul\":205:229   */\n  tag_13\n  jump\t// in\ntag_19:\n    /* \"#utility.yul\":194:229   */\n  swap1\n  pop\n    /* \"#utility.yul\":139:235   */\n  swap2\n  swap1\n  pop\n  jump\t// out\n    /* \"#utility.yul\":241:359   */\ntag_15:\n    /* \"#utility.yul\":328:352   */\n  tag_21\n    /* \"#utility.yul\":346:351   */\n  dup2\n    /* \"#utility.yul\":328:352   */\n  tag_14\n  jump\t// in\ntag_21:\n    /* \"#utility.yul\":323:326   */\n  dup3\n    /* \"#utility.yul\":316:353   */\n  mstore\n    /* \"#utility.yul\":241:359   */\n  pop\n  pop\n  jump\t// out\n    /* \"#utility.yul\":365:587   */\ntag_7:\n    /* \"#utility.yul\":458:462   */\n  0x00\n    /* \"#utility.yul\":496:498   */\n  0x20\n    /* \"#utility.yul\":485:494   */\n  dup3\n    /* \"#utility.yul\":481:499   */\n  add\n    /* \"#utility.yul\":473:499   */\n  swap1\n  pop\n    /* \"#utility.yul\":509:580   */\n  tag_23\n    /* \"#utility.yul\":577:578   */\n  0x00\n    /* \"#utility.yul\":566:575   */\n  dup4\n    /* \"#utility.yul\":562:579   */\n  add\n    /* \"#utility.yul\":553:559   */\n  dup5\n    /* \"#utility.yul\":509:580   */\n  tag_15\n  jump\t// in\ntag_23:\n    /* \"#utility.yul\":365:587   */\n  swap3\n  swap2\n  pop\n  pop\n  jump\t// out\n    /* \"base.sol\":2958:3430  contract Store is Ownable {... */\ntag_11:\n  dataSize(sub_0)\n  dup1\n  dataOffset(sub_0)\n  0x00\n  codecopy\n  0x00\n  return\nstop\n\nsub_0: assembly {\n        /* \"base.sol\":2958:3430  contract Store is Ownable {... */\n      mstore(0x40, 0x80)\n      callvalue\n      dup1\n      iszero\n      tag_1\n      jumpi\n      revert(0x00, 0x00)\n    tag_1:\n      pop\n      jumpi(tag_2, lt(calldatasize, 0x04))\n      shr(0xe0, calldataload(0x00))\n      dup1\n      0x125b0b34\n      eq\n      tag_3\n      jumpi\n      dup1\n      0x188ec356\n      eq\n      tag_4\n      jumpi\n      dup1\n      0x715018a6\n      eq\n      tag_5\n      jumpi\n      dup1\n      0x7acc0b20\n      eq\n      tag_6\n      jumpi\n      dup1\n      0x8da5cb5b\n      eq\n      tag_7\n      jumpi\n      dup1\n      0xf2fde38b\n      eq\n      tag_8\n      jumpi\n    tag_2:\n      revert(0x00, 0x00)\n        /* \"base.sol\":3165:3315  function addProduct(string memory _name, uint256 _stock, uint256 _id) external onlyOwner {... */\n    tag_3:\n      tag_9\n      0x04\n      dup1\n      calldatasize\n      sub\n      dup2\n      add\n      swap1\n      tag_10\n      swap2\n      swap1\n      tag_11\n      jump\t// in\n    tag_10:\n      tag_12\n      jump\t// in\n    tag_9:\n      stop\n        /* \"base.sol\":3323:3427  function getTimestamp() public view onlyOwner returns(uint256) {... */\n    tag_4:\n      tag_13\n      tag_14\n      jump\t// in\n    tag_13:\n      mload(0x40)\n      tag_15\n      swap2\n      swap1\n      tag_16\n      jump\t// in\n    tag_15:\n      mload(0x40)\n      dup1\n      swap2\n      sub\n      swap1\n      return\n        /* \"@openzeppelin/contracts/access/Ownable.sol\":2293:2394  function renounceOwnership() public virtual onlyOwner {... */\n    tag_5:\n      tag_17\n      tag_18\n      jump\t// in\n    tag_17:\n      stop\n        /* \"base.sol\":3087:3112  Product[] public products */\n    tag_6:\n      tag_19\n      0x04\n      dup1\n      calldatasize\n      sub\n      dup2\n      add\n      swap1\n      tag_20\n      swap2\n      swap1\n      tag_21\n      jump\t// in\n    tag_20:\n      tag_22\n      jump\t// in\n    tag_19:\n      mload(0x40)\n      tag_23\n      swap4\n      swap3\n      swap2\n      swap1\n      tag_24\n      jump\t// in\n    tag_23:\n      mload(0x40)\n      dup1\n      swap2\n      sub\n      swap1\n      return\n        /* \"@openzeppelin/contracts/access/Ownable.sol\":1638:1723  function owner() public view virtual returns (address) {... */\n    tag_7:\n      tag_25\n      tag_26\n      jump\t// in\n    tag_25:\n      mload(0x40)\n      tag_27\n      swap2\n      swap1\n      tag_28\n      jump\t// in\n    tag_27:\n      mload(0x40)\n      dup1\n      swap2\n      sub\n      swap1\n      return\n        /* \"@openzeppelin/contracts/access/Ownable.sol\":2543:2758  function transferOwnership(address newOwner) public virtual onlyOwner {... */\n    tag_8:\n      tag_29\n      0x04\n      dup1\n      calldatasize\n      sub\n      dup2\n      add\n      swap1\n      tag_30\n      swap2\n      swap1\n      tag_31\n      jump\t// in\n    tag_30:\n      tag_32\n      jump\t// in\n    tag_29:\n      stop\n        /* \"base.sol\":3165:3315  function addProduct(string memory _name, uint256 _stock, uint256 _id) external onlyOwner {... */\n    tag_12:\n        /* \"@openzeppelin/contracts/access/Ownable.sol\":1531:1544  _checkOwner() */\n      tag_34\n        /* \"@openzeppelin/contracts/access/Ownable.sol\":1531:1542  _checkOwner */\n      tag_35\n        /* \"@openzeppelin/contracts/access/Ownable.sol\":1531:1544  _checkOwner() */\n      jump\t// in\n    tag_34:\n        /* \"base.sol\":3265:3273  products */\n      0x01\n        /* \"base.sol\":3279:3306  Product(_name, _stock, _id) */\n      mload(0x40)\n      dup1\n      0x60\n      add\n      0x40\n      mstore\n      dup1\n        /* \"base.sol\":3287:3292  _name */\n      dup6\n        /* \"base.sol\":3279:3306  Product(_name, _stock, _id) */\n      dup2\n      mstore\n      0x20\n      add\n        /* \"base.sol\":3294:3300  _stock */\n      dup5\n        /* \"base.sol\":3279:3306  Product(_name, _stock, _id) */\n      dup2\n      mstore\n      0x20\n      add\n        /* \"base.sol\":3302:3305  _id */\n      dup4\n        /* \"base.sol\":3279:3306  Product(_name, _stock, _id) */\n      dup2\n      mstore\n      pop\n        /* \"base.sol\":3265:3307  products.push(Product(_name, _stock, _id)) */\n      swap1\n      dup1\n      0x01\n      dup2\n      sload\n      add\n      dup1\n      dup3\n      sstore\n      dup1\n      swap2\n      pop\n      pop\n      0x01\n      swap1\n      sub\n      swap1\n      0x00\n      mstore\n      keccak256(0x00, 0x20)\n      swap1\n      0x03\n      mul\n      add\n      0x00\n      swap1\n      swap2\n      swap1\n      swap2\n      swap1\n      swap2\n      pop\n      0x00\n      dup3\n      add\n      mload\n      dup2\n      0x00\n      add\n      swap1\n      dup2\n      tag_38\n      swap2\n      swap1\n      tag_39\n      jump\t// in\n    tag_38:\n      pop\n      0x20\n      dup3\n      add\n      mload\n      dup2\n      0x01\n      add\n      sstore\n      0x40\n      dup3\n      add\n      mload\n      dup2\n      0x02\n      add\n      sstore\n      pop\n      pop\n        /* \"base.sol\":3165:3315  function addProduct(string memory _name, uint256 _stock, uint256 _id) external onlyOwner {... */\n      pop\n      pop\n      pop\n      jump\t// out\n        /* \"base.sol\":3323:3427  function getTimestamp() public view onlyOwner returns(uint256) {... */\n    tag_14:\n        /* \"base.sol\":3377:3384  uint256 */\n      0x00\n        /* \"@openzeppelin/contracts/access/Ownable.sol\":1531:1544  _checkOwner() */\n      tag_41\n        /* \"@openzeppelin/contracts/access/Ownable.sol\":1531:1542  _checkOwner */\n      tag_35\n        /* \"@openzeppelin/contracts/access/Ownable.sol\":1531:1544  _checkOwner() */\n      jump\t// in\n    tag_41:\n        /* \"base.sol\":3404:3419  block.timestamp */\n      timestamp\n        /* \"base.sol\":3397:3419  return block.timestamp */\n      swap1\n      pop\n        /* \"base.sol\":3323:3427  function getTimestamp() public view onlyOwner returns(uint256) {... */\n      swap1\n      jump\t// out\n        /* \"@openzeppelin/contracts/access/Ownable.sol\":2293:2394  function renounceOwnership() public virtual onlyOwner {... */\n    tag_18:\n        /* \"@openzeppelin/contracts/access/Ownable.sol\":1531:1544  _checkOwner() */\n      tag_44\n        /* \"@openzeppelin/contracts/access/Ownable.sol\":1531:1542  _checkOwner */\n      tag_35\n        /* \"@openzeppelin/contracts/access/Ownable.sol\":1531:1544  _checkOwner() */\n      jump\t// in\n    tag_44:\n        /* \"@openzeppelin/contracts/access/Ownable.sol\":2357:2387  _transferOwnership(address(0)) */\n      tag_46\n        /* \"@openzeppelin/contracts/access/Ownable.sol\":2384:2385  0 */\n      0x00\n        /* \"@openzeppelin/contracts/access/Ownable.sol\":2357:2375  _transferOwnership */\n      tag_47\n        /* \"@openzeppelin/contracts/access/Ownable.sol\":2357:2387  _transferOwnership(address(0)) */\n      jump\t// in\n    tag_46:\n        /* \"@openzeppelin/contracts/access/Ownable.sol\":2293:2394  function renounceOwnership() public virtual onlyOwner {... */\n      jump\t// out\n        /* \"base.sol\":3087:3112  Product[] public products */\n    tag_22:\n      0x01\n      dup2\n      dup2\n      sload\n      dup2\n      lt\n      tag_48\n      jumpi\n      0x00\n      dup1\n      revert\n    tag_48:\n      swap1\n      0x00\n      mstore\n      keccak256(0x00, 0x20)\n      swap1\n      0x03\n      mul\n      add\n      0x00\n      swap2\n      pop\n      swap1\n      pop\n      dup1\n      0x00\n      add\n      dup1\n      sload\n      tag_50\n      swap1\n      tag_51\n      jump\t// in\n    tag_50:\n      dup1\n      0x1f\n      add\n      0x20\n      dup1\n      swap2\n      div\n      mul\n      0x20\n      add\n      mload(0x40)\n      swap1\n      dup2\n      add\n      0x40\n      mstore\n      dup1\n      swap3\n      swap2\n      swap1\n      dup2\n      dup2\n      mstore\n      0x20\n      add\n      dup3\n      dup1\n      sload\n      tag_52\n      swap1\n      tag_51\n      jump\t// in\n    tag_52:\n      dup1\n      iszero\n      tag_53\n      jumpi\n      dup1\n      0x1f\n      lt\n      tag_54\n      jumpi\n      0x0100\n      dup1\n      dup4\n      sload\n      div\n      mul\n      dup4\n      mstore\n      swap2\n      0x20\n      add\n      swap2\n      jump(tag_53)\n    tag_54:\n      dup3\n      add\n      swap2\n      swap1\n      0x00\n      mstore\n      keccak256(0x00, 0x20)\n      swap1\n    tag_55:\n      dup2\n      sload\n      dup2\n      mstore\n      swap1\n      0x01\n      add\n      swap1\n      0x20\n      add\n      dup1\n      dup4\n      gt\n      tag_55\n      jumpi\n      dup3\n      swap1\n      sub\n      0x1f\n      and\n      dup3\n      add\n      swap2\n    tag_53:\n      pop\n      pop\n      pop\n      pop\n      pop\n      swap1\n      dup1\n      0x01\n      add\n      sload\n      swap1\n      dup1\n      0x02\n      add\n      sload\n      swap1\n      pop\n      dup4\n      jump\t// out\n        /* \"@openzeppelin/contracts/access/Ownable.sol\":1638:1723  function owner() public view virtual returns (address) {... */\n    tag_26:\n        /* \"@openzeppelin/contracts/access/Ownable.sol\":1684:1691  address */\n      0x00\n        /* \"@openzeppelin/contracts/access/Ownable.sol\":1710:1716  _owner */\n      0x00\n      0x00\n      swap1\n      sload\n      swap1\n      0x0100\n      exp\n      swap1\n      div\n      0xffffffffffffffffffffffffffffffffffffffff\n      and\n        /* \"@openzeppelin/contracts/access/Ownable.sol\":1703:1716  return _owner */\n      swap1\n      pop\n        /* \"@openzeppelin/contracts/access/Ownable.sol\":1638:1723  function owner() public view virtual returns (address) {... */\n      swap1\n      jump\t// out\n        /* \"@openzeppelin/contracts/access/Ownable.sol\":2543:2758  function transferOwnership(address newOwner) public virtual onlyOwner {... */\n    tag_32:\n        /* \"@openzeppelin/contracts/access/Ownable.sol\":1531:1544  _checkOwner() */\n      tag_58\n        /* \"@openzeppelin/contracts/access/Ownable.sol\":1531:1542  _checkOwner */\n      tag_35\n        /* \"@openzeppelin/contracts/access/Ownable.sol\":1531:1544  _checkOwner() */\n      jump\t// in\n    tag_58:\n        /* \"@openzeppelin/contracts/access/Ownable.sol\":2647:2648  0 */\n      0x00\n        /* \"@openzeppelin/contracts/access/Ownable.sol\":2627:2649  newOwner == address(0) */\n      0xffffffffffffffffffffffffffffffffffffffff\n      and\n        /* \"@openzeppelin/contracts/access/Ownable.sol\":2627:2635  newOwner */\n      dup2\n        /* \"@openzeppelin/contracts/access/Ownable.sol\":2627:2649  newOwner == address(0) */\n      0xffffffffffffffffffffffffffffffffffffffff\n      and\n      sub\n        /* \"@openzeppelin/contracts/access/Ownable.sol\":2623:2714  if (newOwner == address(0)) {... */\n      tag_60\n      jumpi\n        /* \"@openzeppelin/contracts/access/Ownable.sol\":2700:2701  0 */\n      0x00\n        /* \"@openzeppelin/contracts/access/Ownable.sol\":2672:2703  OwnableInvalidOwner(address(0)) */\n      mload(0x40)\n      0x1e4fbdf700000000000000000000000000000000000000000000000000000000\n      dup2\n      mstore\n      0x04\n      add\n      tag_61\n      swap2\n      swap1\n      tag_28\n      jump\t// in\n    tag_61:\n      mload(0x40)\n      dup1\n      swap2\n      sub\n      swap1\n      revert\n        /* \"@openzeppelin/contracts/access/Ownable.sol\":2623:2714  if (newOwner == address(0)) {... */\n    tag_60:\n        /* \"@openzeppelin/contracts/access/Ownable.sol\":2723:2751  _transferOwnership(newOwner) */\n      tag_62\n        /* \"@openzeppelin/contracts/access/Ownable.sol\":2742:2750  newOwner */\n      dup2\n        /* \"@openzeppelin/contracts/access/Ownable.sol\":2723:2741  _transferOwnership */\n      tag_47\n        /* \"@openzeppelin/contracts/access/Ownable.sol\":2723:2751  _transferOwnership(newOwner) */\n      jump\t// in\n    tag_62:\n        /* \"@openzeppelin/contracts/access/Ownable.sol\":2543:2758  function transferOwnership(address newOwner) public virtual onlyOwner {... */\n      pop\n      jump\t// out\n        /* \"@openzeppelin/contracts/access/Ownable.sol\":1796:1958  function _checkOwner() internal view virtual {... */\n    tag_35:\n        /* \"@openzeppelin/contracts/access/Ownable.sol\":1866:1878  _msgSender() */\n      tag_64\n        /* \"@openzeppelin/contracts/access/Ownable.sol\":1866:1876  _msgSender */\n      tag_65\n        /* \"@openzeppelin/contracts/access/Ownable.sol\":1866:1878  _msgSender() */\n      jump\t// in\n    tag_64:\n        /* \"@openzeppelin/contracts/access/Ownable.sol\":1855:1878  owner() != _msgSender() */\n      0xffffffffffffffffffffffffffffffffffffffff\n      and\n        /* \"@openzeppelin/contracts/access/Ownable.sol\":1855:1862  owner() */\n      tag_66\n        /* \"@openzeppelin/contracts/access/Ownable.sol\":1855:1860  owner */\n      tag_26\n        /* \"@openzeppelin/contracts/access/Ownable.sol\":1855:1862  owner() */\n      jump\t// in\n    tag_66:\n        /* \"@openzeppelin/contracts/access/Ownable.sol\":1855:1878  owner() != _msgSender() */\n      0xffffffffffffffffffffffffffffffffffffffff\n      and\n      eq\n        /* \"@openzeppelin/contracts/access/Ownable.sol\":1851:1952  if (owner() != _msgSender()) {... */\n      tag_67\n      jumpi\n        /* \"@openzeppelin/contracts/access/Ownable.sol\":1928:1940  _msgSender() */\n      tag_68\n        /* \"@openzeppelin/contracts/access/Ownable.sol\":1928:1938  _msgSender */\n      tag_65\n        /* \"@openzeppelin/contracts/access/Ownable.sol\":1928:1940  _msgSender() */\n      jump\t// in\n    tag_68:\n        /* \"@openzeppelin/contracts/access/Ownable.sol\":1901:1941  OwnableUnauthorizedAccount(_msgSender()) */\n      mload(0x40)\n      0x118cdaa700000000000000000000000000000000000000000000000000000000\n      dup2\n      mstore\n      0x04\n      add\n      tag_69\n      swap2\n      swap1\n      tag_28\n      jump\t// in\n    tag_69:\n      mload(0x40)\n      dup1\n      swap2\n      sub\n      swap1\n      revert\n        /* \"@openzeppelin/contracts/access/Ownable.sol\":1851:1952  if (owner() != _msgSender()) {... */\n    tag_67:\n        /* \"@openzeppelin/contracts/access/Ownable.sol\":1796:1958  function _checkOwner() internal view virtual {... */\n      jump\t// out\n        /* \"@openzeppelin/contracts/access/Ownable.sol\":2912:3099  function _transferOwnership(address newOwner) internal virtual {... */\n    tag_47:\n        /* \"@openzeppelin/contracts/access/Ownable.sol\":2985:3001  address oldOwner */\n      0x00\n        /* \"@openzeppelin/contracts/access/Ownable.sol\":3004:3010  _owner */\n      0x00\n      0x00\n      swap1\n      sload\n      swap1\n      0x0100\n      exp\n      swap1\n      div\n      0xffffffffffffffffffffffffffffffffffffffff\n      and\n        /* \"@openzeppelin/contracts/access/Ownable.sol\":2985:3010  address oldOwner = _owner */\n      swap1\n      pop\n        /* \"@openzeppelin/contracts/access/Ownable.sol\":3029:3037  newOwner */\n      dup2\n        /* \"@openzeppelin/contracts/access/Ownable.sol\":3020:3026  _owner */\n      0x00\n      0x00\n        /* \"@openzeppelin/contracts/access/Ownable.sol\":3020:3037  _owner = newOwner */\n      0x0100\n      exp\n      dup2\n      sload\n      dup2\n      0xffffffffffffffffffffffffffffffffffffffff\n      mul\n      not\n      and\n      swap1\n      dup4\n      0xffffffffffffffffffffffffffffffffffffffff\n      and\n      mul\n      or\n      swap1\n      sstore\n      pop\n        /* \"@openzeppelin/contracts/access/Ownable.sol\":3083:3091  newOwner */\n      dup2\n        /* \"@openzeppelin/contracts/access/Ownable.sol\":3052:3092  OwnershipTransferred(oldOwner, newOwner) */\n      0xffffffffffffffffffffffffffffffffffffffff\n      and\n        /* \"@openzeppelin/contracts/access/Ownable.sol\":3073:3081  oldOwner */\n      dup2\n        /* \"@openzeppelin/contracts/access/Ownable.sol\":3052:3092  OwnershipTransferred(oldOwner, newOwner) */\n      0xffffffffffffffffffffffffffffffffffffffff\n      and\n      0x8be0079c531659141344cd1fd0a4f28419497f9722a3daafe3b4186f6b6457e0\n      mload(0x40)\n      mload(0x40)\n      dup1\n      swap2\n      sub\n      swap1\n      log3\n        /* \"@openzeppelin/contracts/access/Ownable.sol\":2975:3099  {... */\n      pop\n        /* \"@openzeppelin/contracts/access/Ownable.sol\":2912:3099  function _transferOwnership(address newOwner) internal virtual {... */\n      pop\n      jump\t// out\n        /* \"@openzeppelin/contracts/utils/Context.sol\":656:752  function _msgSender() internal view virtual returns (address) {... */\n    tag_65:\n        /* \"@openzeppelin/contracts/utils/Context.sol\":709:716  address */\n      0x00\n        /* \"@openzeppelin/contracts/utils/Context.sol\":735:745  msg.sender */\n      caller\n        /* \"@openzeppelin/contracts/utils/Context.sol\":728:745  return msg.sender */\n      swap1\n      pop\n        /* \"@openzeppelin/contracts/utils/Context.sol\":656:752  function _msgSender() internal view virtual returns (address) {... */\n      swap1\n      jump\t// out\n        /* \"#utility.yul\":7:82   */\n    tag_72:\n        /* \"#utility.yul\":40:46   */\n      0x00\n        /* \"#utility.yul\":73:75   */\n      0x40\n        /* \"#utility.yul\":67:76   */\n      mload\n        /* \"#utility.yul\":57:76   */\n      swap1\n      pop\n        /* \"#utility.yul\":7:82   */\n      swap1\n      jump\t// out\n        /* \"#utility.yul\":88:205   */\n    tag_73:\n        /* \"#utility.yul\":197:198   */\n      0x00\n        /* \"#utility.yul\":194:195   */\n      0x00\n        /* \"#utility.yul\":187:199   */\n      revert\n        /* \"#utility.yul\":211:328   */\n    tag_74:\n        /* \"#utility.yul\":320:321   */\n      0x00\n        /* \"#utility.yul\":317:318   */\n      0x00\n        /* \"#utility.yul\":310:322   */\n      revert\n        /* \"#utility.yul\":334:451   */\n    tag_75:\n        /* \"#utility.yul\":443:444   */\n      0x00\n        /* \"#utility.yul\":440:441   */\n      0x00\n        /* \"#utility.yul\":433:445   */\n      revert\n        /* \"#utility.yul\":457:574   */\n    tag_76:\n        /* \"#utility.yul\":566:567   */\n      0x00\n        /* \"#utility.yul\":563:564   */\n      0x00\n        /* \"#utility.yul\":556:568   */\n      revert\n        /* \"#utility.yul\":580:682   */\n    tag_77:\n        /* \"#utility.yul\":621:627   */\n      0x00\n        /* \"#utility.yul\":672:674   */\n      0x1f\n        /* \"#utility.yul\":668:675   */\n      not\n        /* \"#utility.yul\":663:665   */\n      0x1f\n        /* \"#utility.yul\":656:661   */\n      dup4\n        /* \"#utility.yul\":652:666   */\n      add\n        /* \"#utility.yul\":648:676   */\n      and\n        /* \"#utility.yul\":638:676   */\n      swap1\n      pop\n        /* \"#utility.yul\":580:682   */\n      swap2\n      swap1\n      pop\n      jump\t// out\n        /* \"#utility.yul\":688:868   */\n    tag_78:\n        /* \"#utility.yul\":736:813   */\n      0x4e487b7100000000000000000000000000000000000000000000000000000000\n        /* \"#utility.yul\":733:734   */\n      0x00\n        /* \"#utility.yul\":726:814   */\n      mstore\n        /* \"#utility.yul\":833:837   */\n      0x41\n        /* \"#utility.yul\":830:831   */\n      0x04\n        /* \"#utility.yul\":823:838   */\n      mstore\n        /* \"#utility.yul\":857:861   */\n      0x24\n        /* \"#utility.yul\":854:855   */\n      0x00\n        /* \"#utility.yul\":847:862   */\n      revert\n        /* \"#utility.yul\":874:1155   */\n    tag_79:\n        /* \"#utility.yul\":957:984   */\n      tag_123\n        /* \"#utility.yul\":979:983   */\n      dup3\n        /* \"#utility.yul\":957:984   */\n      tag_77\n      jump\t// in\n    tag_123:\n        /* \"#utility.yul\":949:955   */\n      dup2\n        /* \"#utility.yul\":945:985   */\n      add\n        /* \"#utility.yul\":1087:1093   */\n      dup2\n        /* \"#utility.yul\":1075:1085   */\n      dup2\n        /* \"#utility.yul\":1072:1094   */\n      lt\n        /* \"#utility.yul\":1051:1069   */\n      0xffffffffffffffff\n        /* \"#utility.yul\":1039:1049   */\n      dup3\n        /* \"#utility.yul\":1036:1070   */\n      gt\n        /* \"#utility.yul\":1033:1095   */\n      or\n        /* \"#utility.yul\":1030:1118   */\n      iszero\n      tag_124\n      jumpi\n        /* \"#utility.yul\":1098:1116   */\n      tag_125\n      tag_78\n      jump\t// in\n    tag_125:\n        /* \"#utility.yul\":1030:1118   */\n    tag_124:\n        /* \"#utility.yul\":1138:1148   */\n      dup1\n        /* \"#utility.yul\":1134:1136   */\n      0x40\n        /* \"#utility.yul\":1127:1149   */\n      mstore\n        /* \"#utility.yul\":917:1155   */\n      pop\n        /* \"#utility.yul\":874:1155   */\n      pop\n      pop\n      jump\t// out\n        /* \"#utility.yul\":1161:1290   */\n    tag_80:\n        /* \"#utility.yul\":1195:1201   */\n      0x00\n        /* \"#utility.yul\":1222:1242   */\n      tag_127\n      tag_72\n      jump\t// in\n    tag_127:\n        /* \"#utility.yul\":1212:1242   */\n      swap1\n      pop\n        /* \"#utility.yul\":1251:1284   */\n      tag_128\n        /* \"#utility.yul\":1279:1283   */\n      dup3\n        /* \"#utility.yul\":1271:1277   */\n      dup3\n        /* \"#utility.yul\":1251:1284   */\n      tag_79\n      jump\t// in\n    tag_128:\n        /* \"#utility.yul\":1161:1290   */\n      swap2\n      swap1\n      pop\n      jump\t// out\n        /* \"#utility.yul\":1296:1604   */\n    tag_81:\n        /* \"#utility.yul\":1358:1362   */\n      0x00\n        /* \"#utility.yul\":1448:1466   */\n      0xffffffffffffffff\n        /* \"#utility.yul\":1440:1446   */\n      dup3\n        /* \"#utility.yul\":1437:1467   */\n      gt\n        /* \"#utility.yul\":1434:1490   */\n      iszero\n      tag_130\n      jumpi\n        /* \"#utility.yul\":1470:1488   */\n      tag_131\n      tag_78\n      jump\t// in\n    tag_131:\n        /* \"#utility.yul\":1434:1490   */\n    tag_130:\n        /* \"#utility.yul\":1508:1537   */\n      tag_132\n        /* \"#utility.yul\":1530:1536   */\n      dup3\n        /* \"#utility.yul\":1508:1537   */\n      tag_77\n      jump\t// in\n    tag_132:\n        /* \"#utility.yul\":1500:1537   */\n      swap1\n      pop\n        /* \"#utility.yul\":1592:1596   */\n      0x20\n        /* \"#utility.yul\":1586:1590   */\n      dup2\n        /* \"#utility.yul\":1582:1597   */\n      add\n        /* \"#utility.yul\":1574:1597   */\n      swap1\n      pop\n        /* \"#utility.yul\":1296:1604   */\n      swap2\n      swap1\n      pop\n      jump\t// out\n        /* \"#utility.yul\":1610:1758   */\n    tag_82:\n        /* \"#utility.yul\":1708:1714   */\n      dup3\n        /* \"#utility.yul\":1703:1706   */\n      dup2\n        /* \"#utility.yul\":1698:1701   */\n      dup4\n        /* \"#utility.yul\":1685:1715   */\n      calldatacopy\n        /* \"#utility.yul\":1749:1750   */\n      0x00\n        /* \"#utility.yul\":1740:1746   */\n      dup4\n        /* \"#utility.yul\":1735:1738   */\n      dup4\n        /* \"#utility.yul\":1731:1747   */\n      add\n        /* \"#utility.yul\":1724:1751   */\n      mstore\n        /* \"#utility.yul\":1610:1758   */\n      pop\n      pop\n      pop\n      jump\t// out\n        /* \"#utility.yul\":1764:2189   */\n    tag_83:\n        /* \"#utility.yul\":1842:1847   */\n      0x00\n        /* \"#utility.yul\":1867:1933   */\n      tag_135\n        /* \"#utility.yul\":1883:1932   */\n      tag_136\n        /* \"#utility.yul\":1925:1931   */\n      dup5\n        /* \"#utility.yul\":1883:1932   */\n      tag_81\n      jump\t// in\n    tag_136:\n        /* \"#utility.yul\":1867:1933   */\n      tag_80\n      jump\t// in\n    tag_135:\n        /* \"#utility.yul\":1858:1933   */\n      swap1\n      pop\n        /* \"#utility.yul\":1956:1962   */\n      dup3\n        /* \"#utility.yul\":1949:1954   */\n      dup2\n        /* \"#utility.yul\":1942:1963   */\n      mstore\n        /* \"#utility.yul\":1994:1998   */\n      0x20\n        /* \"#utility.yul\":1987:1992   */\n      dup2\n        /* \"#utility.yul\":1983:1999   */\n      add\n        /* \"#utility.yul\":2032:2035   */\n      dup5\n        /* \"#utility.yul\":2023:2029   */\n      dup5\n        /* \"#utility.yul\":2018:2021   */\n      dup5\n        /* \"#utility.yul\":2014:2030   */\n      add\n        /* \"#utility.yul\":2011:2036   */\n      gt\n        /* \"#utility.yul\":2008:2120   */\n      iszero\n      tag_137\n      jumpi\n        /* \"#utility.yul\":2039:2118   */\n      tag_138\n      tag_76\n      jump\t// in\n    tag_138:\n        /* \"#utility.yul\":2008:2120   */\n    tag_137:\n        /* \"#utility.yul\":2129:2183   */\n      tag_139\n        /* \"#utility.yul\":2176:2182   */\n      dup5\n        /* \"#utility.yul\":2171:2174   */\n      dup3\n        /* \"#utility.yul\":2166:2169   */\n      dup6\n        /* \"#utility.yul\":2129:2183   */\n      tag_82\n      jump\t// in\n    tag_139:\n        /* \"#utility.yul\":1848:2189   */\n      pop\n        /* \"#utility.yul\":1764:2189   */\n      swap4\n      swap3\n      pop\n      pop\n      pop\n      jump\t// out\n        /* \"#utility.yul\":2209:2549   */\n    tag_84:\n        /* \"#utility.yul\":2265:2270   */\n      0x00\n        /* \"#utility.yul\":2314:2317   */\n      dup3\n        /* \"#utility.yul\":2307:2311   */\n      0x1f\n        /* \"#utility.yul\":2299:2305   */\n      dup4\n        /* \"#utility.yul\":2295:2312   */\n      add\n        /* \"#utility.yul\":2291:2318   */\n      slt\n        /* \"#utility.yul\":2281:2403   */\n      tag_141\n      jumpi\n        /* \"#utility.yul\":2322:2401   */\n      tag_142\n      tag_75\n      jump\t// in\n    tag_142:\n        /* \"#utility.yul\":2281:2403   */\n    tag_141:\n        /* \"#utility.yul\":2439:2445   */\n      dup2\n        /* \"#utility.yul\":2426:2446   */\n      calldataload\n        /* \"#utility.yul\":2464:2543   */\n      tag_143\n        /* \"#utility.yul\":2539:2542   */\n      dup5\n        /* \"#utility.yul\":2531:2537   */\n      dup3\n        /* \"#utility.yul\":2524:2528   */\n      0x20\n        /* \"#utility.yul\":2516:2522   */\n      dup7\n        /* \"#utility.yul\":2512:2529   */\n      add\n        /* \"#utility.yul\":2464:2543   */\n      tag_83\n      jump\t// in\n    tag_143:\n        /* \"#utility.yul\":2455:2543   */\n      swap2\n      pop\n        /* \"#utility.yul\":2271:2549   */\n      pop\n        /* \"#utility.yul\":2209:2549   */\n      swap3\n      swap2\n      pop\n      pop\n      jump\t// out\n        /* \"#utility.yul\":2555:2632   */\n    tag_85:\n        /* \"#utility.yul\":2592:2599   */\n      0x00\n        /* \"#utility.yul\":2621:2626   */\n      dup2\n        /* \"#utility.yul\":2610:2626   */\n      swap1\n      pop\n        /* \"#utility.yul\":2555:2632   */\n      swap2\n      swap1\n      pop\n      jump\t// out\n        /* \"#utility.yul\":2638:2760   */\n    tag_86:\n        /* \"#utility.yul\":2711:2735   */\n      tag_146\n        /* \"#utility.yul\":2729:2734   */\n      dup2\n        /* \"#utility.yul\":2711:2735   */\n      tag_85\n      jump\t// in\n    tag_146:\n        /* \"#utility.yul\":2704:2709   */\n      dup2\n        /* \"#utility.yul\":2701:2736   */\n      eq\n        /* \"#utility.yul\":2691:2754   */\n      tag_147\n      jumpi\n        /* \"#utility.yul\":2750:2751   */\n      0x00\n        /* \"#utility.yul\":2747:2748   */\n      0x00\n        /* \"#utility.yul\":2740:2752   */\n      revert\n        /* \"#utility.yul\":2691:2754   */\n    tag_147:\n        /* \"#utility.yul\":2638:2760   */\n      pop\n      jump\t// out\n        /* \"#utility.yul\":2766:2905   */\n    tag_87:\n        /* \"#utility.yul\":2812:2817   */\n      0x00\n        /* \"#utility.yul\":2850:2856   */\n      dup2\n        /* \"#utility.yul\":2837:2857   */\n      calldataload\n        /* \"#utility.yul\":2828:2857   */\n      swap1\n      pop\n        /* \"#utility.yul\":2866:2899   */\n      tag_149\n        /* \"#utility.yul\":2893:2898   */\n      dup2\n        /* \"#utility.yul\":2866:2899   */\n      tag_86\n      jump\t// in\n    tag_149:\n        /* \"#utility.yul\":2766:2905   */\n      swap3\n      swap2\n      pop\n      pop\n      jump\t// out\n        /* \"#utility.yul\":2911:3710   */\n    tag_11:\n        /* \"#utility.yul\":2998:3004   */\n      0x00\n        /* \"#utility.yul\":3006:3012   */\n      0x00\n        /* \"#utility.yul\":3014:3020   */\n      0x00\n        /* \"#utility.yul\":3063:3065   */\n      0x60\n        /* \"#utility.yul\":3051:3060   */\n      dup5\n        /* \"#utility.yul\":3042:3049   */\n      dup7\n        /* \"#utility.yul\":3038:3061   */\n      sub\n        /* \"#utility.yul\":3034:3066   */\n      slt\n        /* \"#utility.yul\":3031:3150   */\n      iszero\n      tag_151\n      jumpi\n        /* \"#utility.yul\":3069:3148   */\n      tag_152\n      tag_73\n      jump\t// in\n    tag_152:\n        /* \"#utility.yul\":3031:3150   */\n    tag_151:\n        /* \"#utility.yul\":3217:3218   */\n      0x00\n        /* \"#utility.yul\":3206:3215   */\n      dup5\n        /* \"#utility.yul\":3202:3219   */\n      add\n        /* \"#utility.yul\":3189:3220   */\n      calldataload\n        /* \"#utility.yul\":3247:3265   */\n      0xffffffffffffffff\n        /* \"#utility.yul\":3239:3245   */\n      dup2\n        /* \"#utility.yul\":3236:3266   */\n      gt\n        /* \"#utility.yul\":3233:3350   */\n      iszero\n      tag_153\n      jumpi\n        /* \"#utility.yul\":3269:3348   */\n      tag_154\n      tag_74\n      jump\t// in\n    tag_154:\n        /* \"#utility.yul\":3233:3350   */\n    tag_153:\n        /* \"#utility.yul\":3374:3437   */\n      tag_155\n        /* \"#utility.yul\":3429:3436   */\n      dup7\n        /* \"#utility.yul\":3420:3426   */\n      dup3\n        /* \"#utility.yul\":3409:3418   */\n      dup8\n        /* \"#utility.yul\":3405:3427   */\n      add\n        /* \"#utility.yul\":3374:3437   */\n      tag_84\n      jump\t// in\n    tag_155:\n        /* \"#utility.yul\":3364:3437   */\n      swap4\n      pop\n        /* \"#utility.yul\":3160:3447   */\n      pop\n        /* \"#utility.yul\":3486:3488   */\n      0x20\n        /* \"#utility.yul\":3512:3565   */\n      tag_156\n        /* \"#utility.yul\":3557:3564   */\n      dup7\n        /* \"#utility.yul\":3548:3554   */\n      dup3\n        /* \"#utility.yul\":3537:3546   */\n      dup8\n        /* \"#utility.yul\":3533:3555   */\n      add\n        /* \"#utility.yul\":3512:3565   */\n      tag_87\n      jump\t// in\n    tag_156:\n        /* \"#utility.yul\":3502:3565   */\n      swap3\n      pop\n        /* \"#utility.yul\":3457:3575   */\n      pop\n        /* \"#utility.yul\":3614:3616   */\n      0x40\n        /* \"#utility.yul\":3640:3693   */\n      tag_157\n        /* \"#utility.yul\":3685:3692   */\n      dup7\n        /* \"#utility.yul\":3676:3682   */\n      dup3\n        /* \"#utility.yul\":3665:3674   */\n      dup8\n        /* \"#utility.yul\":3661:3683   */\n      add\n        /* \"#utility.yul\":3640:3693   */\n      tag_87\n      jump\t// in\n    tag_157:\n        /* \"#utility.yul\":3630:3693   */\n      swap2\n      pop\n        /* \"#utility.yul\":3585:3703   */\n      pop\n        /* \"#utility.yul\":2911:3710   */\n      swap3\n      pop\n      swap3\n      pop\n      swap3\n      jump\t// out\n        /* \"#utility.yul\":3716:3834   */\n    tag_88:\n        /* \"#utility.yul\":3803:3827   */\n      tag_159\n        /* \"#utility.yul\":3821:3826   */\n      dup2\n        /* \"#utility.yul\":3803:3827   */\n      tag_85\n      jump\t// in\n    tag_159:\n        /* \"#utility.yul\":3798:3801   */\n      dup3\n        /* \"#utility.yul\":3791:3828   */\n      mstore\n        /* \"#utility.yul\":3716:3834   */\n      pop\n      pop\n      jump\t// out\n        /* \"#utility.yul\":3840:4062   */\n    tag_16:\n        /* \"#utility.yul\":3933:3937   */\n      0x00\n        /* \"#utility.yul\":3971:3973   */\n      0x20\n        /* \"#utility.yul\":3960:3969   */\n      dup3\n        /* \"#utility.yul\":3956:3974   */\n      add\n        /* \"#utility.yul\":3948:3974   */\n      swap1\n      pop\n        /* \"#utility.yul\":3984:4055   */\n      tag_161\n        /* \"#utility.yul\":4052:4053   */\n      0x00\n        /* \"#utility.yul\":4041:4050   */\n      dup4\n        /* \"#utility.yul\":4037:4054   */\n      add\n        /* \"#utility.yul\":4028:4034   */\n      dup5\n        /* \"#utility.yul\":3984:4055   */\n      tag_88\n      jump\t// in\n    tag_161:\n        /* \"#utility.yul\":3840:4062   */\n      swap3\n      swap2\n      pop\n      pop\n      jump\t// out\n        /* \"#utility.yul\":4068:4397   */\n    tag_21:\n        /* \"#utility.yul\":4127:4133   */\n      0x00\n        /* \"#utility.yul\":4176:4178   */\n      0x20\n        /* \"#utility.yul\":4164:4173   */\n      dup3\n        /* \"#utility.yul\":4155:4162   */\n      dup5\n        /* \"#utility.yul\":4151:4174   */\n      sub\n        /* \"#utility.yul\":4147:4179   */\n      slt\n        /* \"#utility.yul\":4144:4263   */\n      iszero\n      tag_163\n      jumpi\n        /* \"#utility.yul\":4182:4261   */\n      tag_164\n      tag_73\n      jump\t// in\n    tag_164:\n        /* \"#utility.yul\":4144:4263   */\n    tag_163:\n        /* \"#utility.yul\":4302:4303   */\n      0x00\n        /* \"#utility.yul\":4327:4380   */\n      tag_165\n        /* \"#utility.yul\":4372:4379   */\n      dup5\n        /* \"#utility.yul\":4363:4369   */\n      dup3\n        /* \"#utility.yul\":4352:4361   */\n      dup6\n        /* \"#utility.yul\":4348:4370   */\n      add\n        /* \"#utility.yul\":4327:4380   */\n      tag_87\n      jump\t// in\n    tag_165:\n        /* \"#utility.yul\":4317:4380   */\n      swap2\n      pop\n        /* \"#utility.yul\":4273:4390   */\n      pop\n        /* \"#utility.yul\":4068:4397   */\n      swap3\n      swap2\n      pop\n      pop\n      jump\t// out\n        /* \"#utility.yul\":4403:4502   */\n    tag_89:\n        /* \"#utility.yul\":4455:4461   */\n      0x00\n        /* \"#utility.yul\":4489:4494   */\n      dup2\n        /* \"#utility.yul\":4483:4495   */\n      mload\n        /* \"#utility.yul\":4473:4495   */\n      swap1\n      pop\n        /* \"#utility.yul\":4403:4502   */\n      swap2\n      swap1\n      pop\n      jump\t// out\n        /* \"#utility.yul\":4508:4677   */\n    tag_90:\n        /* \"#utility.yul\":4592:4603   */\n      0x00\n        /* \"#utility.yul\":4626:4632   */\n      dup3\n        /* \"#utility.yul\":4621:4624   */\n      dup3\n        /* \"#utility.yul\":4614:4633   */\n      mstore\n        /* \"#utility.yul\":4666:4670   */\n      0x20\n        /* \"#utility.yul\":4661:4664   */\n      dup3\n        /* \"#utility.yul\":4657:4671   */\n      add\n        /* \"#utility.yul\":4642:4671   */\n      swap1\n      pop\n        /* \"#utility.yul\":4508:4677   */\n      swap3\n      swap2\n      pop\n      pop\n      jump\t// out\n        /* \"#utility.yul\":4683:4822   */\n    tag_91:\n        /* \"#utility.yul\":4772:4778   */\n      dup3\n        /* \"#utility.yul\":4767:4770   */\n      dup2\n        /* \"#utility.yul\":4762:4765   */\n      dup4\n        /* \"#utility.yul\":4756:4779   */\n      mcopy\n        /* \"#utility.yul\":4813:4814   */\n      0x00\n        /* \"#utility.yul\":4804:4810   */\n      dup4\n        /* \"#utility.yul\":4799:4802   */\n      dup4\n        /* \"#utility.yul\":4795:4811   */\n      add\n        /* \"#utility.yul\":4788:4815   */\n      mstore\n        /* \"#utility.yul\":4683:4822   */\n      pop\n      pop\n      pop\n      jump\t// out\n        /* \"#utility.yul\":4828:5205   */\n    tag_92:\n        /* \"#utility.yul\":4916:4919   */\n      0x00\n        /* \"#utility.yul\":4944:4983   */\n      tag_170\n        /* \"#utility.yul\":4977:4982   */\n      dup3\n        /* \"#utility.yul\":4944:4983   */\n      tag_89\n      jump\t// in\n    tag_170:\n        /* \"#utility.yul\":4999:5070   */\n      tag_171\n        /* \"#utility.yul\":5063:5069   */\n      dup2\n        /* \"#utility.yul\":5058:5061   */\n      dup6\n        /* \"#utility.yul\":4999:5070   */\n      tag_90\n      jump\t// in\n    tag_171:\n        /* \"#utility.yul\":4992:5070   */\n      swap4\n      pop\n        /* \"#utility.yul\":5079:5144   */\n      tag_172\n        /* \"#utility.yul\":5137:5143   */\n      dup2\n        /* \"#utility.yul\":5132:5135   */\n      dup6\n        /* \"#utility.yul\":5125:5129   */\n      0x20\n        /* \"#utility.yul\":5118:5123   */\n      dup7\n        /* \"#utility.yul\":5114:5130   */\n      add\n        /* \"#utility.yul\":5079:5144   */\n      tag_91\n      jump\t// in\n    tag_172:\n        /* \"#utility.yul\":5169:5198   */\n      tag_173\n        /* \"#utility.yul\":5191:5197   */\n      dup2\n        /* \"#utility.yul\":5169:5198   */\n      tag_77\n      jump\t// in\n    tag_173:\n        /* \"#utility.yul\":5164:5167   */\n      dup5\n        /* \"#utility.yul\":5160:5199   */\n      add\n        /* \"#utility.yul\":5153:5199   */\n      swap2\n      pop\n        /* \"#utility.yul\":4920:5205   */\n      pop\n        /* \"#utility.yul\":4828:5205   */\n      swap3\n      swap2\n      pop\n      pop\n      jump\t// out\n        /* \"#utility.yul\":5211:5744   */\n    tag_24:\n        /* \"#utility.yul\":5380:5384   */\n      0x00\n        /* \"#utility.yul\":5418:5420   */\n      0x60\n        /* \"#utility.yul\":5407:5416   */\n      dup3\n        /* \"#utility.yul\":5403:5421   */\n      add\n        /* \"#utility.yul\":5395:5421   */\n      swap1\n      pop\n        /* \"#utility.yul\":5467:5476   */\n      dup2\n        /* \"#utility.yul\":5461:5465   */\n      dup2\n        /* \"#utility.yul\":5457:5477   */\n      sub\n        /* \"#utility.yul\":5453:5454   */\n      0x00\n        /* \"#utility.yul\":5442:5451   */\n      dup4\n        /* \"#utility.yul\":5438:5455   */\n      add\n        /* \"#utility.yul\":5431:5478   */\n      mstore\n        /* \"#utility.yul\":5495:5573   */\n      tag_175\n        /* \"#utility.yul\":5568:5572   */\n      dup2\n        /* \"#utility.yul\":5559:5565   */\n      dup7\n        /* \"#utility.yul\":5495:5573   */\n      tag_92\n      jump\t// in\n    tag_175:\n        /* \"#utility.yul\":5487:5573   */\n      swap1\n      pop\n        /* \"#utility.yul\":5583:5655   */\n      tag_176\n        /* \"#utility.yul\":5651:5653   */\n      0x20\n        /* \"#utility.yul\":5640:5649   */\n      dup4\n        /* \"#utility.yul\":5636:5654   */\n      add\n        /* \"#utility.yul\":5627:5633   */\n      dup6\n        /* \"#utility.yul\":5583:5655   */\n      tag_88\n      jump\t// in\n    tag_176:\n        /* \"#utility.yul\":5665:5737   */\n      tag_177\n        /* \"#utility.yul\":5733:5735   */\n      0x40\n        /* \"#utility.yul\":5722:5731   */\n      dup4\n        /* \"#utility.yul\":5718:5736   */\n      add\n        /* \"#utility.yul\":5709:5715   */\n      dup5\n        /* \"#utility.yul\":5665:5737   */\n      tag_88\n      jump\t// in\n    tag_177:\n        /* \"#utility.yul\":5211:5744   */\n      swap5\n      swap4\n      pop\n      pop\n      pop\n      pop\n      jump\t// out\n        /* \"#utility.yul\":5750:5876   */\n    tag_93:\n        /* \"#utility.yul\":5787:5794   */\n      0x00\n        /* \"#utility.yul\":5827:5869   */\n      0xffffffffffffffffffffffffffffffffffffffff\n        /* \"#utility.yul\":5820:5825   */\n      dup3\n        /* \"#utility.yul\":5816:5870   */\n      and\n        /* \"#utility.yul\":5805:5870   */\n      swap1\n      pop\n        /* \"#utility.yul\":5750:5876   */\n      swap2\n      swap1\n      pop\n      jump\t// out\n        /* \"#utility.yul\":5882:5978   */\n    tag_94:\n        /* \"#utility.yul\":5919:5926   */\n      0x00\n        /* \"#utility.yul\":5948:5972   */\n      tag_180\n        /* \"#utility.yul\":5966:5971   */\n      dup3\n        /* \"#utility.yul\":5948:5972   */\n      tag_93\n      jump\t// in\n    tag_180:\n        /* \"#utility.yul\":5937:5972   */\n      swap1\n      pop\n        /* \"#utility.yul\":5882:5978   */\n      swap2\n      swap1\n      pop\n      jump\t// out\n        /* \"#utility.yul\":5984:6102   */\n    tag_95:\n        /* \"#utility.yul\":6071:6095   */\n      tag_182\n        /* \"#utility.yul\":6089:6094   */\n      dup2\n        /* \"#utility.yul\":6071:6095   */\n      tag_94\n      jump\t// in\n    tag_182:\n        /* \"#utility.yul\":6066:6069   */\n      dup3\n        /* \"#utility.yul\":6059:6096   */\n      mstore\n        /* \"#utility.yul\":5984:6102   */\n      pop\n      pop\n      jump\t// out\n        /* \"#utility.yul\":6108:6330   */\n    tag_28:\n        /* \"#utility.yul\":6201:6205   */\n      0x00\n        /* \"#utility.yul\":6239:6241   */\n      0x20\n        /* \"#utility.yul\":6228:6237   */\n      dup3\n        /* \"#utility.yul\":6224:6242   */\n      add\n        /* \"#utility.yul\":6216:6242   */\n      swap1\n      pop\n        /* \"#utility.yul\":6252:6323   */\n      tag_184\n        /* \"#utility.yul\":6320:6321   */\n      0x00\n        /* \"#utility.yul\":6309:6318   */\n      dup4\n        /* \"#utility.yul\":6305:6322   */\n      add\n        /* \"#utility.yul\":6296:6302   */\n      dup5\n        /* \"#utility.yul\":6252:6323   */\n      tag_95\n      jump\t// in\n    tag_184:\n        /* \"#utility.yul\":6108:6330   */\n      swap3\n      swap2\n      pop\n      pop\n      jump\t// out\n        /* \"#utility.yul\":6336:6458   */\n    tag_96:\n        /* \"#utility.yul\":6409:6433   */\n      tag_186\n        /* \"#utility.yul\":6427:6432   */\n      dup2\n        /* \"#utility.yul\":6409:6433   */\n      tag_94\n      jump\t// in\n    tag_186:\n        /* \"#utility.yul\":6402:6407   */\n      dup2\n        /* \"#utility.yul\":6399:6434   */\n      eq\n        /* \"#utility.yul\":6389:6452   */\n      tag_187\n      jumpi\n        /* \"#utility.yul\":6448:6449   */\n      0x00\n        /* \"#utility.yul\":6445:6446   */\n      0x00\n        /* \"#utility.yul\":6438:6450   */\n      revert\n        /* \"#utility.yul\":6389:6452   */\n    tag_187:\n        /* \"#utility.yul\":6336:6458   */\n      pop\n      jump\t// out\n        /* \"#utility.yul\":6464:6603   */\n    tag_97:\n        /* \"#utility.yul\":6510:6515   */\n      0x00\n        /* \"#utility.yul\":6548:6554   */\n      dup2\n        /* \"#utility.yul\":6535:6555   */\n      calldataload\n        /* \"#utility.yul\":6526:6555   */\n      swap1\n      pop\n        /* \"#utility.yul\":6564:6597   */\n      tag_189\n        /* \"#utility.yul\":6591:6596   */\n      dup2\n        /* \"#utility.yul\":6564:6597   */\n      tag_96\n      jump\t// in\n    tag_189:\n        /* \"#utility.yul\":6464:6603   */\n      swap3\n      swap2\n      pop\n      pop\n      jump\t// out\n        /* \"#utility.yul\":6609:6938   */\n    tag_31:\n        /* \"#utility.yul\":6668:6674   */\n      0x00\n        /* \"#utility.yul\":6717:6719   */\n      0x20\n        /* \"#utility.yul\":6705:6714   */\n      dup3\n        /* \"#utility.yul\":6696:6703   */\n      dup5\n        /* \"#utility.yul\":6692:6715   */\n      sub\n        /* \"#utility.yul\":6688:6720   */\n      slt\n        /* \"#utility.yul\":6685:6804   */\n      iszero\n      tag_191\n      jumpi\n        /* \"#utility.yul\":6723:6802   */\n      tag_192\n      tag_73\n      jump\t// in\n    tag_192:\n        /* \"#utility.yul\":6685:6804   */\n    tag_191:\n        /* \"#utility.yul\":6843:6844   */\n      0x00\n        /* \"#utility.yul\":6868:6921   */\n      tag_193\n        /* \"#utility.yul\":6913:6920   */\n      dup5\n        /* \"#utility.yul\":6904:6910   */\n      dup3\n        /* \"#utility.yul\":6893:6902   */\n      dup6\n        /* \"#utility.yul\":6889:6911   */\n      add\n        /* \"#utility.yul\":6868:6921   */\n      tag_97\n      jump\t// in\n    tag_193:\n        /* \"#utility.yul\":6858:6921   */\n      swap2\n      pop\n        /* \"#utility.yul\":6814:6931   */\n      pop\n        /* \"#utility.yul\":6609:6938   */\n      swap3\n      swap2\n      pop\n      pop\n      jump\t// out\n        /* \"#utility.yul\":6944:7124   */\n    tag_98:\n        /* \"#utility.yul\":6992:7069   */\n      0x4e487b7100000000000000000000000000000000000000000000000000000000\n        /* \"#utility.yul\":6989:6990   */\n      0x00\n        /* \"#utility.yul\":6982:7070   */\n      mstore\n        /* \"#utility.yul\":7089:7093   */\n      0x22\n        /* \"#utility.yul\":7086:7087   */\n      0x04\n        /* \"#utility.yul\":7079:7094   */\n      mstore\n        /* \"#utility.yul\":7113:7117   */\n      0x24\n        /* \"#utility.yul\":7110:7111   */\n      0x00\n        /* \"#utility.yul\":7103:7118   */\n      revert\n        /* \"#utility.yul\":7130:7450   */\n    tag_51:\n        /* \"#utility.yul\":7174:7180   */\n      0x00\n        /* \"#utility.yul\":7211:7212   */\n      0x02\n        /* \"#utility.yul\":7205:7209   */\n      dup3\n        /* \"#utility.yul\":7201:7213   */\n      div\n        /* \"#utility.yul\":7191:7213   */\n      swap1\n      pop\n        /* \"#utility.yul\":7258:7259   */\n      0x01\n        /* \"#utility.yul\":7252:7256   */\n      dup3\n        /* \"#utility.yul\":7248:7260   */\n      and\n        /* \"#utility.yul\":7279:7297   */\n      dup1\n        /* \"#utility.yul\":7269:7350   */\n      tag_196\n      jumpi\n        /* \"#utility.yul\":7335:7339   */\n      0x7f\n        /* \"#utility.yul\":7327:7333   */\n      dup3\n        /* \"#utility.yul\":7323:7340   */\n      and\n        /* \"#utility.yul\":7313:7340   */\n      swap2\n      pop\n        /* \"#utility.yul\":7269:7350   */\n    tag_196:\n        /* \"#utility.yul\":7397:7399   */\n      0x20\n        /* \"#utility.yul\":7389:7395   */\n      dup3\n        /* \"#utility.yul\":7386:7400   */\n      lt\n        /* \"#utility.yul\":7366:7384   */\n      dup2\n        /* \"#utility.yul\":7363:7401   */\n      sub\n        /* \"#utility.yul\":7360:7444   */\n      tag_197\n      jumpi\n        /* \"#utility.yul\":7416:7434   */\n      tag_198\n      tag_98\n      jump\t// in\n    tag_198:\n        /* \"#utility.yul\":7360:7444   */\n    tag_197:\n        /* \"#utility.yul\":7181:7450   */\n      pop\n        /* \"#utility.yul\":7130:7450   */\n      swap2\n      swap1\n      pop\n      jump\t// out\n        /* \"#utility.yul\":7456:7597   */\n    tag_99:\n        /* \"#utility.yul\":7505:7509   */\n      0x00\n        /* \"#utility.yul\":7528:7531   */\n      dup2\n        /* \"#utility.yul\":7520:7531   */\n      swap1\n      pop\n        /* \"#utility.yul\":7551:7554   */\n      dup2\n        /* \"#utility.yul\":7548:7549   */\n      0x00\n        /* \"#utility.yul\":7541:7555   */\n      mstore\n        /* \"#utility.yul\":7585:7589   */\n      0x20\n        /* \"#utility.yul\":7582:7583   */\n      0x00\n        /* \"#utility.yul\":7572:7590   */\n      keccak256\n        /* \"#utility.yul\":7564:7590   */\n      swap1\n      pop\n        /* \"#utility.yul\":7456:7597   */\n      swap2\n      swap1\n      pop\n      jump\t// out\n        /* \"#utility.yul\":7603:7696   */\n    tag_100:\n        /* \"#utility.yul\":7640:7646   */\n      0x00\n        /* \"#utility.yul\":7687:7689   */\n      0x20\n        /* \"#utility.yul\":7682:7684   */\n      0x1f\n        /* \"#utility.yul\":7675:7680   */\n      dup4\n        /* \"#utility.yul\":7671:7685   */\n      add\n        /* \"#utility.yul\":7667:7690   */\n      div\n        /* \"#utility.yul\":7657:7690   */\n      swap1\n      pop\n        /* \"#utility.yul\":7603:7696   */\n      swap2\n      swap1\n      pop\n      jump\t// out\n        /* \"#utility.yul\":7702:7809   */\n    tag_101:\n        /* \"#utility.yul\":7746:7754   */\n      0x00\n        /* \"#utility.yul\":7796:7801   */\n      dup3\n        /* \"#utility.yul\":7790:7794   */\n      dup3\n        /* \"#utility.yul\":7786:7802   */\n      shl\n        /* \"#utility.yul\":7765:7802   */\n      swap1\n      pop\n        /* \"#utility.yul\":7702:7809   */\n      swap3\n      swap2\n      pop\n      pop\n      jump\t// out\n        /* \"#utility.yul\":7815:8208   */\n    tag_102:\n        /* \"#utility.yul\":7884:7890   */\n      0x00\n        /* \"#utility.yul\":7934:7935   */\n      0x08\n        /* \"#utility.yul\":7922:7932   */\n      dup4\n        /* \"#utility.yul\":7918:7936   */\n      mul\n        /* \"#utility.yul\":7957:8054   */\n      tag_203\n        /* \"#utility.yul\":7987:8053   */\n      0xffffffffffffffffffffffffffffffffffffffffffffffffffffffffffffffff\n        /* \"#utility.yul\":7976:7985   */\n      dup3\n        /* \"#utility.yul\":7957:8054   */\n      tag_101\n      jump\t// in\n    tag_203:\n        /* \"#utility.yul\":8075:8114   */\n      tag_204\n        /* \"#utility.yul\":8105:8113   */\n      dup7\n        /* \"#utility.yul\":8094:8103   */\n      dup4\n        /* \"#utility.yul\":8075:8114   */\n      tag_101\n      jump\t// in\n    tag_204:\n        /* \"#utility.yul\":8063:8114   */\n      swap6\n      pop\n        /* \"#utility.yul\":8147:8151   */\n      dup1\n        /* \"#utility.yul\":8143:8152   */\n      not\n        /* \"#utility.yul\":8136:8141   */\n      dup5\n        /* \"#utility.yul\":8132:8153   */\n      and\n        /* \"#utility.yul\":8123:8153   */\n      swap4\n      pop\n        /* \"#utility.yul\":8196:8200   */\n      dup1\n        /* \"#utility.yul\":8186:8194   */\n      dup7\n        /* \"#utility.yul\":8182:8201   */\n      and\n        /* \"#utility.yul\":8175:8180   */\n      dup5\n        /* \"#utility.yul\":8172:8202   */\n      or\n        /* \"#utility.yul\":8162:8202   */\n      swap3\n      pop\n        /* \"#utility.yul\":7891:8208   */\n      pop\n      pop\n        /* \"#utility.yul\":7815:8208   */\n      swap4\n      swap3\n      pop\n      pop\n      pop\n      jump\t// out\n        /* \"#utility.yul\":8214:8274   */\n    tag_103:\n        /* \"#utility.yul\":8242:8245   */\n      0x00\n        /* \"#utility.yul\":8263:8268   */\n      dup2\n        /* \"#utility.yul\":8256:8268   */\n      swap1\n      pop\n        /* \"#utility.yul\":8214:8274   */\n      swap2\n      swap1\n      pop\n      jump\t// out\n        /* \"#utility.yul\":8280:8422   */\n    tag_104:\n        /* \"#utility.yul\":8330:8339   */\n      0x00\n        /* \"#utility.yul\":8363:8416   */\n      tag_207\n        /* \"#utility.yul\":8381:8415   */\n      tag_208\n        /* \"#utility.yul\":8390:8414   */\n      tag_209\n        /* \"#utility.yul\":8408:8413   */\n      dup5\n        /* \"#utility.yul\":8390:8414   */\n      tag_85\n      jump\t// in\n    tag_209:\n        /* \"#utility.yul\":8381:8415   */\n      tag_103\n      jump\t// in\n    tag_208:\n        /* \"#utility.yul\":8363:8416   */\n      tag_85\n      jump\t// in\n    tag_207:\n        /* \"#utility.yul\":8350:8416   */\n      swap1\n      pop\n        /* \"#utility.yul\":8280:8422   */\n      swap2\n      swap1\n      pop\n      jump\t// out\n        /* \"#utility.yul\":8428:8503   */\n    tag_105:\n        /* \"#utility.yul\":8471:8474   */\n      0x00\n        /* \"#utility.yul\":8492:8497   */\n      dup2\n        /* \"#utility.yul\":8485:8497   */\n      swap1\n      pop\n        /* \"#utility.yul\":8428:8503   */\n      swap2\n      swap1\n      pop\n      jump\t// out\n        /* \"#utility.yul\":8509:8778   */\n    tag_106:\n        /* \"#utility.yul\":8619:8658   */\n      tag_212\n        /* \"#utility.yul\":8650:8657   */\n      dup4\n        /* \"#utility.yul\":8619:8658   */\n      tag_104\n      jump\t// in\n    tag_212:\n        /* \"#utility.yul\":8680:8771   */\n      tag_213\n        /* \"#utility.yul\":8729:8770   */\n      tag_214\n        /* \"#utility.yul\":8753:8769   */\n      dup3\n        /* \"#utility.yul\":8729:8770   */\n      tag_105\n      jump\t// in\n    tag_214:\n        /* \"#utility.yul\":8721:8727   */\n      dup5\n        /* \"#utility.yul\":8714:8718   */\n      dup5\n        /* \"#utility.yul\":8708:8719   */\n      sload\n        /* \"#utility.yul\":8680:8771   */\n      tag_102\n      jump\t// in\n    tag_213:\n        /* \"#utility.yul\":8674:8678   */\n      dup3\n        /* \"#utility.yul\":8667:8772   */\n      sstore\n        /* \"#utility.yul\":8585:8778   */\n      pop\n        /* \"#utility.yul\":8509:8778   */\n      pop\n      pop\n      pop\n      jump\t// out\n        /* \"#utility.yul\":8784:8857   */\n    tag_107:\n        /* \"#utility.yul\":8829:8832   */\n      0x00\n        /* \"#utility.yul\":8850:8851   */\n      0x00\n        /* \"#utility.yul\":8843:8851   */\n      swap1\n      pop\n        /* \"#utility.yul\":8784:8857   */\n      swap1\n      jump\t// out\n        /* \"#utility.yul\":8863:9052   */\n    tag_108:\n        /* \"#utility.yul\":8940:8972   */\n      tag_217\n      tag_107\n      jump\t// in\n    tag_217:\n        /* \"#utility.yul\":8981:9046   */\n      tag_218\n        /* \"#utility.yul\":9039:9045   */\n      dup2\n        /* \"#utility.yul\":9031:9037   */\n      dup5\n        /* \"#utility.yul\":9025:9029   */\n      dup5\n        /* \"#utility.yul\":8981:9046   */\n      tag_106\n      jump\t// in\n    tag_218:\n        /* \"#utility.yul\":8916:9052   */\n      pop\n        /* \"#utility.yul\":8863:9052   */\n      pop\n      pop\n      jump\t// out\n        /* \"#utility.yul\":9058:9244   */\n    tag_109:\n        /* \"#utility.yul\":9118:9238   */\n    tag_220:\n        /* \"#utility.yul\":9135:9138   */\n      dup2\n        /* \"#utility.yul\":9128:9133   */\n      dup2\n        /* \"#utility.yul\":9125:9139   */\n      lt\n        /* \"#utility.yul\":9118:9238   */\n      iszero\n      tag_222\n      jumpi\n        /* \"#utility.yul\":9189:9228   */\n      tag_223\n        /* \"#utility.yul\":9226:9227   */\n      0x00\n        /* \"#utility.yul\":9219:9224   */\n      dup3\n        /* \"#utility.yul\":9189:9228   */\n      tag_108\n      jump\t// in\n    tag_223:\n        /* \"#utility.yul\":9162:9163   */\n      0x01\n        /* \"#utility.yul\":9155:9160   */\n      dup2\n        /* \"#utility.yul\":9151:9164   */\n      add\n        /* \"#utility.yul\":9142:9164   */\n      swap1\n      pop\n        /* \"#utility.yul\":9118:9238   */\n      jump(tag_220)\n    tag_222:\n        /* \"#utility.yul\":9058:9244   */\n      pop\n      pop\n      jump\t// out\n        /* \"#utility.yul\":9250:9793   */\n    tag_110:\n        /* \"#utility.yul\":9351:9353   */\n      0x1f\n        /* \"#utility.yul\":9346:9349   */\n      dup3\n        /* \"#utility.yul\":9343:9354   */\n      gt\n        /* \"#utility.yul\":9340:9786   */\n      iszero\n      tag_225\n      jumpi\n        /* \"#utility.yul\":9385:9423   */\n      tag_226\n        /* \"#utility.yul\":9417:9422   */\n      dup2\n        /* \"#utility.yul\":9385:9423   */\n      tag_99\n      jump\t// in\n    tag_226:\n        /* \"#utility.yul\":9469:9498   */\n      tag_227\n        /* \"#utility.yul\":9487:9497   */\n      dup5\n        /* \"#utility.yul\":9469:9498   */\n      tag_100\n      jump\t// in\n    tag_227:\n        /* \"#utility.yul\":9459:9467   */\n      dup2\n        /* \"#utility.yul\":9455:9499   */\n      add\n        /* \"#utility.yul\":9652:9654   */\n      0x20\n        /* \"#utility.yul\":9640:9650   */\n      dup6\n        /* \"#utility.yul\":9637:9655   */\n      lt\n        /* \"#utility.yul\":9634:9683   */\n      iszero\n      tag_228\n      jumpi\n        /* \"#utility.yul\":9673:9681   */\n      dup2\n        /* \"#utility.yul\":9658:9681   */\n      swap1\n      pop\n        /* \"#utility.yul\":9634:9683   */\n    tag_228:\n        /* \"#utility.yul\":9696:9776   */\n      tag_229\n        /* \"#utility.yul\":9752:9774   */\n      tag_230\n        /* \"#utility.yul\":9770:9773   */\n      dup6\n        /* \"#utility.yul\":9752:9774   */\n      tag_100\n      jump\t// in\n    tag_230:\n        /* \"#utility.yul\":9742:9750   */\n      dup4\n        /* \"#utility.yul\":9738:9775   */\n      add\n        /* \"#utility.yul\":9725:9736   */\n      dup3\n        /* \"#utility.yul\":9696:9776   */\n      tag_109\n      jump\t// in\n    tag_229:\n        /* \"#utility.yul\":9355:9786   */\n      pop\n      pop\n        /* \"#utility.yul\":9340:9786   */\n    tag_225:\n        /* \"#utility.yul\":9250:9793   */\n      pop\n      pop\n      pop\n      jump\t// out\n        /* \"#utility.yul\":9799:9916   */\n    tag_111:\n        /* \"#utility.yul\":9853:9861   */\n      0x00\n        /* \"#utility.yul\":9903:9908   */\n      dup3\n        /* \"#utility.yul\":9897:9901   */\n      dup3\n        /* \"#utility.yul\":9893:9909   */\n      shr\n        /* \"#utility.yul\":9872:9909   */\n      swap1\n      pop\n        /* \"#utility.yul\":9799:9916   */\n      swap3\n      swap2\n      pop\n      pop\n      jump\t// out\n        /* \"#utility.yul\":9922:10091   */\n    tag_112:\n        /* \"#utility.yul\":9966:9972   */\n      0x00\n        /* \"#utility.yul\":9999:10050   */\n      tag_233\n        /* \"#utility.yul\":10047:10048   */\n      0x00\n        /* \"#utility.yul\":10043:10049   */\n      not\n        /* \"#utility.yul\":10035:10040   */\n      dup5\n        /* \"#utility.yul\":10032:10033   */\n      0x08\n        /* \"#utility.yul\":10028:10041   */\n      mul\n        /* \"#utility.yul\":9999:10050   */\n      tag_111\n      jump\t// in\n    tag_233:\n        /* \"#utility.yul\":9995:10051   */\n      not\n        /* \"#utility.yul\":10080:10084   */\n      dup1\n        /* \"#utility.yul\":10074:10078   */\n      dup4\n        /* \"#utility.yul\":10070:10085   */\n      and\n        /* \"#utility.yul\":10060:10085   */\n      swap2\n      pop\n        /* \"#utility.yul\":9973:10091   */\n      pop\n        /* \"#utility.yul\":9922:10091   */\n      swap3\n      swap2\n      pop\n      pop\n      jump\t// out\n        /* \"#utility.yul\":10096:10391   */\n    tag_113:\n        /* \"#utility.yul\":10172:10176   */\n      0x00\n        /* \"#utility.yul\":10318:10347   */\n      tag_235\n        /* \"#utility.yul\":10343:10346   */\n      dup4\n        /* \"#utility.yul\":10337:10341   */\n      dup4\n        /* \"#utility.yul\":10318:10347   */\n      tag_112\n      jump\t// in\n    tag_235:\n        /* \"#utility.yul\":10310:10347   */\n      swap2\n      pop\n        /* \"#utility.yul\":10380:10383   */\n      dup3\n        /* \"#utility.yul\":10377:10378   */\n      0x02\n        /* \"#utility.yul\":10373:10384   */\n      mul\n        /* \"#utility.yul\":10367:10371   */\n      dup3\n        /* \"#utility.yul\":10364:10385   */\n      or\n        /* \"#utility.yul\":10356:10385   */\n      swap1\n      pop\n        /* \"#utility.yul\":10096:10391   */\n      swap3\n      swap2\n      pop\n      pop\n      jump\t// out\n        /* \"#utility.yul\":10396:11791   */\n    tag_39:\n        /* \"#utility.yul\":10513:10550   */\n      tag_237\n        /* \"#utility.yul\":10546:10549   */\n      dup3\n        /* \"#utility.yul\":10513:10550   */\n      tag_89\n      jump\t// in\n    tag_237:\n        /* \"#utility.yul\":10615:10633   */\n      0xffffffffffffffff\n        /* \"#utility.yul\":10607:10613   */\n      dup2\n        /* \"#utility.yul\":10604:10634   */\n      gt\n        /* \"#utility.yul\":10601:10657   */\n      iszero\n      tag_238\n      jumpi\n        /* \"#utility.yul\":10637:10655   */\n      tag_239\n      tag_78\n      jump\t// in\n    tag_239:\n        /* \"#utility.yul\":10601:10657   */\n    tag_238:\n        /* \"#utility.yul\":10681:10719   */\n      tag_240\n        /* \"#utility.yul\":10713:10717   */\n      dup3\n        /* \"#utility.yul\":10707:10718   */\n      sload\n        /* \"#utility.yul\":10681:10719   */\n      tag_51\n      jump\t// in\n    tag_240:\n        /* \"#utility.yul\":10766:10833   */\n      tag_241\n        /* \"#utility.yul\":10826:10832   */\n      dup3\n        /* \"#utility.yul\":10818:10824   */\n      dup3\n        /* \"#utility.yul\":10812:10816   */\n      dup6\n        /* \"#utility.yul\":10766:10833   */\n      tag_110\n      jump\t// in\n    tag_241:\n        /* \"#utility.yul\":10860:10861   */\n      0x00\n        /* \"#utility.yul\":10884:10888   */\n      0x20\n        /* \"#utility.yul\":10871:10888   */\n      swap1\n      pop\n        /* \"#utility.yul\":10916:10918   */\n      0x1f\n        /* \"#utility.yul\":10908:10914   */\n      dup4\n        /* \"#utility.yul\":10905:10919   */\n      gt\n        /* \"#utility.yul\":10933:10934   */\n      0x01\n        /* \"#utility.yul\":10928:11546   */\n      dup2\n      eq\n      tag_243\n      jumpi\n        /* \"#utility.yul\":11590:11591   */\n      0x00\n        /* \"#utility.yul\":11607:11613   */\n      dup5\n        /* \"#utility.yul\":11604:11681   */\n      iszero\n      tag_244\n      jumpi\n        /* \"#utility.yul\":11656:11665   */\n      dup3\n        /* \"#utility.yul\":11651:11654   */\n      dup8\n        /* \"#utility.yul\":11647:11666   */\n      add\n        /* \"#utility.yul\":11641:11667   */\n      mload\n        /* \"#utility.yul\":11632:11667   */\n      swap1\n      pop\n        /* \"#utility.yul\":11604:11681   */\n    tag_244:\n        /* \"#utility.yul\":11707:11774   */\n      tag_245\n        /* \"#utility.yul\":11767:11773   */\n      dup6\n        /* \"#utility.yul\":11760:11765   */\n      dup3\n        /* \"#utility.yul\":11707:11774   */\n      tag_113\n      jump\t// in\n    tag_245:\n        /* \"#utility.yul\":11701:11705   */\n      dup7\n        /* \"#utility.yul\":11694:11775   */\n      sstore\n        /* \"#utility.yul\":11563:11785   */\n      pop\n        /* \"#utility.yul\":10898:11785   */\n      jump(tag_242)\n        /* \"#utility.yul\":10928:11546   */\n    tag_243:\n        /* \"#utility.yul\":10980:10984   */\n      0x1f\n        /* \"#utility.yul\":10976:10985   */\n      not\n        /* \"#utility.yul\":10968:10974   */\n      dup5\n        /* \"#utility.yul\":10964:10986   */\n      and\n        /* \"#utility.yul\":11014:11051   */\n      tag_246\n        /* \"#utility.yul\":11046:11050   */\n      dup7\n        /* \"#utility.yul\":11014:11051   */\n      tag_99\n      jump\t// in\n    tag_246:\n        /* \"#utility.yul\":11073:11074   */\n      0x00\n        /* \"#utility.yul\":11087:11295   */\n    tag_247:\n        /* \"#utility.yul\":11101:11108   */\n      dup3\n        /* \"#utility.yul\":11098:11099   */\n      dup2\n        /* \"#utility.yul\":11095:11109   */\n      lt\n        /* \"#utility.yul\":11087:11295   */\n      iszero\n      tag_249\n      jumpi\n        /* \"#utility.yul\":11180:11189   */\n      dup5\n        /* \"#utility.yul\":11175:11178   */\n      dup10\n        /* \"#utility.yul\":11171:11190   */\n      add\n        /* \"#utility.yul\":11165:11191   */\n      mload\n        /* \"#utility.yul\":11157:11163   */\n      dup3\n        /* \"#utility.yul\":11150:11192   */\n      sstore\n        /* \"#utility.yul\":11231:11232   */\n      0x01\n        /* \"#utility.yul\":11223:11229   */\n      dup3\n        /* \"#utility.yul\":11219:11233   */\n      add\n        /* \"#utility.yul\":11209:11233   */\n      swap2\n      pop\n        /* \"#utility.yul\":11278:11280   */\n      0x20\n        /* \"#utility.yul\":11267:11276   */\n      dup6\n        /* \"#utility.yul\":11263:11281   */\n      add\n        /* \"#utility.yul\":11250:11281   */\n      swap5\n      pop\n        /* \"#utility.yul\":11124:11128   */\n      0x20\n        /* \"#utility.yul\":11121:11122   */\n      dup2\n        /* \"#utility.yul\":11117:11129   */\n      add\n        /* \"#utility.yul\":11112:11129   */\n      swap1\n      pop\n        /* \"#utility.yul\":11087:11295   */\n      jump(tag_247)\n    tag_249:\n        /* \"#utility.yul\":11323:11329   */\n      dup7\n        /* \"#utility.yul\":11314:11321   */\n      dup4\n        /* \"#utility.yul\":11311:11330   */\n      lt\n        /* \"#utility.yul\":11308:11487   */\n      iszero\n      tag_250\n      jumpi\n        /* \"#utility.yul\":11381:11390   */\n      dup5\n        /* \"#utility.yul\":11376:11379   */\n      dup10\n        /* \"#utility.yul\":11372:11391   */\n      add\n        /* \"#utility.yul\":11366:11392   */\n      mload\n        /* \"#utility.yul\":11424:11472   */\n      tag_251\n        /* \"#utility.yul\":11466:11470   */\n      0x1f\n        /* \"#utility.yul\":11458:11464   */\n      dup10\n        /* \"#utility.yul\":11454:11471   */\n      and\n        /* \"#utility.yul\":11443:11452   */\n      dup3\n        /* \"#utility.yul\":11424:11472   */\n      tag_112\n      jump\t// in\n    tag_251:\n        /* \"#utility.yul\":11416:11422   */\n      dup4\n        /* \"#utility.yul\":11409:11473   */\n      sstore\n        /* \"#utility.yul\":11331:11487   */\n      pop\n        /* \"#utility.yul\":11308:11487   */\n    tag_250:\n        /* \"#utility.yul\":11533:11534   */\n      0x01\n        /* \"#utility.yul\":11529:11530   */\n      0x02\n        /* \"#utility.yul\":11521:11527   */\n      dup9\n        /* \"#utility.yul\":11517:11531   */\n      mul\n        /* \"#utility.yul\":11513:11535   */\n      add\n        /* \"#utility.yul\":11507:11511   */\n      dup9\n        /* \"#utility.yul\":11500:11536   */\n      sstore\n        /* \"#utility.yul\":10935:11546   */\n      pop\n      pop\n      pop\n        /* \"#utility.yul\":10898:11785   */\n    tag_242:\n      pop\n        /* \"#utility.yul\":10488:11791   */\n      pop\n      pop\n      pop\n        /* \"#utility.yul\":10396:11791   */\n      pop\n      pop\n      jump\t// out\n\n    auxdata: 0xa2646970667358221220e175dea02ba1bf5813ee3e83f17b7e01a80f3f08c6a175ed462b70940f83d9ab64736f6c634300081f0033\n}\n",
				"bytecode": {
					"linkReferences": {},
					"object": "608060405234801561000f575f5ffd5b50335f73ffffffffffffffffffffffffffffffffffffffff168173ffffffffffffffffffffffffffffffffffffffff1603610081575f6040517f1e4fbdf70000000000000000000000000000000000000000000000000000000081526004016100789190610196565b60405180910390fd5b6100908161009660201b60201c565b506101af565b5f5f5f9054906101000a900473ffffffffffffffffffffffffffffffffffffffff169050815f5f6101000a81548173ffffffffffffffffffffffffffffffffffffffff021916908373ffffffffffffffffffffffffffffffffffffffff1602179055508173ffffffffffffffffffffffffffffffffffffffff168173ffffffffffffffffffffffffffffffffffffffff167f8be0079c531659141344cd1fd0a4f28419497f9722a3daafe3b4186f6b6457e060405160405180910390a35050565b5f73ffffffffffffffffffffffffffffffffffffffff82169050919050565b5f61018082610157565b9050919050565b61019081610176565b82525050565b5f6020820190506101a95f830184610187565b92915050565b610aef806101bc5f395ff3fe608060405234801561000f575f5ffd5b5060043610610060575f3560e01c8063125b0b3414610064578063188ec35614610080578063715018a61461009e5780637acc0b20146100a85780638da5cb5b146100da578063f2fde38b146100f8575b5f5ffd5b61007e600480360381019061007991906105e5565b610114565b005b61008861018e565b6040516100959190610660565b60405180910390f35b6100a661019d565b005b6100c260048036038101906100bd9190610679565b6101b0565b6040516100d193929190610704565b60405180910390f35b6100e261026b565b6040516100ef919061077f565b60405180910390f35b610112600480360381019061010d91906107c2565b610292565b005b61011c610316565b6001604051806060016040528085815260200184815260200183815250908060018154018082558091505060019003905f5260205f2090600302015f909190919091505f820151815f01908161017291906109ea565b5060208201518160010155604082015181600201555050505050565b5f610197610316565b42905090565b6101a5610316565b6101ae5f61039d565b565b600181815481106101bf575f80fd5b905f5260205f2090600302015f91509050805f0180546101de9061081a565b80601f016020809104026020016040519081016040528092919081815260200182805461020a9061081a565b80156102555780601f1061022c57610100808354040283529160200191610255565b820191905f5260205f20905b81548152906001019060200180831161023857829003601f168201915b5050505050908060010154908060020154905083565b5f5f5f9054906101000a900473ffffffffffffffffffffffffffffffffffffffff16905090565b61029a610316565b5f73ffffffffffffffffffffffffffffffffffffffff168173ffffffffffffffffffffffffffffffffffffffff160361030a575f6040517f1e4fbdf7000000000000000000000000000000000000000000000000000000008152600401610301919061077f565b60405180910390fd5b6103138161039d565b50565b61031e61045e565b73ffffffffffffffffffffffffffffffffffffffff1661033c61026b565b73ffffffffffffffffffffffffffffffffffffffff161461039b5761035f61045e565b6040517f118cdaa7000000000000000000000000000000000000000000000000000000008152600401610392919061077f565b60405180910390fd5b565b5f5f5f9054906101000a900473ffffffffffffffffffffffffffffffffffffffff169050815f5f6101000a81548173ffffffffffffffffffffffffffffffffffffffff021916908373ffffffffffffffffffffffffffffffffffffffff1602179055508173ffffffffffffffffffffffffffffffffffffffff168173ffffffffffffffffffffffffffffffffffffffff167f8be0079c531659141344cd1fd0a4f28419497f9722a3daafe3b4186f6b6457e060405160405180910390a35050565b5f33905090565b5f604051905090565b5f5ffd5b5f5ffd5b5f5ffd5b5f5ffd5b5f601f19601f8301169050919050565b7f4e487b71000000000000000000000000000000000000000000000000000000005f52604160045260245ffd5b6104c48261047e565b810181811067ffffffffffffffff821117156104e3576104e261048e565b5b80604052505050565b5f6104f5610465565b905061050182826104bb565b919050565b5f67ffffffffffffffff8211156105205761051f61048e565b5b6105298261047e565b9050602081019050919050565b828183375f83830152505050565b5f61055661055184610506565b6104ec565b9050828152602081018484840111156105725761057161047a565b5b61057d848285610536565b509392505050565b5f82601f83011261059957610598610476565b5b81356105a9848260208601610544565b91505092915050565b5f819050919050565b6105c4816105b2565b81146105ce575f5ffd5b50565b5f813590506105df816105bb565b92915050565b5f5f5f606084860312156105fc576105fb61046e565b5b5f84013567ffffffffffffffff81111561061957610618610472565b5b61062586828701610585565b9350506020610636868287016105d1565b9250506040610647868287016105d1565b9150509250925092565b61065a816105b2565b82525050565b5f6020820190506106735f830184610651565b92915050565b5f6020828403121561068e5761068d61046e565b5b5f61069b848285016105d1565b91505092915050565b5f81519050919050565b5f82825260208201905092915050565b8281835e5f83830152505050565b5f6106d6826106a4565b6106e081856106ae565b93506106f08185602086016106be565b6106f98161047e565b840191505092915050565b5f6060820190508181035f83015261071c81866106cc565b905061072b6020830185610651565b6107386040830184610651565b949350505050565b5f73ffffffffffffffffffffffffffffffffffffffff82169050919050565b5f61076982610740565b9050919050565b6107798161075f565b82525050565b5f6020820190506107925f830184610770565b92915050565b6107a18161075f565b81146107ab575f5ffd5b50565b5f813590506107bc81610798565b92915050565b5f602082840312156107d7576107d661046e565b5b5f6107e4848285016107ae565b91505092915050565b7f4e487b71000000000000000000000000000000000000000000000000000000005f52602260045260245ffd5b5f600282049050600182168061083157607f821691505b602082108103610844576108436107ed565b5b50919050565b5f819050815f5260205f209050919050565b5f6020601f8301049050919050565b5f82821b905092915050565b5f600883026108a67fffffffffffffffffffffffffffffffffffffffffffffffffffffffffffffffff8261086b565b6108b0868361086b565b95508019841693508086168417925050509392505050565b5f819050919050565b5f6108eb6108e66108e1846105b2565b6108c8565b6105b2565b9050919050565b5f819050919050565b610904836108d1565b610918610910826108f2565b848454610877565b825550505050565b5f5f905090565b61092f610920565b61093a8184846108fb565b505050565b5b8181101561095d576109525f82610927565b600181019050610940565b5050565b601f8211156109a2576109738161084a565b61097c8461085c565b8101602085101561098b578190505b61099f6109978561085c565b83018261093f565b50505b505050565b5f82821c905092915050565b5f6109c25f19846008026109a7565b1980831691505092915050565b5f6109da83836109b3565b9150826002028217905092915050565b6109f3826106a4565b67ffffffffffffffff811115610a0c57610a0b61048e565b5b610a16825461081a565b610a21828285610961565b5f60209050601f831160018114610a52575f8415610a40578287015190505b610a4a85826109cf565b865550610ab1565b601f198416610a608661084a565b5f5b82811015610a8757848901518255600182019150602085019450602081019050610a62565b86831015610aa45784890151610aa0601f8916826109b3565b8355505b6001600288020188555050505b50505050505056fea2646970667358221220e175dea02ba1bf5813ee3e83f17b7e01a80f3f08c6a175ed462b70940f83d9ab64736f6c634300081f0033",
					"opcodes": "PUSH1 0x80 PUSH1 0x40 MSTORE CALLVALUE DUP1 ISZERO PUSH2 0xF JUMPI PUSH0 PUSH0 REVERT JUMPDEST POP CALLER PUSH0 PUSH20 0xFFFFFFFFFFFFFFFFFFFFFFFFFFFFFFFFFFFFFFFF AND DUP2 PUSH20 0xFFFFFFFFFFFFFFFFFFFFFFFFFFFFFFFFFFFFFFFF AND SUB PUSH2 0x81 JUMPI PUSH0 PUSH1 0x40 MLOAD PUSH32 0x1E4FBDF700000000000000000000000000000000000000000000000000000000 DUP2 MSTORE PUSH1 0x4 ADD PUSH2 0x78 SWAP2 SWAP1 PUSH2 0x196 JUMP JUMPDEST PUSH1 0x40 MLOAD DUP1 SWAP2 SUB SWAP1 REVERT JUMPDEST PUSH2 0x90 DUP2 PUSH2 0x96 PUSH1 0x20 SHL PUSH1 0x20 SHR JUMP JUMPDEST POP PUSH2 0x1AF JUMP JUMPDEST PUSH0 PUSH0 PUSH0 SWAP1 SLOAD SWAP1 PUSH2 0x100 EXP SWAP1 DIV PUSH20 0xFFFFFFFFFFFFFFFFFFFFFFFFFFFFFFFFFFFFFFFF AND SWAP1 POP DUP2 PUSH0 PUSH0 PUSH2 0x100 EXP DUP2 SLOAD DUP2 PUSH20 0xFFFFFFFFFFFFFFFFFFFFFFFFFFFFFFFFFFFFFFFF MUL NOT AND SWAP1 DUP4 PUSH20 0xFFFFFFFFFFFFFFFFFFFFFFFFFFFFFFFFFFFFFFFF AND MUL OR SWAP1 SSTORE POP DUP2 PUSH20 0xFFFFFFFFFFFFFFFFFFFFFFFFFFFFFFFFFFFFFFFF AND DUP2 PUSH20 0xFFFFFFFFFFFFFFFFFFFFFFFFFFFFFFFFFFFFFFFF AND PUSH32 0x8BE0079C531659141344CD1FD0A4F28419497F9722A3DAAFE3B4186F6B6457E0 PUSH1 0x40 MLOAD PUSH1 0x40 MLOAD DUP1 SWAP2 SUB SWAP1 LOG3 POP POP JUMP JUMPDEST PUSH0 PUSH20 0xFFFFFFFFFFFFFFFFFFFFFFFFFFFFFFFFFFFFFFFF DUP3 AND SWAP1 POP SWAP2 SWAP1 POP JUMP JUMPDEST PUSH0 PUSH2 0x180 DUP3 PUSH2 0x157 JUMP JUMPDEST SWAP1 POP SWAP2 SWAP1 POP JUMP JUMPDEST PUSH2 0x190 DUP2 PUSH2 0x176 JUMP JUMPDEST DUP3 MSTORE POP POP JUMP JUMPDEST PUSH0 PUSH1 0x20 DUP3 ADD SWAP1 POP PUSH2 0x1A9 PUSH0 DUP4 ADD DUP5 PUSH2 0x187 JUMP JUMPDEST SWAP3 SWAP2 POP POP JUMP JUMPDEST PUSH2 0xAEF DUP1 PUSH2 0x1BC PUSH0 CODECOPY PUSH0 RETURN INVALID PUSH1 0x80 PUSH1 0x40 MSTORE CALLVALUE DUP1 ISZERO PUSH2 0xF JUMPI PUSH0 PUSH0 REVERT JUMPDEST POP PUSH1 0x4 CALLDATASIZE LT PUSH2 0x60 JUMPI PUSH0 CALLDATALOAD PUSH1 0xE0 SHR DUP1 PUSH4 0x125B0B34 EQ PUSH2 0x64 JUMPI DUP1 PUSH4 0x188EC356 EQ PUSH2 0x80 JUMPI DUP1 PUSH4 0x715018A6 EQ PUSH2 0x9E JUMPI DUP1 PUSH4 0x7ACC0B20 EQ PUSH2 0xA8 JUMPI DUP1 PUSH4 0x8DA5CB5B EQ PUSH2 0xDA JUMPI DUP1 PUSH4 0xF2FDE38B EQ PUSH2 0xF8 JUMPI JUMPDEST PUSH0 PUSH0 REVERT JUMPDEST PUSH2 0x7E PUSH1 0x4 DUP1 CALLDATASIZE SUB DUP2 ADD SWAP1 PUSH2 0x79 SWAP2 SWAP1 PUSH2 0x5E5 JUMP JUMPDEST PUSH2 0x114 JUMP JUMPDEST STOP JUMPDEST PUSH2 0x88 PUSH2 0x18E JUMP JUMPDEST PUSH1 0x40 MLOAD PUSH2 0x95 SWAP2 SWAP1 PUSH2 0x660 JUMP JUMPDEST PUSH1 0x40 MLOAD DUP1 SWAP2 SUB SWAP1 RETURN JUMPDEST PUSH2 0xA6 PUSH2 0x19D JUMP JUMPDEST STOP JUMPDEST PUSH2 0xC2 PUSH1 0x4 DUP1 CALLDATASIZE SUB DUP2 ADD SWAP1 PUSH2 0xBD SWAP2 SWAP1 PUSH2 0x679 JUMP JUMPDEST PUSH2 0x1B0 JUMP JUMPDEST PUSH1 0x40 MLOAD PUSH2 0xD1 SWAP4 SWAP3 SWAP2 SWAP1 PUSH2 0x704 JUMP JUMPDEST PUSH1 0x40 MLOAD DUP1 SWAP2 SUB SWAP1 RETURN JUMPDEST PUSH2 0xE2 PUSH2 0x26B JUMP JUMPDEST PUSH1 0x40 MLOAD PUSH2 0xEF SWAP2 SWAP1 PUSH2 0x77F JUMP JUMPDEST PUSH1 0x40 MLOAD DUP1 SWAP2 SUB SWAP1 RETURN JUMPDEST PUSH2 0x112 PUSH1 0x4 DUP1 CALLDATASIZE SUB DUP2 ADD SWAP1 PUSH2 0x10D SWAP2 SWAP1 PUSH2 0x7C2 JUMP JUMPDEST PUSH2 0x292 JUMP JUMPDEST STOP JUMPDEST PUSH2 0x11C PUSH2 0x316 JUMP JUMPDEST PUSH1 0x1 PUSH1 0x40 MLOAD DUP1 PUSH1 0x60 ADD PUSH1 0x40 MSTORE DUP1 DUP6 DUP2 MSTORE PUSH1 0x20 ADD DUP5 DUP2 MSTORE PUSH1 0x20 ADD DUP4 DUP2 MSTORE POP SWAP1 DUP1 PUSH1 0x1 DUP2 SLOAD ADD DUP1 DUP3 SSTORE DUP1 SWAP2 POP POP PUSH1 0x1 SWAP1 SUB SWAP1 PUSH0 MSTORE PUSH1 0x20 PUSH0 KECCAK256 SWAP1 PUSH1 0x3 MUL ADD PUSH0 SWAP1 SWAP2 SWAP1 SWAP2 SWAP1 SWAP2 POP PUSH0 DUP3 ADD MLOAD DUP2 PUSH0 ADD SWAP1 DUP2 PUSH2 0x172 SWAP2 SWAP1 PUSH2 0x9EA JUMP JUMPDEST POP PUSH1 0x20 DUP3 ADD MLOAD DUP2 PUSH1 0x1 ADD SSTORE PUSH1 0x40 DUP3 ADD MLOAD DUP2 PUSH1 0x2 ADD SSTORE POP POP POP POP POP JUMP JUMPDEST PUSH0 PUSH2 0x197 PUSH2 0x316 JUMP JUMPDEST TIMESTAMP SWAP1 POP SWAP1 JUMP JUMPDEST PUSH2 0x1A5 PUSH2 0x316 JUMP JUMPDEST PUSH2 0x1AE PUSH0 PUSH2 0x39D JUMP JUMPDEST JUMP JUMPDEST PUSH1 0x1 DUP2 DUP2 SLOAD DUP2 LT PUSH2 0x1BF JUMPI PUSH0 DUP1 REVERT JUMPDEST SWAP1 PUSH0 MSTORE PUSH1 0x20 PUSH0 KECCAK256 SWAP1 PUSH1 0x3 MUL ADD PUSH0 SWAP2 POP SWAP1 POP DUP1 PUSH0 ADD DUP1 SLOAD PUSH2 0x1DE SWAP1 PUSH2 0x81A JUMP JUMPDEST DUP1 PUSH1 0x1F ADD PUSH1 0x20 DUP1 SWAP2 DIV MUL PUSH1 0x20 ADD PUSH1 0x40 MLOAD SWAP1 DUP2 ADD PUSH1 0x40 MSTORE DUP1 SWAP3 SWAP2 SWAP1 DUP2 DUP2 MSTORE PUSH1 0x20 ADD DUP3 DUP1 SLOAD PUSH2 0x20A SWAP1 PUSH2 0x81A JUMP JUMPDEST DUP1 ISZERO PUSH2 0x255 JUMPI DUP1 PUSH1 0x1F LT PUSH2 0x22C JUMPI PUSH2 0x100 DUP1 DUP4 SLOAD DIV MUL DUP4 MSTORE SWAP2 PUSH1 0x20 ADD SWAP2 PUSH2 0x255 JUMP JUMPDEST DUP3 ADD SWAP2 SWAP1 PUSH0 MSTORE PUSH1 0x20 PUSH0 KECCAK256 SWAP1 JUMPDEST DUP2 SLOAD DUP2 MSTORE SWAP1 PUSH1 0x1 ADD SWAP1 PUSH1 0x20 ADD DUP1 DUP4 GT PUSH2 0x238 JUMPI DUP3 SWAP1 SUB PUSH1 0x1F AND DUP3 ADD SWAP2 JUMPDEST POP POP POP POP POP SWAP1 DUP1 PUSH1 0x1 ADD SLOAD SWAP1 DUP1 PUSH1 0x2 ADD SLOAD SWAP1 POP DUP4 JUMP JUMPDEST PUSH0 PUSH0 PUSH0 SWAP1 SLOAD SWAP1 PUSH2 0x100 EXP SWAP1 DIV PUSH20 0xFFFFFFFFFFFFFFFFFFFFFFFFFFFFFFFFFFFFFFFF AND SWAP1 POP SWAP1 JUMP JUMPDEST PUSH2 0x29A PUSH2 0x316 JUMP JUMPDEST PUSH0 PUSH20 0xFFFFFFFFFFFFFFFFFFFFFFFFFFFFFFFFFFFFFFFF AND DUP2 PUSH20 0xFFFFFFFFFFFFFFFFFFFFFFFFFFFFFFFFFFFFFFFF AND SUB PUSH2 0x30A JUMPI PUSH0 PUSH1 0x40 MLOAD PUSH32 0x1E4FBDF700000000000000000000000000000000000000000000000000000000 DUP2 MSTORE PUSH1 0x4 ADD PUSH2 0x301 SWAP2 SWAP1 PUSH2 0x77F JUMP JUMPDEST PUSH1 0x40 MLOAD DUP1 SWAP2 SUB SWAP1 REVERT JUMPDEST PUSH2 0x313 DUP2 PUSH2 0x39D JUMP JUMPDEST POP JUMP JUMPDEST PUSH2 0x31E PUSH2 0x45E JUMP JUMPDEST PUSH20 0xFFFFFFFFFFFFFFFFFFFFFFFFFFFFFFFFFFFFFFFF AND PUSH2 0x33C PUSH2 0x26B JUMP JUMPDEST PUSH20 0xFFFFFFFFFFFFFFFFFFFFFFFFFFFFFFFFFFFFFFFF AND EQ PUSH2 0x39B JUMPI PUSH2 0x35F PUSH2 0x45E JUMP JUMPDEST PUSH1 0x40 MLOAD PUSH32 0x118CDAA700000000000000000000000000000000000000000000000000000000 DUP2 MSTORE PUSH1 0x4 ADD PUSH2 0x392 SWAP2 SWAP1 PUSH2 0x77F JUMP JUMPDEST PUSH1 0x40 MLOAD DUP1 SWAP2 SUB SWAP1 REVERT JUMPDEST JUMP JUMPDEST PUSH0 PUSH0 PUSH0 SWAP1 SLOAD SWAP1 PUSH2 0x100 EXP SWAP1 DIV PUSH20 0xFFFFFFFFFFFFFFFFFFFFFFFFFFFFFFFFFFFFFFFF AND SWAP1 POP DUP2 PUSH0 PUSH0 PUSH2 0x100 EXP DUP2 SLOAD DUP2 PUSH20 0xFFFFFFFFFFFFFFFFFFFFFFFFFFFFFFFFFFFFFFFF MUL NOT AND SWAP1 DUP4 PUSH20 0xFFFFFFFFFFFFFFFFFFFFFFFFFFFFFFFFFFFFFFFF AND MUL OR SWAP1 SSTORE POP DUP2 PUSH20 0xFFFFFFFFFFFFFFFFFFFFFFFFFFFFFFFFFFFFFFFF AND DUP2 PUSH20 0xFFFFFFFFFFFFFFFFFFFFFFFFFFFFFFFFFFFFFFFF AND PUSH32 0x8BE0079C531659141344CD1FD0A4F28419497F9722A3DAAFE3B4186F6B6457E0 PUSH1 0x40 MLOAD PUSH1 0x40 MLOAD DUP1 SWAP2 SUB SWAP1 LOG3 POP POP JUMP JUMPDEST PUSH0 CALLER SWAP1 POP SWAP1 JUMP JUMPDEST PUSH0 PUSH1 0x40 MLOAD SWAP1 POP SWAP1 JUMP JUMPDEST PUSH0 PUSH0 REVERT JUMPDEST PUSH0 PUSH0 REVERT JUMPDEST PUSH0 PUSH0 REVERT JUMPDEST PUSH0 PUSH0 REVERT JUMPDEST PUSH0 PUSH1 0x1F NOT PUSH1 0x1F DUP4 ADD AND SWAP1 POP SWAP2 SWAP1 POP JUMP JUMPDEST PUSH32 0x4E487B7100000000000000000000000000000000000000000000000000000000 PUSH0 MSTORE PUSH1 0x41 PUSH1 0x4 MSTORE PUSH1 0x24 PUSH0 REVERT JUMPDEST PUSH2 0x4C4 DUP3 PUSH2 0x47E JUMP JUMPDEST DUP2 ADD DUP2 DUP2 LT PUSH8 0xFFFFFFFFFFFFFFFF DUP3 GT OR ISZERO PUSH2 0x4E3 JUMPI PUSH2 0x4E2 PUSH2 0x48E JUMP JUMPDEST JUMPDEST DUP1 PUSH1 0x40 MSTORE POP POP POP JUMP JUMPDEST PUSH0 PUSH2 0x4F5 PUSH2 0x465 JUMP JUMPDEST SWAP1 POP PUSH2 0x501 DUP3 DUP3 PUSH2 0x4BB JUMP JUMPDEST SWAP2 SWAP1 POP JUMP JUMPDEST PUSH0 PUSH8 0xFFFFFFFFFFFFFFFF DUP3 GT ISZERO PUSH2 0x520 JUMPI PUSH2 0x51F PUSH2 0x48E JUMP JUMPDEST JUMPDEST PUSH2 0x529 DUP3 PUSH2 0x47E JUMP JUMPDEST SWAP1 POP PUSH1 0x20 DUP2 ADD SWAP1 POP SWAP2 SWAP1 POP JUMP JUMPDEST DUP3 DUP2 DUP4 CALLDATACOPY PUSH0 DUP4 DUP4 ADD MSTORE POP POP POP JUMP JUMPDEST PUSH0 PUSH2 0x556 PUSH2 0x551 DUP5 PUSH2 0x506 JUMP JUMPDEST PUSH2 0x4EC JUMP JUMPDEST SWAP1 POP DUP3 DUP2 MSTORE PUSH1 0x20 DUP2 ADD DUP5 DUP5 DUP5 ADD GT ISZERO PUSH2 0x572 JUMPI PUSH2 0x571 PUSH2 0x47A JUMP JUMPDEST JUMPDEST PUSH2 0x57D DUP5 DUP3 DUP6 PUSH2 0x536 JUMP JUMPDEST POP SWAP4 SWAP3 POP POP POP JUMP JUMPDEST PUSH0 DUP3 PUSH1 0x1F DUP4 ADD SLT PUSH2 0x599 JUMPI PUSH2 0x598 PUSH2 0x476 JUMP JUMPDEST JUMPDEST DUP2 CALLDATALOAD PUSH2 0x5A9 DUP5 DUP3 PUSH1 0x20 DUP7 ADD PUSH2 0x544 JUMP JUMPDEST SWAP2 POP POP SWAP3 SWAP2 POP POP JUMP JUMPDEST PUSH0 DUP2 SWAP1 POP SWAP2 SWAP1 POP JUMP JUMPDEST PUSH2 0x5C4 DUP2 PUSH2 0x5B2 JUMP JUMPDEST DUP2 EQ PUSH2 0x5CE JUMPI PUSH0 PUSH0 REVERT JUMPDEST POP JUMP JUMPDEST PUSH0 DUP2 CALLDATALOAD SWAP1 POP PUSH2 0x5DF DUP2 PUSH2 0x5BB JUMP JUMPDEST SWAP3 SWAP2 POP POP JUMP JUMPDEST PUSH0 PUSH0 PUSH0 PUSH1 0x60 DUP5 DUP7 SUB SLT ISZERO PUSH2 0x5FC JUMPI PUSH2 0x5FB PUSH2 0x46E JUMP JUMPDEST JUMPDEST PUSH0 DUP5 ADD CALLDATALOAD PUSH8 0xFFFFFFFFFFFFFFFF DUP2 GT ISZERO PUSH2 0x619 JUMPI PUSH2 0x618 PUSH2 0x472 JUMP JUMPDEST JUMPDEST PUSH2 0x625 DUP7 DUP3 DUP8 ADD PUSH2 0x585 JUMP JUMPDEST SWAP4 POP POP PUSH1 0x20 PUSH2 0x636 DUP7 DUP3 DUP8 ADD PUSH2 0x5D1 JUMP JUMPDEST SWAP3 POP POP PUSH1 0x40 PUSH2 0x647 DUP7 DUP3 DUP8 ADD PUSH2 0x5D1 JUMP JUMPDEST SWAP2 POP POP SWAP3 POP SWAP3 POP SWAP3 JUMP JUMPDEST PUSH2 0x65A DUP2 PUSH2 0x5B2 JUMP JUMPDEST DUP3 MSTORE POP POP JUMP JUMPDEST PUSH0 PUSH1 0x20 DUP3 ADD SWAP1 POP PUSH2 0x673 PUSH0 DUP4 ADD DUP5 PUSH2 0x651 JUMP JUMPDEST SWAP3 SWAP2 POP POP JUMP JUMPDEST PUSH0 PUSH1 0x20 DUP3 DUP5 SUB SLT ISZERO PUSH2 0x68E JUMPI PUSH2 0x68D PUSH2 0x46E JUMP JUMPDEST JUMPDEST PUSH0 PUSH2 0x69B DUP5 DUP3 DUP6 ADD PUSH2 0x5D1 JUMP JUMPDEST SWAP2 POP POP SWAP3 SWAP2 POP POP JUMP JUMPDEST PUSH0 DUP2 MLOAD SWAP1 POP SWAP2 SWAP1 POP JUMP JUMPDEST PUSH0 DUP3 DUP3 MSTORE PUSH1 0x20 DUP3 ADD SWAP1 POP SWAP3 SWAP2 POP POP JUMP JUMPDEST DUP3 DUP2 DUP4 MCOPY PUSH0 DUP4 DUP4 ADD MSTORE POP POP POP JUMP JUMPDEST PUSH0 PUSH2 0x6D6 DUP3 PUSH2 0x6A4 JUMP JUMPDEST PUSH2 0x6E0 DUP2 DUP6 PUSH2 0x6AE JUMP JUMPDEST SWAP4 POP PUSH2 0x6F0 DUP2 DUP6 PUSH1 0x20 DUP7 ADD PUSH2 0x6BE JUMP JUMPDEST PUSH2 0x6F9 DUP2 PUSH2 0x47E JUMP JUMPDEST DUP5 ADD SWAP2 POP POP SWAP3 SWAP2 POP POP JUMP JUMPDEST PUSH0 PUSH1 0x60 DUP3 ADD SWAP1 POP DUP2 DUP2 SUB PUSH0 DUP4 ADD MSTORE PUSH2 0x71C DUP2 DUP7 PUSH2 0x6CC JUMP JUMPDEST SWAP1 POP PUSH2 0x72B PUSH1 0x20 DUP4 ADD DUP6 PUSH2 0x651 JUMP JUMPDEST PUSH2 0x738 PUSH1 0x40 DUP4 ADD DUP5 PUSH2 0x651 JUMP JUMPDEST SWAP5 SWAP4 POP POP POP POP JUMP JUMPDEST PUSH0 PUSH20 0xFFFFFFFFFFFFFFFFFFFFFFFFFFFFFFFFFFFFFFFF DUP3 AND SWAP1 POP SWAP2 SWAP1 POP JUMP JUMPDEST PUSH0 PUSH2 0x769 DUP3 PUSH2 0x740 JUMP JUMPDEST SWAP1 POP SWAP2 SWAP1 POP JUMP JUMPDEST PUSH2 0x779 DUP2 PUSH2 0x75F JUMP JUMPDEST DUP3 MSTORE POP POP JUMP JUMPDEST PUSH0 PUSH1 0x20 DUP3 ADD SWAP1 POP PUSH2 0x792 PUSH0 DUP4 ADD DUP5 PUSH2 0x770 JUMP JUMPDEST SWAP3 SWAP2 POP POP JUMP JUMPDEST PUSH2 0x7A1 DUP2 PUSH2 0x75F JUMP JUMPDEST DUP2 EQ PUSH2 0x7AB JUMPI PUSH0 PUSH0 REVERT JUMPDEST POP JUMP JUMPDEST PUSH0 DUP2 CALLDATALOAD SWAP1 POP PUSH2 0x7BC DUP2 PUSH2 0x798 JUMP JUMPDEST SWAP3 SWAP2 POP POP JUMP JUMPDEST PUSH0 PUSH1 0x20 DUP3 DUP5 SUB SLT ISZERO PUSH2 0x7D7 JUMPI PUSH2 0x7D6 PUSH2 0x46E JUMP JUMPDEST JUMPDEST PUSH0 PUSH2 0x7E4 DUP5 DUP3 DUP6 ADD PUSH2 0x7AE JUMP JUMPDEST SWAP2 POP POP SWAP3 SWAP2 POP POP JUMP JUMPDEST PUSH32 0x4E487B7100000000000000000000000000000000000000000000000000000000 PUSH0 MSTORE PUSH1 0x22 PUSH1 0x4 MSTORE PUSH1 0x24 PUSH0 REVERT JUMPDEST PUSH0 PUSH1 0x2 DUP3 DIV SWAP1 POP PUSH1 0x1 DUP3 AND DUP1 PUSH2 0x831 JUMPI PUSH1 0x7F DUP3 AND SWAP2 POP JUMPDEST PUSH1 0x20 DUP3 LT DUP2 SUB PUSH2 0x844 JUMPI PUSH2 0x843 PUSH2 0x7ED JUMP JUMPDEST JUMPDEST POP SWAP2 SWAP1 POP JUMP JUMPDEST PUSH0 DUP2 SWAP1 POP DUP2 PUSH0 MSTORE PUSH1 0x20 PUSH0 KECCAK256 SWAP1 POP SWAP2 SWAP1 POP JUMP JUMPDEST PUSH0 PUSH1 0x20 PUSH1 0x1F DUP4 ADD DIV SWAP1 POP SWAP2 SWAP1 POP JUMP JUMPDEST PUSH0 DUP3 DUP3 SHL SWAP1 POP SWAP3 SWAP2 POP POP JUMP JUMPDEST PUSH0 PUSH1 0x8 DUP4 MUL PUSH2 0x8A6 PUSH32 0xFFFFFFFFFFFFFFFFFFFFFFFFFFFFFFFFFFFFFFFFFFFFFFFFFFFFFFFFFFFFFFFF DUP3 PUSH2 0x86B JUMP JUMPDEST PUSH2 0x8B0 DUP7 DUP4 PUSH2 0x86B JUMP JUMPDEST SWAP6 POP DUP1 NOT DUP5 AND SWAP4 POP DUP1 DUP7 AND DUP5 OR SWAP3 POP POP POP SWAP4 SWAP3 POP POP POP JUMP JUMPDEST PUSH0 DUP2 SWAP1 POP SWAP2 SWAP1 POP JUMP JUMPDEST PUSH0 PUSH2 0x8EB PUSH2 0x8E6 PUSH2 0x8E1 DUP5 PUSH2 0x5B2 JUMP JUMPDEST PUSH2 0x8C8 JUMP JUMPDEST PUSH2 0x5B2 JUMP JUMPDEST SWAP1 POP SWAP2 SWAP1 POP JUMP JUMPDEST PUSH0 DUP2 SWAP1 POP SWAP2 SWAP1 POP JUMP JUMPDEST PUSH2 0x904 DUP4 PUSH2 0x8D1 JUMP JUMPDEST PUSH2 0x918 PUSH2 0x910 DUP3 PUSH2 0x8F2 JUMP JUMPDEST DUP5 DUP5 SLOAD PUSH2 0x877 JUMP JUMPDEST DUP3 SSTORE POP POP POP POP JUMP JUMPDEST PUSH0 PUSH0 SWAP1 POP SWAP1 JUMP JUMPDEST PUSH2 0x92F PUSH2 0x920 JUMP JUMPDEST PUSH2 0x93A DUP2 DUP5 DUP5 PUSH2 0x8FB JUMP JUMPDEST POP POP POP JUMP JUMPDEST JUMPDEST DUP2 DUP2 LT ISZERO PUSH2 0x95D JUMPI PUSH2 0x952 PUSH0 DUP3 PUSH2 0x927 JUMP JUMPDEST PUSH1 0x1 DUP2 ADD SWAP1 POP PUSH2 0x940 JUMP JUMPDEST POP POP JUMP JUMPDEST PUSH1 0x1F DUP3 GT ISZERO PUSH2 0x9A2 JUMPI PUSH2 0x973 DUP2 PUSH2 0x84A JUMP JUMPDEST PUSH2 0x97C DUP5 PUSH2 0x85C JUMP JUMPDEST DUP2 ADD PUSH1 0x20 DUP6 LT ISZERO PUSH2 0x98B JUMPI DUP2 SWAP1 POP JUMPDEST PUSH2 0x99F PUSH2 0x997 DUP6 PUSH2 0x85C JUMP JUMPDEST DUP4 ADD DUP3 PUSH2 0x93F JUMP JUMPDEST POP POP JUMPDEST POP POP POP JUMP JUMPDEST PUSH0 DUP3 DUP3 SHR SWAP1 POP SWAP3 SWAP2 POP POP JUMP JUMPDEST PUSH0 PUSH2 0x9C2 PUSH0 NOT DUP5 PUSH1 0x8 MUL PUSH2 0x9A7 JUMP JUMPDEST NOT DUP1 DUP4 AND SWAP2 POP POP SWAP3 SWAP2 POP POP JUMP JUMPDEST PUSH0 PUSH2 0x9DA DUP4 DUP4 PUSH2 0x9B3 JUMP JUMPDEST SWAP2 POP DUP3 PUSH1 0x2 MUL DUP3 OR SWAP1 POP SWAP3 SWAP2 POP POP JUMP JUMPDEST PUSH2 0x9F3 DUP3 PUSH2 0x6A4 JUMP JUMPDEST PUSH8 0xFFFFFFFFFFFFFFFF DUP2 GT ISZERO PUSH2 0xA0C JUMPI PUSH2 0xA0B PUSH2 0x48E JUMP JUMPDEST JUMPDEST PUSH2 0xA16 DUP3 SLOAD PUSH2 0x81A JUMP JUMPDEST PUSH2 0xA21 DUP3 DUP3 DUP6 PUSH2 0x961 JUMP JUMPDEST PUSH0 PUSH1 0x20 SWAP1 POP PUSH1 0x1F DUP4 GT PUSH1 0x1 DUP2 EQ PUSH2 0xA52 JUMPI PUSH0 DUP5 ISZERO PUSH2 0xA40 JUMPI DUP3 DUP8 ADD MLOAD SWAP1 POP JUMPDEST PUSH2 0xA4A DUP6 DUP3 PUSH2 0x9CF JUMP JUMPDEST DUP7 SSTORE POP PUSH2 0xAB1 JUMP JUMPDEST PUSH1 0x1F NOT DUP5 AND PUSH2 0xA60 DUP7 PUSH2 0x84A JUMP JUMPDEST PUSH0 JUMPDEST DUP3 DUP2 LT ISZERO PUSH2 0xA87 JUMPI DUP5 DUP10 ADD MLOAD DUP3 SSTORE PUSH1 0x1 DUP3 ADD SWAP2 POP PUSH1 0x20 DUP6 ADD SWAP5 POP PUSH1 0x20 DUP2 ADD SWAP1 POP PUSH2 0xA62 JUMP JUMPDEST DUP7 DUP4 LT ISZERO PUSH2 0xAA4 JUMPI DUP5 DUP10 ADD MLOAD PUSH2 0xAA0 PUSH1 0x1F DUP10 AND DUP3 PUSH2 0x9B3 JUMP JUMPDEST DUP4 SSTORE POP JUMPDEST PUSH1 0x1 PUSH1 0x2 DUP9 MUL ADD DUP9 SSTORE POP POP POP JUMPDEST POP POP POP POP POP POP JUMP INVALID LOG2 PUSH5 0x6970667358 0x22 SLT KECCAK256 RJUMPI 0x75DE LOG0 0x2B LOG1 0xBF PC SGT RETURNCONTRACT 0x3E DUP4 CALL PUSH28 0x7E01A80F3F08C6A175ED462B70940F83D9AB64736F6C634300081F00 CALLER "
				},
				"gasEstimates": {
					"creation": {
						"codeDepositCost": "559800",
						"executionCost": "infinite",
						"totalCost": "infinite"
					},
					"external": {
						"addProduct(string,uint256,uint256)": "infinite",
						"getTimestamp()": "infinite",
						"owner()": "2580",
						"products(uint256)": "infinite",
						"renounceOwnership()": "infinite",
						"transferOwnership(address)": "infinite"
					}
				},
				"methodIdentifiers": {
					"addProduct(string,uint256,uint256)": "125b0b34",
					"getTimestamp()": "188ec356",
					"owner()": "8da5cb5b",
					"products(uint256)": "7acc0b20",
					"renounceOwnership()": "715018a6",
					"transferOwnership(address)": "f2fde38b"
				}
			},
			"storageLayout": {
				"storage": [
					{
						"astId": 8,
						"contract": "base.sol:Store",
						"label": "_owner",
						"offset": 0,
						"slot": "0",
						"type": "t_address"
					},
					{
						"astId": 494,
						"contract": "base.sol:Store",
						"label": "products",
						"offset": 0,
						"slot": "1",
						"type": "t_array(t_struct(Product)490_storage)dyn_storage"
					}
				],
				"types": {
					"t_address": {
						"encoding": "inplace",
						"label": "address",
						"numberOfBytes": "20"
					},
					"t_array(t_struct(Product)490_storage)dyn_storage": {
						"base": "t_struct(Product)490_storage",
						"encoding": "dynamic_array",
						"label": "struct Store.Product[]",
						"numberOfBytes": "32"
					},
					"t_string_storage": {
						"encoding": "bytes",
						"label": "string",
						"numberOfBytes": "32"
					},
					"t_struct(Product)490_storage": {
						"encoding": "inplace",
						"label": "struct Store.Product",
						"members": [
							{
								"astId": 485,
								"contract": "base.sol:Store",
								"label": "name",
								"offset": 0,
								"slot": "0",
								"type": "t_string_storage"
							},
							{
								"astId": 487,
								"contract": "base.sol:Store",
								"label": "stock",
								"offset": 0,
								"slot": "1",
								"type": "t_uint256"
							},
							{
								"astId": 489,
								"contract": "base.sol:Store",
								"label": "id",
								"offset": 0,
								"slot": "2",
								"type": "t_uint256"
							}
						],
						"numberOfBytes": "96"
					},
					"t_uint256": {
						"encoding": "inplace",
						"label": "uint256",
						"numberOfBytes": "32"
					}
				}
			},
			"userdoc": {
				"kind": "user",
				"methods": {},
				"version": 1
			}
		}
	}
}