{
	"data": {
		"bytecode": {
			"linkReferences": {},
			"object": "6080604052348015600e575f5ffd5b50335f5f6101000a81548173ffffffffffffffffffffffffffffffffffffffff021916908373ffffffffffffffffffffffffffffffffffffffff1602179055506108a18061005b5f395ff3fe608060405234801561000f575f5ffd5b506004361061003f575f3560e01c8063125b0b34146100435780637acc0b201461005f5780638da5cb5b14610091575b5f5ffd5b61005d60048036038101906100589190610405565b6100af565b005b61007960048036038101906100749190610471565b6101a6565b6040516100889392919061050b565b60405180910390f35b610099610261565b6040516100a69190610586565b60405180910390f35b5f5f9054906101000a900473ffffffffffffffffffffffffffffffffffffffff1673ffffffffffffffffffffffffffffffffffffffff163373ffffffffffffffffffffffffffffffffffffffff1614610134576040517feea91ff800000000000000000000000000000000000000000000000000000000815260040160405180910390fd5b6001604051806060016040528085815260200184815260200183815250908060018154018082558091505060019003905f5260205f2090600302015f909190919091505f820151815f01908161018a919061079c565b5060208201518160010155604082015181600201555050505050565b600181815481106101b5575f80fd5b905f5260205f2090600302015f91509050805f0180546101d4906105cc565b80601f0160208091040260200160405190810160405280929190818152602001828054610200906105cc565b801561024b5780601f106102225761010080835404028352916020019161024b565b820191905f5260205f20905b81548152906001019060200180831161022e57829003601f168201915b5050505050908060010154908060020154905083565b5f5f9054906101000a900473ffffffffffffffffffffffffffffffffffffffff1681565b5f604051905090565b5f5ffd5b5f5ffd5b5f5ffd5b5f5ffd5b5f601f19601f8301169050919050565b7f4e487b71000000000000000000000000000000000000000000000000000000005f52604160045260245ffd5b6102e48261029e565b810181811067ffffffffffffffff82111715610303576103026102ae565b5b80604052505050565b5f610315610285565b905061032182826102db565b919050565b5f67ffffffffffffffff8211156103405761033f6102ae565b5b6103498261029e565b9050602081019050919050565b828183375f83830152505050565b5f61037661037184610326565b61030c565b9050828152602081018484840111156103925761039161029a565b5b61039d848285610356565b509392505050565b5f82601f8301126103b9576103b8610296565b5b81356103c9848260208601610364565b91505092915050565b5f819050919050565b6103e4816103d2565b81146103ee575f5ffd5b50565b5f813590506103ff816103db565b92915050565b5f5f5f6060848603121561041c5761041b61028e565b5b5f84013567ffffffffffffffff81111561043957610438610292565b5b610445868287016103a5565b9350506020610456868287016103f1565b9250506040610467868287016103f1565b9150509250925092565b5f602082840312156104865761048561028e565b5b5f610493848285016103f1565b91505092915050565b5f81519050919050565b5f82825260208201905092915050565b8281835e5f83830152505050565b5f6104ce8261049c565b6104d881856104a6565b93506104e88185602086016104b6565b6104f18161029e565b840191505092915050565b610505816103d2565b82525050565b5f6060820190508181035f83015261052381866104c4565b905061053260208301856104fc565b61053f60408301846104fc565b949350505050565b5f73ffffffffffffffffffffffffffffffffffffffff82169050919050565b5f61057082610547565b9050919050565b61058081610566565b82525050565b5f6020820190506105995f830184610577565b92915050565b7f4e487b71000000000000000000000000000000000000000000000000000000005f52602260045260245ffd5b5f60028204905060018216806105e357607f821691505b6020821081036105f6576105f561059f565b5b50919050565b5f819050815f5260205f209050919050565b5f6020601f8301049050919050565b5f82821b905092915050565b5f600883026106587fffffffffffffffffffffffffffffffffffffffffffffffffffffffffffffffff8261061d565b610662868361061d565b95508019841693508086168417925050509392505050565b5f819050919050565b5f61069d610698610693846103d2565b61067a565b6103d2565b9050919050565b5f819050919050565b6106b683610683565b6106ca6106c2826106a4565b848454610629565b825550505050565b5f5f905090565b6106e16106d2565b6106ec8184846106ad565b505050565b5b8181101561070f576107045f826106d9565b6001810190506106f2565b5050565b601f82111561075457610725816105fc565b61072e8461060e565b8101602085101561073d578190505b6107516107498561060e565b8301826106f1565b50505b505050565b5f82821c905092915050565b5f6107745f1984600802610759565b1980831691505092915050565b5f61078c8383610765565b9150826002028217905092915050565b6107a58261049c565b67ffffffffffffffff8111156107be576107bd6102ae565b5b6107c882546105cc565b6107d3828285610713565b5f60209050601f831160018114610804575f84156107f2578287015190505b6107fc8582610781565b865550610863565b601f198416610812866105fc565b5f5b8281101561083957848901518255600182019150602085019450602081019050610814565b868310156108565784890151610852601f891682610765565b8355505b6001600288020188555050505b50505050505056fea26469706673582212203be04e2143b38d72f83156d7d32c319f6dc0cff6c9aa577559d49d808190db2164736f6c634300081f0033",
			"opcodes": "PUSH1 0x80 PUSH1 0x40 MSTORE CALLVALUE DUP1 ISZERO PUSH1 0xE JUMPI PUSH0 PUSH0 REVERT JUMPDEST POP CALLER PUSH0 PUSH0 PUSH2 0x100 EXP DUP2 SLOAD DUP2 PUSH20 0xFFFFFFFFFFFFFFFFFFFFFFFFFFFFFFFFFFFFFFFF MUL NOT AND SWAP1 DUP4 PUSH20 0xFFFFFFFFFFFFFFFFFFFFFFFFFFFFFFFFFFFFFFFF AND MUL OR SWAP1 SSTORE POP PUSH2 0x8A1 DUP1 PUSH2 0x5B PUSH0 CODECOPY PUSH0 RETURN INVALID PUSH1 0x80 PUSH1 0x40 MSTORE CALLVALUE DUP1 ISZERO PUSH2 0xF JUMPI PUSH0 PUSH0 REVERT JUMPDEST POP PUSH1 0x4 CALLDATASIZE LT PUSH2 0x3F JUMPI PUSH0 CALLDATALOAD PUSH1 0xE0 SHR DUP1 PUSH4 0x125B0B34 EQ PUSH2 0x43 JUMPI DUP1 PUSH4 0x7ACC0B20 EQ PUSH2 0x5F JUMPI DUP1 PUSH4 0x8DA5CB5B EQ PUSH2 0x91 JUMPI JUMPDEST PUSH0 PUSH0 REVERT JUMPDEST PUSH2 0x5D PUSH1 0x4 DUP1 CALLDATASIZE SUB DUP2 ADD SWAP1 PUSH2 0x58 SWAP2 SWAP1 PUSH2 0x405 JUMP JUMPDEST PUSH2 0xAF JUMP JUMPDEST STOP JUMPDEST PUSH2 0x79 PUSH1 0x4 DUP1 CALLDATASIZE SUB DUP2 ADD SWAP1 PUSH2 0x74 SWAP2 SWAP1 PUSH2 0x471 JUMP JUMPDEST PUSH2 0x1A6 JUMP JUMPDEST PUSH1 0x40 MLOAD PUSH2 0x88 SWAP4 SWAP3 SWAP2 SWAP1 PUSH2 0x50B JUMP JUMPDEST PUSH1 0x40 MLOAD DUP1 SWAP2 SUB SWAP1 RETURN JUMPDEST PUSH2 0x99 PUSH2 0x261 JUMP JUMPDEST PUSH1 0x40 MLOAD PUSH2 0xA6 SWAP2 SWAP1 PUSH2 0x586 JUMP JUMPDEST PUSH1 0x40 MLOAD DUP1 SWAP2 SUB SWAP1 RETURN JUMPDEST PUSH0 PUSH0 SWAP1 SLOAD SWAP1 PUSH2 0x100 EXP SWAP1 DIV PUSH20 0xFFFFFFFFFFFFFFFFFFFFFFFFFFFFFFFFFFFFFFFF AND PUSH20 0xFFFFFFFFFFFFFFFFFFFFFFFFFFFFFFFFFFFFFFFF AND CALLER PUSH20 0xFFFFFFFFFFFFFFFFFFFFFFFFFFFFFFFFFFFFFFFF AND EQ PUSH2 0x134 JUMPI PUSH1 0x40 MLOAD PUSH32 0xEEA91FF800000000000000000000000000000000000000000000000000000000 DUP2 MSTORE PUSH1 0x4 ADD PUSH1 0x40 MLOAD DUP1 SWAP2 SUB SWAP1 REVERT JUMPDEST PUSH1 0x1 PUSH1 0x40 MLOAD DUP1 PUSH1 0x60 ADD PUSH1 0x40 MSTORE DUP1 DUP6 DUP2 MSTORE PUSH1 0x20 ADD DUP5 DUP2 MSTORE PUSH1 0x20 ADD DUP4 DUP2 MSTORE POP SWAP1 DUP1 PUSH1 0x1 DUP2 SLOAD ADD DUP1 DUP3 SSTORE DUP1 SWAP2 POP POP PUSH1 0x1 SWAP1 SUB SWAP1 PUSH0 MSTORE PUSH1 0x20 PUSH0 KECCAK256 SWAP1 PUSH1 0x3 MUL ADD PUSH0 SWAP1 SWAP2 SWAP1 SWAP2 SWAP1 SWAP2 POP PUSH0 DUP3 ADD MLOAD DUP2 PUSH0 ADD SWAP1 DUP2 PUSH2 0x18A SWAP2 SWAP1 PUSH2 0x79C JUMP JUMPDEST POP PUSH1 0x20 DUP3 ADD MLOAD DUP2 PUSH1 0x1 ADD SSTORE PUSH1 0x40 DUP3 ADD MLOAD DUP2 PUSH1 0x2 ADD SSTORE POP POP POP POP POP JUMP JUMPDEST PUSH1 0x1 DUP2 DUP2 SLOAD DUP2 LT PUSH2 0x1B5 JUMPI PUSH0 DUP1 REVERT JUMPDEST SWAP1 PUSH0 MSTORE PUSH1 0x20 PUSH0 KECCAK256 SWAP1 PUSH1 0x3 MUL ADD PUSH0 SWAP2 POP SWAP1 POP DUP1 PUSH0 ADD DUP1 SLOAD PUSH2 0x1D4 SWAP1 PUSH2 0x5CC JUMP JUMPDEST DUP1 PUSH1 0x1F ADD PUSH1 0x20 DUP1 SWAP2 DIV MUL PUSH1 0x20 ADD PUSH1 0x40 MLOAD SWAP1 DUP2 ADD PUSH1 0x40 MSTORE DUP1 SWAP3 SWAP2 SWAP1 DUP2 DUP2 MSTORE PUSH1 0x20 ADD DUP3 DUP1 SLOAD PUSH2 0x200 SWAP1 PUSH2 0x5CC JUMP JUMPDEST DUP1 ISZERO PUSH2 0x24B JUMPI DUP1 PUSH1 0x1F LT PUSH2 0x222 JUMPI PUSH2 0x100 DUP1 DUP4 SLOAD DIV MUL DUP4 MSTORE SWAP2 PUSH1 0x20 ADD SWAP2 PUSH2 0x24B JUMP JUMPDEST DUP3 ADD SWAP2 SWAP1 PUSH0 MSTORE PUSH1 0x20 PUSH0 KECCAK256 SWAP1 JUMPDEST DUP2 SLOAD DUP2 MSTORE SWAP1 PUSH1 0x1 ADD SWAP1 PUSH1 0x20 ADD DUP1 DUP4 GT PUSH2 0x22E JUMPI DUP3 SWAP1 SUB PUSH1 0x1F AND DUP3 ADD SWAP2 JUMPDEST POP POP POP POP POP SWAP1 DUP1 PUSH1 0x1 ADD SLOAD SWAP1 DUP1 PUSH1 0x2 ADD SLOAD SWAP1 POP DUP4 JUMP JUMPDEST PUSH0 PUSH0 SWAP1 SLOAD SWAP1 PUSH2 0x100 EXP SWAP1 DIV PUSH20 0xFFFFFFFFFFFFFFFFFFFFFFFFFFFFFFFFFFFFFFFF AND DUP2 JUMP JUMPDEST PUSH0 PUSH1 0x40 MLOAD SWAP1 POP SWAP1 JUMP JUMPDEST PUSH0 PUSH0 REVERT JUMPDEST PUSH0 PUSH0 REVERT JUMPDEST PUSH0 PUSH0 REVERT JUMPDEST PUSH0 PUSH0 REVERT JUMPDEST PUSH0 PUSH1 0x1F NOT PUSH1 0x1F DUP4 ADD AND SWAP1 POP SWAP2 SWAP1 POP JUMP JUMPDEST PUSH32 0x4E487B7100000000000000000000000000000000000000000000000000000000 PUSH0 MSTORE PUSH1 0x41 PUSH1 0x4 MSTORE PUSH1 0x24 PUSH0 REVERT JUMPDEST PUSH2 0x2E4 DUP3 PUSH2 0x29E JUMP JUMPDEST DUP2 ADD DUP2 DUP2 LT PUSH8 0xFFFFFFFFFFFFFFFF DUP3 GT OR ISZERO PUSH2 0x303 JUMPI PUSH2 0x302 PUSH2 0x2AE JUMP JUMPDEST JUMPDEST DUP1 PUSH1 0x40 MSTORE POP POP POP JUMP JUMPDEST PUSH0 PUSH2 0x315 PUSH2 0x285 JUMP JUMPDEST SWAP1 POP PUSH2 0x321 DUP3 DUP3 PUSH2 0x2DB JUMP JUMPDEST SWAP2 SWAP1 POP JUMP JUMPDEST PUSH0 PUSH8 0xFFFFFFFFFFFFFFFF DUP3 GT ISZERO PUSH2 0x340 JUMPI PUSH2 0x33F PUSH2 0x2AE JUMP JUMPDEST JUMPDEST PUSH2 0x349 DUP3 PUSH2 0x29E JUMP JUMPDEST SWAP1 POP PUSH1 0x20 DUP2 ADD SWAP1 POP SWAP2 SWAP1 POP JUMP JUMPDEST DUP3 DUP2 DUP4 CALLDATACOPY PUSH0 DUP4 DUP4 ADD MSTORE POP POP POP JUMP JUMPDEST PUSH0 PUSH2 0x376 PUSH2 0x371 DUP5 PUSH2 0x326 JUMP JUMPDEST PUSH2 0x30C JUMP JUMPDEST SWAP1 POP DUP3 DUP2 MSTORE PUSH1 0x20 DUP2 ADD DUP5 DUP5 DUP5 ADD GT ISZERO PUSH2 0x392 JUMPI PUSH2 0x391 PUSH2 0x29A JUMP JUMPDEST JUMPDEST PUSH2 0x39D DUP5 DUP3 DUP6 PUSH2 0x356 JUMP JUMPDEST POP SWAP4 SWAP3 POP POP POP JUMP JUMPDEST PUSH0 DUP3 PUSH1 0x1F DUP4 ADD SLT PUSH2 0x3B9 JUMPI PUSH2 0x3B8 PUSH2 0x296 JUMP JUMPDEST JUMPDEST DUP2 CALLDATALOAD PUSH2 0x3C9 DUP5 DUP3 PUSH1 0x20 DUP7 ADD PUSH2 0x364 JUMP JUMPDEST SWAP2 POP POP SWAP3 SWAP2 POP POP JUMP JUMPDEST PUSH0 DUP2 SWAP1 POP SWAP2 SWAP1 POP JUMP JUMPDEST PUSH2 0x3E4 DUP2 PUSH2 0x3D2 JUMP JUMPDEST DUP2 EQ PUSH2 0x3EE JUMPI PUSH0 PUSH0 REVERT JUMPDEST POP JUMP JUMPDEST PUSH0 DUP2 CALLDATALOAD SWAP1 POP PUSH2 0x3FF DUP2 PUSH2 0x3DB JUMP JUMPDEST SWAP3 SWAP2 POP POP JUMP JUMPDEST PUSH0 PUSH0 PUSH0 PUSH1 0x60 DUP5 DUP7 SUB SLT ISZERO PUSH2 0x41C JUMPI PUSH2 0x41B PUSH2 0x28E JUMP JUMPDEST JUMPDEST PUSH0 DUP5 ADD CALLDATALOAD PUSH8 0xFFFFFFFFFFFFFFFF DUP2 GT ISZERO PUSH2 0x439 JUMPI PUSH2 0x438 PUSH2 0x292 JUMP JUMPDEST JUMPDEST PUSH2 0x445 DUP7 DUP3 DUP8 ADD PUSH2 0x3A5 JUMP JUMPDEST SWAP4 POP POP PUSH1 0x20 PUSH2 0x456 DUP7 DUP3 DUP8 ADD PUSH2 0x3F1 JUMP JUMPDEST SWAP3 POP POP PUSH1 0x40 PUSH2 0x467 DUP7 DUP3 DUP8 ADD PUSH2 0x3F1 JUMP JUMPDEST SWAP2 POP POP SWAP3 POP SWAP3 POP SWAP3 JUMP JUMPDEST PUSH0 PUSH1 0x20 DUP3 DUP5 SUB SLT ISZERO PUSH2 0x486 JUMPI PUSH2 0x485 PUSH2 0x28E JUMP JUMPDEST JUMPDEST PUSH0 PUSH2 0x493 DUP5 DUP3 DUP6 ADD PUSH2 0x3F1 JUMP JUMPDEST SWAP2 POP POP SWAP3 SWAP2 POP POP JUMP JUMPDEST PUSH0 DUP2 MLOAD SWAP1 POP SWAP2 SWAP1 POP JUMP JUMPDEST PUSH0 DUP3 DUP3 MSTORE PUSH1 0x20 DUP3 ADD SWAP1 POP SWAP3 SWAP2 POP POP JUMP JUMPDEST DUP3 DUP2 DUP4 MCOPY PUSH0 DUP4 DUP4 ADD MSTORE POP POP POP JUMP JUMPDEST PUSH0 PUSH2 0x4CE DUP3 PUSH2 0x49C JUMP JUMPDEST PUSH2 0x4D8 DUP2 DUP6 PUSH2 0x4A6 JUMP JUMPDEST SWAP4 POP PUSH2 0x4E8 DUP2 DUP6 PUSH1 0x20 DUP7 ADD PUSH2 0x4B6 JUMP JUMPDEST PUSH2 0x4F1 DUP2 PUSH2 0x29E JUMP JUMPDEST DUP5 ADD SWAP2 POP POP SWAP3 SWAP2 POP POP JUMP JUMPDEST PUSH2 0x505 DUP2 PUSH2 0x3D2 JUMP JUMPDEST DUP3 MSTORE POP POP JUMP JUMPDEST PUSH0 PUSH1 0x60 DUP3 ADD SWAP1 POP DUP2 DUP2 SUB PUSH0 DUP4 ADD MSTORE PUSH2 0x523 DUP2 DUP7 PUSH2 0x4C4 JUMP JUMPDEST SWAP1 POP PUSH2 0x532 PUSH1 0x20 DUP4 ADD DUP6 PUSH2 0x4FC JUMP JUMPDEST PUSH2 0x53F PUSH1 0x40 DUP4 ADD DUP5 PUSH2 0x4FC JUMP JUMPDEST SWAP5 SWAP4 POP POP POP POP JUMP JUMPDEST PUSH0 PUSH20 0xFFFFFFFFFFFFFFFFFFFFFFFFFFFFFFFFFFFFFFFF DUP3 AND SWAP1 POP SWAP2 SWAP1 POP JUMP JUMPDEST PUSH0 PUSH2 0x570 DUP3 PUSH2 0x547 JUMP JUMPDEST SWAP1 POP SWAP2 SWAP1 POP JUMP JUMPDEST PUSH2 0x580 DUP2 PUSH2 0x566 JUMP JUMPDEST DUP3 MSTORE POP POP JUMP JUMPDEST PUSH0 PUSH1 0x20 DUP3 ADD SWAP1 POP PUSH2 0x599 PUSH0 DUP4 ADD DUP5 PUSH2 0x577 JUMP JUMPDEST SWAP3 SWAP2 POP POP JUMP JUMPDEST PUSH32 0x4E487B7100000000000000000000000000000000000000000000000000000000 PUSH0 MSTORE PUSH1 0x22 PUSH1 0x4 MSTORE PUSH1 0x24 PUSH0 REVERT JUMPDEST PUSH0 PUSH1 0x2 DUP3 DIV SWAP1 POP PUSH1 0x1 DUP3 AND DUP1 PUSH2 0x5E3 JUMPI PUSH1 0x7F DUP3 AND SWAP2 POP JUMPDEST PUSH1 0x20 DUP3 LT DUP2 SUB PUSH2 0x5F6 JUMPI PUSH2 0x5F5 PUSH2 0x59F JUMP JUMPDEST JUMPDEST POP SWAP2 SWAP1 POP JUMP JUMPDEST PUSH0 DUP2 SWAP1 POP DUP2 PUSH0 MSTORE PUSH1 0x20 PUSH0 KECCAK256 SWAP1 POP SWAP2 SWAP1 POP JUMP JUMPDEST PUSH0 PUSH1 0x20 PUSH1 0x1F DUP4 ADD DIV SWAP1 POP SWAP2 SWAP1 POP JUMP JUMPDEST PUSH0 DUP3 DUP3 SHL SWAP1 POP SWAP3 SWAP2 POP POP JUMP JUMPDEST PUSH0 PUSH1 0x8 DUP4 MUL PUSH2 0x658 PUSH32 0xFFFFFFFFFFFFFFFFFFFFFFFFFFFFFFFFFFFFFFFFFFFFFFFFFFFFFFFFFFFFFFFF DUP3 PUSH2 0x61D JUMP JUMPDEST PUSH2 0x662 DUP7 DUP4 PUSH2 0x61D JUMP JUMPDEST SWAP6 POP DUP1 NOT DUP5 AND SWAP4 POP DUP1 DUP7 AND DUP5 OR SWAP3 POP POP POP SWAP4 SWAP3 POP POP POP JUMP JUMPDEST PUSH0 DUP2 SWAP1 POP SWAP2 SWAP1 POP JUMP JUMPDEST PUSH0 PUSH2 0x69D PUSH2 0x698 PUSH2 0x693 DUP5 PUSH2 0x3D2 JUMP JUMPDEST PUSH2 0x67A JUMP JUMPDEST PUSH2 0x3D2 JUMP JUMPDEST SWAP1 POP SWAP2 SWAP1 POP JUMP JUMPDEST PUSH0 DUP2 SWAP1 POP SWAP2 SWAP1 POP JUMP JUMPDEST PUSH2 0x6B6 DUP4 PUSH2 0x683 JUMP JUMPDEST PUSH2 0x6CA PUSH2 0x6C2 DUP3 PUSH2 0x6A4 JUMP JUMPDEST DUP5 DUP5 SLOAD PUSH2 0x629 JUMP JUMPDEST DUP3 SSTORE POP POP POP POP JUMP JUMPDEST PUSH0 PUSH0 SWAP1 POP SWAP1 JUMP JUMPDEST PUSH2 0x6E1 PUSH2 0x6D2 JUMP JUMPDEST PUSH2 0x6EC DUP2 DUP5 DUP5 PUSH2 0x6AD JUMP JUMPDEST POP POP POP JUMP JUMPDEST JUMPDEST DUP2 DUP2 LT ISZERO PUSH2 0x70F JUMPI PUSH2 0x704 PUSH0 DUP3 PUSH2 0x6D9 JUMP JUMPDEST PUSH1 0x1 DUP2 ADD SWAP1 POP PUSH2 0x6F2 JUMP JUMPDEST POP POP JUMP JUMPDEST PUSH1 0x1F DUP3 GT ISZERO PUSH2 0x754 JUMPI PUSH2 0x725 DUP2 PUSH2 0x5FC JUMP JUMPDEST PUSH2 0x72E DUP5 PUSH2 0x60E JUMP JUMPDEST DUP2 ADD PUSH1 0x20 DUP6 LT ISZERO PUSH2 0x73D JUMPI DUP2 SWAP1 POP JUMPDEST PUSH2 0x751 PUSH2 0x749 DUP6 PUSH2 0x60E JUMP JUMPDEST DUP4 ADD DUP3 PUSH2 0x6F1 JUMP JUMPDEST POP POP JUMPDEST POP POP POP JUMP JUMPDEST PUSH0 DUP3 DUP3 SHR SWAP1 POP SWAP3 SWAP2 POP POP JUMP JUMPDEST PUSH0 PUSH2 0x774 PUSH0 NOT DUP5 PUSH1 0x8 MUL PUSH2 0x759 JUMP JUMPDEST NOT DUP1 DUP4 AND SWAP2 POP POP SWAP3 SWAP2 POP POP JUMP JUMPDEST PUSH0 PUSH2 0x78C DUP4 DUP4 PUSH2 0x765 JUMP JUMPDEST SWAP2 POP DUP3 PUSH1 0x2 MUL DUP3 OR SWAP1 POP SWAP3 SWAP2 POP POP JUMP JUMPDEST PUSH2 0x7A5 DUP3 PUSH2 0x49C JUMP JUMPDEST PUSH8 0xFFFFFFFFFFFFFFFF DUP2 GT ISZERO PUSH2 0x7BE JUMPI PUSH2 0x7BD PUSH2 0x2AE JUMP JUMPDEST JUMPDEST PUSH2 0x7C8 DUP3 SLOAD PUSH2 0x5CC JUMP JUMPDEST PUSH2 0x7D3 DUP3 DUP3 DUP6 PUSH2 0x713 JUMP JUMPDEST PUSH0 PUSH1 0x20 SWAP1 POP PUSH1 0x1F DUP4 GT PUSH1 0x1 DUP2 EQ PUSH2 0x804 JUMPI PUSH0 DUP5 ISZERO PUSH2 0x7F2 JUMPI DUP3 DUP8 ADD MLOAD SWAP1 POP JUMPDEST PUSH2 0x7FC DUP6 DUP3 PUSH2 0x781 JUMP JUMPDEST DUP7 SSTORE POP PUSH2 0x863 JUMP JUMPDEST PUSH1 0x1F NOT DUP5 AND PUSH2 0x812 DUP7 PUSH2 0x5FC JUMP JUMPDEST PUSH0 JUMPDEST DUP3 DUP2 LT ISZERO PUSH2 0x839 JUMPI DUP5 DUP10 ADD MLOAD DUP3 SSTORE PUSH1 0x1 DUP3 ADD SWAP2 POP PUSH1 0x20 DUP6 ADD SWAP5 POP PUSH1 0x20 DUP2 ADD SWAP1 POP PUSH2 0x814 JUMP JUMPDEST DUP7 DUP4 LT ISZERO PUSH2 0x856 JUMPI DUP5 DUP10 ADD MLOAD PUSH2 0x852 PUSH1 0x1F DUP10 AND DUP3 PUSH2 0x765 JUMP JUMPDEST DUP4 SSTORE POP JUMPDEST PUSH1 0x1 PUSH1 0x2 DUP9 MUL ADD DUP9 SSTORE POP POP POP JUMPDEST POP POP POP POP POP POP JUMP INVALID LOG2 PUSH5 0x6970667358 0x22 SLT KECCAK256 EXTCODESIZE RJUMP 0x4E21 NUMBER 0xB3 DUP14 PUSH19 0xF83156D7D32C319F6DC0CFF6C9AA577559D49D DUP1 DUP2 SWAP1 0xDB 0x21 PUSH5 0x736F6C6343 STOP ADDMOD 0x1F STOP CALLER "
		},
		"gasEstimates": {
			"creation": {
				"codeDepositCost": "441800",
				"executionCost": "24742",
				"totalCost": "466542"
			},
			"external": {
				"addProduct(string,uint256,uint256)": "infinite",
				"owner()": "2529",
				"products(uint256)": "infinite"
			}
		},
		"methodIdentifiers": {
			"addProduct(string,uint256,uint256)": "125b0b34",
			"owner()": "8da5cb5b",
			"products(uint256)": "7acc0b20"
		}
	},
	"abi": [
		{
			"inputs": [],
			"stateMutability": "nonpayable",
			"type": "constructor"
		},
		{
			"inputs": [],
			"name": "NotAnOwner",
			"type": "error"
		},
		{
			"inputs": [
				{
					"internalType": "string",
					"name": "_name",
					"type": "string"
				},
				{
					"internalType": "uint256",
					"name": "_stock",
					"type": "uint256"
				},
				{
					"internalType": "uint256",
					"name": "_id",
					"type": "uint256"
				}
			],
			"name": "addProduct",
			"outputs": [],
			"stateMutability": "nonpayable",
			"type": "function"
		},
		{
			"inputs": [],
			"name": "owner",
			"outputs": [
				{
					"internalType": "address",
					"name": "",
					"type": "address"
				}
			],
			"stateMutability": "view",
			"type": "function"
		},
		{
			"inputs": [
				{
					"internalType": "uint256",
					"name": "",
					"type": "uint256"
				}
			],
			"name": "products",
			"outputs": [
				{
					"internalType": "string",
					"name": "name",
					"type": "string"
				},
				{
					"internalType": "uint256",
					"name": "stock",
					"type": "uint256"
				},
				{
					"internalType": "uint256",
					"name": "id",
					"type": "uint256"
				}
			],
			"stateMutability": "view",
			"type": "function"
		}
	]
}