{
	"data": {
		"bytecode": {
			"linkReferences": {},
			"object": "608060405234801561000f575f5ffd5b50335f73ffffffffffffffffffffffffffffffffffffffff168173ffffffffffffffffffffffffffffffffffffffff1603610081575f6040517f1e4fbdf70000000000000000000000000000000000000000000000000000000081526004016100789190610196565b60405180910390fd5b6100908161009660201b60201c565b506101af565b5f5f5f9054906101000a900473ffffffffffffffffffffffffffffffffffffffff169050815f5f6101000a81548173ffffffffffffffffffffffffffffffffffffffff021916908373ffffffffffffffffffffffffffffffffffffffff1602179055508173ffffffffffffffffffffffffffffffffffffffff168173ffffffffffffffffffffffffffffffffffffffff167f8be0079c531659141344cd1fd0a4f28419497f9722a3daafe3b4186f6b6457e060405160405180910390a35050565b5f73ffffffffffffffffffffffffffffffffffffffff82169050919050565b5f61018082610157565b9050919050565b61019081610176565b82525050565b5f6020820190506101a95f830184610187565b92915050565b610ca9806101bc5f395ff3fe608060405234801561000f575f5ffd5b506004361061007b575f3560e01c80637acc0b20116100595780637acc0b20146100c357806382367b2d146100f65780638da5cb5b14610112578063f2fde38b146101305761007b565b8063094455c41461007f578063188ec3561461009b578063715018a6146100b9575b5f5ffd5b61009960048036038101906100949190610669565b61014c565b005b6100a361021b565b6040516100b091906106fc565b60405180910390f35b6100c161022a565b005b6100dd60048036038101906100d89190610715565b61023d565b6040516100ed94939291906107b0565b60405180910390f35b610110600480360381019061010b91906107fa565b6102fe565b005b61011a610320565b6040516101279190610877565b60405180910390f35b61014a600480360381019061014591906108ba565b610347565b005b6101546103cb565b6001604051806080016040528087878080601f0160208091040260200160405190810160405280939291908181526020018383808284375f81840152601f19601f82011690508083019250505050505050815260200185815260200184815260200183815250908060018154018082558091505060019003905f5260205f2090600402015f909190919091505f820151815f0190816101f39190610b0f565b5060208201518160010155604082015181600201556060820151816003015550505050505050565b5f6102246103cb565b42905090565b6102326103cb565b61023b5f610452565b565b6001818154811061024c575f80fd5b905f5260205f2090600402015f91509050805f01805461026b9061093f565b80601f01602080910402602001604051908101604052809291908181526020018280546102979061093f565b80156102e25780601f106102b9576101008083540402835291602001916102e2565b820191905f5260205f20905b8154815290600101906020018083116102c557829003601f168201915b5050505050908060010154908060020154908060030154905084565b6103066103cb565b5f61031083610513565b9050818160030181905550505050565b5f5f5f9054906101000a900473ffffffffffffffffffffffffffffffffffffffff16905090565b61034f6103cb565b5f73ffffffffffffffffffffffffffffffffffffffff168173ffffffffffffffffffffffffffffffffffffffff16036103bf575f6040517f1e4fbdf70000000000000000000000000000000000000000000000000000000081526004016103b69190610877565b60405180910390fd5b6103c881610452565b50565b6103d36105c6565b73ffffffffffffffffffffffffffffffffffffffff166103f1610320565b73ffffffffffffffffffffffffffffffffffffffff1614610450576104146105c6565b6040517f118cdaa70000000000000000000000000000000000000000000000000000000081526004016104479190610877565b60405180910390fd5b565b5f5f5f9054906101000a900473ffffffffffffffffffffffffffffffffffffffff169050815f5f6101000a81548173ffffffffffffffffffffffffffffffffffffffff021916908373ffffffffffffffffffffffffffffffffffffffff1602179055508173ffffffffffffffffffffffffffffffffffffffff168173ffffffffffffffffffffffffffffffffffffffff167f8be0079c531659141344cd1fd0a4f28419497f9722a3daafe3b4186f6b6457e060405160405180910390a35050565b5f5f5f90505b60018054905081101561058557826001828154811061053b5761053a610bde565b5b905f5260205f2090600402016002015403610578576001818154811061056457610563610bde565b5b905f5260205f2090600402019150506105c1565b8080600101915050610519565b506040517f08c379a00000000000000000000000000000000000000000000000000000000081526004016105b890610c55565b60405180910390fd5b919050565b5f33905090565b5f5ffd5b5f5ffd5b5f5ffd5b5f5ffd5b5f5ffd5b5f5f83601f8401126105f6576105f56105d5565b5b8235905067ffffffffffffffff811115610613576106126105d9565b5b60208301915083600182028301111561062f5761062e6105dd565b5b9250929050565b5f819050919050565b61064881610636565b8114610652575f5ffd5b50565b5f813590506106638161063f565b92915050565b5f5f5f5f5f60808688031215610682576106816105cd565b5b5f86013567ffffffffffffffff81111561069f5761069e6105d1565b5b6106ab888289016105e1565b955095505060206106be88828901610655565b93505060406106cf88828901610655565b92505060606106e088828901610655565b9150509295509295909350565b6106f681610636565b82525050565b5f60208201905061070f5f8301846106ed565b92915050565b5f6020828403121561072a576107296105cd565b5b5f61073784828501610655565b91505092915050565b5f81519050919050565b5f82825260208201905092915050565b8281835e5f83830152505050565b5f601f19601f8301169050919050565b5f61078282610740565b61078c818561074a565b935061079c81856020860161075a565b6107a581610768565b840191505092915050565b5f6080820190508181035f8301526107c88187610778565b90506107d760208301866106ed565b6107e460408301856106ed565b6107f160608301846106ed565b95945050505050565b5f5f604083850312156108105761080f6105cd565b5b5f61081d85828601610655565b925050602061082e85828601610655565b9150509250929050565b5f73ffffffffffffffffffffffffffffffffffffffff82169050919050565b5f61086182610838565b9050919050565b61087181610857565b82525050565b5f60208201905061088a5f830184610868565b92915050565b61089981610857565b81146108a3575f5ffd5b50565b5f813590506108b481610890565b92915050565b5f602082840312156108cf576108ce6105cd565b5b5f6108dc848285016108a6565b91505092915050565b7f4e487b71000000000000000000000000000000000000000000000000000000005f52604160045260245ffd5b7f4e487b71000000000000000000000000000000000000000000000000000000005f52602260045260245ffd5b5f600282049050600182168061095657607f821691505b60208210810361096957610968610912565b5b50919050565b5f819050815f5260205f209050919050565b5f6020601f8301049050919050565b5f82821b905092915050565b5f600883026109cb7fffffffffffffffffffffffffffffffffffffffffffffffffffffffffffffffff82610990565b6109d58683610990565b95508019841693508086168417925050509392505050565b5f819050919050565b5f610a10610a0b610a0684610636565b6109ed565b610636565b9050919050565b5f819050919050565b610a29836109f6565b610a3d610a3582610a17565b84845461099c565b825550505050565b5f5f905090565b610a54610a45565b610a5f818484610a20565b505050565b5b81811015610a8257610a775f82610a4c565b600181019050610a65565b5050565b601f821115610ac757610a988161096f565b610aa184610981565b81016020851015610ab0578190505b610ac4610abc85610981565b830182610a64565b50505b505050565b5f82821c905092915050565b5f610ae75f1984600802610acc565b1980831691505092915050565b5f610aff8383610ad8565b9150826002028217905092915050565b610b1882610740565b67ffffffffffffffff811115610b3157610b306108e5565b5b610b3b825461093f565b610b46828285610a86565b5f60209050601f831160018114610b77575f8415610b65578287015190505b610b6f8582610af4565b865550610bd6565b601f198416610b858661096f565b5f5b82811015610bac57848901518255600182019150602085019450602081019050610b87565b86831015610bc95784890151610bc5601f891682610ad8565b8355505b6001600288020188555050505b505050505050565b7f4e487b71000000000000000000000000000000000000000000000000000000005f52603260045260245ffd5b7f50726f64756374206e6f7220666f756e640000000000000000000000000000005f82015250565b5f610c3f60118361074a565b9150610c4a82610c0b565b602082019050919050565b5f6020820190508181035f830152610c6c81610c33565b905091905056fea26469706673582212200b770b260808597ba485a5fa5aad1a3e70d6b8be6f27e164e9d5d0dc1454379b64736f6c634300081f0033",
			"opcodes": "PUSH1 0x80 PUSH1 0x40 MSTORE CALLVALUE DUP1 ISZERO PUSH2 0xF JUMPI PUSH0 PUSH0 REVERT JUMPDEST POP CALLER PUSH0 PUSH20 0xFFFFFFFFFFFFFFFFFFFFFFFFFFFFFFFFFFFFFFFF AND DUP2 PUSH20 0xFFFFFFFFFFFFFFFFFFFFFFFFFFFFFFFFFFFFFFFF AND SUB PUSH2 0x81 JUMPI PUSH0 PUSH1 0x40 MLOAD PUSH32 0x1E4FBDF700000000000000000000000000000000000000000000000000000000 DUP2 MSTORE PUSH1 0x4 ADD PUSH2 0x78 SWAP2 SWAP1 PUSH2 0x196 JUMP JUMPDEST PUSH1 0x40 MLOAD DUP1 SWAP2 SUB SWAP1 REVERT JUMPDEST PUSH2 0x90 DUP2 PUSH2 0x96 PUSH1 0x20 SHL PUSH1 0x20 SHR JUMP JUMPDEST POP PUSH2 0x1AF JUMP JUMPDEST PUSH0 PUSH0 PUSH0 SWAP1 SLOAD SWAP1 PUSH2 0x100 EXP SWAP1 DIV PUSH20 0xFFFFFFFFFFFFFFFFFFFFFFFFFFFFFFFFFFFFFFFF AND SWAP1 POP DUP2 PUSH0 PUSH0 PUSH2 0x100 EXP DUP2 SLOAD DUP2 PUSH20 0xFFFFFFFFFFFFFFFFFFFFFFFFFFFFFFFFFFFFFFFF MUL NOT AND SWAP1 DUP4 PUSH20 0xFFFFFFFFFFFFFFFFFFFFFFFFFFFFFFFFFFFFFFFF AND MUL OR SWAP1 SSTORE POP DUP2 PUSH20 0xFFFFFFFFFFFFFFFFFFFFFFFFFFFFFFFFFFFFFFFF AND DUP2 PUSH20 0xFFFFFFFFFFFFFFFFFFFFFFFFFFFFFFFFFFFFFFFF AND PUSH32 0x8BE0079C531659141344CD1FD0A4F28419497F9722A3DAAFE3B4186F6B6457E0 PUSH1 0x40 MLOAD PUSH1 0x40 MLOAD DUP1 SWAP2 SUB SWAP1 LOG3 POP POP JUMP JUMPDEST PUSH0 PUSH20 0xFFFFFFFFFFFFFFFFFFFFFFFFFFFFFFFFFFFFFFFF DUP3 AND SWAP1 POP SWAP2 SWAP1 POP JUMP JUMPDEST PUSH0 PUSH2 0x180 DUP3 PUSH2 0x157 JUMP JUMPDEST SWAP1 POP SWAP2 SWAP1 POP JUMP JUMPDEST PUSH2 0x190 DUP2 PUSH2 0x176 JUMP JUMPDEST DUP3 MSTORE POP POP JUMP JUMPDEST PUSH0 PUSH1 0x20 DUP3 ADD SWAP1 POP PUSH2 0x1A9 PUSH0 DUP4 ADD DUP5 PUSH2 0x187 JUMP JUMPDEST SWAP3 SWAP2 POP POP JUMP JUMPDEST PUSH2 0xCA9 DUP1 PUSH2 0x1BC PUSH0 CODECOPY PUSH0 RETURN INVALID PUSH1 0x80 PUSH1 0x40 MSTORE CALLVALUE DUP1 ISZERO PUSH2 0xF JUMPI PUSH0 PUSH0 REVERT JUMPDEST POP PUSH1 0x4 CALLDATASIZE LT PUSH2 0x7B JUMPI PUSH0 CALLDATALOAD PUSH1 0xE0 SHR DUP1 PUSH4 0x7ACC0B20 GT PUSH2 0x59 JUMPI DUP1 PUSH4 0x7ACC0B20 EQ PUSH2 0xC3 JUMPI DUP1 PUSH4 0x82367B2D EQ PUSH2 0xF6 JUMPI DUP1 PUSH4 0x8DA5CB5B EQ PUSH2 0x112 JUMPI DUP1 PUSH4 0xF2FDE38B EQ PUSH2 0x130 JUMPI PUSH2 0x7B JUMP JUMPDEST DUP1 PUSH4 0x94455C4 EQ PUSH2 0x7F JUMPI DUP1 PUSH4 0x188EC356 EQ PUSH2 0x9B JUMPI DUP1 PUSH4 0x715018A6 EQ PUSH2 0xB9 JUMPI JUMPDEST PUSH0 PUSH0 REVERT JUMPDEST PUSH2 0x99 PUSH1 0x4 DUP1 CALLDATASIZE SUB DUP2 ADD SWAP1 PUSH2 0x94 SWAP2 SWAP1 PUSH2 0x669 JUMP JUMPDEST PUSH2 0x14C JUMP JUMPDEST STOP JUMPDEST PUSH2 0xA3 PUSH2 0x21B JUMP JUMPDEST PUSH1 0x40 MLOAD PUSH2 0xB0 SWAP2 SWAP1 PUSH2 0x6FC JUMP JUMPDEST PUSH1 0x40 MLOAD DUP1 SWAP2 SUB SWAP1 RETURN JUMPDEST PUSH2 0xC1 PUSH2 0x22A JUMP JUMPDEST STOP JUMPDEST PUSH2 0xDD PUSH1 0x4 DUP1 CALLDATASIZE SUB DUP2 ADD SWAP1 PUSH2 0xD8 SWAP2 SWAP1 PUSH2 0x715 JUMP JUMPDEST PUSH2 0x23D JUMP JUMPDEST PUSH1 0x40 MLOAD PUSH2 0xED SWAP5 SWAP4 SWAP3 SWAP2 SWAP1 PUSH2 0x7B0 JUMP JUMPDEST PUSH1 0x40 MLOAD DUP1 SWAP2 SUB SWAP1 RETURN JUMPDEST PUSH2 0x110 PUSH1 0x4 DUP1 CALLDATASIZE SUB DUP2 ADD SWAP1 PUSH2 0x10B SWAP2 SWAP1 PUSH2 0x7FA JUMP JUMPDEST PUSH2 0x2FE JUMP JUMPDEST STOP JUMPDEST PUSH2 0x11A PUSH2 0x320 JUMP JUMPDEST PUSH1 0x40 MLOAD PUSH2 0x127 SWAP2 SWAP1 PUSH2 0x877 JUMP JUMPDEST PUSH1 0x40 MLOAD DUP1 SWAP2 SUB SWAP1 RETURN JUMPDEST PUSH2 0x14A PUSH1 0x4 DUP1 CALLDATASIZE SUB DUP2 ADD SWAP1 PUSH2 0x145 SWAP2 SWAP1 PUSH2 0x8BA JUMP JUMPDEST PUSH2 0x347 JUMP JUMPDEST STOP JUMPDEST PUSH2 0x154 PUSH2 0x3CB JUMP JUMPDEST PUSH1 0x1 PUSH1 0x40 MLOAD DUP1 PUSH1 0x80 ADD PUSH1 0x40 MSTORE DUP1 DUP8 DUP8 DUP1 DUP1 PUSH1 0x1F ADD PUSH1 0x20 DUP1 SWAP2 DIV MUL PUSH1 0x20 ADD PUSH1 0x40 MLOAD SWAP1 DUP2 ADD PUSH1 0x40 MSTORE DUP1 SWAP4 SWAP3 SWAP2 SWAP1 DUP2 DUP2 MSTORE PUSH1 0x20 ADD DUP4 DUP4 DUP1 DUP3 DUP5 CALLDATACOPY PUSH0 DUP2 DUP5 ADD MSTORE PUSH1 0x1F NOT PUSH1 0x1F DUP3 ADD AND SWAP1 POP DUP1 DUP4 ADD SWAP3 POP POP POP POP POP POP POP DUP2 MSTORE PUSH1 0x20 ADD DUP6 DUP2 MSTORE PUSH1 0x20 ADD DUP5 DUP2 MSTORE PUSH1 0x20 ADD DUP4 DUP2 MSTORE POP SWAP1 DUP1 PUSH1 0x1 DUP2 SLOAD ADD DUP1 DUP3 SSTORE DUP1 SWAP2 POP POP PUSH1 0x1 SWAP1 SUB SWAP1 PUSH0 MSTORE PUSH1 0x20 PUSH0 KECCAK256 SWAP1 PUSH1 0x4 MUL ADD PUSH0 SWAP1 SWAP2 SWAP1 SWAP2 SWAP1 SWAP2 POP PUSH0 DUP3 ADD MLOAD DUP2 PUSH0 ADD SWAP1 DUP2 PUSH2 0x1F3 SWAP2 SWAP1 PUSH2 0xB0F JUMP JUMPDEST POP PUSH1 0x20 DUP3 ADD MLOAD DUP2 PUSH1 0x1 ADD SSTORE PUSH1 0x40 DUP3 ADD MLOAD DUP2 PUSH1 0x2 ADD SSTORE PUSH1 0x60 DUP3 ADD MLOAD DUP2 PUSH1 0x3 ADD SSTORE POP POP POP POP POP POP POP JUMP JUMPDEST PUSH0 PUSH2 0x224 PUSH2 0x3CB JUMP JUMPDEST TIMESTAMP SWAP1 POP SWAP1 JUMP JUMPDEST PUSH2 0x232 PUSH2 0x3CB JUMP JUMPDEST PUSH2 0x23B PUSH0 PUSH2 0x452 JUMP JUMPDEST JUMP JUMPDEST PUSH1 0x1 DUP2 DUP2 SLOAD DUP2 LT PUSH2 0x24C JUMPI PUSH0 DUP1 REVERT JUMPDEST SWAP1 PUSH0 MSTORE PUSH1 0x20 PUSH0 KECCAK256 SWAP1 PUSH1 0x4 MUL ADD PUSH0 SWAP2 POP SWAP1 POP DUP1 PUSH0 ADD DUP1 SLOAD PUSH2 0x26B SWAP1 PUSH2 0x93F JUMP JUMPDEST DUP1 PUSH1 0x1F ADD PUSH1 0x20 DUP1 SWAP2 DIV MUL PUSH1 0x20 ADD PUSH1 0x40 MLOAD SWAP1 DUP2 ADD PUSH1 0x40 MSTORE DUP1 SWAP3 SWAP2 SWAP1 DUP2 DUP2 MSTORE PUSH1 0x20 ADD DUP3 DUP1 SLOAD PUSH2 0x297 SWAP1 PUSH2 0x93F JUMP JUMPDEST DUP1 ISZERO PUSH2 0x2E2 JUMPI DUP1 PUSH1 0x1F LT PUSH2 0x2B9 JUMPI PUSH2 0x100 DUP1 DUP4 SLOAD DIV MUL DUP4 MSTORE SWAP2 PUSH1 0x20 ADD SWAP2 PUSH2 0x2E2 JUMP JUMPDEST DUP3 ADD SWAP2 SWAP1 PUSH0 MSTORE PUSH1 0x20 PUSH0 KECCAK256 SWAP1 JUMPDEST DUP2 SLOAD DUP2 MSTORE SWAP1 PUSH1 0x1 ADD SWAP1 PUSH1 0x20 ADD DUP1 DUP4 GT PUSH2 0x2C5 JUMPI DUP3 SWAP1 SUB PUSH1 0x1F AND DUP3 ADD SWAP2 JUMPDEST POP POP POP POP POP SWAP1 DUP1 PUSH1 0x1 ADD SLOAD SWAP1 DUP1 PUSH1 0x2 ADD SLOAD SWAP1 DUP1 PUSH1 0x3 ADD SLOAD SWAP1 POP DUP5 JUMP JUMPDEST PUSH2 0x306 PUSH2 0x3CB JUMP JUMPDEST PUSH0 PUSH2 0x310 DUP4 PUSH2 0x513 JUMP JUMPDEST SWAP1 POP DUP2 DUP2 PUSH1 0x3 ADD DUP2 SWAP1 SSTORE POP POP POP POP JUMP JUMPDEST PUSH0 PUSH0 PUSH0 SWAP1 SLOAD SWAP1 PUSH2 0x100 EXP SWAP1 DIV PUSH20 0xFFFFFFFFFFFFFFFFFFFFFFFFFFFFFFFFFFFFFFFF AND SWAP1 POP SWAP1 JUMP JUMPDEST PUSH2 0x34F PUSH2 0x3CB JUMP JUMPDEST PUSH0 PUSH20 0xFFFFFFFFFFFFFFFFFFFFFFFFFFFFFFFFFFFFFFFF AND DUP2 PUSH20 0xFFFFFFFFFFFFFFFFFFFFFFFFFFFFFFFFFFFFFFFF AND SUB PUSH2 0x3BF JUMPI PUSH0 PUSH1 0x40 MLOAD PUSH32 0x1E4FBDF700000000000000000000000000000000000000000000000000000000 DUP2 MSTORE PUSH1 0x4 ADD PUSH2 0x3B6 SWAP2 SWAP1 PUSH2 0x877 JUMP JUMPDEST PUSH1 0x40 MLOAD DUP1 SWAP2 SUB SWAP1 REVERT JUMPDEST PUSH2 0x3C8 DUP2 PUSH2 0x452 JUMP JUMPDEST POP JUMP JUMPDEST PUSH2 0x3D3 PUSH2 0x5C6 JUMP JUMPDEST PUSH20 0xFFFFFFFFFFFFFFFFFFFFFFFFFFFFFFFFFFFFFFFF AND PUSH2 0x3F1 PUSH2 0x320 JUMP JUMPDEST PUSH20 0xFFFFFFFFFFFFFFFFFFFFFFFFFFFFFFFFFFFFFFFF AND EQ PUSH2 0x450 JUMPI PUSH2 0x414 PUSH2 0x5C6 JUMP JUMPDEST PUSH1 0x40 MLOAD PUSH32 0x118CDAA700000000000000000000000000000000000000000000000000000000 DUP2 MSTORE PUSH1 0x4 ADD PUSH2 0x447 SWAP2 SWAP1 PUSH2 0x877 JUMP JUMPDEST PUSH1 0x40 MLOAD DUP1 SWAP2 SUB SWAP1 REVERT JUMPDEST JUMP JUMPDEST PUSH0 PUSH0 PUSH0 SWAP1 SLOAD SWAP1 PUSH2 0x100 EXP SWAP1 DIV PUSH20 0xFFFFFFFFFFFFFFFFFFFFFFFFFFFFFFFFFFFFFFFF AND SWAP1 POP DUP2 PUSH0 PUSH0 PUSH2 0x100 EXP DUP2 SLOAD DUP2 PUSH20 0xFFFFFFFFFFFFFFFFFFFFFFFFFFFFFFFFFFFFFFFF MUL NOT AND SWAP1 DUP4 PUSH20 0xFFFFFFFFFFFFFFFFFFFFFFFFFFFFFFFFFFFFFFFF AND MUL OR SWAP1 SSTORE POP DUP2 PUSH20 0xFFFFFFFFFFFFFFFFFFFFFFFFFFFFFFFFFFFFFFFF AND DUP2 PUSH20 0xFFFFFFFFFFFFFFFFFFFFFFFFFFFFFFFFFFFFFFFF AND PUSH32 0x8BE0079C531659141344CD1FD0A4F28419497F9722A3DAAFE3B4186F6B6457E0 PUSH1 0x40 MLOAD PUSH1 0x40 MLOAD DUP1 SWAP2 SUB SWAP1 LOG3 POP POP JUMP JUMPDEST PUSH0 PUSH0 PUSH0 SWAP1 POP JUMPDEST PUSH1 0x1 DUP1 SLOAD SWAP1 POP DUP2 LT ISZERO PUSH2 0x585 JUMPI DUP3 PUSH1 0x1 DUP3 DUP2 SLOAD DUP2 LT PUSH2 0x53B JUMPI PUSH2 0x53A PUSH2 0xBDE JUMP JUMPDEST JUMPDEST SWAP1 PUSH0 MSTORE PUSH1 0x20 PUSH0 KECCAK256 SWAP1 PUSH1 0x4 MUL ADD PUSH1 0x2 ADD SLOAD SUB PUSH2 0x578 JUMPI PUSH1 0x1 DUP2 DUP2 SLOAD DUP2 LT PUSH2 0x564 JUMPI PUSH2 0x563 PUSH2 0xBDE JUMP JUMPDEST JUMPDEST SWAP1 PUSH0 MSTORE PUSH1 0x20 PUSH0 KECCAK256 SWAP1 PUSH1 0x4 MUL ADD SWAP2 POP POP PUSH2 0x5C1 JUMP JUMPDEST DUP1 DUP1 PUSH1 0x1 ADD SWAP2 POP POP PUSH2 0x519 JUMP JUMPDEST POP PUSH1 0x40 MLOAD PUSH32 0x8C379A000000000000000000000000000000000000000000000000000000000 DUP2 MSTORE PUSH1 0x4 ADD PUSH2 0x5B8 SWAP1 PUSH2 0xC55 JUMP JUMPDEST PUSH1 0x40 MLOAD DUP1 SWAP2 SUB SWAP1 REVERT JUMPDEST SWAP2 SWAP1 POP JUMP JUMPDEST PUSH0 CALLER SWAP1 POP SWAP1 JUMP JUMPDEST PUSH0 PUSH0 REVERT JUMPDEST PUSH0 PUSH0 REVERT JUMPDEST PUSH0 PUSH0 REVERT JUMPDEST PUSH0 PUSH0 REVERT JUMPDEST PUSH0 PUSH0 REVERT JUMPDEST PUSH0 PUSH0 DUP4 PUSH1 0x1F DUP5 ADD SLT PUSH2 0x5F6 JUMPI PUSH2 0x5F5 PUSH2 0x5D5 JUMP JUMPDEST JUMPDEST DUP3 CALLDATALOAD SWAP1 POP PUSH8 0xFFFFFFFFFFFFFFFF DUP2 GT ISZERO PUSH2 0x613 JUMPI PUSH2 0x612 PUSH2 0x5D9 JUMP JUMPDEST JUMPDEST PUSH1 0x20 DUP4 ADD SWAP2 POP DUP4 PUSH1 0x1 DUP3 MUL DUP4 ADD GT ISZERO PUSH2 0x62F JUMPI PUSH2 0x62E PUSH2 0x5DD JUMP JUMPDEST JUMPDEST SWAP3 POP SWAP3 SWAP1 POP JUMP JUMPDEST PUSH0 DUP2 SWAP1 POP SWAP2 SWAP1 POP JUMP JUMPDEST PUSH2 0x648 DUP2 PUSH2 0x636 JUMP JUMPDEST DUP2 EQ PUSH2 0x652 JUMPI PUSH0 PUSH0 REVERT JUMPDEST POP JUMP JUMPDEST PUSH0 DUP2 CALLDATALOAD SWAP1 POP PUSH2 0x663 DUP2 PUSH2 0x63F JUMP JUMPDEST SWAP3 SWAP2 POP POP JUMP JUMPDEST PUSH0 PUSH0 PUSH0 PUSH0 PUSH0 PUSH1 0x80 DUP7 DUP9 SUB SLT ISZERO PUSH2 0x682 JUMPI PUSH2 0x681 PUSH2 0x5CD JUMP JUMPDEST JUMPDEST PUSH0 DUP7 ADD CALLDATALOAD PUSH8 0xFFFFFFFFFFFFFFFF DUP2 GT ISZERO PUSH2 0x69F JUMPI PUSH2 0x69E PUSH2 0x5D1 JUMP JUMPDEST JUMPDEST PUSH2 0x6AB DUP9 DUP3 DUP10 ADD PUSH2 0x5E1 JUMP JUMPDEST SWAP6 POP SWAP6 POP POP PUSH1 0x20 PUSH2 0x6BE DUP9 DUP3 DUP10 ADD PUSH2 0x655 JUMP JUMPDEST SWAP4 POP POP PUSH1 0x40 PUSH2 0x6CF DUP9 DUP3 DUP10 ADD PUSH2 0x655 JUMP JUMPDEST SWAP3 POP POP PUSH1 0x60 PUSH2 0x6E0 DUP9 DUP3 DUP10 ADD PUSH2 0x655 JUMP JUMPDEST SWAP2 POP POP SWAP3 SWAP6 POP SWAP3 SWAP6 SWAP1 SWAP4 POP JUMP JUMPDEST PUSH2 0x6F6 DUP2 PUSH2 0x636 JUMP JUMPDEST DUP3 MSTORE POP POP JUMP JUMPDEST PUSH0 PUSH1 0x20 DUP3 ADD SWAP1 POP PUSH2 0x70F PUSH0 DUP4 ADD DUP5 PUSH2 0x6ED JUMP JUMPDEST SWAP3 SWAP2 POP POP JUMP JUMPDEST PUSH0 PUSH1 0x20 DUP3 DUP5 SUB SLT ISZERO PUSH2 0x72A JUMPI PUSH2 0x729 PUSH2 0x5CD JUMP JUMPDEST JUMPDEST PUSH0 PUSH2 0x737 DUP5 DUP3 DUP6 ADD PUSH2 0x655 JUMP JUMPDEST SWAP2 POP POP SWAP3 SWAP2 POP POP JUMP JUMPDEST PUSH0 DUP2 MLOAD SWAP1 POP SWAP2 SWAP1 POP JUMP JUMPDEST PUSH0 DUP3 DUP3 MSTORE PUSH1 0x20 DUP3 ADD SWAP1 POP SWAP3 SWAP2 POP POP JUMP JUMPDEST DUP3 DUP2 DUP4 MCOPY PUSH0 DUP4 DUP4 ADD MSTORE POP POP POP JUMP JUMPDEST PUSH0 PUSH1 0x1F NOT PUSH1 0x1F DUP4 ADD AND SWAP1 POP SWAP2 SWAP1 POP JUMP JUMPDEST PUSH0 PUSH2 0x782 DUP3 PUSH2 0x740 JUMP JUMPDEST PUSH2 0x78C DUP2 DUP6 PUSH2 0x74A JUMP JUMPDEST SWAP4 POP PUSH2 0x79C DUP2 DUP6 PUSH1 0x20 DUP7 ADD PUSH2 0x75A JUMP JUMPDEST PUSH2 0x7A5 DUP2 PUSH2 0x768 JUMP JUMPDEST DUP5 ADD SWAP2 POP POP SWAP3 SWAP2 POP POP JUMP JUMPDEST PUSH0 PUSH1 0x80 DUP3 ADD SWAP1 POP DUP2 DUP2 SUB PUSH0 DUP4 ADD MSTORE PUSH2 0x7C8 DUP2 DUP8 PUSH2 0x778 JUMP JUMPDEST SWAP1 POP PUSH2 0x7D7 PUSH1 0x20 DUP4 ADD DUP7 PUSH2 0x6ED JUMP JUMPDEST PUSH2 0x7E4 PUSH1 0x40 DUP4 ADD DUP6 PUSH2 0x6ED JUMP JUMPDEST PUSH2 0x7F1 PUSH1 0x60 DUP4 ADD DUP5 PUSH2 0x6ED JUMP JUMPDEST SWAP6 SWAP5 POP POP POP POP POP JUMP JUMPDEST PUSH0 PUSH0 PUSH1 0x40 DUP4 DUP6 SUB SLT ISZERO PUSH2 0x810 JUMPI PUSH2 0x80F PUSH2 0x5CD JUMP JUMPDEST JUMPDEST PUSH0 PUSH2 0x81D DUP6 DUP3 DUP7 ADD PUSH2 0x655 JUMP JUMPDEST SWAP3 POP POP PUSH1 0x20 PUSH2 0x82E DUP6 DUP3 DUP7 ADD PUSH2 0x655 JUMP JUMPDEST SWAP2 POP POP SWAP3 POP SWAP3 SWAP1 POP JUMP JUMPDEST PUSH0 PUSH20 0xFFFFFFFFFFFFFFFFFFFFFFFFFFFFFFFFFFFFFFFF DUP3 AND SWAP1 POP SWAP2 SWAP1 POP JUMP JUMPDEST PUSH0 PUSH2 0x861 DUP3 PUSH2 0x838 JUMP JUMPDEST SWAP1 POP SWAP2 SWAP1 POP JUMP JUMPDEST PUSH2 0x871 DUP2 PUSH2 0x857 JUMP JUMPDEST DUP3 MSTORE POP POP JUMP JUMPDEST PUSH0 PUSH1 0x20 DUP3 ADD SWAP1 POP PUSH2 0x88A PUSH0 DUP4 ADD DUP5 PUSH2 0x868 JUMP JUMPDEST SWAP3 SWAP2 POP POP JUMP JUMPDEST PUSH2 0x899 DUP2 PUSH2 0x857 JUMP JUMPDEST DUP2 EQ PUSH2 0x8A3 JUMPI PUSH0 PUSH0 REVERT JUMPDEST POP JUMP JUMPDEST PUSH0 DUP2 CALLDATALOAD SWAP1 POP PUSH2 0x8B4 DUP2 PUSH2 0x890 JUMP JUMPDEST SWAP3 SWAP2 POP POP JUMP JUMPDEST PUSH0 PUSH1 0x20 DUP3 DUP5 SUB SLT ISZERO PUSH2 0x8CF JUMPI PUSH2 0x8CE PUSH2 0x5CD JUMP JUMPDEST JUMPDEST PUSH0 PUSH2 0x8DC DUP5 DUP3 DUP6 ADD PUSH2 0x8A6 JUMP JUMPDEST SWAP2 POP POP SWAP3 SWAP2 POP POP JUMP JUMPDEST PUSH32 0x4E487B7100000000000000000000000000000000000000000000000000000000 PUSH0 MSTORE PUSH1 0x41 PUSH1 0x4 MSTORE PUSH1 0x24 PUSH0 REVERT JUMPDEST PUSH32 0x4E487B7100000000000000000000000000000000000000000000000000000000 PUSH0 MSTORE PUSH1 0x22 PUSH1 0x4 MSTORE PUSH1 0x24 PUSH0 REVERT JUMPDEST PUSH0 PUSH1 0x2 DUP3 DIV SWAP1 POP PUSH1 0x1 DUP3 AND DUP1 PUSH2 0x956 JUMPI PUSH1 0x7F DUP3 AND SWAP2 POP JUMPDEST PUSH1 0x20 DUP3 LT DUP2 SUB PUSH2 0x969 JUMPI PUSH2 0x968 PUSH2 0x912 JUMP JUMPDEST JUMPDEST POP SWAP2 SWAP1 POP JUMP JUMPDEST PUSH0 DUP2 SWAP1 POP DUP2 PUSH0 MSTORE PUSH1 0x20 PUSH0 KECCAK256 SWAP1 POP SWAP2 SWAP1 POP JUMP JUMPDEST PUSH0 PUSH1 0x20 PUSH1 0x1F DUP4 ADD DIV SWAP1 POP SWAP2 SWAP1 POP JUMP JUMPDEST PUSH0 DUP3 DUP3 SHL SWAP1 POP SWAP3 SWAP2 POP POP JUMP JUMPDEST PUSH0 PUSH1 0x8 DUP4 MUL PUSH2 0x9CB PUSH32 0xFFFFFFFFFFFFFFFFFFFFFFFFFFFFFFFFFFFFFFFFFFFFFFFFFFFFFFFFFFFFFFFF DUP3 PUSH2 0x990 JUMP JUMPDEST PUSH2 0x9D5 DUP7 DUP4 PUSH2 0x990 JUMP JUMPDEST SWAP6 POP DUP1 NOT DUP5 AND SWAP4 POP DUP1 DUP7 AND DUP5 OR SWAP3 POP POP POP SWAP4 SWAP3 POP POP POP JUMP JUMPDEST PUSH0 DUP2 SWAP1 POP SWAP2 SWAP1 POP JUMP JUMPDEST PUSH0 PUSH2 0xA10 PUSH2 0xA0B PUSH2 0xA06 DUP5 PUSH2 0x636 JUMP JUMPDEST PUSH2 0x9ED JUMP JUMPDEST PUSH2 0x636 JUMP JUMPDEST SWAP1 POP SWAP2 SWAP1 POP JUMP JUMPDEST PUSH0 DUP2 SWAP1 POP SWAP2 SWAP1 POP JUMP JUMPDEST PUSH2 0xA29 DUP4 PUSH2 0x9F6 JUMP JUMPDEST PUSH2 0xA3D PUSH2 0xA35 DUP3 PUSH2 0xA17 JUMP JUMPDEST DUP5 DUP5 SLOAD PUSH2 0x99C JUMP JUMPDEST DUP3 SSTORE POP POP POP POP JUMP JUMPDEST PUSH0 PUSH0 SWAP1 POP SWAP1 JUMP JUMPDEST PUSH2 0xA54 PUSH2 0xA45 JUMP JUMPDEST PUSH2 0xA5F DUP2 DUP5 DUP5 PUSH2 0xA20 JUMP JUMPDEST POP POP POP JUMP JUMPDEST JUMPDEST DUP2 DUP2 LT ISZERO PUSH2 0xA82 JUMPI PUSH2 0xA77 PUSH0 DUP3 PUSH2 0xA4C JUMP JUMPDEST PUSH1 0x1 DUP2 ADD SWAP1 POP PUSH2 0xA65 JUMP JUMPDEST POP POP JUMP JUMPDEST PUSH1 0x1F DUP3 GT ISZERO PUSH2 0xAC7 JUMPI PUSH2 0xA98 DUP2 PUSH2 0x96F JUMP JUMPDEST PUSH2 0xAA1 DUP5 PUSH2 0x981 JUMP JUMPDEST DUP2 ADD PUSH1 0x20 DUP6 LT ISZERO PUSH2 0xAB0 JUMPI DUP2 SWAP1 POP JUMPDEST PUSH2 0xAC4 PUSH2 0xABC DUP6 PUSH2 0x981 JUMP JUMPDEST DUP4 ADD DUP3 PUSH2 0xA64 JUMP JUMPDEST POP POP JUMPDEST POP POP POP JUMP JUMPDEST PUSH0 DUP3 DUP3 SHR SWAP1 POP SWAP3 SWAP2 POP POP JUMP JUMPDEST PUSH0 PUSH2 0xAE7 PUSH0 NOT DUP5 PUSH1 0x8 MUL PUSH2 0xACC JUMP JUMPDEST NOT DUP1 DUP4 AND SWAP2 POP POP SWAP3 SWAP2 POP POP JUMP JUMPDEST PUSH0 PUSH2 0xAFF DUP4 DUP4 PUSH2 0xAD8 JUMP JUMPDEST SWAP2 POP DUP3 PUSH1 0x2 MUL DUP3 OR SWAP1 POP SWAP3 SWAP2 POP POP JUMP JUMPDEST PUSH2 0xB18 DUP3 PUSH2 0x740 JUMP JUMPDEST PUSH8 0xFFFFFFFFFFFFFFFF DUP2 GT ISZERO PUSH2 0xB31 JUMPI PUSH2 0xB30 PUSH2 0x8E5 JUMP JUMPDEST JUMPDEST PUSH2 0xB3B DUP3 SLOAD PUSH2 0x93F JUMP JUMPDEST PUSH2 0xB46 DUP3 DUP3 DUP6 PUSH2 0xA86 JUMP JUMPDEST PUSH0 PUSH1 0x20 SWAP1 POP PUSH1 0x1F DUP4 GT PUSH1 0x1 DUP2 EQ PUSH2 0xB77 JUMPI PUSH0 DUP5 ISZERO PUSH2 0xB65 JUMPI DUP3 DUP8 ADD MLOAD SWAP1 POP JUMPDEST PUSH2 0xB6F DUP6 DUP3 PUSH2 0xAF4 JUMP JUMPDEST DUP7 SSTORE POP PUSH2 0xBD6 JUMP JUMPDEST PUSH1 0x1F NOT DUP5 AND PUSH2 0xB85 DUP7 PUSH2 0x96F JUMP JUMPDEST PUSH0 JUMPDEST DUP3 DUP2 LT ISZERO PUSH2 0xBAC JUMPI DUP5 DUP10 ADD MLOAD DUP3 SSTORE PUSH1 0x1 DUP3 ADD SWAP2 POP PUSH1 0x20 DUP6 ADD SWAP5 POP PUSH1 0x20 DUP2 ADD SWAP1 POP PUSH2 0xB87 JUMP JUMPDEST DUP7 DUP4 LT ISZERO PUSH2 0xBC9 JUMPI DUP5 DUP10 ADD MLOAD PUSH2 0xBC5 PUSH1 0x1F DUP10 AND DUP3 PUSH2 0xAD8 JUMP JUMPDEST DUP4 SSTORE POP JUMPDEST PUSH1 0x1 PUSH1 0x2 DUP9 MUL ADD DUP9 SSTORE POP POP POP JUMPDEST POP POP POP POP POP POP JUMP JUMPDEST PUSH32 0x4E487B7100000000000000000000000000000000000000000000000000000000 PUSH0 MSTORE PUSH1 0x32 PUSH1 0x4 MSTORE PUSH1 0x24 PUSH0 REVERT JUMPDEST PUSH32 0x50726F64756374206E6F7220666F756E64000000000000000000000000000000 PUSH0 DUP3 ADD MSTORE POP JUMP JUMPDEST PUSH0 PUSH2 0xC3F PUSH1 0x11 DUP4 PUSH2 0x74A JUMP JUMPDEST SWAP2 POP PUSH2 0xC4A DUP3 PUSH2 0xC0B JUMP JUMPDEST PUSH1 0x20 DUP3 ADD SWAP1 POP SWAP2 SWAP1 POP JUMP JUMPDEST PUSH0 PUSH1 0x20 DUP3 ADD SWAP1 POP DUP2 DUP2 SUB PUSH0 DUP4 ADD MSTORE PUSH2 0xC6C DUP2 PUSH2 0xC33 JUMP JUMPDEST SWAP1 POP SWAP2 SWAP1 POP JUMP INVALID LOG2 PUSH5 0x6970667358 0x22 SLT KECCAK256 SIGNEXTEND PUSH24 0xB260808597BA485A5FA5AAD1A3E70D6B8BE6F27E164E9D5 0xD0 0xDC EQ SLOAD CALLDATACOPY SWAP12 PUSH5 0x736F6C6343 STOP ADDMOD 0x1F STOP CALLER "
		},
		"gasEstimates": {
			"creation": {
				"codeDepositCost": "648200",
				"executionCost": "infinite",
				"totalCost": "infinite"
			},
			"external": {
				"addProduct(string,uint256,uint256,uint256)": "infinite",
				"getTimestamp()": "infinite",
				"owner()": "2558",
				"products(uint256)": "infinite",
				"renounceOwnership()": "infinite",
				"transferOwnership(address)": "infinite",
				"updatePrice(uint256,uint256)": "infinite"
			},
			"internal": {
				"findProduct(uint256)": "infinite"
			}
		},
		"methodIdentifiers": {
			"addProduct(string,uint256,uint256,uint256)": "094455c4",
			"getTimestamp()": "188ec356",
			"owner()": "8da5cb5b",
			"products(uint256)": "7acc0b20",
			"renounceOwnership()": "715018a6",
			"transferOwnership(address)": "f2fde38b",
			"updatePrice(uint256,uint256)": "82367b2d"
		}
	},
	"abi": [
		{
			"inputs": [],
			"stateMutability": "nonpayable",
			"type": "constructor"
		},
		{
			"inputs": [
				{
					"internalType": "address",
					"name": "owner",
					"type": "address"
				}
			],
			"name": "OwnableInvalidOwner",
			"type": "error"
		},
		{
			"inputs": [
				{
					"internalType": "address",
					"name": "account",
					"type": "address"
				}
			],
			"name": "OwnableUnauthorizedAccount",
			"type": "error"
		},
		{
			"anonymous": false,
			"inputs": [
				{
					"indexed": true,
					"internalType": "address",
					"name": "previousOwner",
					"type": "address"
				},
				{
					"indexed": true,
					"internalType": "address",
					"name": "newOwner",
					"type": "address"
				}
			],
			"name": "OwnershipTransferred",
			"type": "event"
		},
		{
			"inputs": [
				{
					"internalType": "string",
					"name": "_name",
					"type": "string"
				},
				{
					"internalType": "uint256",
					"name": "_stock",
					"type": "uint256"
				},
				{
					"internalType": "uint256",
					"name": "_id",
					"type": "uint256"
				},
				{
					"internalType": "uint256",
					"name": "_price",
					"type": "uint256"
				}
			],
			"name": "addProduct",
			"outputs": [],
			"stateMutability": "nonpayable",
			"type": "function"
		},
		{
			"inputs": [],
			"name": "getTimestamp",
			"outputs": [
				{
					"internalType": "uint256",
					"name": "",
					"type": "uint256"
				}
			],
			"stateMutability": "view",
			"type": "function"
		},
		{
			"inputs": [],
			"name": "owner",
			"outputs": [
				{
					"internalType": "address",
					"name": "",
					"type": "address"
				}
			],
			"stateMutability": "view",
			"type": "function"
		},
		{
			"inputs": [
				{
					"internalType": "uint256",
					"name": "",
					"type": "uint256"
				}
			],
			"name": "products",
			"outputs": [
				{
					"internalType": "string",
					"name": "name",
					"type": "string"
				},
				{
					"internalType": "uint256",
					"name": "stock",
					"type": "uint256"
				},
				{
					"internalType": "uint256",
					"name": "id",
					"type": "uint256"
				},
				{
					"internalType": "uint256",
					"name": "price",
					"type": "uint256"
				}
			],
			"stateMutability": "view",
			"type": "function"
		},
		{
			"inputs": [],
			"name": "renounceOwnership",
			"outputs": [],
			"stateMutability": "nonpayable",
			"type": "function"
		},
		{
			"inputs": [
				{
					"internalType": "address",
					"name": "newOwner",
					"type": "address"
				}
			],
			"name": "transferOwnership",
			"outputs": [],
			"stateMutability": "nonpayable",
			"type": "function"
		},
		{
			"inputs": [
				{
					"internalType": "uint256",
					"name": "_id",
					"type": "uint256"
				},
				{
					"internalType": "uint256",
					"name": "_price",
					"type": "uint256"
				}
			],
			"name": "updatePrice",
			"outputs": [],
			"stateMutability": "nonpayable",
			"type": "function"
		}
	]
}